{
    "contractName": "TaskManager",
    "abi": [
        {
            "inputs": [
                {
                    "internalType": "address",
                    "name": "_task",
                    "type": "address"
                },
                {
                    "internalType": "string",
                    "name": "_device",
                    "type": "string"
                }
            ],
            "name": "accept",
            "outputs": [],
            "stateMutability": "nonpayable",
            "type": "function"
        },
        {
            "inputs": [
                {
                    "internalType": "uint256",
                    "name": "reputation",
                    "type": "uint256"
                },
                {
                    "internalType": "uint256",
                    "name": "reward",
                    "type": "uint256"
                },
                {
                    "internalType": "string",
                    "name": "encryption_key",
                    "type": "string"
                },
                {
                    "internalType": "uint256",
                    "name": "timelimit",
                    "type": "uint256"
                }
            ],
            "name": "add",
            "outputs": [],
            "stateMutability": "nonpayable",
            "type": "function"
        },
        {
            "inputs": [
                {
                    "internalType": "address",
                    "name": "_task",
                    "type": "address"
                },
                {
                    "internalType": "string",
                    "name": "_key",
                    "type": "string"
                },
                {
                    "internalType": "string",
                    "name": "_ipfs",
                    "type": "string"
                }
            ],
            "name": "complete",
            "outputs": [],
            "stateMutability": "nonpayable",
            "type": "function"
        },
        {
            "inputs": [],
            "name": "device_manager",
            "outputs": [
                {
                    "internalType": "contract DeviceManager",
                    "name": "",
                    "type": "address"
                }
            ],
            "stateMutability": "view",
            "type": "function"
        },
        {
            "inputs": [
                {
                    "internalType": "address",
                    "name": "_task",
                    "type": "address"
                }
            ],
            "name": "exists",
            "outputs": [
                {
                    "internalType": "bool",
                    "name": "",
                    "type": "bool"
                }
            ],
            "stateMutability": "view",
            "type": "function"
        },
        {
            "inputs": [],
            "name": "fee",
            "outputs": [
                {
                    "internalType": "uint256",
                    "name": "",
                    "type": "uint256"
                }
            ],
            "stateMutability": "view",
            "type": "function"
        },
        {
            "inputs": [],
            "name": "fetch_open",
            "outputs": [
                {
                    "internalType": "contract Task[]",
                    "name": "",
                    "type": "address[]"
                }
            ],
            "stateMutability": "view",
            "type": "function"
        },
        {
            "inputs": [
                {
                    "internalType": "address",
                    "name": "task",
                    "type": "address"
                }
            ],
            "name": "fetch_result",
            "outputs": [
                {
                    "components": [
                        {
                            "internalType": "string",
                            "name": "key",
                            "type": "string"
                        },
                        {
                            "internalType": "string",
                            "name": "ipfs",
                            "type": "string"
                        }
                    ],
                    "internalType": "struct TaskManager.result",
                    "name": "",
                    "type": "tuple"
                }
            ],
            "stateMutability": "view",
            "type": "function"
        },
        {
            "inputs": [
                {
                    "internalType": "address",
                    "name": "task",
                    "type": "address"
                }
            ],
            "name": "fetch_task",
            "outputs": [
                {
                    "internalType": "contract Task",
                    "name": "",
                    "type": "address"
                }
            ],
            "stateMutability": "view",
            "type": "function"
        },
        {
            "inputs": [
                {
                    "internalType": "uint256",
                    "name": "_fee",
                    "type": "uint256"
                },
                {
                    "internalType": "address",
                    "name": "_user_manager",
                    "type": "address"
                },
                {
                    "internalType": "address",
                    "name": "_device_manager",
                    "type": "address"
                },
                {
                    "internalType": "address",
                    "name": "_token_manager",
                    "type": "address"
                }
            ],
            "name": "init",
            "outputs": [],
            "stateMutability": "nonpayable",
            "type": "function"
        },
        {
            "inputs": [],
            "name": "initialized",
            "outputs": [
                {
                    "internalType": "bool",
                    "name": "",
                    "type": "bool"
                }
            ],
            "stateMutability": "view",
            "type": "function"
        },
        {
            "inputs": [
                {
                    "internalType": "uint256",
                    "name": "",
                    "type": "uint256"
                }
            ],
            "name": "open",
            "outputs": [
                {
                    "internalType": "contract Task",
                    "name": "",
                    "type": "address"
                }
            ],
            "stateMutability": "view",
            "type": "function"
        },
        {
            "inputs": [
                {
                    "internalType": "address",
                    "name": "_task",
                    "type": "address"
                }
            ],
            "name": "release",
            "outputs": [],
            "stateMutability": "nonpayable",
            "type": "function"
        },
        {
            "inputs": [
                {
                    "internalType": "address",
                    "name": "",
                    "type": "address"
                }
            ],
            "name": "results",
            "outputs": [
                {
                    "internalType": "string",
                    "name": "key",
                    "type": "string"
                },
                {
                    "internalType": "string",
                    "name": "ipfs",
                    "type": "string"
                }
            ],
            "stateMutability": "view",
            "type": "function"
        },
        {
            "inputs": [
                {
                    "internalType": "address",
                    "name": "",
                    "type": "address"
                }
            ],
            "name": "tasks",
            "outputs": [
                {
                    "internalType": "contract Task",
                    "name": "",
                    "type": "address"
                }
            ],
            "stateMutability": "view",
            "type": "function"
        },
        {
            "inputs": [],
            "name": "token_manager",
            "outputs": [
                {
                    "internalType": "contract TokenManager",
                    "name": "",
                    "type": "address"
                }
            ],
            "stateMutability": "view",
            "type": "function"
        },
        {
            "inputs": [],
            "name": "user_manager",
            "outputs": [
                {
                    "internalType": "contract UserManager",
                    "name": "",
                    "type": "address"
                }
            ],
            "stateMutability": "view",
            "type": "function"
        }
    ],
    "bytecode": "60806040526004805460ff1916905534801561001a57600080fd5b50612fbb8061002a6000396000f3fe60806040523480156200001157600080fd5b5060043610620001245760003560e01c80639eeb67c411620000b1578063dc890da9116200007b578063dc890da91462000243578063ddca3f43146200025a578063ef378f621462000273578063f6a3d24e146200029a578063f772282c14620002b15762000124565b80639eeb67c414620001ff578063b7f83f8d1462000209578063d4c694171462000213578063d91cf5de146200022a5762000124565b8063690e7c0911620000f3578063690e7c09146200019457806377c237fd14620001ab5780638d9ff2cf14620001c25780639ea2bdaf14620001e85762000124565b8063158ef93e146200012957806318807240146200014b57806319165587146200016457806319a42663146200017b575b600080fd5b62000133620002c8565b6040516200014291906200249c565b60405180910390f35b620001626200015c36600462002146565b620002d1565b005b620001626200017536600462002101565b62000b2b565b620001856200104c565b604051620001429190620023ca565b62000185620001a5366004620022b7565b6200105b565b62000185620001bc36600462002101565b62001083565b620001d9620001d336600462002101565b6200109e565b60405162000142919062002732565b62000162620001f93660046200219a565b6200120b565b62000185620019cb565b62000185620019df565b620001626200022436600462002342565b620019ee565b6200023462001ce7565b6040516200014291906200244d565b6200016262000254366004620022e9565b62001d4c565b6200026462001dd0565b604051620001429190620024a7565b6200028a6200028436600462002101565b62001dd6565b60405162000142929190620024c5565b62000133620002ab36600462002101565b62001f18565b62000185620002c236600462002101565b62001f4d565b60045460ff1681565b620002dc8262001f18565b620003045760405162461bcd60e51b8152600401620002fb9062002705565b60405180910390fd5b60055460405163130d191f60e11b81526001600160a01b039091169063261a323e9062000336908490600401620024b0565b60206040518083038186803b1580156200034f57600080fd5b505afa15801562000364573d6000803e3d6000fd5b505050506040513d601f19601f820116820180604052508101906200038a919062002216565b620003a95760405162461bcd60e51b8152600401620002fb90620025fd565b6000620003b68362001f4d565b9050806001600160a01b031663cf3090126040518163ffffffff1660e01b815260040160206040518083038186803b158015620003f257600080fd5b505afa15801562000407573d6000803e3d6000fd5b505050506040513d601f19601f820116820180604052508101906200042d919062002216565b156200044d5760405162461bcd60e51b8152600401620002fb906200262c565b60048054604051637b51e92760e11b81526101009091046001600160a01b03169163f6a3d24e916200048291339101620023ca565b60206040518083038186803b1580156200049b57600080fd5b505afa158015620004b0573d6000803e3d6000fd5b505050506040513d601f19601f82011682018060405250810190620004d6919062002216565b620004f55760405162461bcd60e51b8152600401620002fb9062002654565b806001600160a01b031663c52164c66040518163ffffffff1660e01b815260040160206040518083038186803b1580156200052f57600080fd5b505afa15801562000544573d6000803e3d6000fd5b505050506040513d601f19601f820116820180604052508101906200056a9190620022d0565b60048054604051637884d05f60e11b81526101009091046001600160a01b03169163f109a0be916200059f91339101620023ca565b60206040518083038186803b158015620005b857600080fd5b505afa158015620005cd573d6000803e3d6000fd5b505050506040513d601f19601f82011682018060405250810190620005f3919062002127565b6001600160a01b031663c52164c66040518163ffffffff1660e01b815260040160206040518083038186803b1580156200062c57600080fd5b505afa15801562000641573d6000803e3d6000fd5b505050506040513d601f19601f82011682018060405250810190620006679190620022d0565b1015620006885760405162461bcd60e51b8152600401620002fb90620025ce565b6002816001600160a01b031663228cb7336040518163ffffffff1660e01b815260040160206040518083038186803b158015620006c457600080fd5b505afa158015620006d9573d6000803e3d6000fd5b505050506040513d601f19601f82011682018060405250810190620006ff9190620022d0565b816200070757fe5b60065460405163e3d670d760e01b815292909104916001600160a01b039091169063e3d670d7906200073e903390600401620023ca565b60206040518083038186803b1580156200075757600080fd5b505afa1580156200076c573d6000803e3d6000fd5b505050506040513d601f19601f82011682018060405250810190620007929190620022d0565b1015620007b35760405162461bcd60e51b8152600401620002fb90620024ee565b6005546040516371d27c9360e11b815233916001600160a01b03169063e3a4f92690620007e5908690600401620024b0565b60206040518083038186803b158015620007fe57600080fd5b505afa15801562000813573d6000803e3d6000fd5b505050506040513d601f19601f8201168201806040525081019062000839919062002127565b6001600160a01b0316638da5cb5b6040518163ffffffff1660e01b815260040160206040518083038186803b1580156200087257600080fd5b505afa15801562000887573d6000803e3d6000fd5b505050506040513d601f19601f82011682018060405250810190620008ad919062002127565b6001600160a01b031614620008d65760405162461bcd60e51b8152600401620002fb90620026ce565b604051630d50ec8f60e21b81526001600160a01b03821690633543b23c90620009069033908690600401620023de565b600060405180830381600087803b1580156200092157600080fd5b505af115801562000936573d6000803e3d6000fd5b50506005546040516371d27c9360e11b81526001600160a01b03909116925063e3a4f92691506200096c908590600401620024b0565b60206040518083038186803b1580156200098557600080fd5b505afa1580156200099a573d6000803e3d6000fd5b505050506040513d601f19601f82011682018060405250810190620009c0919062002127565b6001600160a01b031663176e8285846040518263ffffffff1660e01b8152600401620009ed9190620023ca565b600060405180830381600087803b15801562000a0857600080fd5b505af115801562000a1d573d6000803e3d6000fd5b50505050600660009054906101000a90046001600160a01b03166001600160a01b031663ccb570e36002836001600160a01b031663228cb7336040518163ffffffff1660e01b815260040160206040518083038186803b15801562000a8157600080fd5b505afa15801562000a96573d6000803e3d6000fd5b505050506040513d601f19601f8201168201806040525081019062000abc9190620022d0565b8162000ac457fe5b0433306040518463ffffffff1660e01b815260040162000ae79392919062002786565b600060405180830381600087803b15801562000b0257600080fd5b505af115801562000b17573d6000803e3d6000fd5b5050505062000b268362001f6b565b505050565b62000b368162001f18565b62000b555760405162461bcd60e51b8152600401620002fb9062002705565b600062000b628262001f4d565b9050336001600160a01b0316816001600160a01b03166302d05d3f6040518163ffffffff1660e01b815260040160206040518083038186803b15801562000ba857600080fd5b505afa15801562000bbd573d6000803e3d6000fd5b505050506040513d601f19601f8201168201806040525081019062000be3919062002127565b6001600160a01b03161462000c0c5760405162461bcd60e51b8152600401620002fb9062002560565b806001600160a01b031663cf3090126040518163ffffffff1660e01b815260040160206040518083038186803b15801562000c4657600080fd5b505afa15801562000c5b573d6000803e3d6000fd5b505050506040513d601f19601f8201168201806040525081019062000c81919062002216565b158062000d015750806001600160a01b031663b1cb0db36040518163ffffffff1660e01b815260040160206040518083038186803b15801562000cc357600080fd5b505afa15801562000cd8573d6000803e3d6000fd5b505050506040513d601f19601f8201168201806040525081019062000cfe9190620022d0565b43115b156200104857600660009054906101000a90046001600160a01b03166001600160a01b031663ccb570e3826001600160a01b031663228cb7336040518163ffffffff1660e01b815260040160206040518083038186803b15801562000d6557600080fd5b505afa15801562000d7a573d6000803e3d6000fd5b505050506040513d601f19601f8201168201806040525081019062000da09190620022d0565b30336040518463ffffffff1660e01b815260040162000dc29392919062002786565b600060405180830381600087803b15801562000ddd57600080fd5b505af115801562000df2573d6000803e3d6000fd5b50505050806001600160a01b031663cf3090126040518163ffffffff1660e01b815260040160206040518083038186803b15801562000e3057600080fd5b505afa15801562000e45573d6000803e3d6000fd5b505050506040513d601f19601f8201168201806040525081019062000e6b919062002216565b62000e815762000e7b8262001f6b565b62000ff2565b600560009054906101000a90046001600160a01b03166001600160a01b031663e3a4f926826001600160a01b031663c6326dd06040518163ffffffff1660e01b815260040160006040518083038186803b15801562000edf57600080fd5b505afa15801562000ef4573d6000803e3d6000fd5b505050506040513d6000823e601f3d908101601f1916820160405262000f1e919081019062002238565b6040518263ffffffff1660e01b815260040162000f3c9190620024b0565b60206040518083038186803b15801562000f5557600080fd5b505afa15801562000f6a573d6000803e3d6000fd5b505050506040513d601f19601f8201168201806040525081019062000f90919062002127565b6001600160a01b0316637003bd12836040518263ffffffff1660e01b815260040162000fbd9190620023ca565b600060405180830381600087803b15801562000fd857600080fd5b505af115801562000fed573d6000803e3d6000fd5b505050505b806001600160a01b03166383197ef06040518163ffffffff1660e01b8152600401600060405180830381600087803b1580156200102e57600080fd5b505af115801562001043573d6000803e3d6000fd5b505050505b5050565b6006546001600160a01b031681565b600281815481106200106957fe5b6000918252602090912001546001600160a01b0316905081565b6000602081905290815260409020546001600160a01b031681565b620010a862001fde565b6001600160a01b0382166000908152600160208181526040928390208351815460029481161561010002600019011693909304601f81018390049092028301606090810185529383018281529293909284929091849190840182828015620011545780601f10620011285761010080835404028352916020019162001154565b820191906000526020600020905b8154815290600101906020018083116200113657829003601f168201915b50505050508152602001600182018054600181600116156101000203166002900480601f016020809104026020016040519081016040528092919081815260200182805460018160011615610100020316600290048015620011fa5780601f10620011ce57610100808354040283529160200191620011fa565b820191906000526020600020905b815481529060010190602001808311620011dc57829003601f168201915b50505050508152505090505b919050565b620012168362001f18565b620012355760405162461bcd60e51b8152600401620002fb9062002705565b6000620012428462001f4d565b9050336001600160a01b0316816001600160a01b03166381bbfb616040518163ffffffff1660e01b815260040160206040518083038186803b1580156200128857600080fd5b505afa1580156200129d573d6000803e3d6000fd5b505050506040513d601f19601f82011682018060405250810190620012c3919062002127565b6001600160a01b031614620012ec5760405162461bcd60e51b8152600401620002fb9062002597565b60408051808201825284815260208082018590526001600160a01b0387166000908152600182529290922081518051929391926200132e928492019062001ff8565b50602082810151805162001349926001850192019062001ff8565b50905050600460019054906101000a90046001600160a01b03166001600160a01b031663f109a0be826001600160a01b03166302d05d3f6040518163ffffffff1660e01b815260040160206040518083038186803b158015620013ab57600080fd5b505afa158015620013c0573d6000803e3d6000fd5b505050506040513d601f19601f82011682018060405250810190620013e6919062002127565b6040518263ffffffff1660e01b8152600401620014049190620023ca565b60206040518083038186803b1580156200141d57600080fd5b505afa15801562001432573d6000803e3d6000fd5b505050506040513d601f19601f8201168201806040525081019062001458919062002127565b6001600160a01b031663cbee4be1856040518263ffffffff1660e01b8152600401620014859190620023ca565b600060405180830381600087803b158015620014a057600080fd5b505af1158015620014b5573d6000803e3d6000fd5b50505050600460019054906101000a90046001600160a01b03166001600160a01b031663f109a0be826001600160a01b03166302d05d3f6040518163ffffffff1660e01b815260040160206040518083038186803b1580156200151757600080fd5b505afa1580156200152c573d6000803e3d6000fd5b505050506040513d601f19601f8201168201806040525081019062001552919062002127565b6040518263ffffffff1660e01b8152600401620015709190620023ca565b60206040518083038186803b1580156200158957600080fd5b505afa1580156200159e573d6000803e3d6000fd5b505050506040513d601f19601f82011682018060405250810190620015c4919062002127565b6001600160a01b0316630184e95260016040518263ffffffff1660e01b8152600401620015f29190620024a7565b600060405180830381600087803b1580156200160d57600080fd5b505af115801562001622573d6000803e3d6000fd5b505060048054604051637884d05f60e11b81526101009091046001600160a01b0316935063f109a0be92506200165b91339101620023ca565b60206040518083038186803b1580156200167457600080fd5b505afa15801562001689573d6000803e3d6000fd5b505050506040513d601f19601f82011682018060405250810190620016af919062002127565b6001600160a01b0316630184e95260026040518263ffffffff1660e01b8152600401620016dd9190620024a7565b600060405180830381600087803b158015620016f857600080fd5b505af11580156200170d573d6000803e3d6000fd5b50505050600660009054906101000a90046001600160a01b03166001600160a01b031663ccb570e3826001600160a01b031663228cb7336040518163ffffffff1660e01b815260040160206040518083038186803b1580156200176f57600080fd5b505afa15801562001784573d6000803e3d6000fd5b505050506040513d601f19601f82011682018060405250810190620017aa9190620022d0565b30336040518463ffffffff1660e01b8152600401620017cc9392919062002786565b600060405180830381600087803b158015620017e757600080fd5b505af1158015620017fc573d6000803e3d6000fd5b50505050600560009054906101000a90046001600160a01b03166001600160a01b031663e3a4f926826001600160a01b031663c6326dd06040518163ffffffff1660e01b815260040160006040518083038186803b1580156200185e57600080fd5b505afa15801562001873573d6000803e3d6000fd5b505050506040513d6000823e601f3d908101601f191682016040526200189d919081019062002238565b6040518263ffffffff1660e01b8152600401620018bb9190620024b0565b60206040518083038186803b158015620018d457600080fd5b505afa158015620018e9573d6000803e3d6000fd5b505050506040513d601f19601f820116820180604052508101906200190f919062002127565b6001600160a01b0316637003bd12856040518263ffffffff1660e01b81526004016200193c9190620023ca565b600060405180830381600087803b1580156200195757600080fd5b505af11580156200196c573d6000803e3d6000fd5b50505050806001600160a01b03166383197ef06040518163ffffffff1660e01b8152600401600060405180830381600087803b158015620019ac57600080fd5b505af1158015620019c1573d6000803e3d6000fd5b5050505050505050565b60045461010090046001600160a01b031681565b6005546001600160a01b031681565b60045460ff1662001a135760405162461bcd60e51b8152600401620002fb906200268b565b60048054604051637b51e92760e11b81526101009091046001600160a01b03169163f6a3d24e9162001a4891339101620023ca565b60206040518083038186803b15801562001a6157600080fd5b505afa15801562001a76573d6000803e3d6000fd5b505050506040513d601f19601f8201168201806040525081019062001a9c919062002216565b62001abb5760405162461bcd60e51b8152600401620002fb9062002654565b60035460065460405163e3d670d760e01b8152918501916001600160a01b039091169063e3d670d79062001af4903390600401620023ca565b60206040518083038186803b15801562001b0d57600080fd5b505afa15801562001b22573d6000803e3d6000fd5b505050506040513d601f19601f8201168201806040525081019062001b489190620022d0565b101562001b695760405162461bcd60e51b8152600401620002fb90620024ee565b6000338585858560405162001b7e906200207d565b62001b8e9594939291906200240c565b604051809103906000f08015801562001bab573d6000803e3d6000fd5b506001600160a01b0380821660008181526020819052604080822080546001600160a01b031990811685179091556002805460018101825593527f405787fa12a823e0f2b7631cc41b3ba8828b3321ca811111fa75cd3aa3bb5ace909201805490921690921790556006546003549151636f3d98c760e01b815293945090911691636f3d98c79162001c429133906004016200276f565b600060405180830381600087803b15801562001c5d57600080fd5b505af115801562001c72573d6000803e3d6000fd5b505060065460405163ccb570e360e01b81526001600160a01b03909116925063ccb570e3915062001cac9087903390309060040162002786565b600060405180830381600087803b15801562001cc757600080fd5b505af115801562001cdc573d6000803e3d6000fd5b505050505050505050565b6060600280548060200260200160405190810160405280929190818152602001828054801562001d4157602002820191906000526020600020905b81546001600160a01b0316815260019091019060200180831162001d22575b505050505090505b90565b60045460ff161562001d725760405162461bcd60e51b8152600401620002fb906200251b565b60039390935560048054600580546001600160a01b03199081166001600160a01b03958616179091556006805490911695841695909517909455610100600160a81b031990931661010092909116919091021760ff19166001179055565b60035481565b60016020818152600092835260409283902080548451600294821615610100026000190190911693909304601f810183900483028401830190945283835292839183018282801562001e6c5780601f1062001e405761010080835404028352916020019162001e6c565b820191906000526020600020905b81548152906001019060200180831162001e4e57829003601f168201915b505050505090806001018054600181600116156101000203166002900480601f01602080910402602001604051908101604052809291908181526020018280546001816001161561010002031660029004801562001f0e5780601f1062001ee25761010080835404028352916020019162001f0e565b820191906000526020600020905b81548152906001019060200180831162001ef057829003601f168201915b5050505050905082565b6001600160a01b038082166000908152602081905260408120549091161562001f445750600162001206565b50600062001206565b6001600160a01b039081166000908152602081905260409020541690565b60005b6002548110156200104857816001600160a01b03166002828154811062001f9157fe5b6000918252602090912001546001600160a01b0316141562001fd5576002818154811062001fbb57fe5b600091825260209091200180546001600160a01b03191690555b60010162001f6e565b604051806040016040528060608152602001606081525090565b828054600181600116156101000203166002900490600052602060002090601f016020900481019282601f106200203b57805160ff19168380011785556200206b565b828001600101855582156200206b579182015b828111156200206b5782518255916020019190600101906200204e565b50620020799291506200208b565b5090565b610747806200283f83390190565b62001d4991905b8082111562002079576000815560010162002092565b600082601f830112620020b9578081fd5b8135620020d0620020ca82620027cd565b620027a5565b9150808252836020828501011115620020e857600080fd5b8060208401602084013760009082016020015292915050565b60006020828403121562002113578081fd5b8135620021208162002825565b9392505050565b60006020828403121562002139578081fd5b8151620021208162002825565b6000806040838503121562002159578081fd5b8235620021668162002825565b9150602083013567ffffffffffffffff81111562002182578182fd5b6200219085828601620020a8565b9150509250929050565b600080600060608486031215620021af578081fd5b8335620021bc8162002825565b9250602084013567ffffffffffffffff80821115620021d9578283fd5b620021e787838801620020a8565b93506040860135915080821115620021fd578283fd5b506200220c86828701620020a8565b9150509250925092565b60006020828403121562002228578081fd5b8151801515811462002120578182fd5b6000602082840312156200224a578081fd5b815167ffffffffffffffff81111562002261578182fd5b80830184601f82011262002273578283fd5b8051915062002286620020ca83620027cd565b8281528560208484010111156200229b578384fd5b620022ae836020830160208501620027f2565b95945050505050565b600060208284031215620022c9578081fd5b5035919050565b600060208284031215620022e2578081fd5b5051919050565b60008060008060808587031215620022ff578081fd5b843593506020850135620023138162002825565b92506040850135620023258162002825565b91506060850135620023378162002825565b939692955090935050565b6000806000806080858703121562002358578384fd5b8435935060208501359250604085013567ffffffffffffffff8111156200237d578283fd5b6200238b87828801620020a8565b949793965093946060013593505050565b60008151808452620023b6816020860160208601620027f2565b601f01601f19169290920160200192915050565b6001600160a01b0391909116815260200190565b6001600160a01b038316815260406020820181905260009062002404908301846200239c565b949350505050565b600060018060a01b038716825285602083015284604083015260a060608301526200243b60a08301856200239c565b90508260808301529695505050505050565b6020808252825182820181905260009190848201906040850190845b81811015620024905783516001600160a01b03168352928401929184019160010162002469565b50909695505050505050565b901515815260200190565b90815260200190565b6000602082526200212060208301846200239c565b600060408252620024da60408301856200239c565b8281036020840152620022ae81856200239c565b602080825260139082015272696e73756666696369656e7420746f6b656e7360681b604082015260600190565b60208082526025908201527f636f6e74726163742068617320616c7265616479206265656e20696e697469616040820152641b1a5e995960da1b606082015260800190565b60208082526017908201527f796f7520617265206e6f74207468652063726561746f72000000000000000000604082015260600190565b60208082526019908201527f796f7520617265206e6f74207468652064656c69766572657200000000000000604082015260600190565b6020808252601590820152743737ba1032b737bab3b4103932b83aba30ba34b7b760591b604082015260600190565b60208082526015908201527419195d9a58d948191bd95cc81b9bdd08195e1a5cdd605a1b604082015260600190565b6020808252600e908201526d1d185cdac81a5cc81b1bd8dad95960921b604082015260600190565b60208082526019908201527f796f75206e65656420746f206265207265676973746572656400000000000000604082015260600190565b60208082526023908201527f636f6e7472616374732068617665206e6f74206265656e20696e697469616c696040820152621e995960ea1b606082015260800190565b6020808252601c908201527f796f7520617265206e6f742074686520646576696365206f776e657200000000604082015260600190565b6020808252601390820152721d185cdac8191bd95cc81b9bdd08195e1a5cdd606a1b604082015260600190565b6000602082528251604060208401526200275060608401826200239c565b6020850151848203601f190160408601529150620022ae81836200239c565b9182526001600160a01b0316602082015260400190565b9283526001600160a01b03918216602084015216604082015260600190565b60405181810167ffffffffffffffff81118282101715620027c557600080fd5b604052919050565b600067ffffffffffffffff821115620027e4578081fd5b50601f01601f191660200190565b60005b838110156200280f578181015183820152602001620027f5565b838111156200281f576000848401525b50505050565b6001600160a01b03811681146200283b57600080fd5b5056fe60806040526003805460ff1916905534801561001a57600080fd5b50604051610747380380610747833981810160405260a081101561003d57600080fd5b81516020830151604080850151606086018051925194969395919493918201928464010000000082111561007057600080fd5b90830190602082018581111561008557600080fd5b825164010000000081118282018810171561009f57600080fd5b82525081516020918201929091019080838360005b838110156100cc5781810151838201526020016100b4565b50505050905090810190601f1680156100f95780820380516001836020036101000a031916815260200191505b50604052602090810151600080546001600160a01b0319166001600160a01b038a1617905560048790556005869055845190935061013d925060069185019061015f565b5043016007555050600880546001600160a01b03191633179055506101fa9050565b828054600181600116156101000203166002900490600052602060002090601f016020900481019282601f106101a057805160ff19168380011785556101cd565b828001600101855582156101cd579182015b828111156101cd5782518255916020019190600101906101b2565b506101d99291506101dd565b5090565b6101f791905b808211156101d957600081556001016101e3565b90565b61053e806102096000396000f3fe608060405234801561001057600080fd5b506004361061009e5760003560e01c806383197ef01161006657806383197ef01461021e578063b1cb0db314610226578063c52164c61461022e578063c6326dd014610236578063cf3090121461023e5761009e565b806302d05d3f146100a3578063228cb733146100c75780633543b23c146100e15780633f1444b51461019957806381bbfb6114610216575b600080fd5b6100ab61025a565b604080516001600160a01b039092168252519081900360200190f35b6100cf610269565b60408051918252519081900360200190f35b610197600480360360408110156100f757600080fd5b6001600160a01b03823516919081019060408101602082013564010000000081111561012257600080fd5b82018360208201111561013457600080fd5b8035906020019184600183028401116401000000008311171561015657600080fd5b91908080601f01602080910402602001604051908101604052809392919081815260200183838082843760009201919091525092955061026f945050505050565b005b6101a161030d565b6040805160208082528351818301528351919283929083019185019080838360005b838110156101db5781810151838201526020016101c3565b50505050905090810190601f1680156102085780820380516001836020036101000a031916815260200191505b509250505060405180910390f35b6100ab61039b565b6101976103aa565b6100cf610400565b6100cf610406565b6101a161040c565b610246610464565b604080519115158252519081900360200190f35b6000546001600160a01b031681565b60055481565b6008546001600160a01b031633146102c2576040805162461bcd60e51b81526020600482015260116024820152701c195c9b5a5cdcda5bdb8819195b9a5959607a1b604482015290519081900360640190fd5b600180546001600160a01b0319166001600160a01b03841617905580516102f090600290602084019061046d565b50506003805460ff19166001179055506005805460028104019055565b6006805460408051602060026001851615610100026000190190941693909304601f810184900484028201840190925281815292918301828280156103935780601f1061036857610100808354040283529160200191610393565b820191906000526020600020905b81548152906001019060200180831161037657829003601f168201915b505050505081565b6001546001600160a01b031681565b6008546001600160a01b031633146103fd576040805162461bcd60e51b81526020600482015260116024820152701c195c9b5a5cdcda5bdb8819195b9a5959607a1b604482015290519081900360640190fd5b30ff5b60075481565b60045481565b6002805460408051602060018416156101000260001901909316849004601f810184900484028201840190925281815292918301828280156103935780601f1061036857610100808354040283529160200191610393565b60035460ff1681565b828054600181600116156101000203166002900490600052602060002090601f016020900481019282601f106104ae57805160ff19168380011785556104db565b828001600101855582156104db579182015b828111156104db5782518255916020019190600101906104c0565b506104e79291506104eb565b5090565b61050591905b808211156104e757600081556001016104f1565b9056fea26469706673582212209f1c339fcb1da85acd53582c5a4f9355ce1dc12f8a983381cc59be0906d8fdbe64736f6c63430006090033a2646970667358221220059659d6949ca4fc7084f4a0811d81a63407da4aa43bb6a2af0238b61120213264736f6c63430006090033",
    "sourcePath": "c:/Users/35840/Desktop/coding/node/eth-contracts/contracts/task/Manager.sol",
    "compiler": {
        "name": "solc",
        "version": "0.6.9+commit.3e3065ac"
    },
    "functionHashes": {
        "accept(address,string)": "18807240",
        "add(uint256,uint256,string,uint256)": "d4c69417",
        "complete(address,string,string)": "9ea2bdaf",
        "device_manager()": "b7f83f8d",
        "exists(address)": "f6a3d24e",
        "fee()": "ddca3f43",
        "fetch_open()": "d91cf5de",
        "fetch_result(address)": "8d9ff2cf",
        "fetch_task(address)": "f772282c",
        "init(uint256,address,address,address)": "dc890da9",
        "initialized()": "158ef93e",
        "open(uint256)": "690e7c09",
        "release(address)": "19165587",
        "results(address)": "ef378f62",
        "tasks(address)": "77c237fd",
        "token_manager()": "19a42663",
        "user_manager()": "9eeb67c4"
    },
    "gasEstimates": {
        "creation": {
            "codeDepositCost": "2443800",
            "executionCost": "23446",
            "totalCost": "2467246"
        },
        "external": {
            "accept(address,string)": "infinite",
            "add(uint256,uint256,string,uint256)": "infinite",
            "complete(address,string,string)": "infinite",
            "device_manager()": "1115",
            "exists(address)": "1415",
            "fee()": "1072",
            "fetch_open()": "infinite",
            "fetch_result(address)": "infinite",
            "fetch_task(address)": "1410",
            "init(uint256,address,address,address)": "infinite",
            "initialized()": "1064",
            "open(uint256)": "2061",
            "release(address)": "1486",
            "results(address)": "infinite",
            "tasks(address)": "1336",
            "token_manager()": "1160",
            "user_manager()": "1104"
        },
        "internal": {
            "unlist(address)": "infinite"
        }
    }
}