{
    "contractName": "User",
    "abi": [
        {
            "inputs": [
                {
                    "internalType": "address",
                    "name": "_task_manager",
                    "type": "address"
                }
            ],
            "stateMutability": "nonpayable",
            "type": "constructor"
        },
        {
            "inputs": [
                {
                    "internalType": "address",
                    "name": "_task",
                    "type": "address"
                },
                {
                    "internalType": "string",
                    "name": "_key",
                    "type": "string"
                },
                {
                    "internalType": "string",
                    "name": "_ipfs",
                    "type": "string"
                }
            ],
            "name": "add_result",
            "outputs": [],
            "stateMutability": "nonpayable",
            "type": "function"
        },
        {
            "inputs": [
                {
                    "internalType": "uint256",
                    "name": "amount",
                    "type": "uint256"
                }
            ],
            "name": "award",
            "outputs": [],
            "stateMutability": "nonpayable",
            "type": "function"
        },
        {
            "inputs": [],
            "name": "reputation",
            "outputs": [
                {
                    "internalType": "uint256",
                    "name": "",
                    "type": "uint256"
                }
            ],
            "stateMutability": "view",
            "type": "function"
        },
        {
            "inputs": [
                {
                    "internalType": "uint256",
                    "name": "",
                    "type": "uint256"
                }
            ],
            "name": "results",
            "outputs": [
                {
                    "internalType": "address",
                    "name": "task",
                    "type": "address"
                },
                {
                    "internalType": "string",
                    "name": "key",
                    "type": "string"
                },
                {
                    "internalType": "string",
                    "name": "ipfs",
                    "type": "string"
                }
            ],
            "stateMutability": "view",
            "type": "function"
        }
    ],
    "bytecode": "6080604052600160005534801561001557600080fd5b506040516107253803806107258339818101604052602081101561003857600080fd5b5051600280546001600160a01b0319166001600160a01b039092169190911790556106bd806100686000396000f3fe608060405234801561001057600080fd5b506004361061004c5760003560e01c80630184e952146100515780631b0c27da14610070578063a44b15b214610184578063c52164c6146102c1575b600080fd5b61006e6004803603602081101561006757600080fd5b50356102db565b005b61008d6004803603602081101561008657600080fd5b5035610339565b60405180846001600160a01b03166001600160a01b031681526020018060200180602001838103835285818151815260200191508051906020019080838360005b838110156100e65781810151838201526020016100ce565b50505050905090810190601f1680156101135780820380516001836020036101000a031916815260200191505b50838103825284518152845160209182019186019080838360005b8381101561014657818101518382015260200161012e565b50505050905090810190601f1680156101735780820380516001836020036101000a031916815260200191505b509550505050505060405180910390f35b61006e6004803603606081101561019a57600080fd5b6001600160a01b0382351691908101906040810160208201356401000000008111156101c557600080fd5b8201836020820111156101d757600080fd5b803590602001918460018302840111640100000000831117156101f957600080fd5b91908080601f016020809104026020016040519081016040528093929190818152602001838380828437600092019190915250929594936020810193503591505064010000000081111561024c57600080fd5b82018360208201111561025e57600080fd5b8035906020019184600183028401116401000000008311171561028057600080fd5b91908080601f01602080910402602001604051908101604052809392919081815260200183838082843760009201919091525092955061048f945050505050565b6102c96105bc565b60408051918252519081900360200190f35b6002546001600160a01b0316331461032e576040805162461bcd60e51b81526020600482015260116024820152701c195c9b5a5cdcda5bdb8819195b9a5959607a1b604482015290519081900360640190fd5b600080549091019055565b6001818154811061034657fe5b600091825260209182902060039091020180546001808301805460408051601f60026000199685161561010002969096019093169490940491820187900487028401870190528083526001600160a01b0390931695509293909291908301828280156103f35780601f106103c8576101008083540402835291602001916103f3565b820191906000526020600020905b8154815290600101906020018083116103d657829003601f168201915b50505060028085018054604080516020601f60001961010060018716150201909416959095049283018590048502810185019091528181529596959450909250908301828280156104855780601f1061045a57610100808354040283529160200191610485565b820191906000526020600020905b81548152906001019060200180831161046857829003601f168201915b5050505050905083565b6002546001600160a01b031633146104e2576040805162461bcd60e51b81526020600482015260116024820152701c195c9b5a5cdcda5bdb8819195b9a5959607a1b604482015290519081900360640190fd5b6104ea6105c2565b50604080516060810182526001600160a01b038581168252602080830186815293830185905260018054808201825560009190915283517fb10e2d527612073b26eecdfd717e6a320cf44b4afac2b0732d9fcbe2b7fa0cf6600390920291820180546001600160a01b031916919094161783559351805193948594610597937fb10e2d527612073b26eecdfd717e6a320cf44b4afac2b0732d9fcbe2b7fa0cf790920192909101906105ec565b50604082015180516105b39160028401916020909101906105ec565b50505050505050565b60005481565b604051806060016040528060006001600160a01b0316815260200160608152602001606081525090565b828054600181600116156101000203166002900490600052602060002090601f016020900481019282601f1061062d57805160ff191683800117855561065a565b8280016001018555821561065a579182015b8281111561065a57825182559160200191906001019061063f565b5061066692915061066a565b5090565b61068491905b808211156106665760008155600101610670565b9056fea2646970667358221220fe472741f2eac5a9299c6b362529dafecdc685f44ee15d411536e7b9014433bc64736f6c63430006080033",
    "sourcePath": "c:/Users/35840/Desktop/coding/node/eth-contracts/2.0/user/user.sol",
    "compiler": {
        "name": "solc",
        "version": "0.6.8+commit.0bbfe453"
    },
    "functionHashes": {
        "add_result(address,string,string)": "a44b15b2",
        "award(uint256)": "0184e952",
        "reputation()": "c52164c6",
        "results(uint256)": "1b0c27da"
    },
    "gasEstimates": {
        "creation": {
            "codeDepositCost": "345000",
            "executionCost": "infinite",
            "totalCost": "infinite"
        },
        "external": {
            "add_result(address,string,string)": "infinite",
            "award(uint256)": "21822",
            "reputation()": "1042",
            "results(uint256)": "infinite"
        }
    }
}