{
    "contractName": "UserManager",
    "abi": [
        {
            "inputs": [],
            "name": "add",
            "outputs": [],
            "stateMutability": "nonpayable",
            "type": "function"
        },
        {
            "inputs": [
                {
                    "internalType": "uint256",
                    "name": "",
                    "type": "uint256"
                }
            ],
            "name": "everyone",
            "outputs": [
                {
                    "internalType": "address",
                    "name": "",
                    "type": "address"
                }
            ],
            "stateMutability": "view",
            "type": "function"
        },
        {
            "inputs": [
                {
                    "internalType": "address",
                    "name": "user",
                    "type": "address"
                }
            ],
            "name": "exists",
            "outputs": [
                {
                    "internalType": "bool",
                    "name": "",
                    "type": "bool"
                }
            ],
            "stateMutability": "view",
            "type": "function"
        },
        {
            "inputs": [
                {
                    "internalType": "address",
                    "name": "user",
                    "type": "address"
                }
            ],
            "name": "fetch",
            "outputs": [
                {
                    "internalType": "contract User",
                    "name": "",
                    "type": "address"
                }
            ],
            "stateMutability": "view",
            "type": "function"
        },
        {
            "inputs": [
                {
                    "internalType": "address",
                    "name": "_task_manager",
                    "type": "address"
                }
            ],
            "name": "init",
            "outputs": [],
            "stateMutability": "nonpayable",
            "type": "function"
        },
        {
            "inputs": [
                {
                    "internalType": "address",
                    "name": "",
                    "type": "address"
                }
            ],
            "name": "users",
            "outputs": [
                {
                    "internalType": "contract User",
                    "name": "",
                    "type": "address"
                }
            ],
            "stateMutability": "view",
            "type": "function"
        }
    ],
    "bytecode": "60806040526002805460ff1916905534801561001a57600080fd5b50610b598061002a6000396000f3fe608060405234801561001057600080fd5b50600436106100625760003560e01c806319ab453c146100675780634f2be91f1461008f57806378e46b1014610097578063a87430ba146100d0578063f109a0be146100f6578063f6a3d24e1461011c575b600080fd5b61008d6004803603602081101561007d57600080fd5b50356001600160a01b0316610156565b005b61008d6101c7565b6100b4600480360360208110156100ad57600080fd5b5035610316565b604080516001600160a01b039092168252519081900360200190f35b6100b4600480360360208110156100e657600080fd5b50356001600160a01b031661033d565b6100b46004803603602081101561010c57600080fd5b50356001600160a01b0316610358565b6101426004803603602081101561013257600080fd5b50356001600160a01b0316610379565b604080519115158252519081900360200190f35b60025460ff16156101985760405162461bcd60e51b8152600401808060200182810382526025815260200180610ade6025913960400191505060405180910390fd5b6002805460ff196001600160a01b0390931661010002610100600160a81b031990911617919091166001179055565b60025460ff166102085760405162461bcd60e51b8152600401808060200182810382526021815260200180610b036021913960400191505060405180910390fd5b61021133610379565b15610263576040805162461bcd60e51b815260206004820152601d60248201527f6164647265737320697320616c72656164792072656769737465726564000000604482015290519081900360640190fd5b600260019054906101000a90046001600160a01b0316604051610285906103ab565b6001600160a01b03909116815260405190819003602001906000f0801580156102b2573d6000803e3d6000fd5b5033600081815260208190526040812080546001600160a01b03949094166001600160a01b031994851617905560018054808201825591527fb10e2d527612073b26eecdfd717e6a320cf44b4afac2b0732d9fcbe2b7fa0cf6018054909216179055565b6001818154811061032357fe5b6000918252602090912001546001600160a01b0316905081565b6000602081905290815260409020546001600160a01b031681565b6001600160a01b03808216600090815260208190526040902054165b919050565b6001600160a01b03808216600090815260208190526040812054909116156103a357506001610374565b506000610374565b610725806103b98339019056fe6080604052600160005534801561001557600080fd5b506040516107253803806107258339818101604052602081101561003857600080fd5b5051600280546001600160a01b0319166001600160a01b039092169190911790556106bd806100686000396000f3fe608060405234801561001057600080fd5b506004361061004c5760003560e01c80630184e952146100515780631b0c27da14610070578063a44b15b214610184578063c52164c6146102c1575b600080fd5b61006e6004803603602081101561006757600080fd5b50356102db565b005b61008d6004803603602081101561008657600080fd5b5035610339565b60405180846001600160a01b03166001600160a01b031681526020018060200180602001838103835285818151815260200191508051906020019080838360005b838110156100e65781810151838201526020016100ce565b50505050905090810190601f1680156101135780820380516001836020036101000a031916815260200191505b50838103825284518152845160209182019186019080838360005b8381101561014657818101518382015260200161012e565b50505050905090810190601f1680156101735780820380516001836020036101000a031916815260200191505b509550505050505060405180910390f35b61006e6004803603606081101561019a57600080fd5b6001600160a01b0382351691908101906040810160208201356401000000008111156101c557600080fd5b8201836020820111156101d757600080fd5b803590602001918460018302840111640100000000831117156101f957600080fd5b91908080601f016020809104026020016040519081016040528093929190818152602001838380828437600092019190915250929594936020810193503591505064010000000081111561024c57600080fd5b82018360208201111561025e57600080fd5b8035906020019184600183028401116401000000008311171561028057600080fd5b91908080601f01602080910402602001604051908101604052809392919081815260200183838082843760009201919091525092955061048f945050505050565b6102c96105bc565b60408051918252519081900360200190f35b6002546001600160a01b0316331461032e576040805162461bcd60e51b81526020600482015260116024820152701c195c9b5a5cdcda5bdb8819195b9a5959607a1b604482015290519081900360640190fd5b600080549091019055565b6001818154811061034657fe5b600091825260209182902060039091020180546001808301805460408051601f60026000199685161561010002969096019093169490940491820187900487028401870190528083526001600160a01b0390931695509293909291908301828280156103f35780601f106103c8576101008083540402835291602001916103f3565b820191906000526020600020905b8154815290600101906020018083116103d657829003601f168201915b50505060028085018054604080516020601f60001961010060018716150201909416959095049283018590048502810185019091528181529596959450909250908301828280156104855780601f1061045a57610100808354040283529160200191610485565b820191906000526020600020905b81548152906001019060200180831161046857829003601f168201915b5050505050905083565b6002546001600160a01b031633146104e2576040805162461bcd60e51b81526020600482015260116024820152701c195c9b5a5cdcda5bdb8819195b9a5959607a1b604482015290519081900360640190fd5b6104ea6105c2565b50604080516060810182526001600160a01b038581168252602080830186815293830185905260018054808201825560009190915283517fb10e2d527612073b26eecdfd717e6a320cf44b4afac2b0732d9fcbe2b7fa0cf6600390920291820180546001600160a01b031916919094161783559351805193948594610597937fb10e2d527612073b26eecdfd717e6a320cf44b4afac2b0732d9fcbe2b7fa0cf790920192909101906105ec565b50604082015180516105b39160028401916020909101906105ec565b50505050505050565b60005481565b604051806060016040528060006001600160a01b0316815260200160608152602001606081525090565b828054600181600116156101000203166002900490600052602060002090601f016020900481019282601f1061062d57805160ff191683800117855561065a565b8280016001018555821561065a579182015b8281111561065a57825182559160200191906001019061063f565b5061066692915061066a565b5090565b61068491905b808211156106665760008155600101610670565b9056fea26469706673582212206a58afab97c3d2e69ce28c30a2e103b8cf641c32861a082ee64ddcd61898c30864736f6c63430006080033636f6e74726163742068617320616c7265616479206265656e20696e697469616c697a6564636f6e747261637420686173206e6f74206265656e20696e697469616c697a6564a26469706673582212209d54084eb11b2851360053cd1913d00b9a9586e752c4c3e1f5e174104fe0058464736f6c63430006080033",
    "sourcePath": "c:/Users/35840/Desktop/coding/node/eth-contracts/2.0/user/manager.sol",
    "compiler": {
        "name": "solc",
        "version": "0.6.8+commit.0bbfe453"
    },
    "functionHashes": {
        "add()": "4f2be91f",
        "everyone(uint256)": "78e46b10",
        "exists(address)": "f6a3d24e",
        "fetch(address)": "f109a0be",
        "init(address)": "19ab453c",
        "users(address)": "a87430ba"
    },
    "gasEstimates": {
        "creation": {
            "codeDepositCost": "581000",
            "executionCost": "21431",
            "totalCost": "602431"
        },
        "external": {
            "add()": "infinite",
            "everyone(uint256)": "1992",
            "exists(address)": "1293",
            "fetch(address)": "1247",
            "init(address)": "infinite",
            "users(address)": "1210"
        }
    }
}