{
    "contractName": "Task",
    "abi": [
        {
            "inputs": [
                {
                    "internalType": "address",
                    "name": "_creator",
                    "type": "address"
                },
                {
                    "internalType": "uint256",
                    "name": "_reputation",
                    "type": "uint256"
                },
                {
                    "internalType": "uint256",
                    "name": "_reward",
                    "type": "uint256"
                },
                {
                    "internalType": "string",
                    "name": "_encryption_key",
                    "type": "string"
                },
                {
                    "internalType": "uint256",
                    "name": "timelimit",
                    "type": "uint256"
                }
            ],
            "stateMutability": "nonpayable",
            "type": "constructor"
        },
        {
            "inputs": [
                {
                    "internalType": "address",
                    "name": "_deliverer",
                    "type": "address"
                },
                {
                    "internalType": "string",
                    "name": "_device",
                    "type": "string"
                }
            ],
            "name": "assign",
            "outputs": [],
            "stateMutability": "nonpayable",
            "type": "function"
        },
        {
            "inputs": [],
            "name": "creator",
            "outputs": [
                {
                    "internalType": "address",
                    "name": "",
                    "type": "address"
                }
            ],
            "stateMutability": "view",
            "type": "function"
        },
        {
            "inputs": [],
            "name": "deliverer",
            "outputs": [
                {
                    "internalType": "address",
                    "name": "",
                    "type": "address"
                }
            ],
            "stateMutability": "view",
            "type": "function"
        },
        {
            "inputs": [],
            "name": "destroy",
            "outputs": [],
            "stateMutability": "nonpayable",
            "type": "function"
        },
        {
            "inputs": [],
            "name": "device",
            "outputs": [
                {
                    "internalType": "string",
                    "name": "",
                    "type": "string"
                }
            ],
            "stateMutability": "view",
            "type": "function"
        },
        {
            "inputs": [],
            "name": "encryption_key",
            "outputs": [
                {
                    "internalType": "string",
                    "name": "",
                    "type": "string"
                }
            ],
            "stateMutability": "view",
            "type": "function"
        },
        {
            "inputs": [],
            "name": "expires",
            "outputs": [
                {
                    "internalType": "uint256",
                    "name": "",
                    "type": "uint256"
                }
            ],
            "stateMutability": "view",
            "type": "function"
        },
        {
            "inputs": [],
            "name": "locked",
            "outputs": [
                {
                    "internalType": "bool",
                    "name": "",
                    "type": "bool"
                }
            ],
            "stateMutability": "view",
            "type": "function"
        },
        {
            "inputs": [],
            "name": "reputation",
            "outputs": [
                {
                    "internalType": "uint256",
                    "name": "",
                    "type": "uint256"
                }
            ],
            "stateMutability": "view",
            "type": "function"
        },
        {
            "inputs": [],
            "name": "reward",
            "outputs": [
                {
                    "internalType": "uint256",
                    "name": "",
                    "type": "uint256"
                }
            ],
            "stateMutability": "view",
            "type": "function"
        }
    ],
    "bytecode": "60806040526003805460ff1916905534801561001a57600080fd5b50604051610747380380610747833981810160405260a081101561003d57600080fd5b81516020830151604080850151606086018051925194969395919493918201928464010000000082111561007057600080fd5b90830190602082018581111561008557600080fd5b825164010000000081118282018810171561009f57600080fd5b82525081516020918201929091019080838360005b838110156100cc5781810151838201526020016100b4565b50505050905090810190601f1680156100f95780820380516001836020036101000a031916815260200191505b50604052602090810151600080546001600160a01b0319166001600160a01b038a1617905560048790556005869055845190935061013d925060069185019061015f565b5043016007555050600880546001600160a01b03191633179055506101fa9050565b828054600181600116156101000203166002900490600052602060002090601f016020900481019282601f106101a057805160ff19168380011785556101cd565b828001600101855582156101cd579182015b828111156101cd5782518255916020019190600101906101b2565b506101d99291506101dd565b5090565b6101f791905b808211156101d957600081556001016101e3565b90565b61053e806102096000396000f3fe608060405234801561001057600080fd5b506004361061009e5760003560e01c806383197ef01161006657806383197ef01461021e578063b1cb0db314610226578063c52164c61461022e578063c6326dd014610236578063cf3090121461023e5761009e565b806302d05d3f146100a3578063228cb733146100c75780633543b23c146100e15780633f1444b51461019957806381bbfb6114610216575b600080fd5b6100ab61025a565b604080516001600160a01b039092168252519081900360200190f35b6100cf610269565b60408051918252519081900360200190f35b610197600480360360408110156100f757600080fd5b6001600160a01b03823516919081019060408101602082013564010000000081111561012257600080fd5b82018360208201111561013457600080fd5b8035906020019184600183028401116401000000008311171561015657600080fd5b91908080601f01602080910402602001604051908101604052809392919081815260200183838082843760009201919091525092955061026f945050505050565b005b6101a161030d565b6040805160208082528351818301528351919283929083019185019080838360005b838110156101db5781810151838201526020016101c3565b50505050905090810190601f1680156102085780820380516001836020036101000a031916815260200191505b509250505060405180910390f35b6100ab61039b565b6101976103aa565b6100cf610400565b6100cf610406565b6101a161040c565b610246610464565b604080519115158252519081900360200190f35b6000546001600160a01b031681565b60055481565b6008546001600160a01b031633146102c2576040805162461bcd60e51b81526020600482015260116024820152701c195c9b5a5cdcda5bdb8819195b9a5959607a1b604482015290519081900360640190fd5b600180546001600160a01b0319166001600160a01b03841617905580516102f090600290602084019061046d565b50506003805460ff19166001179055506005805460028104019055565b6006805460408051602060026001851615610100026000190190941693909304601f810184900484028201840190925281815292918301828280156103935780601f1061036857610100808354040283529160200191610393565b820191906000526020600020905b81548152906001019060200180831161037657829003601f168201915b505050505081565b6001546001600160a01b031681565b6008546001600160a01b031633146103fd576040805162461bcd60e51b81526020600482015260116024820152701c195c9b5a5cdcda5bdb8819195b9a5959607a1b604482015290519081900360640190fd5b30ff5b60075481565b60045481565b6002805460408051602060018416156101000260001901909316849004601f810184900484028201840190925281815292918301828280156103935780601f1061036857610100808354040283529160200191610393565b60035460ff1681565b828054600181600116156101000203166002900490600052602060002090601f016020900481019282601f106104ae57805160ff19168380011785556104db565b828001600101855582156104db579182015b828111156104db5782518255916020019190600101906104c0565b506104e79291506104eb565b5090565b61050591905b808211156104e757600081556001016104f1565b9056fea26469706673582212209f1c339fcb1da85acd53582c5a4f9355ce1dc12f8a983381cc59be0906d8fdbe64736f6c63430006090033",
    "sourcePath": "c:/Users/35840/Desktop/coding/node/eth-contracts/contracts/task/Task.sol",
    "compiler": {
        "name": "solc",
        "version": "0.6.9+commit.3e3065ac"
    },
    "functionHashes": {
        "assign(address,string)": "3543b23c",
        "creator()": "02d05d3f",
        "deliverer()": "81bbfb61",
        "destroy()": "83197ef0",
        "device()": "c6326dd0",
        "encryption_key()": "3f1444b5",
        "expires()": "b1cb0db3",
        "locked()": "cf309012",
        "reputation()": "c52164c6",
        "reward()": "228cb733"
    },
    "gasEstimates": {
        "creation": {
            "codeDepositCost": "268400",
            "executionCost": "infinite",
            "totalCost": "infinite"
        },
        "external": {
            "assign(address,string)": "infinite",
            "creator()": "1038",
            "deliverer()": "1126",
            "destroy()": "30977",
            "device()": "infinite",
            "encryption_key()": "infinite",
            "expires()": "1020",
            "locked()": "1098",
            "reputation()": "1042",
            "reward()": "1021"
        }
    }
}