{
  "contractName": "DeviceManager",
  "abi": [
    {
      "constant": true,
      "inputs": [
        {
          "name": "_hash",
          "type": "string"
        }
      ],
      "name": "exists",
      "outputs": [
        {
          "name": "",
          "type": "bool"
        }
      ],
      "payable": false,
      "stateMutability": "view",
      "type": "function"
    },
    {
      "constant": true,
      "inputs": [
        {
          "name": "device_id",
          "type": "string"
        },
        {
          "name": "sender",
          "type": "address"
        }
      ],
      "name": "is_owner",
      "outputs": [
        {
          "name": "",
          "type": "bool"
        }
      ],
      "payable": false,
      "stateMutability": "view",
      "type": "function"
    },
    {
      "constant": false,
      "inputs": [
        {
          "name": "device_id",
          "type": "string"
        },
        {
          "name": "name",
          "type": "string"
        }
      ],
      "name": "add_device",
      "outputs": [],
      "payable": false,
      "stateMutability": "nonpayable",
      "type": "function"
    },
    {
      "constant": true,
      "inputs": [
        {
          "name": "id",
          "type": "string"
        }
      ],
      "name": "fetch_device",
      "outputs": [
        {
          "name": "",
          "type": "address"
        }
      ],
      "payable": false,
      "stateMutability": "view",
      "type": "function"
    },
    {
      "constant": true,
      "inputs": [
        {
          "name": "user",
          "type": "address"
        }
      ],
      "name": "fetch_collection",
      "outputs": [
        {
          "name": "",
          "type": "string[]"
        }
      ],
      "payable": false,
      "stateMutability": "view",
      "type": "function"
    },
    {
      "constant": false,
      "inputs": [
        {
          "name": "_user_manager",
          "type": "address"
        },
        {
          "name": "_task_manager",
          "type": "address"
        }
      ],
      "name": "init",
      "outputs": [],
      "payable": false,
      "stateMutability": "nonpayable",
      "type": "function"
    }
  ],
  "bytecode": "0x60806040526002805460ff1916905534801561001a57600080fd5b5061139e8061002a6000396000f3fe60806040523480156200001157600080fd5b50600436106200006a5760003560e01c80631f3b23ce146200006f578063261a323e146200009e5780635bcfec8014620000c45780636b8c13f614620000db578063e3a4f92614620000f4578063f09a4016146200011a575b600080fd5b62000086620000803660046200072d565b62000131565b60405162000095919062000b7e565b60405180910390f35b620000b5620000af366004620007d7565b62000226565b60405162000095919062000b91565b620000b5620000d536600462000810565b6200026a565b620000f2620000ec3660046200084a565b62000348565b005b6200010b62000105366004620007d7565b6200051e565b60405162000095919062000ba1565b620000f26200012b36600462000798565b6200057f565b6001600160a01b0381166000908152600160209081526040808320805482518185028101850190935280835260609492939192909184015b828210156200021a5760008481526020908190208301805460408051601f6002600019610100600187161502019094169390930492830185900485028101850190915281815292830182828015620002055780601f10620001d95761010080835404028352916020019162000205565b820191906000526020600020905b815481529060010190602001808311620001e757829003601f168201915b50505050508152602001906001019062000169565b5050505090505b919050565b6000808260405162000239919062000b2b565b908152604051908190036020019020546001600160a01b031615620002615750600162000221565b50600062000221565b6000620002778362000226565b80156200032f5750816001600160a01b03166000846040516200029b919062000b2b565b908152604080516020928190038301812054600160e01b638da5cb5b02825291516001600160a01b0390921692638da5cb5b92600480840193829003018186803b158015620002e957600080fd5b505afa158015620002fe573d6000803e3d6000fd5b505050506040513d601f19601f8201168201806040525062000324919081019062000756565b6001600160a01b0316145b156200033e5750600162000342565b5060005b92915050565b60025460ff166200037957604051600160e51b62461bcd028152600401620003709062000bf9565b60405180910390fd5b620003848262000226565b15620003a757604051600160e51b62461bcd028152600401620003709062000bd5565b600254604051600160e11b637b51e9270281526101009091046001600160a01b03169063f6a3d24e90620003e090339060040162000b39565b60206040518083038186803b158015620003f957600080fd5b505afa1580156200040e573d6000803e3d6000fd5b505050506040513d601f19601f8201168201806040525062000434919081019062000777565b6200045657604051600160e51b62461bcd028152600401620003709062000bb1565b600354604051339183916001600160a01b03909116906200047790620005ea565b620004859392919062000b49565b604051809103906000f080158015620004a2573d6000803e3d6000fd5b50600083604051620004b5919062000b2b565b908152604080516020928190038301902080546001600160a01b0319166001600160a01b039490941693909317909255336000908152600180835292812080549384018082559082529082902085519193620005189391019190860190620005f8565b50505050565b60006200052b8262000226565b6200054d57604051600160e51b62461bcd028152600401620003709062000be7565b6000826040516200055f919062000b2b565b908152604051908190036020019020546001600160a01b03169050919050565b60025460ff1615620005a857604051600160e51b62461bcd028152600401620003709062000bc3565b60028054600380546001600160a01b0319166001600160a01b03948516179055610100600160a81b03191661010093909216929092021760ff19166001179055565b6106488062000d1d83390190565b828054600181600116156101000203166002900490600052602060002090601f016020900481019282601f106200063b57805160ff19168380011785556200066b565b828001600101855582156200066b579182015b828111156200066b5782518255916020019190600101906200064e565b50620006799291506200067d565b5090565b6200069a91905b8082111562000679576000815560010162000684565b90565b8035620003428162000cec565b8051620003428162000cec565b8051620003428162000d06565b8035620003428162000d11565b600082601f830112620006e357600080fd5b8135620006fa620006f48262000c33565b62000c0b565b915080825260208301602083018583830111156200071757600080fd5b6200072483828462000ca7565b50505092915050565b6000602082840312156200074057600080fd5b60006200074e84846200069d565b949350505050565b6000602082840312156200076957600080fd5b60006200074e8484620006aa565b6000602082840312156200078a57600080fd5b60006200074e8484620006b7565b60008060408385031215620007ac57600080fd5b6000620007ba8585620006c4565b9250506020620007cd858286016200069d565b9150509250929050565b600060208284031215620007ea57600080fd5b813567ffffffffffffffff8111156200080257600080fd5b6200074e84828501620006d1565b600080604083850312156200082457600080fd5b823567ffffffffffffffff8111156200083c57600080fd5b620007ba85828601620006d1565b600080604083850312156200085e57600080fd5b823567ffffffffffffffff8111156200087657600080fd5b6200088485828601620006d1565b925050602083013567ffffffffffffffff811115620008a257600080fd5b620007cd85828601620006d1565b6000620008be838362000971565b9392505050565b620008d08162000c9a565b82525050565b620008d08162000c6f565b6000620008ee8262000c62565b620008fa818562000c66565b9350836020820285016200090e8562000c5c565b8060005b858110156200094e57848403895281516200092e8582620008b0565b94506200093b8362000c5c565b60209a909a019992505060010162000912565b5091979650505050505050565b620008d08162000c7c565b620008d08162000c81565b60006200097e8262000c62565b6200098a818562000c66565b93506200099c81856020860162000cb3565b620009a78162000ce2565b9093019392505050565b6000620009be8262000c62565b620009ca818562000221565b9350620009dc81856020860162000cb3565b9290920192915050565b6000620009f5601d8362000c66565b7f796f7520617265206e6f74206120726567697374657265642075736572000000815260200192915050565b600062000a3060258362000c66565b7f636f6e74726163742068617320616c7265616479206265656e20696e697469618152600160da1b641b1a5e995902602082015260400192915050565b600062000a7c60148362000c66565b7f64657669636520616c7265616479206578697374000000000000000000000000815260200192915050565b600062000ab760158362000c66565b7f64657669636520646f6573206e6f742065786973740000000000000000000000815260200192915050565b600062000af260218362000c66565b7f636f6e747261637420686173206e6f74206265656e20696e697469616c697a658152600160fa1b601902602082015260400192915050565b6000620008be8284620009b1565b60208101620003428284620008c5565b6060810162000b598286620008d6565b818103602083015262000b6d818562000971565b90506200074e6040830184620008d6565b60208082528101620008be8184620008e1565b602081016200034282846200095b565b6020810162000342828462000966565b602080825281016200034281620009e6565b60208082528101620003428162000a21565b60208082528101620003428162000a6d565b60208082528101620003428162000aa8565b60208082528101620003428162000ae3565b60405181810167ffffffffffffffff8111828210171562000c2b57600080fd5b604052919050565b600067ffffffffffffffff82111562000c4b57600080fd5b506020601f91909101601f19160190565b60200190565b5190565b90815260200190565b6000620003428262000c8e565b151590565b6000620003428262000c6f565b6001600160a01b031690565b6000620003428262000c81565b82818337506000910152565b60005b8381101562000cd057818101518382015260200162000cb6565b83811115620005185750506000910152565b601f01601f191690565b62000cf78162000c6f565b811462000d0357600080fd5b50565b62000cf78162000c7c565b62000cf78162000c8156fe608060405234801561001057600080fd5b506040516106483803806106488339810180604052606081101561003357600080fd5b81516020830180519193928301929164010000000081111561005457600080fd5b8201602081018481111561006757600080fd5b815164010000000081118282018710171561008157600080fd5b5050602091820151600080546001600160a01b0319166001600160a01b038816179055815191945092506100bb91600191908501906100e4565b50600380546001600160a01b0319166001600160a01b03929092169190911790555061017f9050565b828054600181600116156101000203166002900490600052602060002090601f016020900481019282601f1061012557805160ff1916838001178555610152565b82800160010185558215610152579182015b82811115610152578251825591602001919060010190610137565b5061015e929150610162565b5090565b61017c91905b8082111561015e5760008155600101610168565b90565b6104ba8061018e6000396000f3fe608060405234801561001057600080fd5b50600436106100625760003560e01c806306fdde0314610067578063176e8285146100e457806331c3a3e01461010c5780638da5cb5b14610145578063e7869fad1461014d578063fe32ff4c146101a5575b600080fd5b61006f6101c2565b6040805160208082528351818301528351919283929083019185019080838360005b838110156100a9578181015183820152602001610091565b50505050905090810190601f1680156100d65780820380516001836020036101000a031916815260200191505b509250505060405180910390f35b61010a600480360360208110156100fa57600080fd5b50356001600160a01b031661024f565b005b6101296004803603602081101561012257600080fd5b5035610374565b604080516001600160a01b039092168252519081900360200190f35b61012961039b565b6101556103aa565b60408051602080825283518183015283519192839290830191858101910280838360005b83811015610191578181015183820152602001610179565b505050509050019250505060405180910390f35b61010a600480360360208110156101bb57600080fd5b503561040c565b60018054604080516020600284861615610100026000190190941693909304601f810184900484028201840190925281815292918301828280156102475780601f1061021c57610100808354040283529160200191610247565b820191906000526020600020905b81548152906001019060200180831161022a57829003601f168201915b505050505081565b6003546001600160a01b031633146102a85760408051600160e51b62461bcd02815260206004820152601160248201526001607a1b701c195c9b5a5cdcda5bdb8819195b9a595902604482015290519081900360640190fd5b6002805460018101825560008290527f405787fa12a823e0f2b7631cc41b3ba8828b3321ca811111fa75cd3aa3bb5ace0180546001600160a01b0319166001600160a01b03841617905560408051602080825283549082018190527f7a75847e418b45815a603c840aeba04a5babf14dfc067ffb330ba9b37d47a51393928291908201908490801561036357602002820191906000526020600020905b81546001600160a01b03168152600190910190602001808311610345575b50509250505060405180910390a150565b6002818154811061038157fe5b6000918252602090912001546001600160a01b0316905081565b6000546001600160a01b031681565b6060600280548060200260200160405190810160405280929190818152602001828054801561040257602002820191906000526020600020905b81546001600160a01b031681526001909101906020018083116103e4575b5050505050905090565b6003546001600160a01b031633146104655760408051600160e51b62461bcd02815260206004820152601160248201526001607a1b701c195c9b5a5cdcda5bdb8819195b9a595902604482015290519081900360640190fd5b6002818154811061047257fe5b600091825260209091200180546001600160a01b03191690555056fea165627a7a72305820f252efd1fac6944e41ea8ecd3020ea5f072c2a748a3805ee1c13e3b7aeabf0c60029a265627a7a72305820a2369dbc23489c53c827d57682194b331a93e909db0d0e1647c09134c35aea9a6c6578706572696d656e74616cf50037",
  "source": "pragma solidity ^0.5.0;\npragma experimental ABIEncoderV2;\n\n// IMPORT INTERFACES\nimport { Device } from './Device.sol';\nimport { UserManager } from '../user/Manager.sol';\n\ncontract DeviceManager {\n\n    // UNIQUE DEVICES, [DEVICE_ID => DEVICE CONTRACT]\n    mapping (string => Device) devices;\n\n    // USER DEVICE COLLECTION, [ETH USER => ARRAY OF DEVICE_ID]\n    mapping (address => string[]) collections;\n\n    // INIT STATUS\n    bool initialized = false;\n\n    // REFERENCES\n    UserManager user_manager;\n    address task_manager;\n\n    // CHECK IF DEVICE EXISTS\n    function exists(string memory _hash) public view returns(bool) {\n        if (address(devices[_hash]) != 0x0000000000000000000000000000000000000000) {\n            return true;\n        } else {\n            return false;\n        }\n    }\n\n    // CHECK IF USER IS DEVICE OWNER\n    function is_owner(string memory device_id, address sender) public view returns(bool) {\n        if (exists(device_id) && devices[device_id].owner() == sender) {\n            return true;\n        } else {\n            return false;\n        }\n    }\n\n    // ADD DEVICE\n    function add_device(string memory device_id, string memory name) public {\n\n        // IF THE CONTRACT HAS BEEN INITIALIZED\n        // IF THE DEVICE DOES NOT EXIST\n        // IF THE USER IS REGISTERED\n        require(initialized, 'contract has not been initialized');\n        require(!exists(device_id), 'device already exist');\n        require(user_manager.exists(msg.sender), 'you are not a registered user');\n\n        // PUSH NEW ENTRY TO BOTH HASHMAPS\n        devices[device_id] = new Device(msg.sender, name, task_manager);\n        collections[msg.sender].push(device_id);\n    }\n\n    // FETCH SPECIFIC DEVICE\n    function fetch_device(string memory id) public view returns(Device) {\n\n        // IF THE DEVICE EXISTS\n        require(exists(id), 'device does not exist');\n        return devices[id];\n    }\n\n    // FETCH USER COLLECTION\n    function fetch_collection(address user) public view returns(string[] memory) {\n        return collections[user];\n    }\n\n    // INITIALIZE\n    function init(UserManager _user_manager, address _task_manager) public {\n\n        // IF THE CONTRACT HAS NOT BEEN INITIALIZED BEFORE\n        require(!initialized, 'contract has already been initialized');\n\n        // SET REFERENCES\n        user_manager = _user_manager;\n        task_manager = _task_manager;\n\n        // BLOCK FURTHER MODIFICATIONS\n        initialized = true;\n    }\n}",
  "sourcePath": "C:\\Users\\35840\\Desktop\\coding\\node\\eth-contracts\\contracts\\device\\Manager.sol",
  "compiler": {
    "name": "solc",
    "version": "0.5.8+commit.23d335f2.Emscripten.clang"
  },
  "schemaVersion": "3.0.17",
  "updatedAt": "2020-02-02T22:25:12.497Z",
  "networkType": "ethereum",
  "devdoc": {
    "methods": {}
  },
  "userdoc": {
    "methods": {}
  }
}