{
  "contractName": "Device",
  "abi": [
    {
      "constant": true,
      "inputs": [],
      "name": "name",
      "outputs": [
        {
          "name": "",
          "type": "string"
        }
      ],
      "payable": false,
      "stateMutability": "view",
      "type": "function"
    },
    {
      "constant": true,
      "inputs": [
        {
          "name": "",
          "type": "uint256"
        }
      ],
      "name": "backlog",
      "outputs": [
        {
          "name": "",
          "type": "address"
        }
      ],
      "payable": false,
      "stateMutability": "view",
      "type": "function"
    },
    {
      "constant": true,
      "inputs": [],
      "name": "owner",
      "outputs": [
        {
          "name": "",
          "type": "address"
        }
      ],
      "payable": false,
      "stateMutability": "view",
      "type": "function"
    },
    {
      "inputs": [
        {
          "name": "_owner",
          "type": "address"
        },
        {
          "name": "_name",
          "type": "string"
        },
        {
          "name": "_task_manager",
          "type": "address"
        }
      ],
      "payable": false,
      "stateMutability": "nonpayable",
      "type": "constructor"
    },
    {
      "anonymous": false,
      "inputs": [
        {
          "indexed": false,
          "name": "backlog",
          "type": "address[]"
        }
      ],
      "name": "Update",
      "type": "event"
    },
    {
      "constant": true,
      "inputs": [],
      "name": "fetch_backlog",
      "outputs": [
        {
          "name": "",
          "type": "address[]"
        }
      ],
      "payable": false,
      "stateMutability": "view",
      "type": "function"
    },
    {
      "constant": false,
      "inputs": [
        {
          "name": "_task",
          "type": "address"
        }
      ],
      "name": "assign_task",
      "outputs": [],
      "payable": false,
      "stateMutability": "nonpayable",
      "type": "function"
    },
    {
      "constant": false,
      "inputs": [
        {
          "name": "target",
          "type": "address"
        }
      ],
      "name": "unlist_task",
      "outputs": [],
      "payable": false,
      "stateMutability": "nonpayable",
      "type": "function"
    }
  ],
  "bytecode": "0x608060405234801561001057600080fd5b5060405161069a38038061069a8339810180604052606081101561003357600080fd5b81516020830180519193928301929164010000000081111561005457600080fd5b8201602081018481111561006757600080fd5b815164010000000081118282018710171561008157600080fd5b5050602091820151600080546001600160a01b0319166001600160a01b038816179055815191945092506100bb91600191908501906100e4565b50600380546001600160a01b0319166001600160a01b03929092169190911790555061017f9050565b828054600181600116156101000203166002900490600052602060002090601f016020900481019282601f1061012557805160ff1916838001178555610152565b82800160010185558215610152579182015b82811115610152578251825591602001919060010190610137565b5061015e929150610162565b5090565b61017c91905b8082111561015e5760008155600101610168565b90565b61050c8061018e6000396000f3fe608060405234801561001057600080fd5b50600436106100625760003560e01c806306fdde0314610067578063176e8285146100e457806331c3a3e01461010c5780638da5cb5b14610145578063bade39f71461014d578063e7869fad14610173575b600080fd5b61006f6101cb565b6040805160208082528351818301528351919283929083019185019080838360005b838110156100a9578181015183820152602001610091565b50505050905090810190601f1680156100d65780820380516001836020036101000a031916815260200191505b509250505060405180910390f35b61010a600480360360208110156100fa57600080fd5b50356001600160a01b0316610258565b005b6101296004803603602081101561012257600080fd5b503561037d565b604080516001600160a01b039092168252519081900360200190f35b6101296103a4565b61010a6004803603602081101561016357600080fd5b50356001600160a01b03166103b3565b61017b61047e565b60408051602080825283518183015283519192839290830191858101910280838360005b838110156101b757818101518382015260200161019f565b505050509050019250505060405180910390f35b60018054604080516020600284861615610100026000190190941693909304601f810184900484028201840190925281815292918301828280156102505780601f1061022557610100808354040283529160200191610250565b820191906000526020600020905b81548152906001019060200180831161023357829003601f168201915b505050505081565b6003546001600160a01b031633146102b15760408051600160e51b62461bcd02815260206004820152601160248201526001607a1b701c195c9b5a5cdcda5bdb8819195b9a595902604482015290519081900360640190fd5b6002805460018101825560008290527f405787fa12a823e0f2b7631cc41b3ba8828b3321ca811111fa75cd3aa3bb5ace0180546001600160a01b0319166001600160a01b03841617905560408051602080825283549082018190527f7a75847e418b45815a603c840aeba04a5babf14dfc067ffb330ba9b37d47a51393928291908201908490801561036c57602002820191906000526020600020905b81546001600160a01b0316815260019091019060200180831161034e575b50509250505060405180910390a150565b6002818154811061038a57fe5b6000918252602090912001546001600160a01b0316905081565b6000546001600160a01b031681565b6003546001600160a01b0316331461040c5760408051600160e51b62461bcd02815260206004820152601160248201526001607a1b701c195c9b5a5cdcda5bdb8819195b9a595902604482015290519081900360640190fd5b60005b60025481101561047a57816001600160a01b03166002828154811061043057fe5b6000918252602090912001546001600160a01b03161415610472576002818154811061045857fe5b600091825260209091200180546001600160a01b03191690555b60010161040f565b5050565b606060028054806020026020016040519081016040528092919081815260200182805480156104d657602002820191906000526020600020905b81546001600160a01b031681526001909101906020018083116104b8575b505050505090509056fea165627a7a723058205a2e11b4f456b205c36f175e79e733f289110926c15d15f82485c04eb42acdc50029",
  "source": "pragma solidity ^0.5.0;\n\ncontract Device {\n\n    // PROPERTIES\n    address public owner;\n    string public name;\n\n    // TASK BACKLOG\n    address[] public backlog;\n\n    // TASK MANAGER REFERENCE\n    address task_manager;\n\n    // NEW ASSIGNMENT EVENT\n    event Update(address[] backlog);\n\n    // WHEN CREATED\n    constructor(\n        address _owner,\n        string memory _name,\n        address _task_manager\n    ) public {\n\n        // SET BASIC PROPERTIES\n        owner = _owner;\n        name = _name;\n\n        // SET TASK MANAGER REFERENCE\n        task_manager = _task_manager;\n    }\n\n    // FETCH ASSIGNMENT BACKLOG\n    function fetch_backlog() public view returns(address[] memory) {\n        return backlog;\n    }\n\n    // ASSIGN TASK TO DEVICE\n    function assign_task(address _task) public {\n\n        // IF THE SENDER IS THE TASK MANAGER\n        require(msg.sender == task_manager, 'permission denied');\n\n        // PUSH ASSIGNMENT & EMIT EVENT\n        backlog.push(_task);\n        emit Update(backlog);\n    }\n\n    // CLEAR TASK FROM BACKLOG\n    function unlist_task(address target) public {\n\n        // IF THE SENDER IS THE TASK MANAGER\n        require(msg.sender == task_manager, 'permission denied');\n\n        // LOOP, FIND & DELETE TARGET\n        for(uint index = 0; index < backlog.length; index++) {\n            if (address(backlog[index]) == target) {\n                delete backlog[index];\n            }\n        }\n    }\n}",
  "sourcePath": "C:\\Users\\35840\\Desktop\\coding\\node\\eth-contracts\\contracts\\device\\Device.sol",
  "compiler": {
    "name": "solc",
    "version": "0.5.8+commit.23d335f2.Emscripten.clang"
  },
  "schemaVersion": "3.0.17",
  "updatedAt": "2020-02-03T01:12:44.727Z",
  "devdoc": {
    "methods": {}
  },
  "userdoc": {
    "methods": {}
  }
}