{
  "contractName": "DeviceManager",
  "abi": [
    {
      "constant": true,
      "inputs": [
        {
          "name": "_hash",
          "type": "string"
        }
      ],
      "name": "exists",
      "outputs": [
        {
          "name": "",
          "type": "bool"
        }
      ],
      "payable": false,
      "stateMutability": "view",
      "type": "function"
    },
    {
      "constant": true,
      "inputs": [
        {
          "name": "_hash",
          "type": "string"
        },
        {
          "name": "sender",
          "type": "address"
        }
      ],
      "name": "is_owner",
      "outputs": [
        {
          "name": "",
          "type": "bool"
        }
      ],
      "payable": false,
      "stateMutability": "view",
      "type": "function"
    },
    {
      "constant": false,
      "inputs": [
        {
          "name": "id",
          "type": "string"
        },
        {
          "name": "name",
          "type": "string"
        }
      ],
      "name": "add",
      "outputs": [],
      "payable": false,
      "stateMutability": "nonpayable",
      "type": "function"
    },
    {
      "constant": true,
      "inputs": [
        {
          "name": "id",
          "type": "string"
        }
      ],
      "name": "fetch_device",
      "outputs": [
        {
          "name": "",
          "type": "address"
        }
      ],
      "payable": false,
      "stateMutability": "view",
      "type": "function"
    },
    {
      "constant": true,
      "inputs": [
        {
          "name": "user",
          "type": "address"
        }
      ],
      "name": "fetch_collection",
      "outputs": [
        {
          "name": "",
          "type": "string[]"
        }
      ],
      "payable": false,
      "stateMutability": "view",
      "type": "function"
    },
    {
      "constant": false,
      "inputs": [
        {
          "name": "_user_manager",
          "type": "address"
        },
        {
          "name": "_task_manager",
          "type": "address"
        }
      ],
      "name": "init",
      "outputs": [],
      "payable": false,
      "stateMutability": "nonpayable",
      "type": "function"
    }
  ],
  "bytecode": "0x60806040526002805460ff1916905534801561001a57600080fd5b506114cb8061002a6000396000f3fe6080604052600436106200007e5763ffffffff7c01000000000000000000000000000000000000000000000000000000006000350416631f3b23ce811462000083578063261a323e14620000c05780635bcfec8014620000f4578063e3a4f9261462000119578063ebdf86ca146200014d578063f09a40161462000174575b600080fd5b3480156200009057600080fd5b50620000a8620000a2366004620008f8565b62000199565b604051620000b7919062000cda565b60405180910390f35b348015620000cd57600080fd5b50620000e5620000df366004620009a2565b6200028e565b604051620000b7919062000ced565b3480156200010157600080fd5b50620000e562000113366004620009db565b62000314565b3480156200012657600080fd5b506200013e62000138366004620009a2565b62000448565b604051620000b7919062000cfd565b3480156200015a57600080fd5b50620001726200016c36600462000a15565b620004f3565b005b3480156200018157600080fd5b50620001726200019336600462000963565b62000722565b600160a060020a0381166000908152600160209081526040808320805482518185028101850190935280835260609492939192909184015b82821015620002825760008481526020908190208301805460408051601f60026000196101006001871615020190941693909304928301859004850281018501909152818152928301828280156200026d5780601f1062000241576101008083540402835291602001916200026d565b820191906000526020600020905b8154815290600101906020018083116200024f57829003601f168201915b505050505081526020019060010190620001d1565b5050505090505b919050565b600080826040518082805190602001908083835b60208310620002c35780518252601f199092019160209182019101620002a2565b51815160209384036101000a6000190180199092169116179052920194855250604051938490030190922054600160a060020a03161591506200030b90505750600162000289565b50600062000289565b600062000321836200028e565b80156200042f575081600160a060020a03166000846040518082805190602001908083835b60208310620003675780518252601f19909201916020918201910162000346565b51815160209384036101000a6000190180199092169116179052920194855250604080519485900382018520547f8da5cb5b0000000000000000000000000000000000000000000000000000000086529051600160a060020a0390911694638da5cb5b94506004808201945090829003018186803b158015620003e957600080fd5b505afa158015620003fe573d6000803e3d6000fd5b505050506040513d601f19601f8201168201806040525062000424919081019062000921565b600160a060020a0316145b156200043e5750600162000442565b5060005b92915050565b600062000455826200028e565b1515620004825760405160e560020a62461bcd028152600401620004799062000d43565b60405180910390fd5b6000826040518082805190602001908083835b60208310620004b65780518252601f19909201916020918201910162000495565b51815160209384036101000a6000190180199092169116179052920194855250604051938490030190922054600160a060020a0316949350505050565b60025460ff1615156200051d5760405160e560020a62461bcd028152600401620004799062000d55565b62000528826200028e565b156200054b5760405160e560020a62461bcd028152600401620004799062000d31565b6002546040517ff6a3d24e000000000000000000000000000000000000000000000000000000008152610100909104600160a060020a03169063f6a3d24e906200059a90339060040162000c95565b60206040518083038186803b158015620005b357600080fd5b505afa158015620005c8573d6000803e3d6000fd5b505050506040513d601f19601f82011682018060405250620005ee919081019062000942565b1515620006125760405160e560020a62461bcd028152600401620004799062000d0d565b60035433908290600160a060020a03166200062c620007a7565b6200063a9392919062000ca5565b604051809103906000f08015801562000657573d6000803e3d6000fd5b506000836040518082805190602001908083835b602083106200068c5780518252601f1990920191602091820191016200066b565b51815160209384036101000a600019018019909216911617905292019485525060408051948590038201909420805473ffffffffffffffffffffffffffffffffffffffff1916600160a060020a03969096169590951790945550503360009081526001808452918120805492830180825590825290839020855191936200071c93919091019190860190620007b8565b50505050565b60025460ff16156200074b5760405160e560020a62461bcd028152600401620004799062000d1f565b600280546003805473ffffffffffffffffffffffffffffffffffffffff1916600160a060020a0394851617905574ffffffffffffffffffffffffffffffffffffffff00191661010093909216929092021760ff19166001179055565b6040516106528062000e4083390190565b828054600181600116156101000203166002900490600052602060002090601f016020900481019282601f10620007fb57805160ff19168380011785556200082b565b828001600101855582156200082b579182015b828111156200082b5782518255916020019190600101906200080e565b50620008399291506200083d565b5090565b6200085a91905b8082111562000839576000815560010162000844565b90565b60006200086b823562000dc2565b9392505050565b60006200086b825162000dc2565b60006200086b825162000dcf565b60006200086b823562000de0565b6000601f82018313620008ae57600080fd5b8135620008c5620008bf8262000d8f565b62000d67565b91508082526020830160208301858383011115620008e257600080fd5b620008ef83828462000dfa565b50505092915050565b6000602082840312156200090b57600080fd5b60006200091984846200085d565b949350505050565b6000602082840312156200093457600080fd5b600062000919848462000872565b6000602082840312156200095557600080fd5b600062000919848462000880565b600080604083850312156200097757600080fd5b60006200098585856200088e565b925050602062000998858286016200085d565b9150509250929050565b600060208284031215620009b557600080fd5b813567ffffffffffffffff811115620009cd57600080fd5b62000919848285016200089c565b60008060408385031215620009ef57600080fd5b823567ffffffffffffffff81111562000a0757600080fd5b62000985858286016200089c565b6000806040838503121562000a2957600080fd5b823567ffffffffffffffff81111562000a4157600080fd5b62000a4f858286016200089c565b925050602083013567ffffffffffffffff81111562000a6d57600080fd5b62000998858286016200089c565b62000a868162000ded565b82525050565b62000a868162000dc2565b600062000aa48262000dbe565b8084526020840193508360208202850162000abf8562000db8565b60005b8481101562000afc57838303885262000add83835162000b1e565b925062000aea8262000db8565b60209890980197915060010162000ac2565b50909695505050505050565b62000a868162000dcf565b62000a868162000de0565b600062000b2b8262000dbe565b80845262000b4181602086016020860162000e06565b62000b4c8162000e35565b9093016020019392505050565b601d81527f796f7520617265206e6f74206120726567697374657265642075736572000000602082015260400190565b602581527f636f6e74726163742068617320616c7265616479206265656e20696e6974696160208201527f6c697a6564000000000000000000000000000000000000000000000000000000604082015260600190565b601481527f64657669636520616c7265616479206578697374000000000000000000000000602082015260400190565b601581527f64657669636520646f6573206e6f742065786973740000000000000000000000602082015260400190565b602181527f636f6e747261637420686173206e6f74206265656e20696e697469616c697a6560208201527f6400000000000000000000000000000000000000000000000000000000000000604082015260600190565b6020810162000442828462000a7b565b6060810162000cb5828662000a8c565b818103602083015262000cc9818562000b1e565b905062000919604083018462000a8c565b602080825281016200086b818462000a97565b6020810162000442828462000b08565b6020810162000442828462000b13565b60208082528101620004428162000b59565b60208082528101620004428162000b89565b60208082528101620004428162000bdf565b60208082528101620004428162000c0f565b60208082528101620004428162000c3f565b60405181810167ffffffffffffffff8111828210171562000d8757600080fd5b604052919050565b600067ffffffffffffffff82111562000da757600080fd5b506020601f91909101601f19160190565b60200190565b5190565b6000620004428262000dd4565b151590565b600160a060020a031690565b6000620004428262000dc2565b6000620004428262000de0565b82818337506000910152565b60005b8381101562000e2357818101518382015260200162000e09565b838111156200071c5750506000910152565b601f01601f19169056fe60806040526003805460ff1916600117905534801561001d57600080fd5b506040516106523803806106528339810180604052606081101561004057600080fd5b81516020830180519193928301929164010000000081111561006157600080fd5b8201602081018481111561007457600080fd5b815164010000000081118282018710171561008e57600080fd5b505060209182015160008054600160a060020a031916600160a060020a038816179055815191945092506100c891600191908501906100f7565b5060038054600160a060020a039092166101000261010060a860020a0319909216919091179055506101929050565b828054600181600116156101000203166002900490600052602060002090601f016020900481019282601f1061013857805160ff1916838001178555610165565b82800160010185558215610165579182015b8281111561016557825182559160200191906001019061014a565b50610171929150610175565b5090565b61018f91905b80821115610171576000815560010161017b565b90565b6104b1806101a16000396000f3fe6080604052600436106100775763ffffffff7c010000000000000000000000000000000000000000000000000000000060003504166302fb0c5e811461007c57806306fdde03146100a557806340a3d2461461012f5780634e50c75c1461014657806385aba2751461018c5780638da5cb5b146101bf575b600080fd5b34801561008857600080fd5b506100916101d4565b604080519115158252519081900360200190f35b3480156100b157600080fd5b506100ba6101dd565b6040805160208082528351818301528351919283929083019185019080838360005b838110156100f45781810151838201526020016100dc565b50505050905090810190601f1680156101215780820380516001836020036101000a031916815260200191505b509250505060405180910390f35b34801561013b57600080fd5b5061014461026a565b005b34801561015257600080fd5b506101706004803603602081101561016957600080fd5b50356102f7565b60408051600160a060020a039092168252519081900360200190f35b34801561019857600080fd5b50610144600480360360208110156101af57600080fd5b5035600160a060020a031661031f565b3480156101cb57600080fd5b50610170610476565b60035460ff1681565b60018054604080516020600284861615610100026000190190941693909304601f810184900484028201840190925281815292918301828280156102625780601f1061023757610100808354040283529160200191610262565b820191906000526020600020905b81548152906001019060200180831161024557829003601f168201915b505050505081565b600054600160a060020a031633146102e357604080517f08c379a000000000000000000000000000000000000000000000000000000000815260206004820152601560248201527f796f7520617265206e6f7420746865206f776e65720000000000000000000000604482015290519081900360640190fd5b6003805460ff19811660ff90911615179055565b600280548290811061030557fe5b600091825260209091200154600160a060020a0316905081565b6003546101009004600160a060020a0316331461039d57604080517f08c379a000000000000000000000000000000000000000000000000000000000815260206004820152601160248201527f7065726d697373696f6e2064656e696564000000000000000000000000000000604482015290519081900360640190fd5b6002805460018101825560008290527f405787fa12a823e0f2b7631cc41b3ba8828b3321ca811111fa75cd3aa3bb5ace01805473ffffffffffffffffffffffffffffffffffffffff1916600160a060020a03841617905560408051602080825283549082018190527f7a75847e418b45815a603c840aeba04a5babf14dfc067ffb330ba9b37d47a51393928291908201908490801561046557602002820191906000526020600020905b8154600160a060020a03168152600190910190602001808311610447575b50509250505060405180910390a150565b600054600160a060020a03168156fea165627a7a7230582059a94ad457f93a1d17448b89e01c8cad68cc084e2b360bd9d183e3b632175f0a0029a265627a7a72305820fd47ad05513f394bb98906c5599aa9903aa44f541055255a4321a3ac1b1f8f1f6c6578706572696d656e74616cf50037",
  "source": "pragma solidity ^0.5.0;\npragma experimental ABIEncoderV2;\n\n// IMPORT INTERFACES\nimport { Device } from './Device.sol';\nimport { UserManager } from '../user/Manager.sol';\n\ncontract DeviceManager {\n\n    // UNIQUE DEVICES, [HASH ID => CONTRACT LOCATION]\n    mapping (string => Device) devices;\n\n    // USER DEVICE COLLECTION, [USER ADDRESS => LIST OF DEVICE IDS]\n    mapping (address => string[]) collections;\n\n    // INIT STATUS\n    bool initialized = false;\n\n    // REFERENCES\n    UserManager user_manager;\n    address task_manager;\n\n    // CHECK IF DEVICE EXISTS\n    function exists(string memory _hash) public view returns(bool) {\n        if (address(devices[_hash]) != 0x0000000000000000000000000000000000000000) {\n            return true;\n        } else {\n            return false;\n        }\n    }\n\n    // CHECK IF USER IS DEVICE OWNER\n    function is_owner(string memory _hash, address sender) public view returns(bool) {\n        if (exists(_hash) && devices[_hash].owner() == sender) {\n            return true;\n        } else {\n            return false;\n        }\n    }\n\n    // ADD DEVICE\n    function add(string memory id, string memory name) public {\n\n        // IF THE CONTRACT HAS BEEN INITIALIZED\n        // IF THE DEVICE DOES NOT EXIST\n        // IF THE USER IS REGISTERED\n        require(initialized, 'contract has not been initialized');\n        require(!exists(id), 'device already exist');\n        require(user_manager.exists(msg.sender), 'you are not a registered user');\n\n        // PUSH NEW ENTRY TO BOTH HASHMAPS\n        devices[id] = new Device(msg.sender, name, task_manager);\n        collections[msg.sender].push(id);\n    }\n\n    // FETCH SPECIFIC DEVICE\n    function fetch_device(string memory id) public view returns(Device) {\n\n        // IF THE DEVICE EXISTS\n        require(exists(id), 'device does not exist');\n        return devices[id];\n    }\n\n    // FETCH USER COLLECTION\n    function fetch_collection(address user) public view returns(string[] memory) {\n        return collections[user];\n    }\n\n    // INITIALIZE\n    function init(UserManager _user_manager, address _task_manager) public {\n\n        // IF THE CONTRACT HAS NOT BEEN INITIALIZED BEFORE\n        require(!initialized, 'contract has already been initialized');\n\n        // SET REFERENCES\n        user_manager = _user_manager;\n        task_manager = _task_manager;\n\n        // BLOCK FURTHER MODIFICATIONS\n        initialized = true;\n    }\n}",
  "sourcePath": "/home/bdalab/wickstjo/eth-contracts/contracts/device/Manager.sol",
  "compiler": {
    "name": "solc",
    "version": "0.5.0+commit.1d4f565a.Emscripten.clang"
  },
  "schemaVersion": "3.0.9",
  "updatedAt": "2019-11-07T10:05:59.815Z",
  "devdoc": {
    "methods": {}
  },
  "userdoc": {
    "methods": {}
  }
}