{
  "contractName": "Device",
  "abi": [
    {
      "inputs": [
        {
          "internalType": "address",
          "name": "_owner",
          "type": "address"
        },
        {
          "internalType": "string",
          "name": "_name",
          "type": "string"
        },
        {
          "internalType": "address",
          "name": "_task_manager",
          "type": "address"
        }
      ],
      "stateMutability": "nonpayable",
      "type": "constructor"
    },
    {
      "anonymous": false,
      "inputs": [
        {
          "indexed": false,
          "internalType": "address[]",
          "name": "backlog",
          "type": "address[]"
        }
      ],
      "name": "Assignment",
      "type": "event"
    },
    {
      "inputs": [
        {
          "internalType": "uint256",
          "name": "",
          "type": "uint256"
        }
      ],
      "name": "backlog",
      "outputs": [
        {
          "internalType": "address",
          "name": "",
          "type": "address"
        }
      ],
      "stateMutability": "view",
      "type": "function"
    },
    {
      "inputs": [],
      "name": "name",
      "outputs": [
        {
          "internalType": "string",
          "name": "",
          "type": "string"
        }
      ],
      "stateMutability": "view",
      "type": "function"
    },
    {
      "inputs": [],
      "name": "owner",
      "outputs": [
        {
          "internalType": "address",
          "name": "",
          "type": "address"
        }
      ],
      "stateMutability": "view",
      "type": "function"
    },
    {
      "inputs": [
        {
          "internalType": "address",
          "name": "_task",
          "type": "address"
        }
      ],
      "name": "assign_task",
      "outputs": [],
      "stateMutability": "nonpayable",
      "type": "function"
    },
    {
      "inputs": [
        {
          "internalType": "address",
          "name": "target",
          "type": "address"
        }
      ],
      "name": "clear_task",
      "outputs": [],
      "stateMutability": "nonpayable",
      "type": "function"
    }
  ],
  "bytecode": "0x608060405234801561001057600080fd5b506040516106353803806106358339818101604052606081101561003357600080fd5b81516020830180516040519294929383019291908464010000000082111561005a57600080fd5b90830190602082018581111561006f57600080fd5b825164010000000081118282018810171561008957600080fd5b82525081516020918201929091019080838360005b838110156100b657818101518382015260200161009e565b50505050905090810190601f1680156100e35780820380516001836020036101000a031916815260200191505b50604052602090810151600080546001600160a01b0319166001600160a01b038816179055845190935061011d9250600191850190610146565b50600380546001600160a01b0319166001600160a01b0392909216919091179055506101e19050565b828054600181600116156101000203166002900490600052602060002090601f016020900481019282601f1061018757805160ff19168380011785556101b4565b828001600101855582156101b4579182015b828111156101b4578251825591602001919060010190610199565b506101c09291506101c4565b5090565b6101de91905b808211156101c057600081556001016101ca565b90565b610445806101f06000396000f3fe608060405234801561001057600080fd5b50600436106100575760003560e01c806306fdde031461005c578063176e8285146100d957806331c3a3e0146101015780637003bd121461013a5780638da5cb5b14610160575b600080fd5b610064610168565b6040805160208082528351818301528351919283929083019185019080838360005b8381101561009e578181015183820152602001610086565b50505050905090810190601f1680156100cb5780820380516001836020036101000a031916815260200191505b509250505060405180910390f35b6100ff600480360360208110156100ef57600080fd5b50356001600160a01b03166101f5565b005b61011e6004803603602081101561011757600080fd5b5035610314565b604080516001600160a01b039092168252519081900360200190f35b6100ff6004803603602081101561015057600080fd5b50356001600160a01b031661033b565b61011e610400565b60018054604080516020600284861615610100026000190190941693909304601f810184900484028201840190925281815292918301828280156101ed5780601f106101c2576101008083540402835291602001916101ed565b820191906000526020600020905b8154815290600101906020018083116101d057829003601f168201915b505050505081565b6003546001600160a01b03163314610248576040805162461bcd60e51b81526020600482015260116024820152701c195c9b5a5cdcda5bdb8819195b9a5959607a1b604482015290519081900360640190fd5b6002805460018101825560008290527f405787fa12a823e0f2b7631cc41b3ba8828b3321ca811111fa75cd3aa3bb5ace0180546001600160a01b0319166001600160a01b03841617905560408051602080825283549082018190527f625d17132f6657625b15a239388f463fc1da4dcf1cdb731fbe0b0e9b433b04ae93928291908201908490801561030357602002820191906000526020600020905b81546001600160a01b031681526001909101906020018083116102e5575b50509250505060405180910390a150565b6002818154811061032157fe5b6000918252602090912001546001600160a01b0316905081565b6003546001600160a01b0316331461038e576040805162461bcd60e51b81526020600482015260116024820152701c195c9b5a5cdcda5bdb8819195b9a5959607a1b604482015290519081900360640190fd5b60005b6002548110156103fc57816001600160a01b0316600282815481106103b257fe5b6000918252602090912001546001600160a01b031614156103f457600281815481106103da57fe5b600091825260209091200180546001600160a01b03191690555b600101610391565b5050565b6000546001600160a01b03168156fea264697066735822122040c888fc9210b533cd36bf3aaa4746c32d8c9baca7c2367b119282a60231470a64736f6c63430006080033",
  "immutableReferences": {},
  "source": "pragma solidity ^0.6.8;\r\n// SPDX-License-Identifier: MIT\r\n\r\ncontract Device {\r\n\r\n    // PROPERTIES\r\n    address public owner;\r\n    string public name;\r\n\r\n    // ITERABLE TASK BACKLOG\r\n    address[] public backlog;\r\n\r\n    // NEW ASSIGNMENT EVENT\r\n    event Assignment(address[] backlog);\r\n\r\n    // TASK MANAGER REFERENCE\r\n    address task_manager;\r\n\r\n    // SET STATIC VARIABLES\r\n    constructor(\r\n        address _owner,\r\n        string memory _name,\r\n        address _task_manager\r\n    ) public {\r\n\r\n        // SET PROPERTIES\r\n        owner = _owner;\r\n        name = _name;\r\n        task_manager = _task_manager;\r\n    }\r\n\r\n    // ASSIGN TASK TO DEVICE\r\n    function assign_task(address _task) public {\r\n\r\n        // IF THE SENDER IS THE TASK MANAGER\r\n        require(msg.sender == task_manager, 'permission denied');\r\n\r\n        // ADD TASK TO BACKLOG & TRIGGER EVENT\r\n        backlog.push(_task);\r\n        emit Assignment(backlog);\r\n    }\r\n\r\n    // CLEAR FINISHED TASK FROM BACKLOG\r\n    function clear_task(address target) public {\r\n\r\n        // IF THE SENDER IS THE TASK MANAGER\r\n        require(msg.sender == task_manager, 'permission denied');\r\n\r\n        // LOOP, FIND & DELETE TARGET\r\n        for(uint index = 0; index < backlog.length; index++) {\r\n            if (address(backlog[index]) == target) {\r\n                delete backlog[index];\r\n            }\r\n        }\r\n    }\r\n}",
  "sourcePath": "C:\\Users\\35840\\Desktop\\coding\\node\\eth-contracts\\contracts\\device\\Device.sol",
  "compiler": {
    "name": "solc",
    "version": "0.6.8+commit.0bbfe453.Emscripten.clang"
  },
  "schemaVersion": "3.2.0",
  "updatedAt": "2020-06-24T11:04:50.480Z",
  "devdoc": {
    "methods": {}
  },
  "userdoc": {
    "methods": {}
  }
}