{
  "contractName": "Device",
  "abi": [
    {
      "constant": true,
      "inputs": [],
      "name": "active",
      "outputs": [
        {
          "name": "",
          "type": "bool"
        }
      ],
      "payable": false,
      "stateMutability": "view",
      "type": "function"
    },
    {
      "constant": true,
      "inputs": [],
      "name": "name",
      "outputs": [
        {
          "name": "",
          "type": "string"
        }
      ],
      "payable": false,
      "stateMutability": "view",
      "type": "function"
    },
    {
      "constant": true,
      "inputs": [
        {
          "name": "",
          "type": "uint256"
        }
      ],
      "name": "assignments",
      "outputs": [
        {
          "name": "",
          "type": "address"
        }
      ],
      "payable": false,
      "stateMutability": "view",
      "type": "function"
    },
    {
      "constant": true,
      "inputs": [],
      "name": "owner",
      "outputs": [
        {
          "name": "",
          "type": "address"
        }
      ],
      "payable": false,
      "stateMutability": "view",
      "type": "function"
    },
    {
      "inputs": [
        {
          "name": "_owner",
          "type": "address"
        },
        {
          "name": "_name",
          "type": "string"
        },
        {
          "name": "_task_manager",
          "type": "address"
        }
      ],
      "payable": false,
      "stateMutability": "nonpayable",
      "type": "constructor"
    },
    {
      "anonymous": false,
      "inputs": [
        {
          "indexed": false,
          "name": "assignments",
          "type": "address[]"
        }
      ],
      "name": "Update",
      "type": "event"
    },
    {
      "constant": false,
      "inputs": [],
      "name": "toggle",
      "outputs": [],
      "payable": false,
      "stateMutability": "nonpayable",
      "type": "function"
    },
    {
      "constant": true,
      "inputs": [],
      "name": "fetch_assignments",
      "outputs": [
        {
          "name": "",
          "type": "address[]"
        }
      ],
      "payable": false,
      "stateMutability": "view",
      "type": "function"
    },
    {
      "constant": false,
      "inputs": [
        {
          "name": "_task",
          "type": "address"
        }
      ],
      "name": "assign",
      "outputs": [],
      "payable": false,
      "stateMutability": "nonpayable",
      "type": "function"
    }
  ],
  "bytecode": "0x60806040526003805460ff1916600117905534801561001d57600080fd5b506040516106883803806106888339810180604052606081101561004057600080fd5b81516020830180519193928301929164010000000081111561006157600080fd5b8201602081018481111561007457600080fd5b815164010000000081118282018710171561008e57600080fd5b5050602091820151600080546001600160a01b0319166001600160a01b038816179055815191945092506100c891600191908501906100f7565b50600380546001600160a01b0390921661010002610100600160a81b0319909216919091179055506101929050565b828054600181600116156101000203166002900490600052602060002090601f016020900481019282601f1061013857805160ff1916838001178555610165565b82800160010185558215610165579182015b8281111561016557825182559160200191906001019061014a565b50610171929150610175565b5090565b61018f91905b80821115610171576000815560010161017b565b90565b6104e7806101a16000396000f3fe608060405234801561001057600080fd5b506004361061007d5760003560e01c806340a3d2461161005b57806340a3d246146101735780634e50c75c1461017d57806385aba275146101b65780638da5cb5b146101dc5761007d565b806302fb0c5e1461008257806306fdde031461009e57806335d02f721461011b575b600080fd5b61008a6101e4565b604080519115158252519081900360200190f35b6100a66101ed565b6040805160208082528351818301528351919283929083019185019080838360005b838110156100e05781810151838201526020016100c8565b50505050905090810190601f16801561010d5780820380516001836020036101000a031916815260200191505b509250505060405180910390f35b61012361027a565b60408051602080825283518183015283519192839290830191858101910280838360005b8381101561015f578181015183820152602001610147565b505050509050019250505060405180910390f35b61017b6102dc565b005b61019a6004803603602081101561019357600080fd5b5035610352565b604080516001600160a01b039092168252519081900360200190f35b61017b600480360360208110156101cc57600080fd5b50356001600160a01b0316610379565b61019a6104ac565b60035460ff1681565b60018054604080516020600284861615610100026000190190941693909304601f810184900484028201840190925281815292918301828280156102725780601f1061024757610100808354040283529160200191610272565b820191906000526020600020905b81548152906001019060200180831161025557829003601f168201915b505050505081565b606060028054806020026020016040519081016040528092919081815260200182805480156102d257602002820191906000526020600020905b81546001600160a01b031681526001909101906020018083116102b4575b5050505050905090565b6000546001600160a01b0316331461033e5760408051600160e51b62461bcd02815260206004820152601560248201527f796f7520617265206e6f7420746865206f776e65720000000000000000000000604482015290519081900360640190fd5b6003805460ff19811660ff90911615179055565b6002818154811061035f57fe5b6000918252602090912001546001600160a01b0316905081565b60035461010090046001600160a01b031633146103e05760408051600160e51b62461bcd02815260206004820152601160248201527f7065726d697373696f6e2064656e696564000000000000000000000000000000604482015290519081900360640190fd5b6002805460018101825560008290527f405787fa12a823e0f2b7631cc41b3ba8828b3321ca811111fa75cd3aa3bb5ace0180546001600160a01b0319166001600160a01b03841617905560408051602080825283549082018190527f7a75847e418b45815a603c840aeba04a5babf14dfc067ffb330ba9b37d47a51393928291908201908490801561049b57602002820191906000526020600020905b81546001600160a01b0316815260019091019060200180831161047d575b50509250505060405180910390a150565b6000546001600160a01b03168156fea165627a7a723058203f0ef5a0a596b8684f8fb59a1ad55a84949000e5edbc80eeacbf758c327899330029",
  "source": "pragma solidity ^0.5.0;\n\ncontract Device {\n\n    // PROPERTIES\n    address payable public owner;\n    string public name;\n\n    // ASSIGNMENT BACKLOG\n    address[] public assignments;\n\n    // ACTIVE STATUS\n    bool public active = true;\n\n    // TASK MANAGER REFERENCE\n    address task_manager;\n\n    // NEW ASSIGNMENT EVENT\n    event Update(address[] assignments);\n\n    // WHEN CREATED\n    constructor(\n        address payable _owner,\n        string memory _name,\n        address _task_manager\n    ) public {\n\n        // SET BASIC PROPERTIES\n        owner = _owner;\n        name = _name;\n\n        // SET TASK MANAGER REFERENCE\n        task_manager = _task_manager;\n    }\n\n    // TOGGLE STATUS\n    function toggle() public {\n\n        // IF CALLER IS THE DEVICE OWNER\n        require(msg.sender == owner, 'you are not the owner');\n        active = !active;\n    }\n\n    // FETCH ASSIGNMENT BACKLOG\n    function fetch_assignments() public view returns(address[] memory) {\n        return assignments;\n    }\n\n    // ASSIGN TASK TO DEVICE\n    function assign(address _task) public {\n\n        // IF THE SENDER IS THE TASK MANAGER\n        require(msg.sender == task_manager, 'permission denied');\n\n        // PUSH ASSIGNMENT & EMIT EVENT\n        assignments.push(_task);\n        emit Update(assignments);\n    }\n}",
  "sourcePath": "C:\\Users\\35840\\Desktop\\coding\\node\\eth-contracts\\contracts\\device\\Device.sol",
  "compiler": {
    "name": "solc",
    "version": "0.5.8+commit.23d335f2.Emscripten.clang"
  },
  "schemaVersion": "3.0.17",
  "updatedAt": "2019-11-09T00:44:41.974Z",
  "devdoc": {
    "methods": {}
  },
  "userdoc": {
    "methods": {}
  }
}