{
  "contractName": "DeviceManager",
  "abi": [
    {
      "inputs": [
        {
          "internalType": "string",
          "name": "id",
          "type": "string"
        }
      ],
      "name": "fetch_device",
      "outputs": [
        {
          "internalType": "contract Device",
          "name": "",
          "type": "address"
        }
      ],
      "stateMutability": "view",
      "type": "function",
      "constant": true
    },
    {
      "inputs": [
        {
          "internalType": "address",
          "name": "user",
          "type": "address"
        }
      ],
      "name": "fetch_collection",
      "outputs": [
        {
          "internalType": "string[]",
          "name": "",
          "type": "string[]"
        }
      ],
      "stateMutability": "view",
      "type": "function",
      "constant": true
    },
    {
      "inputs": [
        {
          "internalType": "string",
          "name": "id",
          "type": "string"
        },
        {
          "internalType": "string",
          "name": "name",
          "type": "string"
        }
      ],
      "name": "add",
      "outputs": [],
      "stateMutability": "nonpayable",
      "type": "function"
    },
    {
      "inputs": [
        {
          "internalType": "address",
          "name": "_user_manager",
          "type": "address"
        },
        {
          "internalType": "address",
          "name": "_task_manager",
          "type": "address"
        }
      ],
      "name": "init",
      "outputs": [],
      "stateMutability": "nonpayable",
      "type": "function"
    },
    {
      "inputs": [
        {
          "internalType": "string",
          "name": "id",
          "type": "string"
        }
      ],
      "name": "exists",
      "outputs": [
        {
          "internalType": "bool",
          "name": "",
          "type": "bool"
        }
      ],
      "stateMutability": "view",
      "type": "function",
      "constant": true
    }
  ],
  "bytecode": "0x60806040526002805460ff1916905534801561001a57600080fd5b50610f3a8061002a6000396000f3fe608060405234801561001057600080fd5b50600436106100575760003560e01c80631f3b23ce1461005c578063261a323e14610085578063e3a4f926146100a5578063ebdf86ca146100c5578063f09a4016146100da575b600080fd5b61006f61006a36600461059f565b6100ed565b60405161007c9190610742565b60405180910390f35b610098610093366004610615565b6101dc565b60405161007c91906107a2565b6100b86100b3366004610615565b61021b565b60405161007c91906106f9565b6100d86100d3366004610650565b61024c565b005b6100d86100e83660046105c1565b6103f7565b6001600160a01b0381166000908152600160209081526040808320805482518185028101850190935280835260609492939192909184015b828210156101d05760008481526020908190208301805460408051601f60026000196101006001871615020190941693909304928301859004850281018501909152818152928301828280156101bc5780601f10610191576101008083540402835291602001916101bc565b820191906000526020600020905b81548152906001019060200180831161019f57829003601f168201915b505050505081526020019060010190610125565b5050505090505b919050565b600080826040516101ed91906106dd565b908152604051908190036020019020546001600160a01b031615610213575060016101d7565b5060006101d7565b6000808260405161022c91906106dd565b908152604051908190036020019020546001600160a01b03169050919050565b60025460ff166102775760405162461bcd60e51b815260040161026e9061085e565b60405180910390fd5b610280826101dc565b1561029d5760405162461bcd60e51b815260040161026e90610827565b600254604051637b51e92760e11b81526101009091046001600160a01b03169063f6a3d24e906102d19033906004016106f9565b60206040518083038186803b1580156102e957600080fd5b505afa1580156102fd573d6000803e3d6000fd5b505050506040513d601f19601f8201168201806040525081019061032191906105f5565b61033d5760405162461bcd60e51b815260040161026e906107f2565b600354604051339183916001600160a01b039091169061035c9061045c565b6103689392919061070d565b604051809103906000f080158015610384573d6000803e3d6000fd5b5060008360405161039591906106dd565b908152604080516020928190038301902080546001600160a01b0319166001600160a01b039490941693909317909255336000908152600180835292812080549384018155815281902084516103f2939190910191850190610469565b505050565b60025460ff161561041a5760405162461bcd60e51b815260040161026e906107ad565b60028054600380546001600160a01b0319166001600160a01b03948516179055610100600160a81b03191661010093909216929092021760ff19166001179055565b610635806108d083390190565b828054600181600116156101000203166002900490600052602060002090601f016020900481019282601f106104aa57805160ff19168380011785556104d7565b828001600101855582156104d7579182015b828111156104d75782518255916020019190600101906104bc565b506104e39291506104e7565b5090565b61050191905b808211156104e357600081556001016104ed565b90565b80356001600160a01b038116811461051b57600080fd5b92915050565b600082601f830112610531578081fd5b813567ffffffffffffffff80821115610548578283fd5b604051601f8301601f191681016020018281118282101715610568578485fd5b60405282815292508284830160200186101561058357600080fd5b8260208601602083013760006020848301015250505092915050565b6000602082840312156105b0578081fd5b6105ba8383610504565b9392505050565b600080604083850312156105d3578081fd5b6105dd8484610504565b91506105ec8460208501610504565b90509250929050565b600060208284031215610606578081fd5b815180151581146105ba578182fd5b600060208284031215610626578081fd5b813567ffffffffffffffff81111561063c578182fd5b61064884828501610521565b949350505050565b60008060408385031215610662578182fd5b823567ffffffffffffffff80821115610679578384fd5b61068586838701610521565b9350602085013591508082111561069a578283fd5b506106a785828601610521565b9150509250929050565b600081518084526106c981602086016020860161089f565b601f01601f19169290920160200192915050565b600082516106ef81846020870161089f565b9190910192915050565b6001600160a01b0391909116815260200190565b600060018060a01b0380861683526060602084015261072f60608401866106b1565b9150808416604084015250949350505050565b6000602080830181845280855180835260408601915060408482028701019250838701855b8281101561079557603f198886030184526107838583516106b1565b94509285019290850190600101610767565b5092979650505050505050565b901515815260200190565b60208082526025908201527f636f6e74726163742068617320616c7265616479206265656e20696e697469616040820152641b1a5e995960da1b606082015260800190565b6020808252818101527f796f75206e65656420746f206265206120726567697374657265642075736572604082015260600190565b60208082526019908201527f6964656e74696669657220616c72656164792065786973747300000000000000604082015260600190565b60208082526021908201527f636f6e747261637420686173206e6f74206265656e20696e697469616c697a656040820152601960fa1b606082015260800190565b60005b838110156108ba5781810151838201526020016108a2565b838111156108c9576000848401525b5050505056fe608060405234801561001057600080fd5b506040516106353803806106358339818101604052606081101561003357600080fd5b81516020830180516040519294929383019291908464010000000082111561005a57600080fd5b90830190602082018581111561006f57600080fd5b825164010000000081118282018810171561008957600080fd5b82525081516020918201929091019080838360005b838110156100b657818101518382015260200161009e565b50505050905090810190601f1680156100e35780820380516001836020036101000a031916815260200191505b50604052602090810151600080546001600160a01b0319166001600160a01b038816179055845190935061011d9250600191850190610146565b50600380546001600160a01b0319166001600160a01b0392909216919091179055506101e19050565b828054600181600116156101000203166002900490600052602060002090601f016020900481019282601f1061018757805160ff19168380011785556101b4565b828001600101855582156101b4579182015b828111156101b4578251825591602001919060010190610199565b506101c09291506101c4565b5090565b6101de91905b808211156101c057600081556001016101ca565b90565b610445806101f06000396000f3fe608060405234801561001057600080fd5b50600436106100575760003560e01c806306fdde031461005c578063176e8285146100d957806331c3a3e0146101015780637003bd121461013a5780638da5cb5b14610160575b600080fd5b610064610168565b6040805160208082528351818301528351919283929083019185019080838360005b8381101561009e578181015183820152602001610086565b50505050905090810190601f1680156100cb5780820380516001836020036101000a031916815260200191505b509250505060405180910390f35b6100ff600480360360208110156100ef57600080fd5b50356001600160a01b03166101f5565b005b61011e6004803603602081101561011757600080fd5b5035610314565b604080516001600160a01b039092168252519081900360200190f35b6100ff6004803603602081101561015057600080fd5b50356001600160a01b031661033b565b61011e610400565b60018054604080516020600284861615610100026000190190941693909304601f810184900484028201840190925281815292918301828280156101ed5780601f106101c2576101008083540402835291602001916101ed565b820191906000526020600020905b8154815290600101906020018083116101d057829003601f168201915b505050505081565b6003546001600160a01b03163314610248576040805162461bcd60e51b81526020600482015260116024820152701c195c9b5a5cdcda5bdb8819195b9a5959607a1b604482015290519081900360640190fd5b6002805460018101825560008290527f405787fa12a823e0f2b7631cc41b3ba8828b3321ca811111fa75cd3aa3bb5ace0180546001600160a01b0319166001600160a01b03841617905560408051602080825283549082018190527f625d17132f6657625b15a239388f463fc1da4dcf1cdb731fbe0b0e9b433b04ae93928291908201908490801561030357602002820191906000526020600020905b81546001600160a01b031681526001909101906020018083116102e5575b50509250505060405180910390a150565b6002818154811061032157fe5b6000918252602090912001546001600160a01b0316905081565b6003546001600160a01b0316331461038e576040805162461bcd60e51b81526020600482015260116024820152701c195c9b5a5cdcda5bdb8819195b9a5959607a1b604482015290519081900360640190fd5b60005b6002548110156103fc57816001600160a01b0316600282815481106103b257fe5b6000918252602090912001546001600160a01b031614156103f457600281815481106103da57fe5b600091825260209091200180546001600160a01b03191690555b600101610391565b5050565b6000546001600160a01b03168156fea264697066735822122040c888fc9210b533cd36bf3aaa4746c32d8c9baca7c2367b119282a60231470a64736f6c63430006080033a26469706673582212201c4b56593c1f7966dd0ca51f20ff5ecc312d00e099acc7a1ea931c159885429b64736f6c63430006080033",
  "immutableReferences": {},
  "source": "pragma solidity ^0.6.8;\r\npragma experimental ABIEncoderV2;\r\n// SPDX-License-Identifier: MIT\r\n\r\n// IMPORT INTERFACE\r\nimport { Device } from './Device.sol';\r\nimport { UserManager } from '../user/Manager.sol';\r\n\r\ncontract DeviceManager {\r\n\r\n    // MAP OF ALL DEVICES, [DEVICE ID => INTERFACE]\r\n    mapping (string => Device) devices;\r\n\r\n    // USER DEVICE COLLECTIONS, [ADDRESS => LIST OF DEVIVES]\r\n    mapping (address => string[]) collections;\r\n\r\n    // INIT STATUS & MANAGER REFERENCE\r\n    bool initialized = false;\r\n    UserManager user_manager;\r\n    address task_manager;\r\n\r\n    // FETCH DEVICE CONTRACT\r\n    function fetch_device(string memory id) public view returns(Device) {\r\n        return devices[id];\r\n    }\r\n\r\n    // FETCH USER DEVICE COLLECTION\r\n    function fetch_collection(address user) public view returns(string[] memory) {\r\n        return collections[user];\r\n    }\r\n\r\n    // ADD NEW DEVICE\r\n    function add(\r\n        string memory id,\r\n        string memory name\r\n    ) public {\r\n\r\n        // IF THE CONTRACT HAS BEEN INITIALIZED\r\n        // IF THE DEVICE DOES NOT EXIST\r\n        // IF THE USER IS REGISTERED\r\n        require(initialized, 'contract has not been initialized');\r\n        require(!exists(id), 'identifier already exists');\r\n        require(user_manager.exists(msg.sender), 'you need to be a registered user');\r\n\r\n        // INSTATIATE NEW DEVICE & ADD IT\r\n        devices[id] = new Device(\r\n            msg.sender,\r\n            name,\r\n            task_manager\r\n        );\r\n\r\n        // PUSH INTO USER COLLECTION\r\n        collections[msg.sender].push(id);\r\n    }\r\n\r\n    // SET STATIC VARIABLES\r\n    function init(\r\n        address _user_manager,\r\n        address _task_manager\r\n    ) public {\r\n\r\n        // IF THE CONTRACT HAS NOT BEEN INITIALIZED BEFORE\r\n        require(!initialized, 'contract has already been initialized');\r\n\r\n        // SET REFERENCES\r\n        user_manager = UserManager(_user_manager);\r\n        task_manager = _task_manager;\r\n\r\n        // BLOCK FURTHER MODIFICATIONS\r\n        initialized = true;\r\n    }\r\n\r\n    // CHECK IF DEVICE EXISTS\r\n    function exists(string memory id) public view returns(bool) {\r\n        if (address(devices[id]) != 0x0000000000000000000000000000000000000000) {\r\n            return true;\r\n        } else {\r\n            return false;\r\n        }\r\n    }\r\n}",
  "sourcePath": "C:\\Users\\35840\\Desktop\\coding\\node\\eth-contracts\\contracts\\device\\Manager.sol",
  "compiler": {
    "name": "solc",
    "version": "0.6.8+commit.0bbfe453.Emscripten.clang"
  },
  "schemaVersion": "3.2.0",
  "updatedAt": "2020-06-19T16:15:06.415Z",
  "networkType": "ethereum",
  "devdoc": {
    "methods": {}
  },
  "userdoc": {
    "methods": {}
  }
}