{
  "contractName": "DeviceManager",
  "abi": [
    {
      "anonymous": false,
      "inputs": [
        {
          "indexed": false,
          "name": "user",
          "type": "address"
        },
        {
          "indexed": false,
          "name": "devices",
          "type": "string[]"
        }
      ],
      "name": "Update",
      "type": "event"
    },
    {
      "constant": false,
      "inputs": [
        {
          "name": "_user_manager",
          "type": "address"
        }
      ],
      "name": "init",
      "outputs": [],
      "payable": false,
      "stateMutability": "nonpayable",
      "type": "function"
    },
    {
      "constant": true,
      "inputs": [
        {
          "name": "_hash",
          "type": "string"
        }
      ],
      "name": "exists",
      "outputs": [
        {
          "name": "",
          "type": "bool"
        }
      ],
      "payable": false,
      "stateMutability": "view",
      "type": "function"
    },
    {
      "constant": true,
      "inputs": [
        {
          "name": "_hash",
          "type": "string"
        },
        {
          "name": "sender",
          "type": "address"
        }
      ],
      "name": "is_owner",
      "outputs": [
        {
          "name": "",
          "type": "bool"
        }
      ],
      "payable": false,
      "stateMutability": "view",
      "type": "function"
    },
    {
      "constant": true,
      "inputs": [
        {
          "name": "id",
          "type": "string"
        }
      ],
      "name": "fetch_device",
      "outputs": [
        {
          "name": "",
          "type": "address"
        }
      ],
      "payable": false,
      "stateMutability": "view",
      "type": "function"
    },
    {
      "constant": true,
      "inputs": [
        {
          "name": "user",
          "type": "address"
        }
      ],
      "name": "fetch_collection",
      "outputs": [
        {
          "name": "",
          "type": "string[]"
        }
      ],
      "payable": false,
      "stateMutability": "view",
      "type": "function"
    },
    {
      "constant": false,
      "inputs": [
        {
          "name": "id",
          "type": "string"
        },
        {
          "name": "nickname",
          "type": "string"
        }
      ],
      "name": "add",
      "outputs": [],
      "payable": false,
      "stateMutability": "nonpayable",
      "type": "function"
    }
  ],
  "bytecode": "0x60806040526002805460ff1916905534801561001a57600080fd5b506113428061002a6000396000f3fe60806040523480156200001157600080fd5b50600436106200006a5760003560e01c806319ab453c146200006f5780631f3b23ce1462000088578063261a323e14620000b75780635bcfec8014620000dd578063e3a4f92614620000f4578063ebdf86ca146200011a575b600080fd5b6200008662000080366004620007bd565b62000131565b005b6200009f6200009936600462000752565b62000192565b604051620000ae919062000cc5565b60405180910390f35b620000ce620000c8366004620007de565b62000287565b604051620000ae919062000cd8565b620000ce620000ee36600462000817565b620002cb565b6200010b62000105366004620007de565b620003a9565b604051620000ae919062000ce8565b620000866200012b3660046200086e565b6200040a565b60025460ff16156200016357604051600160e51b62461bcd0281526004016200015a9062000d0a565b60405180910390fd5b6002805460ff196001600160a01b0390931661010002610100600160a81b031990911617919091166001179055565b6001600160a01b0381166000908152600160209081526040808320805482518185028101850190935280835260609492939192909184015b828210156200027b5760008481526020908190208301805460408051601f6002600019610100600187161502019094169390930492830185900485028101850190915281815292830182828015620002665780601f106200023a5761010080835404028352916020019162000266565b820191906000526020600020905b8154815290600101906020018083116200024857829003601f168201915b505050505081526020019060010190620001ca565b5050505090505b919050565b600080826040516200029a919062000c5f565b908152604051908190036020019020546001600160a01b031615620002c25750600162000282565b50600062000282565b6000620002d88362000287565b8015620003905750816001600160a01b0316600084604051620002fc919062000c5f565b908152604080516020928190038301812054600160e01b638da5cb5b02825291516001600160a01b0390921692638da5cb5b92600480840193829003018186803b1580156200034a57600080fd5b505afa1580156200035f573d6000803e3d6000fd5b505050506040513d601f19601f820116820180604052506200038591908101906200077b565b6001600160a01b0316145b156200039f57506001620003a3565b5060005b92915050565b6000620003b68262000287565b620003d857604051600160e51b62461bcd0281526004016200015a9062000d2e565b600082604051620003ea919062000c5f565b908152604051908190036020019020546001600160a01b03169050919050565b60025460ff166200043257604051600160e51b62461bcd0281526004016200015a9062000d40565b6200043d8262000287565b156200046057604051600160e51b62461bcd0281526004016200015a9062000d1c565b600254604051600160e11b637b51e9270281526101009091046001600160a01b03169063f6a3d24e906200049990339060040162000c6d565b60206040518083038186803b158015620004b257600080fd5b505afa158015620004c7573d6000803e3d6000fd5b505050506040513d601f19601f82011682018060405250620004ed91908101906200079c565b6200050f57604051600160e51b62461bcd0281526004016200015a9062000cf8565b33816040516200051f906200060f565b6200052c92919062000ca1565b604051809103906000f08015801562000549573d6000803e3d6000fd5b506000836040516200055c919062000c5f565b908152604080516020928190038301902080546001600160a01b0319166001600160a01b039490941693909317909255336000908152600180835292812080549384018082559082529082902085519193620005bf93910191908601906200061d565b5050336000818152600160205260409081902090517fb9b9a6e4882ddd7ef7120260a80858c10228c734c77b6659b0d1622d0128da47926200060392909162000c7d565b60405180910390a15050565b61048b8062000e7e83390190565b828054600181600116156101000203166002900490600052602060002090601f016020900481019282601f106200066057805160ff191683800117855562000690565b8280016001018555821562000690579182015b828111156200069057825182559160200191906001019062000673565b506200069e929150620006a2565b5090565b620006bf91905b808211156200069e5760008155600101620006a9565b90565b8035620003a38162000e4d565b8051620003a38162000e4d565b8051620003a38162000e67565b8035620003a38162000e72565b600082601f8301126200070857600080fd5b81356200071f620007198262000d7a565b62000d52565b915080825260208301602083018583830111156200073c57600080fd5b6200074983828462000e04565b50505092915050565b6000602082840312156200076557600080fd5b6000620007738484620006c2565b949350505050565b6000602082840312156200078e57600080fd5b6000620007738484620006cf565b600060208284031215620007af57600080fd5b6000620007738484620006dc565b600060208284031215620007d057600080fd5b6000620007738484620006e9565b600060208284031215620007f157600080fd5b813567ffffffffffffffff8111156200080957600080fd5b6200077384828501620006f6565b600080604083850312156200082b57600080fd5b823567ffffffffffffffff8111156200084357600080fd5b6200085185828601620006f6565b92505060206200086485828601620006c2565b9150509250929050565b600080604083850312156200088257600080fd5b823567ffffffffffffffff8111156200089a57600080fd5b620008a885828601620006f6565b925050602083013567ffffffffffffffff811115620008c657600080fd5b6200086485828601620006f6565b6000620008e2838362000a0f565b9392505050565b6000620008e2838362000a84565b620009028162000df7565b82525050565b620009028162000dcc565b6000620009208262000db5565b6200092c818562000dc3565b935083602082028501620009408562000da3565b8060005b85811015620009805784840389528151620009608582620008d4565b94506200096d8362000da3565b60209a909a019992505060010162000944565b5091979650505050505050565b60006200099a8262000db9565b620009a6818562000dc3565b935083602082028501620009ba8562000da9565b8060005b858110156200098057848403895281620009d98582620008e9565b9450620009e68362000dbd565b60209a909a0199925050600101620009be565b620009028162000dd9565b620009028162000dde565b600062000a1c8262000db5565b62000a28818562000dc3565b935062000a3a81856020860162000e10565b62000a458162000e43565b9093019392505050565b600062000a5c8262000db5565b62000a68818562000282565b935062000a7a81856020860162000e10565b9290920192915050565b60008154600181166000811462000aa4576001811462000acd5762000b12565b607f600283041662000ab7818762000dc3565b60ff198416815295505060208501925062000b12565b6002820462000add818762000dc3565b955062000aea8562000da9565b60005b8281101562000b0b5781548882015260019091019060200162000aed565b8701945050505b505092915050565b600062000b29601d8362000dc3565b7f796f7520617265206e6f74206120726567697374657265642075736572000000815260200192915050565b600062000b6460258362000dc3565b7f636f6e74726163742068617320616c7265616479206265656e20696e697469618152600160da1b641b1a5e995902602082015260400192915050565b600062000bb060148362000dc3565b7f64657669636520616c7265616479206578697374000000000000000000000000815260200192915050565b600062000beb60158362000dc3565b7f64657669636520646f6573206e6f742065786973740000000000000000000000815260200192915050565b600062000c2660218362000dc3565b7f636f6e747261637420686173206e6f74206265656e20696e697469616c697a658152600160fa1b601902602082015260400192915050565b6000620008e2828462000a4f565b60208101620003a38284620008f7565b6040810162000c8d8285620008f7565b81810360208301526200077381846200098d565b6040810162000cb1828562000908565b818103602083015262000773818462000a0f565b60208082528101620008e2818462000913565b60208101620003a38284620009f9565b60208101620003a3828462000a04565b60208082528101620003a38162000b1a565b60208082528101620003a38162000b55565b60208082528101620003a38162000ba1565b60208082528101620003a38162000bdc565b60208082528101620003a38162000c17565b60405181810167ffffffffffffffff8111828210171562000d7257600080fd5b604052919050565b600067ffffffffffffffff82111562000d9257600080fd5b506020601f91909101601f19160190565b60200190565b60009081526020902090565b5190565b5490565b60010190565b90815260200190565b6000620003a38262000deb565b151590565b6000620003a38262000dcc565b6001600160a01b031690565b6000620003a38262000dde565b82818337506000910152565b60005b8381101562000e2d57818101518382015260200162000e13565b8381111562000e3d576000848401525b50505050565b601f01601f191690565b62000e588162000dcc565b811462000e6457600080fd5b50565b62000e588162000dd9565b62000e588162000dde56fe608060405234801561001057600080fd5b5060405161048b38038061048b8339810180604052604081101561003357600080fd5b81516020830180519193928301929164010000000081111561005457600080fd5b8201602081018481111561006757600080fd5b815164010000000081118282018710171561008157600080fd5b5050600080546001600160a01b0319166001600160a01b03871617905580519093506100b692506001915060208401906100cb565b50506003805460ff1916600117905550610166565b828054600181600116156101000203166002900490600052602060002090601f016020900481019282601f1061010c57805160ff1916838001178555610139565b82800160010185558215610139579182015b8281111561013957825182559160200191906001019061011e565b50610145929150610149565b5090565b61016391905b80821115610145576000815560010161014f565b90565b610316806101756000396000f3fe608060405234801561001057600080fd5b50600436106100575760003560e01c8063200d2ed21461005c57806340a3d246146100785780634e50c75c146100825780638da5cb5b146100bb5780639429e171146100c3575b600080fd5b6100646100f1565b604080519115158252519081900360200190f35b6100806100fa565b005b61009f6004803603602081101561009857600080fd5b5035610170565b604080516001600160a01b039092168252519081900360200190f35b61009f610197565b610080600480360360408110156100d957600080fd5b506001600160a01b03813581169160200135166101a6565b60035460ff1681565b6000546001600160a01b0316331461015c5760408051600160e51b62461bcd02815260206004820152601560248201527f796f7520617265206e6f7420746865206f776e65720000000000000000000000604482015290519081900360640190fd5b6003805460ff19811660ff90911615179055565b6002818154811061017d57fe5b6000918252602090912001546001600160a01b0316905081565b6000546001600160a01b031681565b6000546001600160a01b0382811691161461020b5760408051600160e51b62461bcd02815260206004820152601560248201527f796f7520617265206e6f7420746865206f776e65720000000000000000000000604482015290519081900360640190fd5b60035460ff166102655760408051600160e51b62461bcd02815260206004820152601b60248201527f646576696365206973206f7574206f6620636f6d6d697373696f6e0000000000604482015290519081900360640190fd5b600280546001810182556000919091527f405787fa12a823e0f2b7631cc41b3ba8828b3321ca811111fa75cd3aa3bb5ace0180546001600160a01b0384166001600160a01b0319909116811790915560408051918252517fd456720fd185d4060f5cea4d82775d2af95048c1e10f227ec35bae950a4be2a89181900360200190a1505056fea165627a7a72305820f944265748f9dee6f01eae41846fa8a9668ec134566ee67b7351f664e99699df0029a265627a7a723058205fc6aef5806c5815204f4b39413bf6ccc65eb933afd84ac1aefbfc90b467b9dc6c6578706572696d656e74616cf50037",
  "source": "pragma solidity ^0.5.0;\npragma experimental ABIEncoderV2;\n\n// IMPORT DEVICE CONTRACT\nimport { Device } from './Device.sol';\nimport { UserManager } from '../user/Manager.sol';\n\ncontract DeviceManager {\n\n    // UNIQUE DEVICES, [HASH ID => CONTRACT LOCATION]\n    mapping (string => Device) devices;\n\n    // USER DEVICE COLLECTION, [USER ADDRESS => LIST OF DEVICE IDS]\n    mapping (address => string[]) collections;\n\n    // INIT STATUS\n    bool initialized = false;\n\n    // USER MANAGER CONTRACT REFERENCE\n    UserManager user_manager;\n\n    // DEVICE ADDED EVENT\n    event Update(address user, string[] devices);\n\n    // INITIALIZE CONTRACT\n    function init(UserManager _user_manager) public {\n\n        // IF THE CONTRACT HAS NOT BEEN INITIALIZED BEFORE\n        require(!initialized, 'contract has already been initialized');\n\n        // SET USER MANAGER REFERENCE\n        user_manager = _user_manager;\n\n        // BLOCK FURTHER MODIFICATIONS\n        initialized = true;\n    }\n\n    // CHECK IF DEVICE EXISTS\n    function exists(string memory _hash) public view returns(bool) {\n        if (address(devices[_hash]) != 0x0000000000000000000000000000000000000000) {\n            return true;\n        } else {\n            return false;\n        }\n    }\n\n    // CHECK IF USER IS DEVICE OWNER\n    function is_owner(string memory _hash, address sender) public view returns(bool) {\n        if (exists(_hash) && devices[_hash].owner() == sender) {\n            return true;\n        } else {\n            return false;\n        }\n    }\n\n    // FETCH SPECIFIC DEVICE\n    function fetch_device(string memory id) public view returns(Device) {\n\n        // IF THE DEVICE EXISTS\n        require(exists(id), 'device does not exist');\n        return devices[id];\n    }\n\n    // FETCH USER COLLECTION\n    function fetch_collection(address user) public view returns(string[] memory) {\n        return collections[user];\n    }\n\n    // ADD DEVICE\n    function add(string memory id, string memory nickname) public {\n\n        // IF THE CONTRACT HAS BEEN INITIALIZED\n        // IF THE DEVICE DOES NOT EXIST\n        // IF THE USER IS REGISTERED\n        require(initialized, 'contract has not been initialized');\n        require(!exists(id), 'device already exist');\n        require(user_manager.exists(msg.sender), 'you are not a registered user');\n\n        // PUSH NEW ENTRY TO BOTH HASHMAPS\n        devices[id] = new Device(msg.sender, nickname);\n        collections[msg.sender].push(id);\n\n        // EMIT EVENT\n        emit Update(msg.sender, collections[msg.sender]);\n    }\n}",
  "sourcePath": "C:/Users/35840/Desktop/coding/node/eth-contracts/contracts/device/Manager.sol",
  "compiler": {
    "name": "solc",
    "version": "0.5.8+commit.23d335f2.Emscripten.clang"
  },
  "schemaVersion": "3.0.17",
  "updatedAt": "2019-11-04T18:15:50.146Z",
  "devdoc": {
    "methods": {}
  },
  "userdoc": {
    "methods": {}
  }
}