{
  "contractName": "Device",
  "abi": [
    {
      "constant": true,
      "inputs": [],
      "name": "active",
      "outputs": [
        {
          "name": "",
          "type": "bool"
        }
      ],
      "payable": false,
      "stateMutability": "view",
      "type": "function"
    },
    {
      "constant": true,
      "inputs": [],
      "name": "name",
      "outputs": [
        {
          "name": "",
          "type": "string"
        }
      ],
      "payable": false,
      "stateMutability": "view",
      "type": "function"
    },
    {
      "constant": true,
      "inputs": [
        {
          "name": "",
          "type": "uint256"
        }
      ],
      "name": "assignments",
      "outputs": [
        {
          "name": "",
          "type": "address"
        }
      ],
      "payable": false,
      "stateMutability": "view",
      "type": "function"
    },
    {
      "constant": true,
      "inputs": [],
      "name": "owner",
      "outputs": [
        {
          "name": "",
          "type": "address"
        }
      ],
      "payable": false,
      "stateMutability": "view",
      "type": "function"
    },
    {
      "inputs": [
        {
          "name": "_owner",
          "type": "address"
        },
        {
          "name": "_name",
          "type": "string"
        },
        {
          "name": "_task_manager",
          "type": "address"
        }
      ],
      "payable": false,
      "stateMutability": "nonpayable",
      "type": "constructor"
    },
    {
      "anonymous": false,
      "inputs": [
        {
          "indexed": false,
          "name": "assignments",
          "type": "address[]"
        }
      ],
      "name": "Update",
      "type": "event"
    },
    {
      "constant": false,
      "inputs": [],
      "name": "toggle",
      "outputs": [],
      "payable": false,
      "stateMutability": "nonpayable",
      "type": "function"
    },
    {
      "constant": false,
      "inputs": [
        {
          "name": "_task",
          "type": "address"
        }
      ],
      "name": "assign",
      "outputs": [],
      "payable": false,
      "stateMutability": "nonpayable",
      "type": "function"
    }
  ],
  "bytecode": "0x60806040526003805460ff1916600117905534801561001d57600080fd5b506040516106523803806106528339810180604052606081101561004057600080fd5b81516020830180519193928301929164010000000081111561006157600080fd5b8201602081018481111561007457600080fd5b815164010000000081118282018710171561008e57600080fd5b505060209182015160008054600160a060020a031916600160a060020a038816179055815191945092506100c891600191908501906100f7565b5060038054600160a060020a039092166101000261010060a860020a0319909216919091179055506101929050565b828054600181600116156101000203166002900490600052602060002090601f016020900481019282601f1061013857805160ff1916838001178555610165565b82800160010185558215610165579182015b8281111561016557825182559160200191906001019061014a565b50610171929150610175565b5090565b61018f91905b80821115610171576000815560010161017b565b90565b6104b1806101a16000396000f3fe6080604052600436106100775763ffffffff7c010000000000000000000000000000000000000000000000000000000060003504166302fb0c5e811461007c57806306fdde03146100a557806340a3d2461461012f5780634e50c75c1461014657806385aba2751461018c5780638da5cb5b146101bf575b600080fd5b34801561008857600080fd5b506100916101d4565b604080519115158252519081900360200190f35b3480156100b157600080fd5b506100ba6101dd565b6040805160208082528351818301528351919283929083019185019080838360005b838110156100f45781810151838201526020016100dc565b50505050905090810190601f1680156101215780820380516001836020036101000a031916815260200191505b509250505060405180910390f35b34801561013b57600080fd5b5061014461026a565b005b34801561015257600080fd5b506101706004803603602081101561016957600080fd5b50356102f7565b60408051600160a060020a039092168252519081900360200190f35b34801561019857600080fd5b50610144600480360360208110156101af57600080fd5b5035600160a060020a031661031f565b3480156101cb57600080fd5b50610170610476565b60035460ff1681565b60018054604080516020600284861615610100026000190190941693909304601f810184900484028201840190925281815292918301828280156102625780601f1061023757610100808354040283529160200191610262565b820191906000526020600020905b81548152906001019060200180831161024557829003601f168201915b505050505081565b600054600160a060020a031633146102e357604080517f08c379a000000000000000000000000000000000000000000000000000000000815260206004820152601560248201527f796f7520617265206e6f7420746865206f776e65720000000000000000000000604482015290519081900360640190fd5b6003805460ff19811660ff90911615179055565b600280548290811061030557fe5b600091825260209091200154600160a060020a0316905081565b6003546101009004600160a060020a0316331461039d57604080517f08c379a000000000000000000000000000000000000000000000000000000000815260206004820152601160248201527f7065726d697373696f6e2064656e696564000000000000000000000000000000604482015290519081900360640190fd5b6002805460018101825560008290527f405787fa12a823e0f2b7631cc41b3ba8828b3321ca811111fa75cd3aa3bb5ace01805473ffffffffffffffffffffffffffffffffffffffff1916600160a060020a03841617905560408051602080825283549082018190527f7a75847e418b45815a603c840aeba04a5babf14dfc067ffb330ba9b37d47a51393928291908201908490801561046557602002820191906000526020600020905b8154600160a060020a03168152600190910190602001808311610447575b50509250505060405180910390a150565b600054600160a060020a03168156fea165627a7a7230582059a94ad457f93a1d17448b89e01c8cad68cc084e2b360bd9d183e3b632175f0a0029",
  "source": "pragma solidity ^0.5.0;\n\ncontract Device {\n\n    // PROPERTIES\n    address payable public owner;\n    string public name;\n\n    // ASSIGNMENT BACKLOG\n    address[] public assignments;\n\n    // ACTIVE STATUS\n    bool public active = true;\n\n    // TASK MANAGER REFERENCE\n    address task_manager;\n\n    // NEW ASSIGNMENT EVENT\n    event Update(address[] assignments);\n\n    // WHEN CREATED\n    constructor(\n        address payable _owner,\n        string memory _name,\n        address _task_manager\n    ) public {\n\n        // SET BASIC PROPERTIES\n        owner = _owner;\n        name = _name;\n\n        // SET TASK MANAGER REFERENCE\n        task_manager = _task_manager;\n    }\n\n    // TOGGLE CONTRACT STATUS\n    function toggle() public {\n\n        // IF CALLER IS THE DEVICE OWNER\n        require(msg.sender == owner, 'you are not the owner');\n        active = !active;\n    }\n\n    // ASSIGN TASK TO DEVICE\n    function assign(address _task) public {\n\n        // IF THE SENDER IS THE TASK MANAGER\n        require(msg.sender == task_manager, 'permission denied');\n\n        // PUSH ASSIGNMENT & EMIT EVENT\n        assignments.push(_task);\n        emit Update(assignments);\n    }\n}",
  "sourcePath": "/home/bdalab/wickstjo/eth-contracts/contracts/device/Device.sol",
  "compiler": {
    "name": "solc",
    "version": "0.5.0+commit.1d4f565a.Emscripten.clang"
  },
  "schemaVersion": "3.0.9",
  "updatedAt": "2019-11-07T10:02:12.176Z",
  "devdoc": {
    "methods": {}
  },
  "userdoc": {
    "methods": {}
  }
}