{
  "contractName": "DeviceManager",
  "abi": [
    {
      "constant": true,
      "inputs": [
        {
          "name": "_hash",
          "type": "string"
        }
      ],
      "name": "exists",
      "outputs": [
        {
          "name": "",
          "type": "bool"
        }
      ],
      "payable": false,
      "stateMutability": "view",
      "type": "function"
    },
    {
      "constant": true,
      "inputs": [
        {
          "name": "_hash",
          "type": "string"
        },
        {
          "name": "sender",
          "type": "address"
        }
      ],
      "name": "is_owner",
      "outputs": [
        {
          "name": "",
          "type": "bool"
        }
      ],
      "payable": false,
      "stateMutability": "view",
      "type": "function"
    },
    {
      "constant": true,
      "inputs": [
        {
          "name": "id",
          "type": "string"
        }
      ],
      "name": "fetch_device",
      "outputs": [
        {
          "name": "",
          "type": "address"
        }
      ],
      "payable": false,
      "stateMutability": "view",
      "type": "function"
    },
    {
      "constant": true,
      "inputs": [
        {
          "name": "user",
          "type": "address"
        }
      ],
      "name": "fetch_collection",
      "outputs": [
        {
          "name": "",
          "type": "string[]"
        }
      ],
      "payable": false,
      "stateMutability": "view",
      "type": "function"
    },
    {
      "constant": false,
      "inputs": [
        {
          "name": "id",
          "type": "string"
        },
        {
          "name": "nickname",
          "type": "string"
        }
      ],
      "name": "add",
      "outputs": [],
      "payable": false,
      "stateMutability": "nonpayable",
      "type": "function"
    },
    {
      "constant": false,
      "inputs": [
        {
          "name": "_user_manager",
          "type": "address"
        }
      ],
      "name": "init",
      "outputs": [],
      "payable": false,
      "stateMutability": "nonpayable",
      "type": "function"
    }
  ],
  "bytecode": "0x60806040526002805460ff1916905534801561001a57600080fd5b506111978061002a6000396000f3fe60806040523480156200001157600080fd5b50600436106200006a5760003560e01c806319ab453c146200006f5780631f3b23ce1462000088578063261a323e14620000b75780635bcfec8014620000dd578063e3a4f92614620000f4578063ebdf86ca146200011a575b600080fd5b620000866200008036600462000773565b62000131565b005b6200009f6200009936600462000708565b62000192565b604051620000ae919062000b47565b60405180910390f35b620000ce620000c836600462000794565b62000287565b604051620000ae919062000b5a565b620000ce620000ee366004620007cd565b620002cb565b6200010b6200010536600462000794565b620003a9565b604051620000ae919062000b6a565b620000866200012b36600462000824565b6200040a565b60025460ff16156200016357604051600160e51b62461bcd0281526004016200015a9062000b8c565b60405180910390fd5b6002805460ff196001600160a01b0390931661010002610100600160a81b031990911617919091166001179055565b6001600160a01b0381166000908152600160209081526040808320805482518185028101850190935280835260609492939192909184015b828210156200027b5760008481526020908190208301805460408051601f6002600019610100600187161502019094169390930492830185900485028101850190915281815292830182828015620002665780601f106200023a5761010080835404028352916020019162000266565b820191906000526020600020905b8154815290600101906020018083116200024857829003601f168201915b505050505081526020019060010190620001ca565b5050505090505b919050565b600080826040516200029a919062000b05565b908152604051908190036020019020546001600160a01b031615620002c25750600162000282565b50600062000282565b6000620002d88362000287565b8015620003905750816001600160a01b0316600084604051620002fc919062000b05565b908152604080516020928190038301812054600160e01b638da5cb5b02825291516001600160a01b0390921692638da5cb5b92600480840193829003018186803b1580156200034a57600080fd5b505afa1580156200035f573d6000803e3d6000fd5b505050506040513d601f19601f8201168201806040525062000385919081019062000731565b6001600160a01b0316145b156200039f57506001620003a3565b5060005b92915050565b6000620003b68262000287565b620003d857604051600160e51b62461bcd0281526004016200015a9062000bb0565b600082604051620003ea919062000b05565b908152604051908190036020019020546001600160a01b03169050919050565b60025460ff166200043257604051600160e51b62461bcd0281526004016200015a9062000bc2565b6200043d8262000287565b156200046057604051600160e51b62461bcd0281526004016200015a9062000b9e565b600254604051600160e11b637b51e9270281526101009091046001600160a01b03169063f6a3d24e906200049990339060040162000b13565b60206040518083038186803b158015620004b257600080fd5b505afa158015620004c7573d6000803e3d6000fd5b505050506040513d601f19601f82011682018060405250620004ed919081019062000752565b6200050f57604051600160e51b62461bcd0281526004016200015a9062000b7a565b33816040516200051f90620005c5565b6200052c92919062000b23565b604051809103906000f08015801562000549573d6000803e3d6000fd5b506000836040516200055c919062000b05565b908152604080516020928190038301902080546001600160a01b0319166001600160a01b039490941693909317909255336000908152600180835292812080549384018082559082529082902085519193620005bf9391019190860190620005d3565b50505050565b6104788062000ce683390190565b828054600181600116156101000203166002900490600052602060002090601f016020900481019282601f106200061657805160ff191683800117855562000646565b8280016001018555821562000646579182015b828111156200064657825182559160200191906001019062000629565b506200065492915062000658565b5090565b6200067591905b808211156200065457600081556001016200065f565b90565b8035620003a38162000cb5565b8051620003a38162000cb5565b8051620003a38162000ccf565b8035620003a38162000cda565b600082601f830112620006be57600080fd5b8135620006d5620006cf8262000bfc565b62000bd4565b91508082526020830160208301858383011115620006f257600080fd5b620006ff83828462000c70565b50505092915050565b6000602082840312156200071b57600080fd5b600062000729848462000678565b949350505050565b6000602082840312156200074457600080fd5b600062000729848462000685565b6000602082840312156200076557600080fd5b600062000729848462000692565b6000602082840312156200078657600080fd5b60006200072984846200069f565b600060208284031215620007a757600080fd5b813567ffffffffffffffff811115620007bf57600080fd5b6200072984828501620006ac565b60008060408385031215620007e157600080fd5b823567ffffffffffffffff811115620007f957600080fd5b6200080785828601620006ac565b92505060206200081a8582860162000678565b9150509250929050565b600080604083850312156200083857600080fd5b823567ffffffffffffffff8111156200085057600080fd5b6200085e85828601620006ac565b925050602083013567ffffffffffffffff8111156200087c57600080fd5b6200081a85828601620006ac565b60006200089883836200094b565b9392505050565b620008aa8162000c63565b82525050565b620008aa8162000c38565b6000620008c88262000c2b565b620008d4818562000c2f565b935083602082028501620008e88562000c25565b8060005b858110156200092857848403895281516200090885826200088a565b9450620009158362000c25565b60209a909a0199925050600101620008ec565b5091979650505050505050565b620008aa8162000c45565b620008aa8162000c4a565b6000620009588262000c2b565b62000964818562000c2f565b93506200097681856020860162000c7c565b620009818162000cab565b9093019392505050565b6000620009988262000c2b565b620009a4818562000282565b9350620009b681856020860162000c7c565b9290920192915050565b6000620009cf601d8362000c2f565b7f796f7520617265206e6f74206120726567697374657265642075736572000000815260200192915050565b600062000a0a60258362000c2f565b7f636f6e74726163742068617320616c7265616479206265656e20696e697469618152600160da1b641b1a5e995902602082015260400192915050565b600062000a5660148362000c2f565b7f64657669636520616c7265616479206578697374000000000000000000000000815260200192915050565b600062000a9160158362000c2f565b7f64657669636520646f6573206e6f742065786973740000000000000000000000815260200192915050565b600062000acc60218362000c2f565b7f636f6e747261637420686173206e6f74206265656e20696e697469616c697a658152600160fa1b601902602082015260400192915050565b60006200089882846200098b565b60208101620003a382846200089f565b6040810162000b338285620008b0565b81810360208301526200072981846200094b565b60208082528101620008988184620008bb565b60208101620003a3828462000935565b60208101620003a3828462000940565b60208082528101620003a381620009c0565b60208082528101620003a381620009fb565b60208082528101620003a38162000a47565b60208082528101620003a38162000a82565b60208082528101620003a38162000abd565b60405181810167ffffffffffffffff8111828210171562000bf457600080fd5b604052919050565b600067ffffffffffffffff82111562000c1457600080fd5b506020601f91909101601f19160190565b60200190565b5190565b90815260200190565b6000620003a38262000c57565b151590565b6000620003a38262000c38565b6001600160a01b031690565b6000620003a38262000c4a565b82818337506000910152565b60005b8381101562000c9957818101518382015260200162000c7f565b83811115620005bf5750506000910152565b601f01601f191690565b62000cc08162000c38565b811462000ccc57600080fd5b50565b62000cc08162000c45565b62000cc08162000c4a56fe60806040526003805460ff1916600117905534801561001d57600080fd5b506040516104783803806104788339810180604052604081101561004057600080fd5b81516020830180519193928301929164010000000081111561006157600080fd5b8201602081018481111561007457600080fd5b815164010000000081118282018710171561008e57600080fd5b5050600080546001600160a01b0319166001600160a01b03871617905580519093506100c392506001915060208401906100cb565b505050610166565b828054600181600116156101000203166002900490600052602060002090601f016020900481019282601f1061010c57805160ff1916838001178555610139565b82800160010185558215610139579182015b8281111561013957825182559160200191906001019061011e565b50610145929150610149565b5090565b61016391905b80821115610145576000815560010161014f565b90565b610303806101756000396000f3fe608060405234801561001057600080fd5b50600436106100575760003560e01c806302fb0c5e1461005c57806340a3d246146100785780634e50c75c1461008257806385aba275146100bb5780638da5cb5b146100e1575b600080fd5b6100646100e9565b604080519115158252519081900360200190f35b6100806100f2565b005b61009f6004803603602081101561009857600080fd5b5035610168565b604080516001600160a01b039092168252519081900360200190f35b610080600480360360208110156100d157600080fd5b50356001600160a01b031661018f565b61009f6102c8565b60035460ff1681565b6000546001600160a01b031633146101545760408051600160e51b62461bcd02815260206004820152601560248201527f796f7520617265206e6f7420746865206f776e65720000000000000000000000604482015290519081900360640190fd5b6003805460ff19811660ff90911615179055565b6002818154811061017557fe5b6000918252602090912001546001600160a01b0316905081565b6000546001600160a01b038281169116146101f45760408051600160e51b62461bcd02815260206004820152601560248201527f796f7520617265206e6f7420746865206f776e65720000000000000000000000604482015290519081900360640190fd5b60035460ff1661024e5760408051600160e51b62461bcd02815260206004820152601260248201527f64657669636520697320696e6163746976650000000000000000000000000000604482015290519081900360640190fd5b600280546001810182556000919091527f405787fa12a823e0f2b7631cc41b3ba8828b3321ca811111fa75cd3aa3bb5ace0180546001600160a01b0319163390811790915560408051918252517fd456720fd185d4060f5cea4d82775d2af95048c1e10f227ec35bae950a4be2a89181900360200190a150565b6000546001600160a01b03168156fea165627a7a72305820d8cb694ad57afd1405306dcef8dacc26a164b0c937c72db16e322cf8bec4e8140029a265627a7a723058200fea4ecdfc55acf7a0d90e9c237d22b6b0a8fc545974081b56c73e684ac6bf776c6578706572696d656e74616cf50037",
  "source": "pragma solidity ^0.5.0;\npragma experimental ABIEncoderV2;\n\n// IMPORT DEVICE CONTRACT\nimport { Device } from './Device.sol';\nimport { UserManager } from '../user/Manager.sol';\n\ncontract DeviceManager {\n\n    // UNIQUE DEVICES, [HASH ID => CONTRACT LOCATION]\n    mapping (string => Device) devices;\n\n    // USER DEVICE COLLECTION, [USER ADDRESS => LIST OF DEVICE IDS]\n    mapping (address => string[]) collections;\n\n    // INIT STATUS & USER MANAGER REFERENCE\n    bool initialized = false;\n    UserManager user_manager;\n\n    // CHECK IF DEVICE EXISTS\n    function exists(string memory _hash) public view returns(bool) {\n        if (address(devices[_hash]) != 0x0000000000000000000000000000000000000000) {\n            return true;\n        } else {\n            return false;\n        }\n    }\n\n    // CHECK IF USER IS DEVICE OWNER\n    function is_owner(string memory _hash, address sender) public view returns(bool) {\n        if (exists(_hash) && devices[_hash].owner() == sender) {\n            return true;\n        } else {\n            return false;\n        }\n    }\n\n    // FETCH SPECIFIC DEVICE\n    function fetch_device(string memory id) public view returns(Device) {\n\n        // IF THE DEVICE EXISTS\n        require(exists(id), 'device does not exist');\n        return devices[id];\n    }\n\n    // FETCH USER COLLECTION\n    function fetch_collection(address user) public view returns(string[] memory) {\n        return collections[user];\n    }\n\n    // ADD DEVICE\n    function add(string memory id, string memory nickname) public {\n\n        // IF THE CONTRACT HAS BEEN INITIALIZED\n        // IF THE DEVICE DOES NOT EXIST\n        // IF THE USER IS REGISTERED\n        require(initialized, 'contract has not been initialized');\n        require(!exists(id), 'device already exist');\n        require(user_manager.exists(msg.sender), 'you are not a registered user');\n\n        // PUSH NEW ENTRY TO BOTH HASHMAPS\n        devices[id] = new Device(msg.sender, nickname);\n        collections[msg.sender].push(id);\n    }\n\n    // INITIALIZE\n    function init(UserManager _user_manager) public {\n\n        // IF THE CONTRACT HAS NOT BEEN INITIALIZED BEFORE\n        require(!initialized, 'contract has already been initialized');\n\n        // SET USER MANAGER REFERENCE\n        user_manager = _user_manager;\n\n        // BLOCK FURTHER MODIFICATIONS\n        initialized = true;\n    }\n}",
  "sourcePath": "C:\\Users\\35840\\Desktop\\coding\\node\\eth-contracts\\contracts\\device\\Manager.sol",
  "compiler": {
    "name": "solc",
    "version": "0.5.8+commit.23d335f2.Emscripten.clang"
  },
  "schemaVersion": "3.0.17",
  "updatedAt": "2019-11-05T19:30:16.231Z",
  "devdoc": {
    "methods": {}
  },
  "userdoc": {
    "methods": {}
  }
}