{
  "contractName": "DeviceManager",
  "abi": [
    {
      "constant": true,
      "inputs": [
        {
          "name": "id",
          "type": "string"
        }
      ],
      "name": "fetch_device",
      "outputs": [
        {
          "name": "",
          "type": "address"
        }
      ],
      "payable": false,
      "stateMutability": "view",
      "type": "function"
    },
    {
      "constant": true,
      "inputs": [
        {
          "name": "user",
          "type": "address"
        }
      ],
      "name": "fetch_collection",
      "outputs": [
        {
          "name": "",
          "type": "string[]"
        }
      ],
      "payable": false,
      "stateMutability": "view",
      "type": "function"
    },
    {
      "constant": false,
      "inputs": [
        {
          "name": "id",
          "type": "string"
        },
        {
          "name": "name",
          "type": "string"
        }
      ],
      "name": "add",
      "outputs": [],
      "payable": false,
      "stateMutability": "nonpayable",
      "type": "function"
    },
    {
      "constant": false,
      "inputs": [
        {
          "name": "_user_manager",
          "type": "address"
        },
        {
          "name": "_task_manager",
          "type": "address"
        }
      ],
      "name": "init",
      "outputs": [],
      "payable": false,
      "stateMutability": "nonpayable",
      "type": "function"
    },
    {
      "constant": true,
      "inputs": [
        {
          "name": "_hash",
          "type": "string"
        }
      ],
      "name": "exists",
      "outputs": [
        {
          "name": "",
          "type": "bool"
        }
      ],
      "payable": false,
      "stateMutability": "view",
      "type": "function"
    }
  ],
  "bytecode": "0x60806040526002805460ff1916905534801561001a57600080fd5b506111f58061002a6000396000f3fe60806040523480156200001157600080fd5b50600436106200005e5760003560e01c80631f3b23ce1462000063578063261a323e1462000092578063e3a4f92614620000b8578063ebdf86ca14620000de578063f09a401614620000f7575b600080fd5b6200007a62000074366004620005ea565b6200010e565b604051620000899190620009a5565b60405180910390f35b620000a9620000a336600462000673565b62000203565b604051620000899190620009b8565b620000cf620000c936600462000673565b62000247565b604051620000899190620009c8565b620000f5620000ef366004620006ac565b6200027a565b005b620000f56200010836600462000613565b62000450565b6001600160a01b0381166000908152600160209081526040808320805482518185028101850190935280835260609492939192909184015b82821015620001f75760008481526020908190208301805460408051601f6002600019610100600187161502019094169390930492830185900485028101850190915281815292830182828015620001e25780601f10620001b657610100808354040283529160200191620001e2565b820191906000526020600020905b815481529060010190602001808311620001c457829003601f168201915b50505050508152602001906001019062000146565b5050505090505b919050565b6000808260405162000216919062000952565b908152604051908190036020019020546001600160a01b0316156200023e57506001620001fe565b506000620001fe565b600080826040516200025a919062000952565b908152604051908190036020019020546001600160a01b03169050919050565b60025460ff16620002ab57604051600160e51b62461bcd028152600401620002a29062000a0e565b60405180910390fd5b620002b68262000203565b15620002d957604051600160e51b62461bcd028152600401620002a290620009fc565b600254604051600160e11b637b51e9270281526101009091046001600160a01b03169063f6a3d24e906200031290339060040162000960565b60206040518083038186803b1580156200032b57600080fd5b505afa15801562000340573d6000803e3d6000fd5b505050506040513d601f19601f8201168201806040525062000366919081019062000652565b6200038857604051600160e51b62461bcd028152600401620002a290620009d8565b600354604051339183916001600160a01b0390911690620003a990620004bb565b620003b79392919062000970565b604051809103906000f080158015620003d4573d6000803e3d6000fd5b50600083604051620003e7919062000952565b908152604080516020928190038301902080546001600160a01b0319166001600160a01b0394909416939093179092553360009081526001808352928120805493840180825590825290829020855191936200044a9391019190860190620004c9565b50505050565b60025460ff16156200047957604051600160e51b62461bcd028152600401620002a290620009ea565b60028054600380546001600160a01b0319166001600160a01b03948516179055610100600160a81b03191661010093909216929092021760ff19166001179055565b61069a8062000b2283390190565b828054600181600116156101000203166002900490600052602060002090601f016020900481019282601f106200050c57805160ff19168380011785556200053c565b828001600101855582156200053c579182015b828111156200053c5782518255916020019190600101906200051f565b506200054a9291506200054e565b5090565b6200056b91905b808211156200054a576000815560010162000555565b90565b80356200057b8162000afc565b92915050565b80516200057b8162000b16565b600082601f830112620005a057600080fd5b8135620005b7620005b18262000a48565b62000a20565b91508082526020830160208301858383011115620005d457600080fd5b620005e183828462000ab7565b50505092915050565b600060208284031215620005fd57600080fd5b60006200060b84846200056e565b949350505050565b600080604083850312156200062757600080fd5b60006200063585856200056e565b925050602062000648858286016200056e565b9150509250929050565b6000602082840312156200066557600080fd5b60006200060b848462000581565b6000602082840312156200068657600080fd5b813567ffffffffffffffff8111156200069e57600080fd5b6200060b848285016200058e565b60008060408385031215620006c057600080fd5b823567ffffffffffffffff811115620006d857600080fd5b620006e6858286016200058e565b925050602083013567ffffffffffffffff8111156200070457600080fd5b62000648858286016200058e565b6000620007208383620007d3565b9392505050565b620007328162000aa2565b82525050565b620007328162000a84565b6000620007508262000a77565b6200075c818562000a7b565b935083602082028501620007708562000a71565b8060005b85811015620007b0578484038952815162000790858262000712565b94506200079d8362000a71565b60209a909a019992505060010162000774565b5091979650505050505050565b620007328162000a91565b620007328162000aaa565b6000620007e08262000a77565b620007ec818562000a7b565b9350620007fe81856020860162000ac3565b620008098162000af2565b9093019392505050565b6000620008208262000a77565b6200082c8185620001fe565b93506200083e81856020860162000ac3565b9290920192915050565b600062000857601d8362000a7b565b7f796f7520617265206e6f74206120726567697374657265642075736572000000815260200192915050565b60006200089260258362000a7b565b7f636f6e74726163742068617320616c7265616479206265656e20696e697469618152600160da1b641b1a5e995902602082015260400192915050565b6000620008de60148362000a7b565b7f64657669636520616c7265616479206578697374000000000000000000000000815260200192915050565b60006200091960218362000a7b565b7f636f6e747261637420686173206e6f74206265656e20696e697469616c697a658152600160fa1b601902602082015260400192915050565b600062000720828462000813565b602081016200057b828462000727565b6060810162000980828662000727565b8181036020830152620009948185620007d3565b90506200060b604083018462000738565b6020808252810162000720818462000743565b602081016200057b8284620007bd565b602081016200057b8284620007c8565b602080825281016200057b8162000848565b602080825281016200057b8162000883565b602080825281016200057b81620008cf565b602080825281016200057b816200090a565b60405181810167ffffffffffffffff8111828210171562000a4057600080fd5b604052919050565b600067ffffffffffffffff82111562000a6057600080fd5b506020601f91909101601f19160190565b60200190565b5190565b90815260200190565b60006200057b8262000a96565b151590565b6001600160a01b031690565b60006200057b825b60006200057b8262000a84565b82818337506000910152565b60005b8381101562000ae057818101518382015260200162000ac6565b838111156200044a5750506000910152565b601f01601f191690565b62000b078162000a84565b811462000b1357600080fd5b50565b62000b078162000a9156fe608060405234801561001057600080fd5b5060405161069a38038061069a8339810180604052606081101561003357600080fd5b81516020830180519193928301929164010000000081111561005457600080fd5b8201602081018481111561006757600080fd5b815164010000000081118282018710171561008157600080fd5b5050602091820151600080546001600160a01b0319166001600160a01b038816179055815191945092506100bb91600191908501906100e4565b50600380546001600160a01b0319166001600160a01b03929092169190911790555061017f9050565b828054600181600116156101000203166002900490600052602060002090601f016020900481019282601f1061012557805160ff1916838001178555610152565b82800160010185558215610152579182015b82811115610152578251825591602001919060010190610137565b5061015e929150610162565b5090565b61017c91905b8082111561015e5760008155600101610168565b90565b61050c8061018e6000396000f3fe608060405234801561001057600080fd5b50600436106100625760003560e01c806306fdde0314610067578063176e8285146100e457806331c3a3e01461010c5780638da5cb5b14610145578063bade39f71461014d578063e7869fad14610173575b600080fd5b61006f6101cb565b6040805160208082528351818301528351919283929083019185019080838360005b838110156100a9578181015183820152602001610091565b50505050905090810190601f1680156100d65780820380516001836020036101000a031916815260200191505b509250505060405180910390f35b61010a600480360360208110156100fa57600080fd5b50356001600160a01b0316610258565b005b6101296004803603602081101561012257600080fd5b503561037d565b604080516001600160a01b039092168252519081900360200190f35b6101296103a4565b61010a6004803603602081101561016357600080fd5b50356001600160a01b03166103b3565b61017b61047e565b60408051602080825283518183015283519192839290830191858101910280838360005b838110156101b757818101518382015260200161019f565b505050509050019250505060405180910390f35b60018054604080516020600284861615610100026000190190941693909304601f810184900484028201840190925281815292918301828280156102505780601f1061022557610100808354040283529160200191610250565b820191906000526020600020905b81548152906001019060200180831161023357829003601f168201915b505050505081565b6003546001600160a01b031633146102b15760408051600160e51b62461bcd02815260206004820152601160248201526001607a1b701c195c9b5a5cdcda5bdb8819195b9a595902604482015290519081900360640190fd5b6002805460018101825560008290527f405787fa12a823e0f2b7631cc41b3ba8828b3321ca811111fa75cd3aa3bb5ace0180546001600160a01b0319166001600160a01b03841617905560408051602080825283549082018190527f7a75847e418b45815a603c840aeba04a5babf14dfc067ffb330ba9b37d47a51393928291908201908490801561036c57602002820191906000526020600020905b81546001600160a01b0316815260019091019060200180831161034e575b50509250505060405180910390a150565b6002818154811061038a57fe5b6000918252602090912001546001600160a01b0316905081565b6000546001600160a01b031681565b6003546001600160a01b0316331461040c5760408051600160e51b62461bcd02815260206004820152601160248201526001607a1b701c195c9b5a5cdcda5bdb8819195b9a595902604482015290519081900360640190fd5b60005b60025481101561047a57816001600160a01b03166002828154811061043057fe5b6000918252602090912001546001600160a01b03161415610472576002818154811061045857fe5b600091825260209091200180546001600160a01b03191690555b60010161040f565b5050565b606060028054806020026020016040519081016040528092919081815260200182805480156104d657602002820191906000526020600020905b81546001600160a01b031681526001909101906020018083116104b8575b505050505090509056fea165627a7a723058205a2e11b4f456b205c36f175e79e733f289110926c15d15f82485c04eb42acdc50029a265627a7a72305820a5daad1105257f3cf49ca597a2e0c00418b58c8d709fa27c83cb5b3afa766e2e6c6578706572696d656e74616cf50037",
  "source": "pragma solidity ^0.5.0;\npragma experimental ABIEncoderV2;\n\n// IMPORT INTERFACES\nimport { Device } from './Device.sol';\nimport { UserManager } from '../user/Manager.sol';\n\ncontract DeviceManager {\n\n    // UNIQUE DEVICES, [DEVICE_ID => DEVICE CONTRACT]\n    mapping (string => Device) devices;\n\n    // USER DEVICE COLLECTION, [ETH USER => ARRAY OF DEVICE_ID]\n    mapping (address => string[]) collections;\n\n    // INIT STATUS\n    bool initialized = false;\n\n    // REFERENCES\n    UserManager user_manager;\n    address task_manager;\n\n    // FETCH SPECIFIC DEVICE\n    function fetch_device(string memory id) public view returns(Device) {\n        return devices[id];\n    }\n\n    // FETCH USER DEVICE COLLECTION\n    function fetch_collection(address user) public view returns(string[] memory) {\n        return collections[user];\n    }\n\n    // ADD DEVICE\n    function add(\n        string memory id,\n        string memory name\n    ) public {\n\n        // IF THE CONTRACT HAS BEEN INITIALIZED\n        // IF THE DEVICE DOES NOT EXIST\n        // IF THE USER IS REGISTERED\n        require(initialized, 'contract has not been initialized');\n        require(!exists(id), 'device already exist');\n        require(user_manager.exists(msg.sender), 'you are not a registered user');\n\n        // INSTATIATE NEW DEVICE & ADD IT\n        devices[id] = new Device(\n            msg.sender,\n            name,\n            task_manager\n        );\n\n        // PUSH INTO USER COLLECTION\n        collections[msg.sender].push(id);\n    }\n\n    // INITIALIZE\n    function init(\n        address _user_manager,\n        address _task_manager\n    ) public {\n\n        // IF THE CONTRACT HAS NOT BEEN INITIALIZED BEFORE\n        require(!initialized, 'contract has already been initialized');\n\n        // SET REFERENCES\n        user_manager = UserManager(_user_manager);\n        task_manager = _task_manager;\n\n        // BLOCK FURTHER MODIFICATIONS\n        initialized = true;\n    }\n\n    // CHECK IF DEVICE EXISTS\n    function exists(string memory _hash) public view returns(bool) {\n        if (address(devices[_hash]) != 0x0000000000000000000000000000000000000000) {\n            return true;\n        } else {\n            return false;\n        }\n    }\n}",
  "sourcePath": "C:\\Users\\35840\\Desktop\\coding\\node\\eth-contracts\\contracts\\device\\Manager.sol",
  "compiler": {
    "name": "solc",
    "version": "0.5.8+commit.23d335f2.Emscripten.clang"
  },
  "schemaVersion": "3.0.17",
  "updatedAt": "2020-02-03T01:12:46.280Z",
  "networkType": "ethereum",
  "devdoc": {
    "methods": {}
  },
  "userdoc": {
    "methods": {}
  }
}