{
  "contractName": "Device",
  "abi": [
    {
      "constant": true,
      "inputs": [],
      "name": "active",
      "outputs": [
        {
          "name": "",
          "type": "bool"
        }
      ],
      "payable": false,
      "stateMutability": "view",
      "type": "function"
    },
    {
      "constant": true,
      "inputs": [],
      "name": "name",
      "outputs": [
        {
          "name": "",
          "type": "string"
        }
      ],
      "payable": false,
      "stateMutability": "view",
      "type": "function"
    },
    {
      "constant": true,
      "inputs": [
        {
          "name": "",
          "type": "uint256"
        }
      ],
      "name": "assignments",
      "outputs": [
        {
          "name": "",
          "type": "address"
        }
      ],
      "payable": false,
      "stateMutability": "view",
      "type": "function"
    },
    {
      "constant": true,
      "inputs": [],
      "name": "owner",
      "outputs": [
        {
          "name": "",
          "type": "address"
        }
      ],
      "payable": false,
      "stateMutability": "view",
      "type": "function"
    },
    {
      "inputs": [
        {
          "name": "_owner",
          "type": "address"
        },
        {
          "name": "_name",
          "type": "string"
        },
        {
          "name": "_task_manager",
          "type": "address"
        }
      ],
      "payable": false,
      "stateMutability": "nonpayable",
      "type": "constructor"
    },
    {
      "anonymous": false,
      "inputs": [
        {
          "indexed": false,
          "name": "assignments",
          "type": "address[]"
        }
      ],
      "name": "Update",
      "type": "event"
    },
    {
      "constant": false,
      "inputs": [],
      "name": "toggle",
      "outputs": [],
      "payable": false,
      "stateMutability": "nonpayable",
      "type": "function"
    },
    {
      "constant": true,
      "inputs": [],
      "name": "fetch_assignments",
      "outputs": [
        {
          "name": "",
          "type": "address[]"
        }
      ],
      "payable": false,
      "stateMutability": "view",
      "type": "function"
    },
    {
      "constant": false,
      "inputs": [
        {
          "name": "_task",
          "type": "address"
        }
      ],
      "name": "assign",
      "outputs": [],
      "payable": false,
      "stateMutability": "nonpayable",
      "type": "function"
    },
    {
      "constant": false,
      "inputs": [
        {
          "name": "index",
          "type": "uint256"
        }
      ],
      "name": "clear",
      "outputs": [],
      "payable": false,
      "stateMutability": "nonpayable",
      "type": "function"
    }
  ],
  "bytecode": "0x60806040526003805460ff1916600117905534801561001d57600080fd5b5060405161072e38038061072e8339810180604052606081101561004057600080fd5b81516020830180519193928301929164010000000081111561006157600080fd5b8201602081018481111561007457600080fd5b815164010000000081118282018710171561008e57600080fd5b5050602091820151600080546001600160a01b0319166001600160a01b038816179055815191945092506100c891600191908501906100f7565b50600380546001600160a01b0390921661010002610100600160a81b0319909216919091179055506101929050565b828054600181600116156101000203166002900490600052602060002090601f016020900481019282601f1061013857805160ff1916838001178555610165565b82800160010185558215610165579182015b8281111561016557825182559160200191906001019061014a565b50610171929150610175565b5090565b61018f91905b80821115610171576000815560010161017b565b90565b61058d806101a16000396000f3fe608060405234801561001057600080fd5b50600436106100885760003560e01c80634e50c75c1161005b5780634e50c75c1461018857806385aba275146101c15780638da5cb5b146101e7578063c0fe1af8146101ef57610088565b806302fb0c5e1461008d57806306fdde03146100a957806335d02f721461012657806340a3d2461461017e575b600080fd5b61009561020c565b604080519115158252519081900360200190f35b6100b1610215565b6040805160208082528351818301528351919283929083019185019080838360005b838110156100eb5781810151838201526020016100d3565b50505050905090810190601f1680156101185780820380516001836020036101000a031916815260200191505b509250505060405180910390f35b61012e6102a2565b60408051602080825283518183015283519192839290830191858101910280838360005b8381101561016a578181015183820152602001610152565b505050509050019250505060405180910390f35b610186610304565b005b6101a56004803603602081101561019e57600080fd5b503561037a565b604080516001600160a01b039092168252519081900360200190f35b610186600480360360208110156101d757600080fd5b50356001600160a01b03166103a1565b6101a56104cb565b6101866004803603602081101561020557600080fd5b50356104da565b60035460ff1681565b60018054604080516020600284861615610100026000190190941693909304601f8101849004840282018401909252818152929183018282801561029a5780601f1061026f5761010080835404028352916020019161029a565b820191906000526020600020905b81548152906001019060200180831161027d57829003601f168201915b505050505081565b606060028054806020026020016040519081016040528092919081815260200182805480156102fa57602002820191906000526020600020905b81546001600160a01b031681526001909101906020018083116102dc575b5050505050905090565b6000546001600160a01b031633146103665760408051600160e51b62461bcd02815260206004820152601560248201527f796f7520617265206e6f7420746865206f776e65720000000000000000000000604482015290519081900360640190fd5b6003805460ff19811660ff90911615179055565b6002818154811061038757fe5b6000918252602090912001546001600160a01b0316905081565b60035461010090046001600160a01b031633146103ff5760408051600160e51b62461bcd02815260206004820152601160248201526001607a1b701c195c9b5a5cdcda5bdb8819195b9a595902604482015290519081900360640190fd5b6002805460018101825560008290527f405787fa12a823e0f2b7631cc41b3ba8828b3321ca811111fa75cd3aa3bb5ace0180546001600160a01b0319166001600160a01b03841617905560408051602080825283549082018190527f7a75847e418b45815a603c840aeba04a5babf14dfc067ffb330ba9b37d47a5139392829190820190849080156104ba57602002820191906000526020600020905b81546001600160a01b0316815260019091019060200180831161049c575b50509250505060405180910390a150565b6000546001600160a01b031681565b60035461010090046001600160a01b031633146105385760408051600160e51b62461bcd02815260206004820152601160248201526001607a1b701c195c9b5a5cdcda5bdb8819195b9a595902604482015290519081900360640190fd5b6002818154811061054557fe5b600091825260209091200180546001600160a01b03191690555056fea165627a7a72305820a83d560a084a82c435a612affd5c1ba30eda05677f8789b61acd9b8f0d0707330029",
  "source": "pragma solidity ^0.5.0;\n\ncontract Device {\n\n    // PROPERTIES\n    address payable public owner;\n    string public name;\n\n    // ASSIGNMENT BACKLOG\n    address[] public assignments;\n\n    // ACTIVE STATUS\n    bool public active = true;\n\n    // TASK MANAGER REFERENCE\n    address task_manager;\n\n    // NEW ASSIGNMENT EVENT\n    event Update(address[] assignments);\n\n    // WHEN CREATED\n    constructor(\n        address payable _owner,\n        string memory _name,\n        address _task_manager\n    ) public {\n\n        // SET BASIC PROPERTIES\n        owner = _owner;\n        name = _name;\n\n        // SET TASK MANAGER REFERENCE\n        task_manager = _task_manager;\n    }\n\n    // TOGGLE STATUS\n    function toggle() public {\n\n        // IF CALLER IS THE DEVICE OWNER\n        require(msg.sender == owner, 'you are not the owner');\n        active = !active;\n    }\n\n    // FETCH ASSIGNMENT BACKLOG\n    function fetch_assignments() public view returns(address[] memory) {\n        return assignments;\n    }\n\n    // ASSIGN TASK TO DEVICE\n    function assign(address _task) public {\n\n        // IF THE SENDER IS THE TASK MANAGER\n        require(msg.sender == task_manager, 'permission denied');\n\n        // PUSH ASSIGNMENT & EMIT EVENT\n        assignments.push(_task);\n        emit Update(assignments);\n    }\n\n    // CLEAR ASSIGNMENT\n    function clear(uint index) public {\n\n        // IF THE SENDER IS THE TASK MANAGER\n        require(msg.sender == task_manager, 'permission denied');\n\n        // REMOVE ELEMENT\n        delete assignments[index];\n    }\n}",
  "sourcePath": "C:\\Users\\35840\\Desktop\\coding\\node\\eth-contracts\\contracts\\device\\Device.sol",
  "compiler": {
    "name": "solc",
    "version": "0.5.8+commit.23d335f2.Emscripten.clang"
  },
  "schemaVersion": "3.0.17",
  "updatedAt": "2019-11-09T18:34:21.172Z",
  "devdoc": {
    "methods": {}
  },
  "userdoc": {
    "methods": {}
  }
}