{
  "contractName": "Device",
  "abi": [
    {
      "constant": true,
      "inputs": [],
      "name": "status",
      "outputs": [
        {
          "name": "",
          "type": "bool"
        }
      ],
      "payable": false,
      "stateMutability": "view",
      "type": "function"
    },
    {
      "constant": true,
      "inputs": [
        {
          "name": "",
          "type": "uint256"
        }
      ],
      "name": "assignments",
      "outputs": [
        {
          "name": "",
          "type": "address"
        }
      ],
      "payable": false,
      "stateMutability": "view",
      "type": "function"
    },
    {
      "constant": true,
      "inputs": [],
      "name": "owner",
      "outputs": [
        {
          "name": "",
          "type": "address"
        }
      ],
      "payable": false,
      "stateMutability": "view",
      "type": "function"
    },
    {
      "inputs": [
        {
          "name": "_owner",
          "type": "address"
        },
        {
          "name": "_nickname",
          "type": "string"
        }
      ],
      "payable": false,
      "stateMutability": "nonpayable",
      "type": "constructor"
    },
    {
      "anonymous": false,
      "inputs": [
        {
          "indexed": false,
          "name": "task",
          "type": "address"
        }
      ],
      "name": "Update",
      "type": "event"
    },
    {
      "constant": false,
      "inputs": [],
      "name": "toggle",
      "outputs": [],
      "payable": false,
      "stateMutability": "nonpayable",
      "type": "function"
    },
    {
      "constant": false,
      "inputs": [
        {
          "name": "_task",
          "type": "address"
        },
        {
          "name": "sender",
          "type": "address"
        }
      ],
      "name": "assign",
      "outputs": [],
      "payable": false,
      "stateMutability": "nonpayable",
      "type": "function"
    }
  ],
  "bytecode": "0x608060405234801561001057600080fd5b5060405161048b38038061048b8339810180604052604081101561003357600080fd5b81516020830180519193928301929164010000000081111561005457600080fd5b8201602081018481111561006757600080fd5b815164010000000081118282018710171561008157600080fd5b5050600080546001600160a01b0319166001600160a01b03871617905580519093506100b692506001915060208401906100cb565b50506003805460ff1916600117905550610166565b828054600181600116156101000203166002900490600052602060002090601f016020900481019282601f1061010c57805160ff1916838001178555610139565b82800160010185558215610139579182015b8281111561013957825182559160200191906001019061011e565b50610145929150610149565b5090565b61016391905b80821115610145576000815560010161014f565b90565b610316806101756000396000f3fe608060405234801561001057600080fd5b50600436106100575760003560e01c8063200d2ed21461005c57806340a3d246146100785780634e50c75c146100825780638da5cb5b146100bb5780639429e171146100c3575b600080fd5b6100646100f1565b604080519115158252519081900360200190f35b6100806100fa565b005b61009f6004803603602081101561009857600080fd5b5035610170565b604080516001600160a01b039092168252519081900360200190f35b61009f610197565b610080600480360360408110156100d957600080fd5b506001600160a01b03813581169160200135166101a6565b60035460ff1681565b6000546001600160a01b0316331461015c5760408051600160e51b62461bcd02815260206004820152601560248201527f796f7520617265206e6f7420746865206f776e65720000000000000000000000604482015290519081900360640190fd5b6003805460ff19811660ff90911615179055565b6002818154811061017d57fe5b6000918252602090912001546001600160a01b0316905081565b6000546001600160a01b031681565b6000546001600160a01b0382811691161461020b5760408051600160e51b62461bcd02815260206004820152601560248201527f796f7520617265206e6f7420746865206f776e65720000000000000000000000604482015290519081900360640190fd5b60035460ff166102655760408051600160e51b62461bcd02815260206004820152601b60248201527f646576696365206973206f7574206f6620636f6d6d697373696f6e0000000000604482015290519081900360640190fd5b600280546001810182556000919091527f405787fa12a823e0f2b7631cc41b3ba8828b3321ca811111fa75cd3aa3bb5ace0180546001600160a01b0384166001600160a01b0319909116811790915560408051918252517fd456720fd185d4060f5cea4d82775d2af95048c1e10f227ec35bae950a4be2a89181900360200190a1505056fea165627a7a72305820f944265748f9dee6f01eae41846fa8a9668ec134566ee67b7351f664e99699df0029",
  "source": "pragma solidity ^0.5.0;\n\ncontract Device {\n\n    // DEVICE PARAMS\n    address payable public owner;\n    string nickname;\n\n    // LATEST ASSIGNED TASK\n    address[] public assignments;\n\n    // ACTIVE STATUS\n    bool public status;\n\n    // WHEN CREATED, SET DEFAULT PARAMS\n    constructor(address payable _owner, string memory _nickname) public {\n        owner = _owner;\n        nickname = _nickname;\n        status = true;\n    }\n\n    // NEW ADDED EVENT\n    event Update(address task);\n\n    // TOGGLE CONTRACT STATUS\n    function toggle() public {\n\n        // IF CALLER IS THE DEVICE OWNER\n        require(msg.sender == owner, 'you are not the owner');\n        status = !status;\n    }\n\n    // ASSIGN TASK TO DEVICE\n    function assign(address _task, address payable sender) public {\n\n        // IF SENDER IS THE DEVICE OWNER\n        // IF THE DEVICE IS ACTIVE\n        require(sender == owner, 'you are not the owner');\n        require(status, 'device is out of commission');\n\n        // PUSH ASSIGNMENT & EMIT EVENT\n        assignments.push(_task);\n        emit Update(_task);\n    }\n}",
  "sourcePath": "C:\\Users\\35840\\Desktop\\coding\\node\\eth-contracts\\contracts\\device\\Device.sol",
  "compiler": {
    "name": "solc",
    "version": "0.5.8+commit.23d335f2.Emscripten.clang"
  },
  "schemaVersion": "3.0.17",
  "updatedAt": "2019-11-04T18:15:50.144Z",
  "devdoc": {
    "methods": {}
  },
  "userdoc": {
    "methods": {}
  }
}