{
  "contractName": "DeviceManager",
  "abi": [
    {
      "constant": true,
      "inputs": [
        {
          "name": "_hash",
          "type": "string"
        }
      ],
      "name": "exists",
      "outputs": [
        {
          "name": "",
          "type": "bool"
        }
      ],
      "payable": false,
      "stateMutability": "view",
      "type": "function"
    },
    {
      "constant": true,
      "inputs": [
        {
          "name": "_hash",
          "type": "string"
        },
        {
          "name": "sender",
          "type": "address"
        }
      ],
      "name": "is_owner",
      "outputs": [
        {
          "name": "",
          "type": "bool"
        }
      ],
      "payable": false,
      "stateMutability": "view",
      "type": "function"
    },
    {
      "constant": false,
      "inputs": [
        {
          "name": "id",
          "type": "string"
        },
        {
          "name": "name",
          "type": "string"
        }
      ],
      "name": "add",
      "outputs": [],
      "payable": false,
      "stateMutability": "nonpayable",
      "type": "function"
    },
    {
      "constant": true,
      "inputs": [
        {
          "name": "id",
          "type": "string"
        }
      ],
      "name": "fetch_device",
      "outputs": [
        {
          "name": "",
          "type": "address"
        }
      ],
      "payable": false,
      "stateMutability": "view",
      "type": "function"
    },
    {
      "constant": true,
      "inputs": [
        {
          "name": "user",
          "type": "address"
        }
      ],
      "name": "fetch_collection",
      "outputs": [
        {
          "name": "",
          "type": "string[]"
        }
      ],
      "payable": false,
      "stateMutability": "view",
      "type": "function"
    },
    {
      "constant": false,
      "inputs": [
        {
          "name": "_user_manager",
          "type": "address"
        },
        {
          "name": "_task_manager",
          "type": "address"
        }
      ],
      "name": "init",
      "outputs": [],
      "payable": false,
      "stateMutability": "nonpayable",
      "type": "function"
    }
  ],
  "bytecode": "0x60806040526002805460ff1916905534801561001a57600080fd5b506114848061002a6000396000f3fe60806040523480156200001157600080fd5b50600436106200006a5760003560e01c80631f3b23ce146200006f578063261a323e146200009e5780635bcfec8014620000c4578063e3a4f92614620000db578063ebdf86ca1462000101578063f09a4016146200011a575b600080fd5b62000086620000803660046200072d565b62000131565b60405162000095919062000b7e565b60405180910390f35b620000b5620000af366004620007d7565b62000226565b60405162000095919062000b91565b620000b5620000d536600462000810565b6200026a565b620000f2620000ec366004620007d7565b62000348565b60405162000095919062000ba1565b62000118620001123660046200084a565b620003b2565b005b620001186200012b36600462000798565b6200057f565b6001600160a01b0381166000908152600160209081526040808320805482518185028101850190935280835260609492939192909184015b828210156200021a5760008481526020908190208301805460408051601f6002600019610100600187161502019094169390930492830185900485028101850190915281815292830182828015620002055780601f10620001d95761010080835404028352916020019162000205565b820191906000526020600020905b815481529060010190602001808311620001e757829003601f168201915b50505050508152602001906001019062000169565b5050505090505b919050565b6000808260405162000239919062000b2b565b908152604051908190036020019020546001600160a01b031615620002615750600162000221565b50600062000221565b6000620002778362000226565b80156200032f5750816001600160a01b03166000846040516200029b919062000b2b565b908152604080516020928190038301812054600160e01b638da5cb5b02825291516001600160a01b0390921692638da5cb5b92600480840193829003018186803b158015620002e957600080fd5b505afa158015620002fe573d6000803e3d6000fd5b505050506040513d601f19601f8201168201806040525062000324919081019062000756565b6001600160a01b0316145b156200033e5750600162000342565b5060005b92915050565b6000620003558262000226565b6200038057604051600160e51b62461bcd028152600401620003779062000be7565b60405180910390fd5b60008260405162000392919062000b2b565b908152604051908190036020019020546001600160a01b03169050919050565b60025460ff16620003da57604051600160e51b62461bcd028152600401620003779062000bf9565b620003e58262000226565b156200040857604051600160e51b62461bcd028152600401620003779062000bd5565b600254604051600160e11b637b51e9270281526101009091046001600160a01b03169063f6a3d24e906200044190339060040162000b39565b60206040518083038186803b1580156200045a57600080fd5b505afa1580156200046f573d6000803e3d6000fd5b505050506040513d601f19601f8201168201806040525062000495919081019062000777565b620004b757604051600160e51b62461bcd028152600401620003779062000bb1565b600354604051339183916001600160a01b0390911690620004d890620005ea565b620004e69392919062000b49565b604051809103906000f08015801562000503573d6000803e3d6000fd5b5060008360405162000516919062000b2b565b908152604080516020928190038301902080546001600160a01b0319166001600160a01b039490941693909317909255336000908152600180835292812080549384018082559082529082902085519193620005799391019190860190620005f8565b50505050565b60025460ff1615620005a857604051600160e51b62461bcd028152600401620003779062000bc3565b60028054600380546001600160a01b0319166001600160a01b03948516179055610100600160a81b03191661010093909216929092021760ff19166001179055565b61072e8062000d1d83390190565b828054600181600116156101000203166002900490600052602060002090601f016020900481019282601f106200063b57805160ff19168380011785556200066b565b828001600101855582156200066b579182015b828111156200066b5782518255916020019190600101906200064e565b50620006799291506200067d565b5090565b6200069a91905b8082111562000679576000815560010162000684565b90565b8035620003428162000cec565b8051620003428162000cec565b8051620003428162000d06565b8035620003428162000d11565b600082601f830112620006e357600080fd5b8135620006fa620006f48262000c33565b62000c0b565b915080825260208301602083018583830111156200071757600080fd5b6200072483828462000ca7565b50505092915050565b6000602082840312156200074057600080fd5b60006200074e84846200069d565b949350505050565b6000602082840312156200076957600080fd5b60006200074e8484620006aa565b6000602082840312156200078a57600080fd5b60006200074e8484620006b7565b60008060408385031215620007ac57600080fd5b6000620007ba8585620006c4565b9250506020620007cd858286016200069d565b9150509250929050565b600060208284031215620007ea57600080fd5b813567ffffffffffffffff8111156200080257600080fd5b6200074e84828501620006d1565b600080604083850312156200082457600080fd5b823567ffffffffffffffff8111156200083c57600080fd5b620007ba85828601620006d1565b600080604083850312156200085e57600080fd5b823567ffffffffffffffff8111156200087657600080fd5b6200088485828601620006d1565b925050602083013567ffffffffffffffff811115620008a257600080fd5b620007cd85828601620006d1565b6000620008be838362000971565b9392505050565b620008d08162000c9a565b82525050565b620008d08162000c6f565b6000620008ee8262000c62565b620008fa818562000c66565b9350836020820285016200090e8562000c5c565b8060005b858110156200094e57848403895281516200092e8582620008b0565b94506200093b8362000c5c565b60209a909a019992505060010162000912565b5091979650505050505050565b620008d08162000c7c565b620008d08162000c81565b60006200097e8262000c62565b6200098a818562000c66565b93506200099c81856020860162000cb3565b620009a78162000ce2565b9093019392505050565b6000620009be8262000c62565b620009ca818562000221565b9350620009dc81856020860162000cb3565b9290920192915050565b6000620009f5601d8362000c66565b7f796f7520617265206e6f74206120726567697374657265642075736572000000815260200192915050565b600062000a3060258362000c66565b7f636f6e74726163742068617320616c7265616479206265656e20696e697469618152600160da1b641b1a5e995902602082015260400192915050565b600062000a7c60148362000c66565b7f64657669636520616c7265616479206578697374000000000000000000000000815260200192915050565b600062000ab760158362000c66565b7f64657669636520646f6573206e6f742065786973740000000000000000000000815260200192915050565b600062000af260218362000c66565b7f636f6e747261637420686173206e6f74206265656e20696e697469616c697a658152600160fa1b601902602082015260400192915050565b6000620008be8284620009b1565b60208101620003428284620008c5565b6060810162000b598286620008d6565b818103602083015262000b6d818562000971565b90506200074e6040830184620008d6565b60208082528101620008be8184620008e1565b602081016200034282846200095b565b6020810162000342828462000966565b602080825281016200034281620009e6565b60208082528101620003428162000a21565b60208082528101620003428162000a6d565b60208082528101620003428162000aa8565b60208082528101620003428162000ae3565b60405181810167ffffffffffffffff8111828210171562000c2b57600080fd5b604052919050565b600067ffffffffffffffff82111562000c4b57600080fd5b506020601f91909101601f19160190565b60200190565b5190565b90815260200190565b6000620003428262000c8e565b151590565b6000620003428262000c6f565b6001600160a01b031690565b6000620003428262000c81565b82818337506000910152565b60005b8381101562000cd057818101518382015260200162000cb6565b83811115620005795750506000910152565b601f01601f191690565b62000cf78162000c6f565b811462000d0357600080fd5b50565b62000cf78162000c7c565b62000cf78162000c8156fe60806040526003805460ff1916600117905534801561001d57600080fd5b5060405161072e38038061072e8339810180604052606081101561004057600080fd5b81516020830180519193928301929164010000000081111561006157600080fd5b8201602081018481111561007457600080fd5b815164010000000081118282018710171561008e57600080fd5b5050602091820151600080546001600160a01b0319166001600160a01b038816179055815191945092506100c891600191908501906100f7565b50600380546001600160a01b0390921661010002610100600160a81b0319909216919091179055506101929050565b828054600181600116156101000203166002900490600052602060002090601f016020900481019282601f1061013857805160ff1916838001178555610165565b82800160010185558215610165579182015b8281111561016557825182559160200191906001019061014a565b50610171929150610175565b5090565b61018f91905b80821115610171576000815560010161017b565b90565b61058d806101a16000396000f3fe608060405234801561001057600080fd5b50600436106100885760003560e01c80634e50c75c1161005b5780634e50c75c1461018857806385aba275146101c15780638da5cb5b146101e7578063c0fe1af8146101ef57610088565b806302fb0c5e1461008d57806306fdde03146100a957806335d02f721461012657806340a3d2461461017e575b600080fd5b61009561020c565b604080519115158252519081900360200190f35b6100b1610215565b6040805160208082528351818301528351919283929083019185019080838360005b838110156100eb5781810151838201526020016100d3565b50505050905090810190601f1680156101185780820380516001836020036101000a031916815260200191505b509250505060405180910390f35b61012e6102a2565b60408051602080825283518183015283519192839290830191858101910280838360005b8381101561016a578181015183820152602001610152565b505050509050019250505060405180910390f35b610186610304565b005b6101a56004803603602081101561019e57600080fd5b503561037a565b604080516001600160a01b039092168252519081900360200190f35b610186600480360360208110156101d757600080fd5b50356001600160a01b03166103a1565b6101a56104cb565b6101866004803603602081101561020557600080fd5b50356104da565b60035460ff1681565b60018054604080516020600284861615610100026000190190941693909304601f8101849004840282018401909252818152929183018282801561029a5780601f1061026f5761010080835404028352916020019161029a565b820191906000526020600020905b81548152906001019060200180831161027d57829003601f168201915b505050505081565b606060028054806020026020016040519081016040528092919081815260200182805480156102fa57602002820191906000526020600020905b81546001600160a01b031681526001909101906020018083116102dc575b5050505050905090565b6000546001600160a01b031633146103665760408051600160e51b62461bcd02815260206004820152601560248201527f796f7520617265206e6f7420746865206f776e65720000000000000000000000604482015290519081900360640190fd5b6003805460ff19811660ff90911615179055565b6002818154811061038757fe5b6000918252602090912001546001600160a01b0316905081565b60035461010090046001600160a01b031633146103ff5760408051600160e51b62461bcd02815260206004820152601160248201526001607a1b701c195c9b5a5cdcda5bdb8819195b9a595902604482015290519081900360640190fd5b6002805460018101825560008290527f405787fa12a823e0f2b7631cc41b3ba8828b3321ca811111fa75cd3aa3bb5ace0180546001600160a01b0319166001600160a01b03841617905560408051602080825283549082018190527f7a75847e418b45815a603c840aeba04a5babf14dfc067ffb330ba9b37d47a5139392829190820190849080156104ba57602002820191906000526020600020905b81546001600160a01b0316815260019091019060200180831161049c575b50509250505060405180910390a150565b6000546001600160a01b031681565b60035461010090046001600160a01b031633146105385760408051600160e51b62461bcd02815260206004820152601160248201526001607a1b701c195c9b5a5cdcda5bdb8819195b9a595902604482015290519081900360640190fd5b6002818154811061054557fe5b600091825260209091200180546001600160a01b03191690555056fea165627a7a72305820a83d560a084a82c435a612affd5c1ba30eda05677f8789b61acd9b8f0d0707330029a265627a7a7230582073911a5767086e834585f5a6c2bb628b5fe8dde99301d469c3f32c413bbb5c456c6578706572696d656e74616cf50037",
  "source": "pragma solidity ^0.5.0;\npragma experimental ABIEncoderV2;\n\n// IMPORT INTERFACES\nimport { Device } from './Device.sol';\nimport { UserManager } from '../user/Manager.sol';\n\ncontract DeviceManager {\n\n    // UNIQUE DEVICES, [HASH ID => CONTRACT LOCATION]\n    mapping (string => Device) devices;\n\n    // USER DEVICE COLLECTION, [USER ADDRESS => LIST OF DEVICE IDS]\n    mapping (address => string[]) collections;\n\n    // INIT STATUS\n    bool initialized = false;\n\n    // REFERENCES\n    UserManager user_manager;\n    address task_manager;\n\n    // CHECK IF DEVICE EXISTS\n    function exists(string memory _hash) public view returns(bool) {\n        if (address(devices[_hash]) != 0x0000000000000000000000000000000000000000) {\n            return true;\n        } else {\n            return false;\n        }\n    }\n\n    // CHECK IF USER IS DEVICE OWNER\n    function is_owner(string memory _hash, address sender) public view returns(bool) {\n        if (exists(_hash) && devices[_hash].owner() == sender) {\n            return true;\n        } else {\n            return false;\n        }\n    }\n\n    // ADD DEVICE\n    function add(string memory id, string memory name) public {\n\n        // IF THE CONTRACT HAS BEEN INITIALIZED\n        // IF THE DEVICE DOES NOT EXIST\n        // IF THE USER IS REGISTERED\n        require(initialized, 'contract has not been initialized');\n        require(!exists(id), 'device already exist');\n        require(user_manager.exists(msg.sender), 'you are not a registered user');\n\n        // PUSH NEW ENTRY TO BOTH HASHMAPS\n        devices[id] = new Device(msg.sender, name, task_manager);\n        collections[msg.sender].push(id);\n    }\n\n    // FETCH SPECIFIC DEVICE\n    function fetch_device(string memory id) public view returns(Device) {\n\n        // IF THE DEVICE EXISTS\n        require(exists(id), 'device does not exist');\n        return devices[id];\n    }\n\n    // FETCH USER COLLECTION\n    function fetch_collection(address user) public view returns(string[] memory) {\n        return collections[user];\n    }\n\n    // INITIALIZE\n    function init(UserManager _user_manager, address _task_manager) public {\n\n        // IF THE CONTRACT HAS NOT BEEN INITIALIZED BEFORE\n        require(!initialized, 'contract has already been initialized');\n\n        // SET REFERENCES\n        user_manager = _user_manager;\n        task_manager = _task_manager;\n\n        // BLOCK FURTHER MODIFICATIONS\n        initialized = true;\n    }\n}",
  "sourcePath": "C:\\Users\\35840\\Desktop\\coding\\node\\eth-contracts\\contracts\\device\\Manager.sol",
  "compiler": {
    "name": "solc",
    "version": "0.5.8+commit.23d335f2.Emscripten.clang"
  },
  "schemaVersion": "3.0.17",
  "updatedAt": "2019-11-09T18:34:22.758Z",
  "networkType": "ethereum",
  "devdoc": {
    "methods": {}
  },
  "userdoc": {
    "methods": {}
  }
}