{
  "contractName": "Device",
  "abi": [
    {
      "constant": true,
      "inputs": [],
      "name": "active",
      "outputs": [
        {
          "name": "",
          "type": "bool"
        }
      ],
      "payable": false,
      "stateMutability": "view",
      "type": "function"
    },
    {
      "constant": true,
      "inputs": [
        {
          "name": "",
          "type": "uint256"
        }
      ],
      "name": "assignments",
      "outputs": [
        {
          "name": "",
          "type": "address"
        }
      ],
      "payable": false,
      "stateMutability": "view",
      "type": "function"
    },
    {
      "constant": true,
      "inputs": [],
      "name": "owner",
      "outputs": [
        {
          "name": "",
          "type": "address"
        }
      ],
      "payable": false,
      "stateMutability": "view",
      "type": "function"
    },
    {
      "inputs": [
        {
          "name": "_owner",
          "type": "address"
        },
        {
          "name": "_nickname",
          "type": "string"
        }
      ],
      "payable": false,
      "stateMutability": "nonpayable",
      "type": "constructor"
    },
    {
      "anonymous": false,
      "inputs": [
        {
          "indexed": false,
          "name": "task",
          "type": "address"
        }
      ],
      "name": "Update",
      "type": "event"
    },
    {
      "constant": false,
      "inputs": [],
      "name": "toggle",
      "outputs": [],
      "payable": false,
      "stateMutability": "nonpayable",
      "type": "function"
    },
    {
      "constant": false,
      "inputs": [
        {
          "name": "sender",
          "type": "address"
        }
      ],
      "name": "assign",
      "outputs": [],
      "payable": false,
      "stateMutability": "nonpayable",
      "type": "function"
    }
  ],
  "bytecode": "0x60806040526003805460ff1916600117905534801561001d57600080fd5b506040516104783803806104788339810180604052604081101561004057600080fd5b81516020830180519193928301929164010000000081111561006157600080fd5b8201602081018481111561007457600080fd5b815164010000000081118282018710171561008e57600080fd5b5050600080546001600160a01b0319166001600160a01b03871617905580519093506100c392506001915060208401906100cb565b505050610166565b828054600181600116156101000203166002900490600052602060002090601f016020900481019282601f1061010c57805160ff1916838001178555610139565b82800160010185558215610139579182015b8281111561013957825182559160200191906001019061011e565b50610145929150610149565b5090565b61016391905b80821115610145576000815560010161014f565b90565b610303806101756000396000f3fe608060405234801561001057600080fd5b50600436106100575760003560e01c806302fb0c5e1461005c57806340a3d246146100785780634e50c75c1461008257806385aba275146100bb5780638da5cb5b146100e1575b600080fd5b6100646100e9565b604080519115158252519081900360200190f35b6100806100f2565b005b61009f6004803603602081101561009857600080fd5b5035610168565b604080516001600160a01b039092168252519081900360200190f35b610080600480360360208110156100d157600080fd5b50356001600160a01b031661018f565b61009f6102c8565b60035460ff1681565b6000546001600160a01b031633146101545760408051600160e51b62461bcd02815260206004820152601560248201527f796f7520617265206e6f7420746865206f776e65720000000000000000000000604482015290519081900360640190fd5b6003805460ff19811660ff90911615179055565b6002818154811061017557fe5b6000918252602090912001546001600160a01b0316905081565b6000546001600160a01b038281169116146101f45760408051600160e51b62461bcd02815260206004820152601560248201527f796f7520617265206e6f7420746865206f776e65720000000000000000000000604482015290519081900360640190fd5b60035460ff1661024e5760408051600160e51b62461bcd02815260206004820152601260248201527f64657669636520697320696e6163746976650000000000000000000000000000604482015290519081900360640190fd5b600280546001810182556000919091527f405787fa12a823e0f2b7631cc41b3ba8828b3321ca811111fa75cd3aa3bb5ace0180546001600160a01b0319163390811790915560408051918252517fd456720fd185d4060f5cea4d82775d2af95048c1e10f227ec35bae950a4be2a89181900360200190a150565b6000546001600160a01b03168156fea165627a7a72305820d8cb694ad57afd1405306dcef8dacc26a164b0c937c72db16e322cf8bec4e8140029",
  "source": "pragma solidity ^0.5.0;\n\ncontract Device {\n\n    // DEVICE PARAMS\n    address payable public owner;\n    string nickname;\n\n    // LATEST ASSIGNED TASK\n    address[] public assignments;\n\n    // ACTIVE STATUS\n    bool public active = true;\n\n    // WHEN CREATED, SET DEFAULT PARAMS\n    constructor(\n        address payable _owner,\n        string memory _nickname\n    ) public {\n        owner = _owner;\n        nickname = _nickname;\n    }\n\n    // NEW ADDED EVENT\n    event Update(address task);\n\n    // TOGGLE CONTRACT STATUS\n    function toggle() public {\n\n        // IF CALLER IS THE DEVICE OWNER\n        require(msg.sender == owner, 'you are not the owner');\n        active = !active;\n    }\n\n    // ASSIGN TASK TO DEVICE\n    function assign(address payable sender) public {\n\n        // IF SENDER IS THE DEVICE OWNER\n        // IF THE DEVICE IS ACTIVE\n        require(sender == owner, 'you are not the owner');\n        require(active, 'device is inactive');\n\n        // PUSH ASSIGNMENT & EMIT EVENT\n        assignments.push(msg.sender);\n        emit Update(msg.sender);\n    }\n}",
  "sourcePath": "C:\\Users\\35840\\Desktop\\coding\\node\\eth-contracts\\contracts\\device\\Device.sol",
  "compiler": {
    "name": "solc",
    "version": "0.5.8+commit.23d335f2.Emscripten.clang"
  },
  "schemaVersion": "3.0.17",
  "updatedAt": "2019-11-05T19:34:36.595Z",
  "devdoc": {
    "methods": {}
  },
  "userdoc": {
    "methods": {}
  }
}