{
  "contractName": "Task",
  "abi": [
    {
      "constant": true,
      "inputs": [],
      "name": "name",
      "outputs": [
        {
          "name": "",
          "type": "string"
        }
      ],
      "payable": false,
      "stateMutability": "view",
      "type": "function"
    },
    {
      "constant": true,
      "inputs": [],
      "name": "seller",
      "outputs": [
        {
          "name": "",
          "type": "address"
        }
      ],
      "payable": false,
      "stateMutability": "view",
      "type": "function"
    },
    {
      "constant": true,
      "inputs": [],
      "name": "reward",
      "outputs": [
        {
          "name": "",
          "type": "uint256"
        }
      ],
      "payable": false,
      "stateMutability": "view",
      "type": "function"
    },
    {
      "constant": true,
      "inputs": [],
      "name": "index",
      "outputs": [
        {
          "name": "",
          "type": "uint256"
        }
      ],
      "payable": false,
      "stateMutability": "view",
      "type": "function"
    },
    {
      "constant": true,
      "inputs": [],
      "name": "created",
      "outputs": [
        {
          "name": "",
          "type": "uint256"
        }
      ],
      "payable": false,
      "stateMutability": "view",
      "type": "function"
    },
    {
      "constant": true,
      "inputs": [],
      "name": "buyer",
      "outputs": [
        {
          "name": "",
          "type": "address"
        }
      ],
      "payable": false,
      "stateMutability": "view",
      "type": "function"
    },
    {
      "constant": true,
      "inputs": [],
      "name": "encryption",
      "outputs": [
        {
          "name": "",
          "type": "string"
        }
      ],
      "payable": false,
      "stateMutability": "view",
      "type": "function"
    },
    {
      "constant": true,
      "inputs": [],
      "name": "reputation",
      "outputs": [
        {
          "name": "",
          "type": "uint256"
        }
      ],
      "payable": false,
      "stateMutability": "view",
      "type": "function"
    },
    {
      "constant": true,
      "inputs": [],
      "name": "locked",
      "outputs": [
        {
          "name": "",
          "type": "bool"
        }
      ],
      "payable": false,
      "stateMutability": "view",
      "type": "function"
    },
    {
      "inputs": [
        {
          "name": "_buyer",
          "type": "address"
        },
        {
          "name": "_name",
          "type": "string"
        },
        {
          "name": "_reputation",
          "type": "uint256"
        },
        {
          "name": "_encryption",
          "type": "string"
        },
        {
          "name": "_index",
          "type": "uint256"
        }
      ],
      "payable": true,
      "stateMutability": "payable",
      "type": "constructor"
    },
    {
      "constant": false,
      "inputs": [
        {
          "name": "_seller",
          "type": "address"
        }
      ],
      "name": "accept",
      "outputs": [],
      "payable": true,
      "stateMutability": "payable",
      "type": "function"
    },
    {
      "constant": false,
      "inputs": [],
      "name": "unlock",
      "outputs": [],
      "payable": false,
      "stateMutability": "nonpayable",
      "type": "function"
    },
    {
      "constant": false,
      "inputs": [],
      "name": "complete",
      "outputs": [],
      "payable": false,
      "stateMutability": "nonpayable",
      "type": "function"
    },
    {
      "constant": false,
      "inputs": [],
      "name": "release",
      "outputs": [],
      "payable": false,
      "stateMutability": "nonpayable",
      "type": "function"
    }
  ],
  "bytecode": "0x6080604081905260018054600160a01b60ff02191690556107fa38819003908190833981018060405260a081101561003657600080fd5b81516020830180519193928301929164010000000081111561005757600080fd5b8201602081018481111561006a57600080fd5b815164010000000081118282018710171561008457600080fd5b505060208201516040909201805191949293916401000000008111156100a957600080fd5b820160208101848111156100bc57600080fd5b81516401000000008111828201871017156100d657600080fd5b5050602091820151600080546001600160a01b0319166001600160a01b038a16179055865191945092506101109160029190870190610150565b5060038390558151610129906004906020850190610150565b50346005556006555050426007555050600880546001600160a01b031916331790556101eb565b828054600181600116156101000203166002900490600052602060002090601f016020900481019282601f1061019157805160ff19168380011785556101be565b828001600101855582156101be579182015b828111156101be5782518255916020019190600101906101a3565b506101ca9291506101ce565b5090565b6101e891905b808211156101ca57600081556001016101d4565b90565b610600806101fa6000396000f3fe6080604052600436106100c25760003560e01c80637150d8ae1161007f578063a531d36211610059578063a531d3621461023a578063a69df4b51461024f578063c52164c614610264578063cf30901214610279576100c2565b80637150d8ae146101ea57806386d1a69f146101ff5780639f00592014610214576100c2565b806306fdde03146100c757806308551a5314610151578063228cb733146101825780632986c0e5146101a9578063325a19f1146101be578063522e1177146101d3575b600080fd5b3480156100d357600080fd5b506100dc6102a2565b6040805160208082528351818301528351919283929083019185019080838360005b838110156101165781810151838201526020016100fe565b50505050905090810190601f1680156101435780820380516001836020036101000a031916815260200191505b509250505060405180910390f35b34801561015d57600080fd5b5061016661032d565b604080516001600160a01b039092168252519081900360200190f35b34801561018e57600080fd5b5061019761033c565b60408051918252519081900360200190f35b3480156101b557600080fd5b50610197610342565b3480156101ca57600080fd5b50610197610348565b3480156101df57600080fd5b506101e861034e565b005b3480156101f657600080fd5b506101666103b5565b34801561020b57600080fd5b506101e86103c4565b6101e86004803603602081101561022a57600080fd5b50356001600160a01b031661042b565b34801561024657600080fd5b506100dc6104c5565b34801561025b57600080fd5b506101e8610520565b34801561027057600080fd5b506101976105be565b34801561028557600080fd5b5061028e6105c4565b604080519115158252519081900360200190f35b6002805460408051602060018416156101000260001901909316849004601f810184900484028201840190925281815292918301828280156103255780601f106102fa57610100808354040283529160200191610325565b820191906000526020600020905b81548152906001019060200180831161030857829003601f168201915b505050505081565b6001546001600160a01b031681565b60055481565b60065481565b60075481565b6008546001600160a01b031633146103a75760408051600160e51b62461bcd02815260206004820152601160248201526001607a1b701c195c9b5a5cdcda5bdb8819195b9a595902604482015290519081900360640190fd5b6001546001600160a01b0316ff5b6000546001600160a01b031681565b6008546001600160a01b0316331461041d5760408051600160e51b62461bcd02815260206004820152601160248201526001607a1b701c195c9b5a5cdcda5bdb8819195b9a595902604482015290519081900360640190fd5b6000546001600160a01b0316ff5b6008546001600160a01b031633146104845760408051600160e51b62461bcd02815260206004820152601160248201526001607a1b701c195c9b5a5cdcda5bdb8819195b9a595902604482015290519081900360640190fd5b6001805474ff0000000000000000000000000000000000000000196001600160a01b039093166001600160a01b03199091161791909116600160a01b179055565b6004805460408051602060026001851615610100026000190190941693909304601f810184900484028201840190925281815292918301828280156103255780601f106102fa57610100808354040283529160200191610325565b6001546001600160a01b031633146105795760408051600160e51b62461bcd02815260206004820152601160248201526001607a1b701c195c9b5a5cdcda5bdb8819195b9a595902604482015290519081900360640190fd5b600180546001600160a81b03191690556005546040516000916004900480156108fc029183818181858288f193505050501580156105bb573d6000803e3d6000fd5b50565b60035481565b600154600160a01b900460ff168156fea165627a7a723058208f504055e111d4ec103e5e37705a1de4ea23b3543ba2953ff2bdb8d4ab2d41ff0029",
  "source": "pragma solidity ^0.5.0;\n\ncontract Task {\n\n    // BUYER & SELLER\n    address payable public buyer;\n    address payable public seller;\n\n    // LOCKED STATUS\n    bool public locked = false;\n\n    // SPECIFICATIONS\n    string public name;\n    uint public reputation;\n    string public encryption;\n    uint public reward;\n\n    // LISTED INDEX & CREATED TIMESTAMP\n    uint public index;\n    uint256 public created;\n\n    // TASK MANAGER REFERENCE\n    address task_manager;\n\n    // WHEN CREATED\n    constructor(\n        address payable _buyer,\n        string memory _name,\n        uint _reputation,\n        string memory _encryption,\n        uint _index\n    ) public payable {\n\n        // SET TASK OWNER\n        buyer = _buyer;\n\n        // SET STATIC TASK PARAMS\n        name = _name;\n        reputation = _reputation;\n        encryption = _encryption;\n        reward = msg.value;\n\n        // SET LISTED INDEX & CREATED TIMESTAMP\n        index = _index;\n        created = block.timestamp;\n\n        // TASK MANAGER REFERENCE\n        task_manager = msg.sender;\n    }\n\n    // ACCEPT TASK\n    function accept(address payable _seller) public payable {\n\n        // IF THE SENDER IS THE TASK MANAGER\n        require(msg.sender == task_manager, 'permission denied');\n\n        // SET SELLER & LOCK THE TASK\n        seller = _seller;\n        locked = true;\n    }\n\n    // UNLOCK TASK\n    function unlock() public {\n\n        // IF THE SENDER IS THE SELLER\n        require(msg.sender == seller, 'permission denied');\n\n        // UNLOCK THE TASK & RESET SELLER\n        locked = false;\n        seller = 0x0000000000000000000000000000000000000000;\n\n        // TRANSFER 25% OF THE REWARD BACK\n        seller.transfer(reward / 4);\n    }\n\n    // COMPLETE THE TASK\n    function complete() public {\n\n        // IF THE SENDER IS THE TASK MANAGER\n        require(msg.sender == task_manager, 'permission denied');\n\n        // SELF DESTRUCT & TRANSFER FUNDS TO THE SELLER\n        selfdestruct(seller);\n    }\n\n    // RELEASE THE TASK\n    function release() public {\n\n        // IF THE SENDER IS THE TASK MANAGER\n        require(msg.sender == task_manager, 'permission denied');\n\n        // SELF DESTRUCT & TRANSFER FUNDS TO THE BUYER\n        selfdestruct(buyer);\n    }\n}",
  "sourcePath": "C:\\Users\\35840\\Desktop\\coding\\node\\eth-contracts\\contracts\\task\\Task.sol",
  "compiler": {
    "name": "solc",
    "version": "0.5.8+commit.23d335f2.Emscripten.clang"
  },
  "schemaVersion": "3.0.17",
  "updatedAt": "2019-11-09T00:44:41.983Z",
  "devdoc": {
    "methods": {}
  },
  "userdoc": {
    "methods": {}
  }
}