{
  "contractName": "Task",
  "abi": [
    {
      "constant": true,
      "inputs": [],
      "name": "name",
      "outputs": [
        {
          "name": "",
          "type": "string"
        }
      ],
      "payable": false,
      "stateMutability": "view",
      "type": "function"
    },
    {
      "constant": true,
      "inputs": [],
      "name": "seller",
      "outputs": [
        {
          "name": "",
          "type": "address"
        }
      ],
      "payable": false,
      "stateMutability": "view",
      "type": "function"
    },
    {
      "constant": true,
      "inputs": [],
      "name": "position",
      "outputs": [
        {
          "name": "",
          "type": "uint256"
        }
      ],
      "payable": false,
      "stateMutability": "view",
      "type": "function"
    },
    {
      "constant": true,
      "inputs": [],
      "name": "reward",
      "outputs": [
        {
          "name": "",
          "type": "uint256"
        }
      ],
      "payable": false,
      "stateMutability": "view",
      "type": "function"
    },
    {
      "constant": true,
      "inputs": [],
      "name": "buyer",
      "outputs": [
        {
          "name": "",
          "type": "address"
        }
      ],
      "payable": false,
      "stateMutability": "view",
      "type": "function"
    },
    {
      "constant": true,
      "inputs": [],
      "name": "encryption",
      "outputs": [
        {
          "name": "",
          "type": "string"
        }
      ],
      "payable": false,
      "stateMutability": "view",
      "type": "function"
    },
    {
      "constant": true,
      "inputs": [],
      "name": "reputation",
      "outputs": [
        {
          "name": "",
          "type": "uint256"
        }
      ],
      "payable": false,
      "stateMutability": "view",
      "type": "function"
    },
    {
      "constant": true,
      "inputs": [],
      "name": "locked",
      "outputs": [
        {
          "name": "",
          "type": "bool"
        }
      ],
      "payable": false,
      "stateMutability": "view",
      "type": "function"
    },
    {
      "inputs": [
        {
          "name": "_buyer",
          "type": "address"
        },
        {
          "name": "_name",
          "type": "string"
        },
        {
          "name": "_reputation",
          "type": "uint256"
        },
        {
          "name": "_encryption",
          "type": "string"
        },
        {
          "name": "_position",
          "type": "uint256"
        },
        {
          "name": "_user_manager",
          "type": "address"
        },
        {
          "name": "_device_manager",
          "type": "address"
        }
      ],
      "payable": true,
      "stateMutability": "payable",
      "type": "constructor"
    },
    {
      "constant": false,
      "inputs": [
        {
          "name": "id",
          "type": "string"
        }
      ],
      "name": "accept",
      "outputs": [],
      "payable": true,
      "stateMutability": "payable",
      "type": "function"
    },
    {
      "constant": false,
      "inputs": [
        {
          "name": "ipfs",
          "type": "string"
        },
        {
          "name": "key",
          "type": "string"
        },
        {
          "name": "proxy",
          "type": "address"
        }
      ],
      "name": "submit",
      "outputs": [],
      "payable": false,
      "stateMutability": "nonpayable",
      "type": "function"
    },
    {
      "constant": false,
      "inputs": [],
      "name": "release",
      "outputs": [],
      "payable": false,
      "stateMutability": "nonpayable",
      "type": "function"
    }
  ],
  "bytecode": "0x6080604081905260018054600160a01b60ff02191690556200148338819003908190833981018060405260e08110156200003857600080fd5b8151602083018051919392830192916401000000008111156200005a57600080fd5b820160208101848111156200006e57600080fd5b81516401000000008111828201871017156200008957600080fd5b50506020820151604090920180519194929391640100000000811115620000af57600080fd5b82016020810184811115620000c357600080fd5b8151640100000000811182820187101715620000de57600080fd5b50506020828101516040840151606090940151600080546001600160a01b0319166001600160a01b038c1617905588519396509094509162000127916002919089019062000193565b50600385905583516200014290600490602087019062000193565b5034600555600692909255600780546001600160a01b039283166001600160a01b03199182161790915560088054939092169281169290921790556009805490911633179055506200023892505050565b828054600181600116156101000203166002900490600052602060002090601f016020900481019282601f10620001d657805160ff191683800117855562000206565b8280016001018555821562000206579182015b8281111562000206578251825591602001919060010190620001e9565b506200021492915062000218565b5090565b6200023591905b808211156200021457600081556001016200021f565b90565b61123b80620002486000396000f3fe60806040526004361061009c5760003560e01c80636034204e116100645780636034204e146102405780637150d8ae1461038557806386d1a69f1461039a578063a531d362146103af578063c52164c6146103c4578063cf309012146103d95761009c565b806306fdde03146100a157806308551a531461012b57806309218e911461015c5780630fba4ca114610183578063228cb7331461022b575b600080fd5b3480156100ad57600080fd5b506100b6610402565b6040805160208082528351818301528351919283929083019185019080838360005b838110156100f05781810151838201526020016100d8565b50505050905090810190601f16801561011d5780820380516001836020036101000a031916815260200191505b509250505060405180910390f35b34801561013757600080fd5b5061014061048d565b604080516001600160a01b039092168252519081900360200190f35b34801561016857600080fd5b5061017161049c565b60408051918252519081900360200190f35b6102296004803603602081101561019957600080fd5b8101906020810181356401000000008111156101b457600080fd5b8201836020820111156101c657600080fd5b803590602001918460018302840111640100000000831117156101e857600080fd5b91908080601f0160208091040260200160405190810160405280939291908181526020018383808284376000920191909152509295506104a2945050505050565b005b34801561023757600080fd5b50610171610d5e565b34801561024c57600080fd5b506102296004803603606081101561026357600080fd5b81019060208101813564010000000081111561027e57600080fd5b82018360208201111561029057600080fd5b803590602001918460018302840111640100000000831117156102b257600080fd5b91908080601f016020809104026020016040519081016040528093929190818152602001838380828437600092019190915250929594936020810193503591505064010000000081111561030557600080fd5b82018360208201111561031757600080fd5b8035906020019184600183028401116401000000008311171561033957600080fd5b91908080601f016020809104026020016040519081016040528093929190818152602001838380828437600092019190915250929550505090356001600160a01b03169150610d649050565b34801561039157600080fd5b50610140611051565b3480156103a657600080fd5b50610229611060565b3480156103bb57600080fd5b506100b661119e565b3480156103d057600080fd5b506101716111f9565b3480156103e557600080fd5b506103ee6111ff565b604080519115158252519081900360200190f35b6002805460408051602060018416156101000260001901909316849004601f810184900484028201840190925281815292918301828280156104855780601f1061045a57610100808354040283529160200191610485565b820191906000526020600020905b81548152906001019060200180831161046857829003601f168201915b505050505081565b6001546001600160a01b031681565b60065481565b600154600160a01b900460ff16156105045760408051600160e51b62461bcd02815260206004820152600e60248201527f7461736b206973206c6f636b6564000000000000000000000000000000000000604482015290519081900360640190fd5b60026005548161051057fe5b043410156105685760408051600160e51b62461bcd02815260206004820152601860248201527f696e73756666696369656e742066756e647320676976656e0000000000000000604482015290519081900360640190fd5b60075460408051600160e11b637b51e92702815233600482015290516001600160a01b039092169163f6a3d24e91602480820192602092909190829003018186803b1580156105b657600080fd5b505afa1580156105ca573d6000803e3d6000fd5b505050506040513d60208110156105e057600080fd5b50516106365760408051600160e51b62461bcd02815260206004820152601d60248201527f796f7520617265206e6f74206120726567697374657265642075736572000000604482015290519081900360640190fd5b60035460075460408051600160e11b637884d05f02815233600482015290516001600160a01b039092169163f109a0be91602480820192602092909190829003018186803b15801561068757600080fd5b505afa15801561069b573d6000803e3d6000fd5b505050506040513d60208110156106b157600080fd5b505160408051600160e11b636290b26302815290516001600160a01b039092169163c52164c691600480820192602092909190829003018186803b1580156106f857600080fd5b505afa15801561070c573d6000803e3d6000fd5b505050506040513d602081101561072257600080fd5b5051101561077a5760408051600160e51b62461bcd02815260206004820152601560248201527f6e6f7420656e6f7567682072657075746174696f6e0000000000000000000000604482015290519081900360640190fd5b600854604051600160e11b63130d191f0281526020600482018181528451602484015284516001600160a01b039094169363261a323e93869383926044909201919085019080838360005b838110156107dd5781810151838201526020016107c5565b50505050905090810190601f16801561080a5780820380516001836020036101000a031916815260200191505b509250505060206040518083038186803b15801561082757600080fd5b505afa15801561083b573d6000803e3d6000fd5b505050506040513d602081101561085157600080fd5b50516108a75760408051600160e51b62461bcd02815260206004820152601c60248201527f74686520646576696365206973206e6f74207265676973746572656400000000604482015290519081900360640190fd5b600854604051600160e11b6371d27c9302815260206004820181815284516024840152845133946001600160a01b03169363e3a4f9269387939283926044019185019080838360005b838110156109085781810151838201526020016108f0565b50505050905090810190601f1680156109355780820380516001836020036101000a031916815260200191505b509250505060206040518083038186803b15801561095257600080fd5b505afa158015610966573d6000803e3d6000fd5b505050506040513d602081101561097c57600080fd5b505160408051600160e01b638da5cb5b02815290516001600160a01b0390921691638da5cb5b91600480820192602092909190829003018186803b1580156109c357600080fd5b505afa1580156109d7573d6000803e3d6000fd5b505050506040513d60208110156109ed57600080fd5b50516001600160a01b031614610a4d5760408051600160e51b62461bcd02815260206004820152601c60248201527f796f7520617265206e6f742074686520646576696365206f776e657200000000604482015290519081900360640190fd5b600854604051600160e11b6371d27c930281526020600482018181528451602484015284516001600160a01b039094169363e3a4f92693869383926044909201919085019080838360005b83811015610ab0578181015183820152602001610a98565b50505050905090810190601f168015610add5780820380516001836020036101000a031916815260200191505b509250505060206040518083038186803b158015610afa57600080fd5b505afa158015610b0e573d6000803e3d6000fd5b505050506040513d6020811015610b2457600080fd5b505160408051600160e11b63017d862f02815290516001600160a01b03909216916302fb0c5e91600480820192602092909190829003018186803b158015610b6b57600080fd5b505afa158015610b7f573d6000803e3d6000fd5b505050506040513d6020811015610b9557600080fd5b5051610beb5760408051600160e51b62461bcd02815260206004820152601460248201527f646576696365206973206e6f7420616374697665000000000000000000000000604482015290519081900360640190fd5b6001805474ff0000000000000000000000000000000000000000196001600160a01b0319909116331716600160a01b179055600854604051600160e11b6371d27c930281526020600482018181528451602484015284516001600160a01b03949094169363e3a4f92693869383926044909201919085019080838360005b83811015610c81578181015183820152602001610c69565b50505050905090810190601f168015610cae5780820380516001836020036101000a031916815260200191505b509250505060206040518083038186803b158015610ccb57600080fd5b505afa158015610cdf573d6000803e3d6000fd5b505050506040513d6020811015610cf557600080fd5b505160408051600160e01b6385aba27502815233600482015290516001600160a01b03909216916385aba2759160248082019260009290919082900301818387803b158015610d4357600080fd5b505af1158015610d57573d6000803e3d6000fd5b5050505050565b60055481565b6009546001600160a01b03163314610dc65760408051600160e51b62461bcd02815260206004820152601160248201527f7065726d697373696f6e2064656e696564000000000000000000000000000000604482015290519081900360640190fd5b6001546001600160a01b03828116911614610e2b5760408051600160e51b62461bcd02815260206004820152601660248201527f796f7520617265206e6f74207468652073656c6c657200000000000000000000604482015290519081900360640190fd5b60075460005460408051600160e11b637884d05f0281526001600160a01b0392831660048201529051919092169163f109a0be916024808301926020929190829003018186803b158015610e7e57600080fd5b505afa158015610e92573d6000803e3d6000fd5b505050506040513d6020811015610ea857600080fd5b505160408051600160e31b630d78926d028152600481019182528451604482015284516001600160a01b0390931692636bc49368928692889282916024810191606490910190602087019080838360005b83811015610f11578181015183820152602001610ef9565b50505050905090810190601f168015610f3e5780820380516001836020036101000a031916815260200191505b50838103825284518152845160209182019186019080838360005b83811015610f71578181015183820152602001610f59565b50505050905090810190601f168015610f9e5780820380516001836020036101000a031916815260200191505b50945050505050600060405180830381600087803b158015610fbf57600080fd5b505af1158015610fd3573d6000803e3d6000fd5b505060095460065460408051600160e01b634cc822150281526004810192909252516001600160a01b039092169350634cc82215925060248082019260009290919082900301818387803b15801561102a57600080fd5b505af115801561103e573d6000803e3d6000fd5b50506001546001600160a01b0316915050ff5b6000546001600160a01b031681565b6000546001600160a01b031633146110c25760408051600160e51b62461bcd02815260206004820152601760248201527f596f7520617265206e6f74207468652063726561746f72000000000000000000604482015290519081900360640190fd5b600154600160a01b900460ff16156111245760408051600160e51b62461bcd02815260206004820152601260248201527f546865207461736b206973206c6f636b65640000000000000000000000000000604482015290519081900360640190fd5b60095460065460408051600160e01b634cc822150281526004810192909252516001600160a01b0390921691634cc822159160248082019260009290919082900301818387803b15801561117757600080fd5b505af115801561118b573d6000803e3d6000fd5b50506000546001600160a01b0316915050ff5b6004805460408051602060026001851615610100026000190190941693909304601f810184900484028201840190925281815292918301828280156104855780601f1061045a57610100808354040283529160200191610485565b60035481565b600154600160a01b900460ff168156fea165627a7a723058203ed393d9e71f296ed39e1be53d7e21bbaaae0ca38a2989c11fcd5490d1a22a520029",
  "source": "pragma solidity ^0.5.0;\n\n// IMPORT INTERFACES\nimport { TaskManager } from './Manager.sol';\nimport { DeviceManager } from '../device/Manager.sol';\nimport { UserManager } from '../user/Manager.sol';\n\ncontract Task {\n\n    // TASK BUYER & SELLER\n    address payable public buyer;\n    address payable public seller;\n\n    // LOCKED STATUS\n    bool public locked = false;\n\n    // TASK PARAMS\n    string public name;\n    uint public reputation;\n    string public encryption;\n    uint public reward;\n\n    // LISTED INDEX\n    uint public position;\n\n    // CONTRACT REFERENCES\n    UserManager user_manager;\n    DeviceManager device_manager;\n    TaskManager task_manager;\n\n    // WHEN THE CONTRACT IS CREATED\n    constructor(\n        address payable _buyer,\n        string memory _name,\n        uint _reputation,\n        string memory _encryption,\n        uint _position,\n        UserManager _user_manager,\n        DeviceManager _device_manager\n    ) public payable {\n\n        // SET TASK OWNER\n        buyer = _buyer;\n\n        // SET STATIC TASK PARAMS\n        name = _name;\n        reputation = _reputation;\n        encryption = _encryption;\n        reward = msg.value;\n\n        // SET LISTED INDEX\n        position = _position;\n\n        // SET CONTRACT REFERENCES\n        user_manager = _user_manager;\n        device_manager = _device_manager;\n        task_manager = TaskManager(msg.sender);\n    }\n\n    // ACCEPT TASK\n    function accept(string memory id) public payable {\n\n        // IF THE TASK IS NOT LOCKED\n        // IF TRANSACTION VALUE IS HALF OF REWARD\n        // IF THE USER IS REGISTERED\n        // IF THE USERS REPUTATION IS EQUAL OR HIGHER THAN THE REQUIREMENT\n        // IF THE PERFORMING DEVICE IS REGISTERED\n        // IF THE DEVICE IS OWNED BY THE USER\n        // IF THE DEVICE IS ACTIVE\n        require(!locked, 'task is locked');\n        require(msg.value >= reward / 2, 'insufficient funds given');\n        require(user_manager.exists(msg.sender), 'you are not a registered user');\n        require(user_manager.fetch(msg.sender).reputation() >= reputation, 'not enough reputation');\n        require(device_manager.exists(id), 'the device is not registered');\n        require(device_manager.fetch_device(id).owner() == msg.sender, 'you are not the device owner');\n        require(device_manager.fetch_device(id).active(), 'device is not active');\n\n        // SET SELLER & LOCK THE TASK\n        seller = msg.sender;\n        locked = true;\n\n        // ASSIGN TASK TO THE DEVICE\n        device_manager.fetch_device(id).assign(msg.sender);\n    }\n\n    // SUBMIT RESPONSE DATA\n    function submit(\n        string memory ipfs,\n        string memory key,\n        address proxy\n    ) public {\n\n        // IF THE SENDER IS THE TASK MANAGER\n        // IF THE SENDER PROXY IS THE SELLER\n        require(msg.sender == address(task_manager), 'permission denied');\n        require(proxy == seller, 'you are not the seller');\n\n        // ADD RESPONSE TO BUYER\n        user_manager.fetch(buyer).add_task(key, ipfs);\n\n        // UNLIST TASK & SELF DESTRUCT\n        task_manager.remove(position);\n        selfdestruct(seller);\n    }\n\n    // DESTROY THE CONTRACT & PAY PARTICIPANTS\n    function release() public {\n\n        // IF SENDER IS BUYER\n        // IF TASK IS NOT LOCKED\n        require(msg.sender == buyer, 'You are not the creator');\n        require(!locked, 'The task is locked');\n\n        // REMOVE TASK, SEND EVENT & SELF DESTRUCT\n        task_manager.remove(position);\n        selfdestruct(buyer);\n    }\n}",
  "sourcePath": "C:\\Users\\35840\\Desktop\\coding\\node\\eth-contracts\\contracts\\task\\Task.sol",
  "compiler": {
    "name": "solc",
    "version": "0.5.8+commit.23d335f2.Emscripten.clang"
  },
  "schemaVersion": "3.0.17",
  "updatedAt": "2019-11-05T19:34:36.604Z",
  "devdoc": {
    "methods": {}
  },
  "userdoc": {
    "methods": {}
  }
}