{
  "contractName": "Task",
  "abi": [
    {
      "constant": true,
      "inputs": [],
      "name": "name",
      "outputs": [
        {
          "name": "",
          "type": "string"
        }
      ],
      "payable": false,
      "stateMutability": "view",
      "type": "function"
    },
    {
      "constant": true,
      "inputs": [],
      "name": "seller",
      "outputs": [
        {
          "name": "",
          "type": "address"
        }
      ],
      "payable": false,
      "stateMutability": "view",
      "type": "function"
    },
    {
      "constant": true,
      "inputs": [],
      "name": "reward",
      "outputs": [
        {
          "name": "",
          "type": "uint256"
        }
      ],
      "payable": false,
      "stateMutability": "view",
      "type": "function"
    },
    {
      "constant": true,
      "inputs": [],
      "name": "index",
      "outputs": [
        {
          "name": "",
          "type": "uint256"
        }
      ],
      "payable": false,
      "stateMutability": "view",
      "type": "function"
    },
    {
      "constant": true,
      "inputs": [],
      "name": "created",
      "outputs": [
        {
          "name": "",
          "type": "uint256"
        }
      ],
      "payable": false,
      "stateMutability": "view",
      "type": "function"
    },
    {
      "constant": true,
      "inputs": [],
      "name": "buyer",
      "outputs": [
        {
          "name": "",
          "type": "address"
        }
      ],
      "payable": false,
      "stateMutability": "view",
      "type": "function"
    },
    {
      "constant": true,
      "inputs": [],
      "name": "encryption",
      "outputs": [
        {
          "name": "",
          "type": "string"
        }
      ],
      "payable": false,
      "stateMutability": "view",
      "type": "function"
    },
    {
      "constant": true,
      "inputs": [],
      "name": "reputation",
      "outputs": [
        {
          "name": "",
          "type": "uint256"
        }
      ],
      "payable": false,
      "stateMutability": "view",
      "type": "function"
    },
    {
      "constant": true,
      "inputs": [],
      "name": "locked",
      "outputs": [
        {
          "name": "",
          "type": "bool"
        }
      ],
      "payable": false,
      "stateMutability": "view",
      "type": "function"
    },
    {
      "inputs": [
        {
          "name": "_buyer",
          "type": "address"
        },
        {
          "name": "_name",
          "type": "string"
        },
        {
          "name": "_reputation",
          "type": "uint256"
        },
        {
          "name": "_encryption",
          "type": "string"
        },
        {
          "name": "_index",
          "type": "uint256"
        }
      ],
      "payable": true,
      "stateMutability": "payable",
      "type": "constructor"
    },
    {
      "constant": false,
      "inputs": [
        {
          "name": "_seller",
          "type": "address"
        }
      ],
      "name": "accept",
      "outputs": [],
      "payable": true,
      "stateMutability": "payable",
      "type": "function"
    },
    {
      "constant": false,
      "inputs": [],
      "name": "unlock",
      "outputs": [],
      "payable": false,
      "stateMutability": "nonpayable",
      "type": "function"
    },
    {
      "constant": false,
      "inputs": [],
      "name": "complete",
      "outputs": [],
      "payable": false,
      "stateMutability": "nonpayable",
      "type": "function"
    },
    {
      "constant": false,
      "inputs": [],
      "name": "release",
      "outputs": [],
      "payable": false,
      "stateMutability": "nonpayable",
      "type": "function"
    }
  ],
  "bytecode": "0x608060408190526001805460a060020a60ff021916905561083538819003908190833981018060405260a081101561003657600080fd5b81516020830180519193928301929164010000000081111561005757600080fd5b8201602081018481111561006a57600080fd5b815164010000000081118282018710171561008457600080fd5b505060208201516040909201805191949293916401000000008111156100a957600080fd5b820160208101848111156100bc57600080fd5b81516401000000008111828201871017156100d657600080fd5b505060209182015160008054600160a060020a031916600160a060020a038a16179055865191945092506101109160029190870190610150565b5060038390558151610129906004906020850190610150565b5034600555600655505042600755505060088054600160a060020a031916331790556101eb565b828054600181600116156101000203166002900490600052602060002090601f016020900481019282601f1061019157805160ff19168380011785556101be565b828001600101855582156101be579182015b828111156101be5782518255916020019190600101906101a3565b506101ca9291506101ce565b5090565b6101e891905b808211156101ca57600081556001016101d4565b90565b61063b806101fa6000396000f3fe6080604052600436106100c45763ffffffff7c010000000000000000000000000000000000000000000000000000000060003504166306fdde0381146100c957806308551a5314610153578063228cb733146101845780632986c0e5146101ab578063325a19f1146101c0578063522e1177146101d55780637150d8ae146101ec57806386d1a69f146102015780639f00592014610216578063a531d3621461023c578063a69df4b514610251578063c52164c614610266578063cf3090121461027b575b600080fd5b3480156100d557600080fd5b506100de6102a4565b6040805160208082528351818301528351919283929083019185019080838360005b83811015610118578181015183820152602001610100565b50505050905090810190601f1680156101455780820380516001836020036101000a031916815260200191505b509250505060405180910390f35b34801561015f57600080fd5b5061016861032f565b60408051600160a060020a039092168252519081900360200190f35b34801561019057600080fd5b5061019961033e565b60408051918252519081900360200190f35b3480156101b757600080fd5b50610199610344565b3480156101cc57600080fd5b5061019961034a565b3480156101e157600080fd5b506101ea610350565b005b3480156101f857600080fd5b506101686103ae565b34801561020d57600080fd5b506101ea6103bd565b6101ea6004803603602081101561022c57600080fd5b5035600160a060020a031661041b565b34801561024857600080fd5b506100de6104ca565b34801561025d57600080fd5b506101ea610525565b34801561027257600080fd5b506101996105c8565b34801561028757600080fd5b506102906105ce565b604080519115158252519081900360200190f35b6002805460408051602060018416156101000260001901909316849004601f810184900484028201840190925281815292918301828280156103275780601f106102fc57610100808354040283529160200191610327565b820191906000526020600020905b81548152906001019060200180831161030a57829003601f168201915b505050505081565b600154600160a060020a031681565b60055481565b60065481565b60075481565b600854600160a060020a031633146103a0576040805160e560020a62461bcd02815260206004820152601160248201526000805160206105f0833981519152604482015290519081900360640190fd5b600154600160a060020a0316ff5b600054600160a060020a031681565b600854600160a060020a0316331461040d576040805160e560020a62461bcd02815260206004820152601160248201526000805160206105f0833981519152604482015290519081900360640190fd5b600054600160a060020a0316ff5b600854600160a060020a0316331461046b576040805160e560020a62461bcd02815260206004820152601160248201526000805160206105f0833981519152604482015290519081900360640190fd5b6001805474ff000000000000000000000000000000000000000019600160a060020a0390931673ffffffffffffffffffffffffffffffffffffffff19909116179190911674010000000000000000000000000000000000000000179055565b6004805460408051602060026001851615610100026000190190941693909304601f810184900484028201840190925281815292918301828280156103275780601f106102fc57610100808354040283529160200191610327565b600154600160a060020a03163314610575576040805160e560020a62461bcd02815260206004820152601160248201526000805160206105f0833981519152604482015290519081900360640190fd5b6001805474ffffffffffffffffffffffffffffffffffffffffff191690556005546040516000916004900480156108fc029183818181858288f193505050501580156105c5573d6000803e3d6000fd5b50565b60035481565b60015474010000000000000000000000000000000000000000900460ff168156fe7065726d697373696f6e2064656e696564000000000000000000000000000000a165627a7a723058204c831c4519e111d421e066c3653dc91204b235f44954e51b25eb9dd2710a396e0029",
  "source": "pragma solidity ^0.5.0;\n\ncontract Task {\n\n    // BUYER & SELLER\n    address payable public buyer;\n    address payable public seller;\n\n    // LOCKED STATUS\n    bool public locked = false;\n\n    // SPECIFICATIONS\n    string public name;\n    uint public reputation;\n    string public encryption;\n    uint public reward;\n\n    // LISTED INDEX & CREATED TIMESTAMP\n    uint public index;\n    uint256 public created;\n\n    // TASK MANAGER REFERENCE\n    address task_manager;\n\n    // WHEN CREATED\n    constructor(\n        address payable _buyer,\n        string memory _name,\n        uint _reputation,\n        string memory _encryption,\n        uint _index\n    ) public payable {\n\n        // SET TASK OWNER\n        buyer = _buyer;\n\n        // SET STATIC TASK PARAMS\n        name = _name;\n        reputation = _reputation;\n        encryption = _encryption;\n        reward = msg.value;\n\n        // SET LISTED INDEX & CREATED TIMESTAMP\n        index = _index;\n        created = block.timestamp;\n\n        // TASK MANAGER REFERENCE\n        task_manager = msg.sender;\n    }\n\n    // ACCEPT TASK\n    function accept(address payable _seller) public payable {\n\n        // IF THE SENDER IS THE TASK MANAGER\n        require(msg.sender == task_manager, 'permission denied');\n\n        // SET SELLER & LOCK THE TASK\n        seller = _seller;\n        locked = true;\n    }\n\n    // UNLOCK TASK\n    function unlock() public {\n\n        // IF THE SENDER IS THE SELLER\n        require(msg.sender == seller, 'permission denied');\n\n        // UNLOCK THE TASK & RESET SELLER\n        locked = false;\n        seller = 0x0000000000000000000000000000000000000000;\n\n        // TRANSFER 25% OF THE REWARD BACK\n        seller.transfer(reward / 4);\n    }\n\n    // COMPLETE THE TASK\n    function complete() public {\n\n        // IF THE SENDER IS THE TASK MANAGER\n        require(msg.sender == task_manager, 'permission denied');\n\n        // SELF DESTRUCT & TRANSFER FUNDS TO THE SELLER\n        selfdestruct(seller);\n    }\n\n    // RELEASE THE TASK\n    function release() public {\n\n        // IF THE SENDER IS THE TASK MANAGER\n        require(msg.sender == task_manager, 'permission denied');\n\n        // SELF DESTRUCT & TRANSFER FUNDS TO THE BUYER\n        selfdestruct(buyer);\n    }\n}",
  "sourcePath": "/home/bdalab/wickstjo/eth-contracts/contracts/task/Task.sol",
  "compiler": {
    "name": "solc",
    "version": "0.5.0+commit.1d4f565a.Emscripten.clang"
  },
  "schemaVersion": "3.0.9",
  "updatedAt": "2019-11-07T10:02:12.184Z",
  "devdoc": {
    "methods": {}
  },
  "userdoc": {
    "methods": {}
  }
}