{
  "contractName": "TaskManager",
  "abi": [
    {
      "inputs": [],
      "name": "fee",
      "outputs": [
        {
          "internalType": "uint256",
          "name": "",
          "type": "uint256"
        }
      ],
      "stateMutability": "view",
      "type": "function",
      "constant": true
    },
    {
      "inputs": [
        {
          "internalType": "uint256",
          "name": "",
          "type": "uint256"
        }
      ],
      "name": "open",
      "outputs": [
        {
          "internalType": "contract Task",
          "name": "",
          "type": "address"
        }
      ],
      "stateMutability": "view",
      "type": "function",
      "constant": true
    },
    {
      "inputs": [
        {
          "internalType": "address",
          "name": "task",
          "type": "address"
        }
      ],
      "name": "fetch_task",
      "outputs": [
        {
          "internalType": "contract Task",
          "name": "",
          "type": "address"
        }
      ],
      "stateMutability": "view",
      "type": "function",
      "constant": true
    },
    {
      "inputs": [
        {
          "internalType": "address",
          "name": "task",
          "type": "address"
        }
      ],
      "name": "fetch_result",
      "outputs": [
        {
          "components": [
            {
              "internalType": "string",
              "name": "key",
              "type": "string"
            },
            {
              "internalType": "string",
              "name": "ipfs",
              "type": "string"
            }
          ],
          "internalType": "struct TaskManager.result",
          "name": "",
          "type": "tuple"
        }
      ],
      "stateMutability": "view",
      "type": "function",
      "constant": true
    },
    {
      "inputs": [],
      "name": "fetch_open",
      "outputs": [
        {
          "internalType": "contract Task[]",
          "name": "",
          "type": "address[]"
        }
      ],
      "stateMutability": "view",
      "type": "function",
      "constant": true
    },
    {
      "inputs": [
        {
          "internalType": "uint256",
          "name": "reputation",
          "type": "uint256"
        },
        {
          "internalType": "uint256",
          "name": "reward",
          "type": "uint256"
        },
        {
          "internalType": "string",
          "name": "encryption_key",
          "type": "string"
        },
        {
          "internalType": "uint256",
          "name": "timelimit",
          "type": "uint256"
        }
      ],
      "name": "add",
      "outputs": [],
      "stateMutability": "nonpayable",
      "type": "function"
    },
    {
      "inputs": [
        {
          "internalType": "address",
          "name": "_task",
          "type": "address"
        },
        {
          "internalType": "string",
          "name": "_device",
          "type": "string"
        }
      ],
      "name": "accept",
      "outputs": [],
      "stateMutability": "nonpayable",
      "type": "function"
    },
    {
      "inputs": [
        {
          "internalType": "address",
          "name": "_task",
          "type": "address"
        },
        {
          "internalType": "string",
          "name": "_key",
          "type": "string"
        },
        {
          "internalType": "string",
          "name": "_ipfs",
          "type": "string"
        }
      ],
      "name": "complete",
      "outputs": [],
      "stateMutability": "nonpayable",
      "type": "function"
    },
    {
      "inputs": [
        {
          "internalType": "address",
          "name": "_task",
          "type": "address"
        }
      ],
      "name": "release",
      "outputs": [],
      "stateMutability": "nonpayable",
      "type": "function"
    },
    {
      "inputs": [
        {
          "internalType": "uint256",
          "name": "_fee",
          "type": "uint256"
        },
        {
          "internalType": "address",
          "name": "_user_manager",
          "type": "address"
        },
        {
          "internalType": "address",
          "name": "_device_manager",
          "type": "address"
        },
        {
          "internalType": "address",
          "name": "_token_manager",
          "type": "address"
        }
      ],
      "name": "init",
      "outputs": [],
      "stateMutability": "nonpayable",
      "type": "function"
    },
    {
      "inputs": [
        {
          "internalType": "address",
          "name": "_task",
          "type": "address"
        }
      ],
      "name": "exists",
      "outputs": [
        {
          "internalType": "bool",
          "name": "",
          "type": "bool"
        }
      ],
      "stateMutability": "view",
      "type": "function",
      "constant": true
    }
  ],
  "bytecode": "0x60806040526004805460ff1916905534801561001a57600080fd5b50612d288061002a6000396000f3fe60806040523480156200001157600080fd5b5060043610620000b85760003560e01c8063d4c69417116200007b578063d4c694171462000159578063d91cf5de1462000170578063dc890da91462000189578063ddca3f4314620001a0578063f6a3d24e14620001b9578063f772282c14620001df57620000b8565b80631880724014620000bd5780631916558714620000d6578063690e7c0914620000ed5780638d9ff2cf146200011c5780639ea2bdaf1462000142575b600080fd5b620000d4620000ce36600462001edc565b620001f6565b005b620000d4620000e736600462001e97565b62000a50565b62000104620000fe3660046200204d565b62000f71565b60405162000113919062002160565b60405180910390f35b620001336200012d36600462001e97565b62000f99565b6040516200011391906200249f565b620000d46200015336600462001f30565b62001106565b620000d46200016a366004620020d8565b620018c6565b6200017a62001bbf565b604051620001139190620021e3565b620000d46200019a3660046200207f565b62001c24565b620001aa62001ca8565b6040516200011391906200223d565b620001d0620001ca36600462001e97565b62001cae565b60405162000113919062002232565b62000104620001f036600462001e97565b62001ce3565b620002018262001cae565b620002295760405162461bcd60e51b8152600401620002209062002472565b60405180910390fd5b60055460405163130d191f60e11b81526001600160a01b039091169063261a323e906200025b90849060040162002246565b60206040518083038186803b1580156200027457600080fd5b505afa15801562000289573d6000803e3d6000fd5b505050506040513d601f19601f82011682018060405250810190620002af919062001fac565b620002ce5760405162461bcd60e51b815260040162000220906200236a565b6000620002db8362001ce3565b9050806001600160a01b031663cf3090126040518163ffffffff1660e01b815260040160206040518083038186803b1580156200031757600080fd5b505afa1580156200032c573d6000803e3d6000fd5b505050506040513d601f19601f8201168201806040525081019062000352919062001fac565b15620003725760405162461bcd60e51b8152600401620002209062002399565b60048054604051637b51e92760e11b81526101009091046001600160a01b03169163f6a3d24e91620003a79133910162002160565b60206040518083038186803b158015620003c057600080fd5b505afa158015620003d5573d6000803e3d6000fd5b505050506040513d601f19601f82011682018060405250810190620003fb919062001fac565b6200041a5760405162461bcd60e51b81526004016200022090620023c1565b806001600160a01b031663c52164c66040518163ffffffff1660e01b815260040160206040518083038186803b1580156200045457600080fd5b505afa15801562000469573d6000803e3d6000fd5b505050506040513d601f19601f820116820180604052508101906200048f919062002066565b60048054604051637884d05f60e11b81526101009091046001600160a01b03169163f109a0be91620004c49133910162002160565b60206040518083038186803b158015620004dd57600080fd5b505afa158015620004f2573d6000803e3d6000fd5b505050506040513d601f19601f8201168201806040525081019062000518919062001ebd565b6001600160a01b031663c52164c66040518163ffffffff1660e01b815260040160206040518083038186803b1580156200055157600080fd5b505afa15801562000566573d6000803e3d6000fd5b505050506040513d601f19601f820116820180604052508101906200058c919062002066565b1015620005ad5760405162461bcd60e51b815260040162000220906200233b565b6002816001600160a01b031663228cb7336040518163ffffffff1660e01b815260040160206040518083038186803b158015620005e957600080fd5b505afa158015620005fe573d6000803e3d6000fd5b505050506040513d601f19601f8201168201806040525081019062000624919062002066565b816200062c57fe5b60065460405163e3d670d760e01b815292909104916001600160a01b039091169063e3d670d7906200066390339060040162002160565b60206040518083038186803b1580156200067c57600080fd5b505afa15801562000691573d6000803e3d6000fd5b505050506040513d601f19601f82011682018060405250810190620006b7919062002066565b1015620006d85760405162461bcd60e51b815260040162000220906200225b565b6005546040516371d27c9360e11b815233916001600160a01b03169063e3a4f926906200070a90869060040162002246565b60206040518083038186803b1580156200072357600080fd5b505afa15801562000738573d6000803e3d6000fd5b505050506040513d601f19601f820116820180604052508101906200075e919062001ebd565b6001600160a01b0316638da5cb5b6040518163ffffffff1660e01b815260040160206040518083038186803b1580156200079757600080fd5b505afa158015620007ac573d6000803e3d6000fd5b505050506040513d601f19601f82011682018060405250810190620007d2919062001ebd565b6001600160a01b031614620007fb5760405162461bcd60e51b815260040162000220906200243b565b604051630d50ec8f60e21b81526001600160a01b03821690633543b23c906200082b903390869060040162002174565b600060405180830381600087803b1580156200084657600080fd5b505af11580156200085b573d6000803e3d6000fd5b50506005546040516371d27c9360e11b81526001600160a01b03909116925063e3a4f92691506200089190859060040162002246565b60206040518083038186803b158015620008aa57600080fd5b505afa158015620008bf573d6000803e3d6000fd5b505050506040513d601f19601f82011682018060405250810190620008e5919062001ebd565b6001600160a01b031663176e8285846040518263ffffffff1660e01b815260040162000912919062002160565b600060405180830381600087803b1580156200092d57600080fd5b505af115801562000942573d6000803e3d6000fd5b50505050600660009054906101000a90046001600160a01b03166001600160a01b031663ccb570e36002836001600160a01b031663228cb7336040518163ffffffff1660e01b815260040160206040518083038186803b158015620009a657600080fd5b505afa158015620009bb573d6000803e3d6000fd5b505050506040513d601f19601f82011682018060405250810190620009e1919062002066565b81620009e957fe5b0433306040518463ffffffff1660e01b815260040162000a0c93929190620024f3565b600060405180830381600087803b15801562000a2757600080fd5b505af115801562000a3c573d6000803e3d6000fd5b5050505062000a4b8362001d01565b505050565b62000a5b8162001cae565b62000a7a5760405162461bcd60e51b8152600401620002209062002472565b600062000a878262001ce3565b9050336001600160a01b0316816001600160a01b03166302d05d3f6040518163ffffffff1660e01b815260040160206040518083038186803b15801562000acd57600080fd5b505afa15801562000ae2573d6000803e3d6000fd5b505050506040513d601f19601f8201168201806040525081019062000b08919062001ebd565b6001600160a01b03161462000b315760405162461bcd60e51b81526004016200022090620022cd565b806001600160a01b031663cf3090126040518163ffffffff1660e01b815260040160206040518083038186803b15801562000b6b57600080fd5b505afa15801562000b80573d6000803e3d6000fd5b505050506040513d601f19601f8201168201806040525081019062000ba6919062001fac565b158062000c265750806001600160a01b031663b1cb0db36040518163ffffffff1660e01b815260040160206040518083038186803b15801562000be857600080fd5b505afa15801562000bfd573d6000803e3d6000fd5b505050506040513d601f19601f8201168201806040525081019062000c23919062002066565b43115b1562000f6d57600660009054906101000a90046001600160a01b03166001600160a01b031663ccb570e3826001600160a01b031663228cb7336040518163ffffffff1660e01b815260040160206040518083038186803b15801562000c8a57600080fd5b505afa15801562000c9f573d6000803e3d6000fd5b505050506040513d601f19601f8201168201806040525081019062000cc5919062002066565b30336040518463ffffffff1660e01b815260040162000ce793929190620024f3565b600060405180830381600087803b15801562000d0257600080fd5b505af115801562000d17573d6000803e3d6000fd5b50505050806001600160a01b031663cf3090126040518163ffffffff1660e01b815260040160206040518083038186803b15801562000d5557600080fd5b505afa15801562000d6a573d6000803e3d6000fd5b505050506040513d601f19601f8201168201806040525081019062000d90919062001fac565b62000da65762000da08262001d01565b62000f17565b600560009054906101000a90046001600160a01b03166001600160a01b031663e3a4f926826001600160a01b031663c6326dd06040518163ffffffff1660e01b815260040160006040518083038186803b15801562000e0457600080fd5b505afa15801562000e19573d6000803e3d6000fd5b505050506040513d6000823e601f3d908101601f1916820160405262000e43919081019062001fce565b6040518263ffffffff1660e01b815260040162000e61919062002246565b60206040518083038186803b15801562000e7a57600080fd5b505afa15801562000e8f573d6000803e3d6000fd5b505050506040513d601f19601f8201168201806040525081019062000eb5919062001ebd565b6001600160a01b0316637003bd12836040518263ffffffff1660e01b815260040162000ee2919062002160565b600060405180830381600087803b15801562000efd57600080fd5b505af115801562000f12573d6000803e3d6000fd5b505050505b806001600160a01b03166383197ef06040518163ffffffff1660e01b8152600401600060405180830381600087803b15801562000f5357600080fd5b505af115801562000f68573d6000803e3d6000fd5b505050505b5050565b6002818154811062000f7f57fe5b6000918252602090912001546001600160a01b0316905081565b62000fa362001d74565b6001600160a01b0382166000908152600160208181526040928390208351815460029481161561010002600019011693909304601f810183900490920283016060908101855293830182815292939092849290918491908401828280156200104f5780601f1062001023576101008083540402835291602001916200104f565b820191906000526020600020905b8154815290600101906020018083116200103157829003601f168201915b50505050508152602001600182018054600181600116156101000203166002900480601f016020809104026020016040519081016040528092919081815260200182805460018160011615610100020316600290048015620010f55780601f10620010c957610100808354040283529160200191620010f5565b820191906000526020600020905b815481529060010190602001808311620010d757829003601f168201915b50505050508152505090505b919050565b620011118362001cae565b620011305760405162461bcd60e51b8152600401620002209062002472565b60006200113d8462001ce3565b9050336001600160a01b0316816001600160a01b03166381bbfb616040518163ffffffff1660e01b815260040160206040518083038186803b1580156200118357600080fd5b505afa15801562001198573d6000803e3d6000fd5b505050506040513d601f19601f82011682018060405250810190620011be919062001ebd565b6001600160a01b031614620011e75760405162461bcd60e51b8152600401620002209062002304565b60408051808201825284815260208082018590526001600160a01b03871660009081526001825292909220815180519293919262001229928492019062001d8e565b50602082810151805162001244926001850192019062001d8e565b50905050600460019054906101000a90046001600160a01b03166001600160a01b031663f109a0be826001600160a01b03166302d05d3f6040518163ffffffff1660e01b815260040160206040518083038186803b158015620012a657600080fd5b505afa158015620012bb573d6000803e3d6000fd5b505050506040513d601f19601f82011682018060405250810190620012e1919062001ebd565b6040518263ffffffff1660e01b8152600401620012ff919062002160565b60206040518083038186803b1580156200131857600080fd5b505afa1580156200132d573d6000803e3d6000fd5b505050506040513d601f19601f8201168201806040525081019062001353919062001ebd565b6001600160a01b031663cbee4be1856040518263ffffffff1660e01b815260040162001380919062002160565b600060405180830381600087803b1580156200139b57600080fd5b505af1158015620013b0573d6000803e3d6000fd5b50505050600460019054906101000a90046001600160a01b03166001600160a01b031663f109a0be826001600160a01b03166302d05d3f6040518163ffffffff1660e01b815260040160206040518083038186803b1580156200141257600080fd5b505afa15801562001427573d6000803e3d6000fd5b505050506040513d601f19601f820116820180604052508101906200144d919062001ebd565b6040518263ffffffff1660e01b81526004016200146b919062002160565b60206040518083038186803b1580156200148457600080fd5b505afa15801562001499573d6000803e3d6000fd5b505050506040513d601f19601f82011682018060405250810190620014bf919062001ebd565b6001600160a01b0316630184e95260016040518263ffffffff1660e01b8152600401620014ed91906200223d565b600060405180830381600087803b1580156200150857600080fd5b505af11580156200151d573d6000803e3d6000fd5b505060048054604051637884d05f60e11b81526101009091046001600160a01b0316935063f109a0be9250620015569133910162002160565b60206040518083038186803b1580156200156f57600080fd5b505afa15801562001584573d6000803e3d6000fd5b505050506040513d601f19601f82011682018060405250810190620015aa919062001ebd565b6001600160a01b0316630184e95260026040518263ffffffff1660e01b8152600401620015d891906200223d565b600060405180830381600087803b158015620015f357600080fd5b505af115801562001608573d6000803e3d6000fd5b50505050600660009054906101000a90046001600160a01b03166001600160a01b031663ccb570e3826001600160a01b031663228cb7336040518163ffffffff1660e01b815260040160206040518083038186803b1580156200166a57600080fd5b505afa1580156200167f573d6000803e3d6000fd5b505050506040513d601f19601f82011682018060405250810190620016a5919062002066565b30336040518463ffffffff1660e01b8152600401620016c793929190620024f3565b600060405180830381600087803b158015620016e257600080fd5b505af1158015620016f7573d6000803e3d6000fd5b50505050600560009054906101000a90046001600160a01b03166001600160a01b031663e3a4f926826001600160a01b031663c6326dd06040518163ffffffff1660e01b815260040160006040518083038186803b1580156200175957600080fd5b505afa1580156200176e573d6000803e3d6000fd5b505050506040513d6000823e601f3d908101601f1916820160405262001798919081019062001fce565b6040518263ffffffff1660e01b8152600401620017b6919062002246565b60206040518083038186803b158015620017cf57600080fd5b505afa158015620017e4573d6000803e3d6000fd5b505050506040513d601f19601f820116820180604052508101906200180a919062001ebd565b6001600160a01b0316637003bd12856040518263ffffffff1660e01b815260040162001837919062002160565b600060405180830381600087803b1580156200185257600080fd5b505af115801562001867573d6000803e3d6000fd5b50505050806001600160a01b03166383197ef06040518163ffffffff1660e01b8152600401600060405180830381600087803b158015620018a757600080fd5b505af1158015620018bc573d6000803e3d6000fd5b5050505050505050565b60045460ff16620018eb5760405162461bcd60e51b81526004016200022090620023f8565b60048054604051637b51e92760e11b81526101009091046001600160a01b03169163f6a3d24e91620019209133910162002160565b60206040518083038186803b1580156200193957600080fd5b505afa1580156200194e573d6000803e3d6000fd5b505050506040513d601f19601f8201168201806040525081019062001974919062001fac565b620019935760405162461bcd60e51b81526004016200022090620023c1565b60035460065460405163e3d670d760e01b8152918501916001600160a01b039091169063e3d670d790620019cc90339060040162002160565b60206040518083038186803b158015620019e557600080fd5b505afa158015620019fa573d6000803e3d6000fd5b505050506040513d601f19601f8201168201806040525081019062001a20919062002066565b101562001a415760405162461bcd60e51b815260040162000220906200225b565b6000338585858560405162001a569062001e13565b62001a66959493929190620021a2565b604051809103906000f08015801562001a83573d6000803e3d6000fd5b506001600160a01b0380821660008181526020819052604080822080546001600160a01b031990811685179091556002805460018101825593527f405787fa12a823e0f2b7631cc41b3ba8828b3321ca811111fa75cd3aa3bb5ace909201805490921690921790556006546003549151636f3d98c760e01b815293945090911691636f3d98c79162001b1a913390600401620024dc565b600060405180830381600087803b15801562001b3557600080fd5b505af115801562001b4a573d6000803e3d6000fd5b505060065460405163ccb570e360e01b81526001600160a01b03909116925063ccb570e3915062001b8490879033903090600401620024f3565b600060405180830381600087803b15801562001b9f57600080fd5b505af115801562001bb4573d6000803e3d6000fd5b505050505050505050565b6060600280548060200260200160405190810160405280929190818152602001828054801562001c1957602002820191906000526020600020905b81546001600160a01b0316815260019091019060200180831162001bfa575b505050505090505b90565b60045460ff161562001c4a5760405162461bcd60e51b8152600401620002209062002288565b60039390935560048054600580546001600160a01b03199081166001600160a01b03958616179091556006805490911695841695909517909455610100600160a81b031990931661010092909116919091021760ff19166001179055565b60035481565b6001600160a01b038082166000908152602081905260408120549091161562001cda5750600162001101565b50600062001101565b6001600160a01b039081166000908152602081905260409020541690565b60005b60025481101562000f6d57816001600160a01b03166002828154811062001d2757fe5b6000918252602090912001546001600160a01b0316141562001d6b576002818154811062001d5157fe5b600091825260209091200180546001600160a01b03191690555b60010162001d04565b604051806040016040528060608152602001606081525090565b828054600181600116156101000203166002900490600052602060002090601f016020900481019282601f1062001dd157805160ff191683800117855562001e01565b8280016001018555821562001e01579182015b8281111562001e0157825182559160200191906001019062001de4565b5062001e0f92915062001e21565b5090565b61074780620025ac83390190565b62001c2191905b8082111562001e0f576000815560010162001e28565b600082601f83011262001e4f578081fd5b813562001e6662001e60826200253a565b62002512565b915080825283602082850101111562001e7e57600080fd5b8060208401602084013760009082016020015292915050565b60006020828403121562001ea9578081fd5b813562001eb68162002592565b9392505050565b60006020828403121562001ecf578081fd5b815162001eb68162002592565b6000806040838503121562001eef578081fd5b823562001efc8162002592565b9150602083013567ffffffffffffffff81111562001f18578182fd5b62001f268582860162001e3e565b9150509250929050565b60008060006060848603121562001f45578081fd5b833562001f528162002592565b9250602084013567ffffffffffffffff8082111562001f6f578283fd5b62001f7d8783880162001e3e565b9350604086013591508082111562001f93578283fd5b5062001fa28682870162001e3e565b9150509250925092565b60006020828403121562001fbe578081fd5b8151801515811462001eb6578182fd5b60006020828403121562001fe0578081fd5b815167ffffffffffffffff81111562001ff7578182fd5b80830184601f82011262002009578283fd5b805191506200201c62001e60836200253a565b82815285602084840101111562002031578384fd5b620020448360208301602085016200255f565b95945050505050565b6000602082840312156200205f578081fd5b5035919050565b60006020828403121562002078578081fd5b5051919050565b6000806000806080858703121562002095578081fd5b843593506020850135620020a98162002592565b92506040850135620020bb8162002592565b91506060850135620020cd8162002592565b939692955090935050565b60008060008060808587031215620020ee578384fd5b8435935060208501359250604085013567ffffffffffffffff81111562002113578283fd5b620021218782880162001e3e565b949793965093946060013593505050565b600081518084526200214c8160208601602086016200255f565b601f01601f19169290920160200192915050565b6001600160a01b0391909116815260200190565b6001600160a01b03831681526040602082018190526000906200219a9083018462002132565b949350505050565b600060018060a01b038716825285602083015284604083015260a06060830152620021d160a083018562002132565b90508260808301529695505050505050565b6020808252825182820181905260009190848201906040850190845b81811015620022265783516001600160a01b031683529284019291840191600101620021ff565b50909695505050505050565b901515815260200190565b90815260200190565b60006020825262001eb6602083018462002132565b602080825260139082015272696e73756666696369656e7420746f6b656e7360681b604082015260600190565b60208082526025908201527f636f6e74726163742068617320616c7265616479206265656e20696e697469616040820152641b1a5e995960da1b606082015260800190565b60208082526017908201527f796f7520617265206e6f74207468652063726561746f72000000000000000000604082015260600190565b60208082526019908201527f796f7520617265206e6f74207468652064656c69766572657200000000000000604082015260600190565b6020808252601590820152743737ba1032b737bab3b4103932b83aba30ba34b7b760591b604082015260600190565b60208082526015908201527419195d9a58d948191bd95cc81b9bdd08195e1a5cdd605a1b604082015260600190565b6020808252600e908201526d1d185cdac81a5cc81b1bd8dad95960921b604082015260600190565b60208082526019908201527f796f75206e65656420746f206265207265676973746572656400000000000000604082015260600190565b60208082526023908201527f636f6e7472616374732068617665206e6f74206265656e20696e697469616c696040820152621e995960ea1b606082015260800190565b6020808252601c908201527f796f7520617265206e6f742074686520646576696365206f776e657200000000604082015260600190565b6020808252601390820152721d185cdac8191bd95cc81b9bdd08195e1a5cdd606a1b604082015260600190565b600060208252825160406020840152620024bd606084018262002132565b6020850151848203601f19016040860152915062002044818362002132565b9182526001600160a01b0316602082015260400190565b9283526001600160a01b03918216602084015216604082015260600190565b60405181810167ffffffffffffffff811182821017156200253257600080fd5b604052919050565b600067ffffffffffffffff82111562002551578081fd5b50601f01601f191660200190565b60005b838110156200257c57818101518382015260200162002562565b838111156200258c576000848401525b50505050565b6001600160a01b0381168114620025a857600080fd5b5056fe60806040526003805460ff1916905534801561001a57600080fd5b50604051610747380380610747833981810160405260a081101561003d57600080fd5b81516020830151604080850151606086018051925194969395919493918201928464010000000082111561007057600080fd5b90830190602082018581111561008557600080fd5b825164010000000081118282018810171561009f57600080fd5b82525081516020918201929091019080838360005b838110156100cc5781810151838201526020016100b4565b50505050905090810190601f1680156100f95780820380516001836020036101000a031916815260200191505b50604052602090810151600080546001600160a01b0319166001600160a01b038a1617905560048790556005869055845190935061013d925060069185019061015f565b5043016007555050600880546001600160a01b03191633179055506101fa9050565b828054600181600116156101000203166002900490600052602060002090601f016020900481019282601f106101a057805160ff19168380011785556101cd565b828001600101855582156101cd579182015b828111156101cd5782518255916020019190600101906101b2565b506101d99291506101dd565b5090565b6101f791905b808211156101d957600081556001016101e3565b90565b61053e806102096000396000f3fe608060405234801561001057600080fd5b506004361061009e5760003560e01c806383197ef01161006657806383197ef01461021e578063b1cb0db314610226578063c52164c61461022e578063c6326dd014610236578063cf3090121461023e5761009e565b806302d05d3f146100a3578063228cb733146100c75780633543b23c146100e15780633f1444b51461019957806381bbfb6114610216575b600080fd5b6100ab61025a565b604080516001600160a01b039092168252519081900360200190f35b6100cf610269565b60408051918252519081900360200190f35b610197600480360360408110156100f757600080fd5b6001600160a01b03823516919081019060408101602082013564010000000081111561012257600080fd5b82018360208201111561013457600080fd5b8035906020019184600183028401116401000000008311171561015657600080fd5b91908080601f01602080910402602001604051908101604052809392919081815260200183838082843760009201919091525092955061026f945050505050565b005b6101a161030d565b6040805160208082528351818301528351919283929083019185019080838360005b838110156101db5781810151838201526020016101c3565b50505050905090810190601f1680156102085780820380516001836020036101000a031916815260200191505b509250505060405180910390f35b6100ab61039b565b6101976103aa565b6100cf610400565b6100cf610406565b6101a161040c565b610246610464565b604080519115158252519081900360200190f35b6000546001600160a01b031681565b60055481565b6008546001600160a01b031633146102c2576040805162461bcd60e51b81526020600482015260116024820152701c195c9b5a5cdcda5bdb8819195b9a5959607a1b604482015290519081900360640190fd5b600180546001600160a01b0319166001600160a01b03841617905580516102f090600290602084019061046d565b50506003805460ff19166001179055506005805460028104019055565b6006805460408051602060026001851615610100026000190190941693909304601f810184900484028201840190925281815292918301828280156103935780601f1061036857610100808354040283529160200191610393565b820191906000526020600020905b81548152906001019060200180831161037657829003601f168201915b505050505081565b6001546001600160a01b031681565b6008546001600160a01b031633146103fd576040805162461bcd60e51b81526020600482015260116024820152701c195c9b5a5cdcda5bdb8819195b9a5959607a1b604482015290519081900360640190fd5b30ff5b60075481565b60045481565b6002805460408051602060018416156101000260001901909316849004601f810184900484028201840190925281815292918301828280156103935780601f1061036857610100808354040283529160200191610393565b60035460ff1681565b828054600181600116156101000203166002900490600052602060002090601f016020900481019282601f106104ae57805160ff19168380011785556104db565b828001600101855582156104db579182015b828111156104db5782518255916020019190600101906104c0565b506104e79291506104eb565b5090565b61050591905b808211156104e757600081556001016104f1565b9056fea2646970667358221220ca7d8323025af5fac04c0bad2a88bee9964c11c2fe39464e57c17a70912a303e64736f6c63430006080033a264697066735822122089133cae9e52b6b1386eb06444fedc41ae91d6b835e168f700943fd54bf0d9f064736f6c63430006080033",
  "immutableReferences": {},
  "source": "pragma solidity ^0.6.8;\npragma experimental ABIEncoderV2;\n// SPDX-License-Identifier: MIT\n\n// IMPORT INTERFACE\nimport { Task } from './Task.sol';\nimport { UserManager } from '../user/Manager.sol';\nimport { DeviceManager } from '../device/Manager.sol';\nimport { TokenManager } from '../Token.sol';\n\ncontract TaskManager {\n\n    // MAP OF ALL TASKS, [ADDRESS => INTERFACE]\n    mapping (address => Task) tasks;\n\n    // MAP OF ALL TASK RESULTS, [ADDRESS => STRUCT]\n    mapping (address => result) results;\n\n    // ITERABLE LIST OF OPEN TASKS\n    Task[] public open;\n\n    // TASK RESULT PARAMS\n    struct result {\n        string key;         // PUBLIC ENCRYPTION KEY\n        string ipfs;        // IPFS QN-HASH\n    }\n\n    // TOKEN FEE FOR TASK CREATION\n    uint public fee;\n\n    // INIT STATUS & MANAGER REFERENCES\n    bool initialized = false;\n    UserManager user_manager;\n    DeviceManager device_manager;\n    TokenManager token_manager;\n\n    // FETCH TASK BY ADDRESS\n    function fetch_task(address task) public view returns(Task) {\n        return tasks[task];\n    }\n\n    // FETCH TASK BY ADDRESS\n    function fetch_result(address task) public view returns(result memory) {\n        return results[task];\n    }\n\n    // FETCH OPEN TASKS\n    function fetch_open() public view returns(Task[] memory) {\n        return open;\n    }\n\n    // ADD NEW TASK\n    function add(\n        uint reputation,\n        uint reward,\n        string memory encryption_key,\n        uint timelimit\n    ) public {\n\n        // IF CONTRACT HAS BEEN INITIALIZED\n        // SENDER IS A REGISTERED USER\n        // USER HAS ENOUGH TOKENS\n        require(initialized, 'contracts have not been initialized');\n        require(user_manager.exists(msg.sender), 'you need to be registered');\n        require(token_manager.balance(msg.sender) >= reward + fee, 'insufficient tokens');\n\n        // INSTANTIATE NEW TASK\n        Task task = new Task(\n            msg.sender,\n            reputation,\n            reward,\n            encryption_key,\n            timelimit\n        );\n\n        // ADD IT TO BOTH CONTAINERS\n        tasks[address(task)] = task;\n        open.push(task);\n\n        // CONSUME TOKEN FEE FROM THE CREATOR\n        token_manager.consume(fee, msg.sender);\n\n        // TRANSFER THE REWARD TOKENS TO THE TASK MANAGER\n        token_manager.transfer(reward, msg.sender, address(this));\n    }\n\n    // ACCEPT TASK\n    function accept(\n        address _task,\n        string memory _device\n    ) public {\n\n        // IF THE TASK EXISTS\n        // IF THE DEVICE EXISTS\n        require(exists(_task), 'task does not exist');\n        require(device_manager.exists(_device), 'device does not exist');\n\n        // TASK & DEVICE SHORTHANDS\n        Task task = fetch_task(_task);\n\n        // IF THE TASK IS NOT LOCKED\n        // IF THE USER IS REGISTERED\n        // IF THE USER HAS ENOUGH REPUTATION\n        // IF THE SENDER HAS ENOUGH TOKENS\n        // IF THE SENDER IS THE DEVICE OWNER\n        require(!task.locked(), 'task is locked');\n        require(user_manager.exists(msg.sender), 'you need to be registered');\n        require(user_manager.fetch(msg.sender).reputation() >= task.reputation(), 'not enough reputation');\n        require(token_manager.balance(msg.sender) >= task.reward() / 2, 'insufficient tokens');\n        require(device_manager.fetch_device(_device).owner() == msg.sender, 'you are not the device owner');\n\n        // ASSIGN TASK TO THE DELIVERER & DEVICE\n        task.assign(msg.sender, _device);\n        device_manager.fetch_device(_device).assign_task(_task);\n\n        // TRANSFER TOKENS TO TASK MANAGER & UNLIST TASK FROM OPEN\n        token_manager.transfer(task.reward() / 2, msg.sender, address(this));\n        unlist(_task);\n    }\n\n    // COMPLETE TASK BY SUBMITTING RESULT\n    function complete(\n        address _task,\n        string memory _key,\n        string memory _ipfs\n    ) public {\n\n        // IF THE TASK EXISTS\n        require(exists(_task), 'task does not exist');\n\n        // SHORTHAND FOR TASK\n        Task task = fetch_task(_task);\n\n        // IF THE SENDER IS THE DELIVERER\n        require(task.deliverer() == msg.sender, 'you are not the deliverer');\n\n        // CONSTRUCT & PUSH NEW RESULT\n        results[_task] = result({\n            key: _key,\n            ipfs: _ipfs\n        });\n\n        // ADD REFERENCE TO THE TASK CREATOR\n        user_manager.fetch(task.creator()).add_result(_task);\n\n        // REWARD BOTH PARTIES WITH REPUTATION\n        user_manager.fetch(task.creator()).award(1);\n        user_manager.fetch(msg.sender).award(2);\n\n        // TRANSFER REWARD TOKENS FROM THE TASK MANAGER TO THE DELIVERER\n        token_manager.transfer(\n            task.reward(),\n            address(this),\n            msg.sender\n        );\n\n        // CLEAR TASK FROM DEVICE BACKLOG\n        device_manager.fetch_device(task.device()).clear_task(_task);\n\n        // FINALLY DESTROY THE TASK\n        task.destroy();\n    }\n\n    // RELEASE THE TASK\n    function release(address _task) public {\n\n        // IF THE TASK EXISTS\n        require(exists(_task), 'task does not exist');\n\n        // SHORTHAND\n        Task task = fetch_task(_task);\n\n        // IF THE SENDER IS THE CREATOR\n        require(task.creator() == msg.sender, 'you are not the creator');\n\n        // IF THE TASK IS NOT LOCKED OR THE TIME LIMIT HAS BEEN EXCEEDED\n        if (!task.locked() || block.number > task.expires()) {\n\n            // TRANSFER TOKENS FROM TASK MANAGER TO CREATOR\n            token_manager.transfer(\n                task.reward(),\n                address(this),\n                msg.sender\n            );\n\n            // IF THE TASK IS LISTED, UNLIST IT\n            if (!task.locked()) {\n                unlist(_task);\n\n            // OTHERWISE, REMOVE TASK FROM DEVICE BACKLOG\n            } else {\n                device_manager.fetch_device(task.device()).clear_task(_task);\n            }\n\n            // DESTROY THE TASK\n            task.destroy();\n        }\n    }\n\n    // SET STATIC VARIABLES\n    function init(\n        uint _fee,\n        address _user_manager,\n        address _device_manager,\n        address _token_manager\n    ) public {\n\n        // IF THE CONTRACT HAS NOT BEEN INITIALIZED\n        require(!initialized, 'contract has already been initialized');\n\n        // SET TASK TOKEN FEE\n        fee = _fee;\n\n        // SET REFERENCES\n        user_manager = UserManager(_user_manager);\n        device_manager = DeviceManager(_device_manager);\n        token_manager = TokenManager(_token_manager);\n\n        // BLOCK FURTHER MODIFICATION\n        initialized = true;\n    }\n\n    // CHECK IF TASK EXISTS\n    function exists(address _task) public view returns(bool) {\n        if (address(tasks[_task]) != 0x0000000000000000000000000000000000000000) {\n            return true;\n        } else {\n            return false;\n        }\n    }\n\n    // UNLIST TASK FROM OPEN\n    function unlist(address target) private {\n        for(uint index = 0; index < open.length; index++) {\n            if (address(open[index]) == target) {\n                delete open[index];\n            }\n        }\n    }\n}",
  "sourcePath": "C:\\Users\\35840\\Desktop\\coding\\node\\eth-contracts\\contracts\\task\\Manager.sol",
  "compiler": {
    "name": "solc",
    "version": "0.6.8+commit.0bbfe453.Emscripten.clang"
  },
  "schemaVersion": "3.2.0",
  "updatedAt": "2020-06-23T22:05:22.505Z",
  "networkType": "ethereum",
  "devdoc": {
    "methods": {}
  },
  "userdoc": {
    "methods": {}
  }
}