{
  "contractName": "TaskManager",
  "abi": [
    {
      "constant": true,
      "inputs": [
        {
          "name": "",
          "type": "uint256"
        }
      ],
      "name": "open",
      "outputs": [
        {
          "name": "",
          "type": "address"
        }
      ],
      "payable": false,
      "stateMutability": "view",
      "type": "function"
    },
    {
      "constant": true,
      "inputs": [],
      "name": "fetch_open",
      "outputs": [
        {
          "name": "",
          "type": "address[]"
        }
      ],
      "payable": false,
      "stateMutability": "view",
      "type": "function"
    },
    {
      "constant": true,
      "inputs": [
        {
          "name": "task",
          "type": "address"
        }
      ],
      "name": "fetch_task",
      "outputs": [
        {
          "name": "",
          "type": "address"
        }
      ],
      "payable": false,
      "stateMutability": "view",
      "type": "function"
    },
    {
      "constant": false,
      "inputs": [
        {
          "name": "reputation",
          "type": "uint256"
        },
        {
          "name": "reward",
          "type": "uint256"
        }
      ],
      "name": "add_task",
      "outputs": [],
      "payable": false,
      "stateMutability": "nonpayable",
      "type": "function"
    },
    {
      "constant": false,
      "inputs": [
        {
          "name": "_task",
          "type": "address"
        },
        {
          "name": "_device",
          "type": "string"
        }
      ],
      "name": "accept_task",
      "outputs": [],
      "payable": true,
      "stateMutability": "payable",
      "type": "function"
    },
    {
      "constant": false,
      "inputs": [
        {
          "name": "_task",
          "type": "address"
        },
        {
          "name": "_data",
          "type": "string"
        }
      ],
      "name": "submit_result",
      "outputs": [],
      "payable": false,
      "stateMutability": "nonpayable",
      "type": "function"
    },
    {
      "constant": false,
      "inputs": [
        {
          "name": "_task",
          "type": "address"
        }
      ],
      "name": "release_task",
      "outputs": [],
      "payable": false,
      "stateMutability": "nonpayable",
      "type": "function"
    },
    {
      "constant": false,
      "inputs": [
        {
          "name": "_user_manager",
          "type": "address"
        },
        {
          "name": "_device_manager",
          "type": "address"
        },
        {
          "name": "_token_manager",
          "type": "address"
        }
      ],
      "name": "init",
      "outputs": [],
      "payable": false,
      "stateMutability": "nonpayable",
      "type": "function"
    },
    {
      "constant": true,
      "inputs": [
        {
          "name": "_task",
          "type": "address"
        }
      ],
      "name": "exists",
      "outputs": [
        {
          "name": "",
          "type": "bool"
        }
      ],
      "payable": false,
      "stateMutability": "view",
      "type": "function"
    }
  ],
  "bytecode": "0x608060405261138860025560058054600160a01b60ff021916905534801561002657600080fd5b50612213806100366000396000f3fe6080604052600436106100865760003560e01c8063690e7c0911610059578063690e7c091461027e5780639bd9bb36146102c4578063d91cf5de146102f4578063f6a3d24e14610359578063f772282c146103a057610086565b8063184b95591461008b57806322fb319c146100d257806342a3baea1461018857806362ead34b1461024b575b600080fd5b34801561009757600080fd5b506100d0600480360360608110156100ae57600080fd5b506001600160a01b0381358116916020810135821691604090910135166103d3565b005b6100d0600480360360408110156100e857600080fd5b6001600160a01b03823516919081019060408101602082013564010000000081111561011357600080fd5b82018360208201111561012557600080fd5b8035906020019184600183028401116401000000008311171561014757600080fd5b91908080601f01602080910402602001604051908101604052809392919081815260200183838082843760009201919091525092955061047b945050505050565b34801561019457600080fd5b506100d0600480360360408110156101ab57600080fd5b6001600160a01b0382351691908101906040810160208201356401000000008111156101d657600080fd5b8201836020820111156101e857600080fd5b8035906020019184600183028401116401000000008311171561020a57600080fd5b91908080601f016020809104026020016040519081016040528093929190818152602001838380828437600092019190915250929550610f2b945050505050565b34801561025757600080fd5b506100d06004803603602081101561026e57600080fd5b50356001600160a01b03166113be565b34801561028a57600080fd5b506102a8600480360360208110156102a157600080fd5b503561177b565b604080516001600160a01b039092168252519081900360200190f35b3480156102d057600080fd5b506100d0600480360360408110156102e757600080fd5b50803590602001356117a2565b34801561030057600080fd5b50610309611b01565b60408051602080825283518183015283519192839290830191858101910280838360005b8381101561034557818101518382015260200161032d565b505050509050019250505060405180910390f35b34801561036557600080fd5b5061038c6004803603602081101561037c57600080fd5b50356001600160a01b0316611b63565b604080519115158252519081900360200190f35b3480156103ac57600080fd5b506102a8600480360360208110156103c357600080fd5b50356001600160a01b0316611b96565b600554600160a01b900460ff161561041f57604051600160e51b62461bcd0281526004018080602001828103825260258152602001806121a06025913960400191505060405180910390fd5b600380546001600160a01b03199081166001600160a01b03958616179091556004805482169385169390931790925560058054600160a01b9316919093161774ff00000000000000000000000000000000000000001916179055565b61048482611b63565b6104d15760408051600160e51b62461bcd02815260206004820152601360248201526001606a1b721d185cdac8191bd95cc81b9bdd08195e1a5cdd02604482015290519081900360640190fd5b60048054604051600160e11b63130d191f02815260209281018381528451602483015284516001600160a01b039093169363261a323e93869383926044909101919085019080838360005b8381101561053457818101518382015260200161051c565b50505050905090810190601f1680156105615780820380516001836020036101000a031916815260200191505b509250505060206040518083038186803b15801561057e57600080fd5b505afa158015610592573d6000803e3d6000fd5b505050506040513d60208110156105a857600080fd5b50516105fe5760408051600160e51b62461bcd02815260206004820152601560248201527f64657669636520646f6573206e6f742065786973740000000000000000000000604482015290519081900360640190fd5b600061060983611b96565b9050806001600160a01b031663cf3090126040518163ffffffff1660e01b815260040160206040518083038186803b15801561064457600080fd5b505afa158015610658573d6000803e3d6000fd5b505050506040513d602081101561066e57600080fd5b5051156106c55760408051600160e51b62461bcd02815260206004820152600e60248201527f7461736b206973206c6f636b6564000000000000000000000000000000000000604482015290519081900360640190fd5b60035460408051600160e11b637b51e92702815233600482015290516001600160a01b039092169163f6a3d24e91602480820192602092909190829003018186803b15801561071357600080fd5b505afa158015610727573d6000803e3d6000fd5b505050506040513d602081101561073d57600080fd5b50516107935760408051600160e51b62461bcd02815260206004820152601d60248201527f796f7520617265206e6f74206120726567697374657265642075736572000000604482015290519081900360640190fd5b806001600160a01b0316632a960fa76040518163ffffffff1660e01b815260040160206040518083038186803b1580156107cc57600080fd5b505afa1580156107e0573d6000803e3d6000fd5b505050506040513d60208110156107f657600080fd5b505160035460408051600160e01b631f0df17f02815233600482015290516001600160a01b0390921691631f0df17f91602480820192602092909190829003018186803b15801561084657600080fd5b505afa15801561085a573d6000803e3d6000fd5b505050506040513d602081101561087057600080fd5b505160408051600160e11b636290b26302815290516001600160a01b039092169163c52164c691600480820192602092909190829003018186803b1580156108b757600080fd5b505afa1580156108cb573d6000803e3d6000fd5b505050506040513d60208110156108e157600080fd5b505110156109395760408051600160e51b62461bcd02815260206004820152601560248201527f6e6f7420656e6f7567682072657075746174696f6e0000000000000000000000604482015290519081900360640190fd5b6002816001600160a01b031663228cb7336040518163ffffffff1660e01b815260040160206040518083038186803b15801561097457600080fd5b505afa158015610988573d6000803e3d6000fd5b505050506040513d602081101561099e57600080fd5b5051816109a757fe5b60055460408051600160e01b63e3d670d7028152336004820152905193909204926001600160a01b039091169163e3d670d7916024808301926020929190829003018186803b1580156109f957600080fd5b505afa158015610a0d573d6000803e3d6000fd5b505050506040513d6020811015610a2357600080fd5b50511015610a7b5760408051600160e51b62461bcd02815260206004820152601860248201527f696e73756666696369656e742066756e647320676976656e0000000000000000604482015290519081900360640190fd5b60048054604051600160e11b6371d27c93028152602092810183815285516024830152855133946001600160a01b039094169363e3a4f92693889392839260449092019185019080838360005b83811015610ae0578181015183820152602001610ac8565b50505050905090810190601f168015610b0d5780820380516001836020036101000a031916815260200191505b509250505060206040518083038186803b158015610b2a57600080fd5b505afa158015610b3e573d6000803e3d6000fd5b505050506040513d6020811015610b5457600080fd5b505160408051600160e01b638da5cb5b02815290516001600160a01b0390921691638da5cb5b91600480820192602092909190829003018186803b158015610b9b57600080fd5b505afa158015610baf573d6000803e3d6000fd5b505050506040513d6020811015610bc557600080fd5b50516001600160a01b031614610c255760408051600160e51b62461bcd02815260206004820152601c60248201527f796f7520617265206e6f742074686520646576696365206f776e657200000000604482015290519081900360640190fd5b60408051600160e61b626201c90281523360048201818152602483019384528551604484015285516001600160a01b03861694631880724094889392606490910190602085019080838360005b83811015610c8a578181015183820152602001610c72565b50505050905090810190601f168015610cb75780820380516001836020036101000a031916815260200191505b509350505050600060405180830381600087803b158015610cd757600080fd5b505af1158015610ceb573d6000803e3d6000fd5b505060048054604051600160e11b6371d27c9302815260209281018381528751602483015287516001600160a01b03909316955063e3a4f92694508793909283926044019185019080838360005b83811015610d51578181015183820152602001610d39565b50505050905090810190601f168015610d7e5780820380516001836020036101000a031916815260200191505b509250505060206040518083038186803b158015610d9b57600080fd5b505afa158015610daf573d6000803e3d6000fd5b505050506040513d6020811015610dc557600080fd5b505160408051600160e01b63176e82850281526001600160a01b0386811660048301529151919092169163176e828591602480830192600092919082900301818387803b158015610e1557600080fd5b505af1158015610e29573d6000803e3d6000fd5b50505050610e3683611bb4565b600560009054906101000a90046001600160a01b03166001600160a01b031663ccb570e36002836001600160a01b031663228cb7336040518163ffffffff1660e01b815260040160206040518083038186803b158015610e9557600080fd5b505afa158015610ea9573d6000803e3d6000fd5b505050506040513d6020811015610ebf57600080fd5b505181610ec857fe5b6040805163ffffffff851660e01b815292909104600483015233602483015230604483015251606480830192600092919082900301818387803b158015610f0e57600080fd5b505af1158015610f22573d6000803e3d6000fd5b50505050505050565b610f3482611b63565b610f815760408051600160e51b62461bcd02815260206004820152601360248201526001606a1b721d185cdac8191bd95cc81b9bdd08195e1a5cdd02604482015290519081900360640190fd5b6000610f8c83611b96565b9050336001600160a01b0316816001600160a01b03166381bbfb616040518163ffffffff1660e01b815260040160206040518083038186803b158015610fd157600080fd5b505afa158015610fe5573d6000803e3d6000fd5b505050506040513d6020811015610ffb57600080fd5b50516001600160a01b03161461105b5760408051600160e51b62461bcd02815260206004820152601960248201527f796f7520617265206e6f74207468652064656c69766572657200000000000000604482015290519081900360640190fd5b600360009054906101000a90046001600160a01b03166001600160a01b0316631f0df17f826001600160a01b03166302d05d3f6040518163ffffffff1660e01b815260040160206040518083038186803b1580156110b857600080fd5b505afa1580156110cc573d6000803e3d6000fd5b505050506040513d60208110156110e257600080fd5b50516040805163ffffffff841660e01b81526001600160a01b039092166004830152516024808301926020929190829003018186803b15801561112457600080fd5b505afa158015611138573d6000803e3d6000fd5b505050506040513d602081101561114e57600080fd5b505160408051600160e21b632a7edd8f0281526001600482015290516001600160a01b039092169163a9fb763c9160248082019260009290919082900301818387803b15801561119d57600080fd5b505af11580156111b1573d6000803e3d6000fd5b505060035460408051600160e01b631f0df17f02815233600482015290516001600160a01b039092169350631f0df17f9250602480820192602092909190829003018186803b15801561120357600080fd5b505afa158015611217573d6000803e3d6000fd5b505050506040513d602081101561122d57600080fd5b505160408051600160e21b632a7edd8f0281526002600482015290516001600160a01b039092169163a9fb763c9160248082019260009290919082900301818387803b15801561127c57600080fd5b505af1158015611290573d6000803e3d6000fd5b50505050600560009054906101000a90046001600160a01b03166001600160a01b031663ccb570e3826001600160a01b031663228cb7336040518163ffffffff1660e01b815260040160206040518083038186803b1580156112f157600080fd5b505afa158015611305573d6000803e3d6000fd5b505050506040513d602081101561131b57600080fd5b50516040805163ffffffff841660e01b8152600481019290925230602483015233604483015251606480830192600092919082900301818387803b15801561136257600080fd5b505af1158015611376573d6000803e3d6000fd5b5050505061138383611bb4565b806001600160a01b03166383197ef06040518163ffffffff1660e01b8152600401600060405180830381600087803b158015610f0e57600080fd5b6113c781611b63565b6114145760408051600160e51b62461bcd02815260206004820152601360248201526001606a1b721d185cdac8191bd95cc81b9bdd08195e1a5cdd02604482015290519081900360640190fd5b600061141f82611b96565b9050336001600160a01b0316816001600160a01b03166302d05d3f6040518163ffffffff1660e01b815260040160206040518083038186803b15801561146457600080fd5b505afa158015611478573d6000803e3d6000fd5b505050506040513d602081101561148e57600080fd5b50516001600160a01b0316146114ee5760408051600160e51b62461bcd02815260206004820152601760248201527f796f7520617265206e6f74207468652063726561746f72000000000000000000604482015290519081900360640190fd5b806001600160a01b031663cf3090126040518163ffffffff1660e01b815260040160206040518083038186803b15801561152757600080fd5b505afa15801561153b573d6000803e3d6000fd5b505050506040513d602081101561155157600080fd5b505115806115c65750600254816001600160a01b031663325a19f16040518163ffffffff1660e01b815260040160206040518083038186803b15801561159657600080fd5b505afa1580156115aa573d6000803e3d6000fd5b505050506040513d60208110156115c057600080fd5b50510142115b1561177757600560009054906101000a90046001600160a01b03166001600160a01b031663ccb570e3826001600160a01b031663228cb7336040518163ffffffff1660e01b815260040160206040518083038186803b15801561162857600080fd5b505afa15801561163c573d6000803e3d6000fd5b505050506040513d602081101561165257600080fd5b50516040805163ffffffff841660e01b8152600481019290925230602483015233604483015251606480830192600092919082900301818387803b15801561169957600080fd5b505af11580156116ad573d6000803e3d6000fd5b50505050806001600160a01b031663cf3090126040518163ffffffff1660e01b815260040160206040518083038186803b1580156116ea57600080fd5b505afa1580156116fe573d6000803e3d6000fd5b505050506040513d602081101561171457600080fd5b50516117235761172382611bb4565b806001600160a01b03166383197ef06040518163ffffffff1660e01b8152600401600060405180830381600087803b15801561175e57600080fd5b505af1158015611772573d6000803e3d6000fd5b505050505b5050565b6001818154811061178857fe5b6000918252602090912001546001600160a01b0316905081565b600554600160a01b900460ff166117ed57604051600160e51b62461bcd0281526004018080602001828103825260238152602001806121c56023913960400191505060405180910390fd5b60035460408051600160e11b637b51e92702815233600482015290516001600160a01b039092169163f6a3d24e91602480820192602092909190829003018186803b15801561183b57600080fd5b505afa15801561184f573d6000803e3d6000fd5b505050506040513d602081101561186557600080fd5b50516118bb5760408051600160e51b62461bcd02815260206004820152601d60248201527f796f7520617265206e6f74206120726567697374657265642075736572000000604482015290519081900360640190fd5b60055460408051600160e01b63e3d670d7028152336004820152905160018401926001600160a01b03169163e3d670d7916024808301926020929190829003018186803b15801561190b57600080fd5b505afa15801561191f573d6000803e3d6000fd5b505050506040513d602081101561193557600080fd5b5051101561198d5760408051600160e51b62461bcd02815260206004820152601360248201527f696e73756666696369656e7420746f6b656e7300000000000000000000000000604482015290519081900360640190fd5b600033838360405161199e90611c22565b6001600160a01b03909316835260208301919091526040808301919091525190819003606001906000f0801580156119da573d6000803e3d6000fd5b506001600160a01b0380821660008181526020819052604080822080546001600160a01b031990811685179091556001805480820182559084527fb10e2d527612073b26eecdfd717e6a320cf44b4afac2b0732d9fcbe2b7fa0cf60180549091169093179092556005548251600160e01b636f3d98c702815260048101889052336024820152925194955090921692636f3d98c79260448084019391929182900301818387803b158015611a8d57600080fd5b505af1158015611aa1573d6000803e3d6000fd5b505060055460408051600160e01b63ccb570e30281526004810187905233602482015230604482015290516001600160a01b03909216935063ccb570e3925060648082019260009290919082900301818387803b158015610f0e57600080fd5b60606001805480602002602001604051908101604052809291908181526020018280548015611b5957602002820191906000526020600020905b81546001600160a01b03168152600190910190602001808311611b3b575b5050505050905090565b6001600160a01b0380821660009081526020819052604081205490911615611b8d57506001611b91565b5060005b919050565b6001600160a01b039081166000908152602081905260409020541690565b60005b60015481101561177757816001600160a01b031660018281548110611bd857fe5b6000918252602090912001546001600160a01b03161415611c1a5760018181548110611c0057fe5b600091825260209091200180546001600160a01b03191690555b600101611bb7565b61057080611c308339019056fe60806040526003805460ff1916905534801561001a57600080fd5b506040516060806105708339810180604052606081101561003a57600080fd5b5080516020820151604090920151600080546001600160a01b039093166001600160a01b03199384161790556004929092556005919091554260065560078054909116331790556104e0806100906000396000f3fe608060405234801561001057600080fd5b50600436106100935760003560e01c8063325a19f111610066578063325a19f11461019657806381bbfb611461019e57806383197ef0146101a6578063c6326dd0146101ae578063cf3090121461022b57610093565b806302d05d3f1461009857806318807240146100bc578063228cb733146101745780632a960fa71461018e575b600080fd5b6100a0610247565b604080516001600160a01b039092168252519081900360200190f35b610172600480360360408110156100d257600080fd5b6001600160a01b0382351691908101906040810160208201356401000000008111156100fd57600080fd5b82018360208201111561010f57600080fd5b8035906020019184600183028401116401000000008311171561013157600080fd5b91908080601f016020809104026020016040519081016040528093929190818152602001838380828437600092019190915250929550610256945050505050565b005b61017c610308565b60408051918252519081900360200190f35b61017c61030e565b61017c610314565b6100a061031a565b610172610329565b6101b6610385565b6040805160208082528351818301528351919283929083019185019080838360005b838110156101f05781810151838201526020016101d8565b50505050905090810190601f16801561021d5780820380516001836020036101000a031916815260200191505b509250505060405180910390f35b610233610410565b604080519115158252519081900360200190f35b6000546001600160a01b031681565b6007546001600160a01b031633146102af5760408051600160e51b62461bcd02815260206004820152601160248201526001607a1b701c195c9b5a5cdcda5bdb8819195b9a595902604482015290519081900360640190fd5b600180546001600160a01b0319166001600160a01b0384161781556003805460ff1916909117905580516102ea906002906020840190610419565b506002600554816102f757fe5b600580549290910490910190555050565b60055481565b60045481565b60065481565b6001546001600160a01b031681565b6007546001600160a01b031633146103825760408051600160e51b62461bcd02815260206004820152601160248201526001607a1b701c195c9b5a5cdcda5bdb8819195b9a595902604482015290519081900360640190fd5b30ff5b6002805460408051602060018416156101000260001901909316849004601f810184900484028201840190925281815292918301828280156104085780601f106103dd57610100808354040283529160200191610408565b820191906000526020600020905b8154815290600101906020018083116103eb57829003601f168201915b505050505081565b60035460ff1681565b828054600181600116156101000203166002900490600052602060002090601f016020900481019282601f1061045a57805160ff1916838001178555610487565b82800160010185558215610487579182015b8281111561048757825182559160200191906001019061046c565b50610493929150610497565b5090565b6104b191905b80821115610493576000815560010161049d565b9056fea165627a7a7230582028bdcebe008c9e70727c4f6338763cd591312ff0c9d7033f31ad01b87172a8790029636f6e74726163742068617320616c7265616479206265656e20696e697469616c697a6564636f6e7472616374732068617665206e6f74206265656e20696e697469616c697a6564a165627a7a72305820de2643e4b25b09637626b38998fe6d5986b692efe8ce5e11f20d9828a573e69c0029",
  "source": "pragma solidity ^0.5.0;\n\n// IMPORT INTERFACES\nimport { Task } from './Task.sol';\nimport { UserManager } from '../user/Manager.sol';\nimport { DeviceManager } from '../device/Manager.sol';\nimport { TokenManager } from '../Token.sol';\n\ncontract TaskManager {\n\n    // MAP OF UNIQUE TASKS, [TASK ADDRESS => TASK CONTRACT]\n    mapping (address => Task) tasks;\n\n    // ALL CURRENTLY OPEN TASKS\n    Task[] public open;\n\n    // TIME LIMIT FOR TASK\n    uint limit = 5000;\n\n    // REFERENCES\n    UserManager user_manager;\n    DeviceManager device_manager;\n    TokenManager token_manager;\n\n    // INIT STATUS\n    bool initialized = false;\n\n    // FETCH ALL OPEN TASKS\n    function fetch_open() public view returns(Task[] memory) {\n        return open;\n    }\n\n    // FETCH SPECIFIC TASK\n    function fetch_task(address task) public view returns(Task) {\n        return tasks[task];\n    }\n\n    // ADD TASK\n    function add_task(\n        uint reputation,\n        uint reward\n    ) public {\n\n        // IF CONTRACT HAS BEEN INITIALIZED\n        // SENDER IS A REGISTERED USER\n        // USER HAS ENOUGH TOKENS\n        require(initialized, 'contracts have not been initialized');\n        require(user_manager.exists(msg.sender), 'you are not a registered user');\n        require(token_manager.balance(msg.sender) >= reward + 1, 'insufficient tokens');\n\n        // INSTANTIATE NEW TASK\n        Task task = new Task(\n            msg.sender,\n            reputation,\n            reward\n        );\n\n        // ADD IT TO BOTH LISTS\n        tasks[address(task)] = task;\n        open.push(task);\n\n        // CONSUME ONE TOKEN FOR CREATION\n        token_manager.consume(reward, msg.sender);\n\n        // TRANSFER THE REWARD TOKENS TO THE TASK MANAGER\n        token_manager.transfer(reward, msg.sender, address(this));\n    }\n\n    // ACCEPT TASK\n    function accept_task(\n        address _task,\n        string memory _device\n    ) public payable {\n\n        // IF THE TASK EXISTS\n        // IF THE DEVICE EXISTS\n        require(exists(_task), 'task does not exist');\n        require(device_manager.exists(_device), 'device does not exist');\n\n        // SHORTHAND FOR TASK\n        Task task = fetch_task(_task);\n\n        // IF THE TASK IS NOT LOCKED\n        // IF THE USER IS REGISTERED\n        // IF THE USER HAS ENOUGH REPUTATION\n        // IF THE SENDER HAS ENOUGH TOKENS\n        // IF THE SENDER IS THE DEVICE OWNER\n        require(!task.locked(), 'task is locked');\n        require(user_manager.exists(msg.sender), 'you are not a registered user');\n        require(user_manager.fetch_user(msg.sender).reputation() >= task.min_reputation(), 'not enough reputation');\n        require(token_manager.balance(msg.sender) >= task.reward() / 2, 'insufficient funds given');\n        require(device_manager.fetch_device(_device).owner() == msg.sender, 'you are not the device owner');\n\n        // ACCEPT THE TASK & ASSIGN IT TO THE DEVICE\n        task.accept(msg.sender, _device);\n        device_manager.fetch_device(_device).assign_task(_task);\n\n        // UNLIST TASK FROM OPEN & TRANSFER TOKENS TO TASK MANAGER\n        unlist(_task);\n        token_manager.transfer(task.reward() / 2, msg.sender, address(this));\n    }\n\n    // SUBMIT TASK RESULT\n    function submit_result(\n        address _task,\n        string memory _data\n    ) public {\n\n        // IF THE TASK EXISTS\n        require(exists(_task), 'task does not exist');\n\n        // SHORTHAND FOR TASK\n        Task task = fetch_task(_task);\n\n        // IF THE SENDER IS THE SELLER\n        require(task.deliverer() == msg.sender, 'you are not the deliverer');\n\n        // SEND THE RESULT TO THE BUYERS USER CONTRACT\n        //user_manager.fetch_user(task.creator()).add_result(_key, _ipfs);\n\n        // REWARD BOTH PARTIES WITH REPUTATION\n        user_manager.fetch_user(task.creator()).reward(1);\n        user_manager.fetch_user(msg.sender).reward(2);\n\n        // TRANSFER REWARD TOKENS TO THE SENDER\n        token_manager.transfer(\n            task.reward(),\n            address(this),\n            msg.sender\n        );\n\n        // UNLIST FROM OPEN & DESTROY THE TASK\n        unlist(_task);\n        task.destroy();\n    }\n\n    // RELEASE THE TASK\n    function release_task(address _task) public {\n\n        // IF THE TASK EXISTS\n        require(exists(_task), 'task does not exist');\n\n        // SHORTHAND\n        Task task = fetch_task(_task);\n\n        // IF THE SENDER IS THE BUYER\n        require(task.creator() == msg.sender, 'you are not the creator');\n\n        // IF THE TASK IS LOCKED OR THE TIME LIMIT HAS BEEN EXCEEDED\n        if (!task.locked() || block.timestamp > task.created() + limit) {\n\n            // TRANSFER TOKENS FROM TASK MANAGER TO SENDER\n            token_manager.transfer(\n                task.reward(),\n                address(this),\n                msg.sender\n            );\n\n            // IF THE TASK IS LISTED, UNLIST IT\n            if (!task.locked()) {\n                unlist(_task);\n            }\n\n            // DESTROY THE TASK\n            task.destroy();\n        }\n    }\n\n    // INITIALIZE\n    function init(\n        address _user_manager,\n        address _device_manager,\n        address _token_manager\n    ) public {\n\n        // IF THE CONTRACT HAS NOT BEEN INITIALIZED\n        require(!initialized, 'contract has already been initialized');\n\n        // SET REFERENCES\n        user_manager = UserManager(_user_manager);\n        device_manager = DeviceManager(_device_manager);\n        token_manager = TokenManager(_token_manager);\n\n        // BLOCK FURTHER MODIFICATION\n        initialized = true;\n    }\n\n    // CHECK IF TASK EXISTS\n    function exists(address _task) public view returns(bool) {\n        if (address(tasks[_task]) != 0x0000000000000000000000000000000000000000) {\n            return true;\n        } else {\n            return false;\n        }\n    }\n\n    // UNLIST TASK FROM OPEN\n    function unlist(address target) private {\n        for(uint index = 0; index < open.length; index++){\n            if (address(open[index]) == target) {\n                delete open[index];\n            }\n        }\n    }\n}",
  "sourcePath": "C:/Users/35840/Desktop/coding/node/eth-contracts/contracts/task/Manager.sol",
  "compiler": {
    "name": "solc",
    "version": "0.5.8+commit.23d335f2.Emscripten.clang"
  },
  "schemaVersion": "3.0.17",
  "updatedAt": "2020-02-02T22:25:12.502Z",
  "networkType": "ethereum",
  "devdoc": {
    "methods": {}
  },
  "userdoc": {
    "methods": {}
  }
}