{
  "contractName": "TaskManager",
  "abi": [
    {
      "constant": true,
      "inputs": [
        {
          "name": "",
          "type": "uint256"
        }
      ],
      "name": "open",
      "outputs": [
        {
          "name": "",
          "type": "address"
        }
      ],
      "payable": false,
      "stateMutability": "view",
      "type": "function"
    },
    {
      "constant": true,
      "inputs": [],
      "name": "fetch_open",
      "outputs": [
        {
          "name": "",
          "type": "address[]"
        }
      ],
      "payable": false,
      "stateMutability": "view",
      "type": "function"
    },
    {
      "constant": true,
      "inputs": [
        {
          "name": "task",
          "type": "address"
        }
      ],
      "name": "fetch_task",
      "outputs": [
        {
          "name": "",
          "type": "address"
        }
      ],
      "payable": false,
      "stateMutability": "view",
      "type": "function"
    },
    {
      "constant": false,
      "inputs": [
        {
          "name": "reputation",
          "type": "uint256"
        },
        {
          "name": "reward",
          "type": "uint256"
        },
        {
          "name": "encryption_key",
          "type": "string"
        }
      ],
      "name": "add_task",
      "outputs": [],
      "payable": false,
      "stateMutability": "nonpayable",
      "type": "function"
    },
    {
      "constant": false,
      "inputs": [
        {
          "name": "_task",
          "type": "address"
        },
        {
          "name": "_device",
          "type": "string"
        }
      ],
      "name": "accept_task",
      "outputs": [],
      "payable": true,
      "stateMutability": "payable",
      "type": "function"
    },
    {
      "constant": false,
      "inputs": [
        {
          "name": "_task",
          "type": "address"
        },
        {
          "name": "_key",
          "type": "string"
        },
        {
          "name": "_data",
          "type": "string"
        }
      ],
      "name": "submit_result",
      "outputs": [],
      "payable": false,
      "stateMutability": "nonpayable",
      "type": "function"
    },
    {
      "constant": false,
      "inputs": [
        {
          "name": "_task",
          "type": "address"
        }
      ],
      "name": "release_task",
      "outputs": [],
      "payable": false,
      "stateMutability": "nonpayable",
      "type": "function"
    },
    {
      "constant": false,
      "inputs": [
        {
          "name": "_user_manager",
          "type": "address"
        },
        {
          "name": "_device_manager",
          "type": "address"
        },
        {
          "name": "_token_manager",
          "type": "address"
        }
      ],
      "name": "init",
      "outputs": [],
      "payable": false,
      "stateMutability": "nonpayable",
      "type": "function"
    },
    {
      "constant": true,
      "inputs": [
        {
          "name": "_task",
          "type": "address"
        }
      ],
      "name": "exists",
      "outputs": [
        {
          "name": "",
          "type": "bool"
        }
      ],
      "payable": false,
      "stateMutability": "view",
      "type": "function"
    }
  ],
  "bytecode": "0x608060405261138860025560058054600160a01b60ff021916905534801561002657600080fd5b50612c5c806100366000396000f3fe608060405260043610620000925760003560e01c8063690e7c091162000061578063690e7c091462000297578063d295c99414620002e1578063d91cf5de1462000431578063f6a3d24e146200049b578063f772282c14620004e65762000092565b8063184b9559146200009757806322fb319c14620000e257806353ce899b146200019c57806362ead34b1462000260575b600080fd5b348015620000a457600080fd5b50620000e060048036036060811015620000bd57600080fd5b506001600160a01b0381358116916020810135821691604090910135166200051d565b005b620000e060048036036040811015620000fa57600080fd5b6001600160a01b038235169190810190604081016020820135600160201b8111156200012557600080fd5b8201836020820111156200013857600080fd5b803590602001918460018302840111600160201b831117156200015a57600080fd5b91908080601f016020809104026020016040519081016040528093929190818152602001838380828437600092019190915250929550620005c7945050505050565b348015620001a957600080fd5b50620000e060048036036060811015620001c257600080fd5b813591602081013591810190606081016040820135600160201b811115620001e957600080fd5b820183602082011115620001fc57600080fd5b803590602001918460018302840111600160201b831117156200021e57600080fd5b91908080601f016020809104026020016040519081016040528093929190818152602001838380828437600092019190915250929550620010bc945050505050565b3480156200026d57600080fd5b50620000e0600480360360208110156200028657600080fd5b50356001600160a01b0316620014c1565b348015620002a457600080fd5b50620002c560048036036020811015620002bd57600080fd5b503562001aad565b604080516001600160a01b039092168252519081900360200190f35b348015620002ee57600080fd5b50620000e0600480360360608110156200030757600080fd5b6001600160a01b038235169190810190604081016020820135600160201b8111156200033257600080fd5b8201836020820111156200034557600080fd5b803590602001918460018302840111600160201b831117156200036757600080fd5b91908080601f0160208091040260200160405190810160405280939291908181526020018383808284376000920191909152509295949360208101935035915050600160201b811115620003ba57600080fd5b820183602082011115620003cd57600080fd5b803590602001918460018302840111600160201b83111715620003ef57600080fd5b91908080601f01602080910402602001604051908101604052809392919081815260200183838082843760009201919091525092955062001ad5945050505050565b3480156200043e57600080fd5b5062000449620023c0565b60408051602080825283518183015283519192839290830191858101910280838360005b83811015620004875781810151838201526020016200046d565b505050509050019250505060405180910390f35b348015620004a857600080fd5b50620004d260048036036020811015620004c157600080fd5b50356001600160a01b031662002424565b604080519115158252519081900360200190f35b348015620004f357600080fd5b50620002c5600480360360208110156200050c57600080fd5b50356001600160a01b031662002459565b600554600160a01b900460ff16156200056b57604051600160e51b62461bcd02815260040180806020018281038252602581526020018062002be96025913960400191505060405180910390fd5b600380546001600160a01b03199081166001600160a01b03958616179091556004805482169385169390931790925560058054600160a01b9316919093161774ff00000000000000000000000000000000000000001916179055565b620005d28262002424565b620006205760408051600160e51b62461bcd02815260206004820152601360248201526001606a1b721d185cdac8191bd95cc81b9bdd08195e1a5cdd02604482015290519081900360640190fd5b60048054604051600160e11b63130d191f02815260209281018381528451602483015284516001600160a01b039093169363261a323e93869383926044909101919085019080838360005b83811015620006855781810151838201526020016200066b565b50505050905090810190601f168015620006b35780820380516001836020036101000a031916815260200191505b509250505060206040518083038186803b158015620006d157600080fd5b505afa158015620006e6573d6000803e3d6000fd5b505050506040513d6020811015620006fd57600080fd5b5051620007545760408051600160e51b62461bcd02815260206004820152601560248201527f64657669636520646f6573206e6f742065786973740000000000000000000000604482015290519081900360640190fd5b6000620007618362002459565b9050806001600160a01b031663cf3090126040518163ffffffff1660e01b815260040160206040518083038186803b1580156200079d57600080fd5b505afa158015620007b2573d6000803e3d6000fd5b505050506040513d6020811015620007c957600080fd5b505115620008215760408051600160e51b62461bcd02815260206004820152600e60248201527f7461736b206973206c6f636b6564000000000000000000000000000000000000604482015290519081900360640190fd5b60035460408051600160e11b637b51e92702815233600482015290516001600160a01b039092169163f6a3d24e91602480820192602092909190829003018186803b1580156200087057600080fd5b505afa15801562000885573d6000803e3d6000fd5b505050506040513d60208110156200089c57600080fd5b5051620008f35760408051600160e51b62461bcd02815260206004820152601d60248201527f796f7520617265206e6f74206120726567697374657265642075736572000000604482015290519081900360640190fd5b806001600160a01b0316632a960fa76040518163ffffffff1660e01b815260040160206040518083038186803b1580156200092d57600080fd5b505afa15801562000942573d6000803e3d6000fd5b505050506040513d60208110156200095957600080fd5b505160035460408051600160e01b631f0df17f02815233600482015290516001600160a01b0390921691631f0df17f91602480820192602092909190829003018186803b158015620009aa57600080fd5b505afa158015620009bf573d6000803e3d6000fd5b505050506040513d6020811015620009d657600080fd5b505160408051600160e11b636290b26302815290516001600160a01b039092169163c52164c691600480820192602092909190829003018186803b15801562000a1e57600080fd5b505afa15801562000a33573d6000803e3d6000fd5b505050506040513d602081101562000a4a57600080fd5b5051101562000aa35760408051600160e51b62461bcd02815260206004820152601560248201527f6e6f7420656e6f7567682072657075746174696f6e0000000000000000000000604482015290519081900360640190fd5b6002816001600160a01b031663228cb7336040518163ffffffff1660e01b815260040160206040518083038186803b15801562000adf57600080fd5b505afa15801562000af4573d6000803e3d6000fd5b505050506040513d602081101562000b0b57600080fd5b50518162000b1557fe5b60055460408051600160e01b63e3d670d7028152336004820152905193909204926001600160a01b039091169163e3d670d7916024808301926020929190829003018186803b15801562000b6857600080fd5b505afa15801562000b7d573d6000803e3d6000fd5b505050506040513d602081101562000b9457600080fd5b5051101562000bed5760408051600160e51b62461bcd02815260206004820152601860248201527f696e73756666696369656e742066756e647320676976656e0000000000000000604482015290519081900360640190fd5b60048054604051600160e11b6371d27c93028152602092810183815285516024830152855133946001600160a01b039094169363e3a4f92693889392839260449092019185019080838360005b8381101562000c5457818101518382015260200162000c3a565b50505050905090810190601f16801562000c825780820380516001836020036101000a031916815260200191505b509250505060206040518083038186803b15801562000ca057600080fd5b505afa15801562000cb5573d6000803e3d6000fd5b505050506040513d602081101562000ccc57600080fd5b505160408051600160e01b638da5cb5b02815290516001600160a01b0390921691638da5cb5b91600480820192602092909190829003018186803b15801562000d1457600080fd5b505afa15801562000d29573d6000803e3d6000fd5b505050506040513d602081101562000d4057600080fd5b50516001600160a01b03161462000da15760408051600160e51b62461bcd02815260206004820152601c60248201527f796f7520617265206e6f742074686520646576696365206f776e657200000000604482015290519081900360640190fd5b60408051600160e61b626201c90281523360048201818152602483019384528551604484015285516001600160a01b03861694631880724094889392606490910190602085019080838360005b8381101562000e0857818101518382015260200162000dee565b50505050905090810190601f16801562000e365780820380516001836020036101000a031916815260200191505b509350505050600060405180830381600087803b15801562000e5757600080fd5b505af115801562000e6c573d6000803e3d6000fd5b505060048054604051600160e11b6371d27c9302815260209281018381528751602483015287516001600160a01b03909316955063e3a4f92694508793909283926044019185019080838360005b8381101562000ed457818101518382015260200162000eba565b50505050905090810190601f16801562000f025780820380516001836020036101000a031916815260200191505b509250505060206040518083038186803b15801562000f2057600080fd5b505afa15801562000f35573d6000803e3d6000fd5b505050506040513d602081101562000f4c57600080fd5b505160408051600160e01b63176e82850281526001600160a01b0386811660048301529151919092169163176e828591602480830192600092919082900301818387803b15801562000f9d57600080fd5b505af115801562000fb2573d6000803e3d6000fd5b5050505062000fc18362002477565b600560009054906101000a90046001600160a01b03166001600160a01b031663ccb570e36002836001600160a01b031663228cb7336040518163ffffffff1660e01b815260040160206040518083038186803b1580156200102157600080fd5b505afa15801562001036573d6000803e3d6000fd5b505050506040513d60208110156200104d57600080fd5b5051816200105757fe5b6040805163ffffffff851660e01b815292909104600483015233602483015230604483015251606480830192600092919082900301818387803b1580156200109e57600080fd5b505af1158015620010b3573d6000803e3d6000fd5b50505050505050565b600554600160a01b900460ff166200110957604051600160e51b62461bcd02815260040180806020018281038252602381526020018062002c0e6023913960400191505060405180910390fd5b60035460408051600160e11b637b51e92702815233600482015290516001600160a01b039092169163f6a3d24e91602480820192602092909190829003018186803b1580156200115857600080fd5b505afa1580156200116d573d6000803e3d6000fd5b505050506040513d60208110156200118457600080fd5b5051620011db5760408051600160e51b62461bcd02815260206004820152601d60248201527f796f7520617265206e6f74206120726567697374657265642075736572000000604482015290519081900360640190fd5b60055460408051600160e01b63e3d670d7028152336004820152905160018501926001600160a01b03169163e3d670d7916024808301926020929190829003018186803b1580156200122c57600080fd5b505afa15801562001241573d6000803e3d6000fd5b505050506040513d60208110156200125857600080fd5b50511015620012b15760408051600160e51b62461bcd02815260206004820152601360248201527f696e73756666696369656e7420746f6b656e7300000000000000000000000000604482015290519081900360640190fd5b600033848484604051620012c590620024ea565b80856001600160a01b03166001600160a01b0316815260200184815260200183815260200180602001828103825283818151815260200191508051906020019080838360005b83811015620013255781810151838201526020016200130b565b50505050905090810190601f168015620013535780820380516001836020036101000a031916815260200191505b5095505050505050604051809103906000f08015801562001378573d6000803e3d6000fd5b506001600160a01b0380821660008181526020819052604080822080546001600160a01b031990811685179091556001805480820182559084527fb10e2d527612073b26eecdfd717e6a320cf44b4afac2b0732d9fcbe2b7fa0cf60180549091169093179092556005548251600160e01b636f3d98c702815260048101899052336024820152925194955090921692636f3d98c79260448084019391929182900301818387803b1580156200142c57600080fd5b505af115801562001441573d6000803e3d6000fd5b505060055460408051600160e01b63ccb570e30281526004810188905233602482015230604482015290516001600160a01b03909216935063ccb570e3925060648082019260009290919082900301818387803b158015620014a257600080fd5b505af1158015620014b7573d6000803e3d6000fd5b5050505050505050565b620014cc8162002424565b6200151a5760408051600160e51b62461bcd02815260206004820152601360248201526001606a1b721d185cdac8191bd95cc81b9bdd08195e1a5cdd02604482015290519081900360640190fd5b6000620015278262002459565b9050336001600160a01b0316816001600160a01b03166302d05d3f6040518163ffffffff1660e01b815260040160206040518083038186803b1580156200156d57600080fd5b505afa15801562001582573d6000803e3d6000fd5b505050506040513d60208110156200159957600080fd5b50516001600160a01b031614620015fa5760408051600160e51b62461bcd02815260206004820152601760248201527f796f7520617265206e6f74207468652063726561746f72000000000000000000604482015290519081900360640190fd5b806001600160a01b031663cf3090126040518163ffffffff1660e01b815260040160206040518083038186803b1580156200163457600080fd5b505afa15801562001649573d6000803e3d6000fd5b505050506040513d60208110156200166057600080fd5b50511580620016d95750600254816001600160a01b031663325a19f16040518163ffffffff1660e01b815260040160206040518083038186803b158015620016a757600080fd5b505afa158015620016bc573d6000803e3d6000fd5b505050506040513d6020811015620016d357600080fd5b50510142115b1562001aa957600560009054906101000a90046001600160a01b03166001600160a01b031663ccb570e3826001600160a01b031663228cb7336040518163ffffffff1660e01b815260040160206040518083038186803b1580156200173d57600080fd5b505afa15801562001752573d6000803e3d6000fd5b505050506040513d60208110156200176957600080fd5b50516040805163ffffffff841660e01b8152600481019290925230602483015233604483015251606480830192600092919082900301818387803b158015620017b157600080fd5b505af1158015620017c6573d6000803e3d6000fd5b50505050806001600160a01b031663cf3090126040518163ffffffff1660e01b815260040160206040518083038186803b1580156200180457600080fd5b505afa15801562001819573d6000803e3d6000fd5b505050506040513d60208110156200183057600080fd5b50516200184857620018428262002477565b62001a53565b6004805460408051600160e41b630c6326dd02815290516001600160a01b039283169363e3a4f9269386169263c6326dd09281830192600092829003018186803b1580156200189657600080fd5b505afa158015620018ab573d6000803e3d6000fd5b505050506040513d6000823e601f3d908101601f191682016040526020811015620018d557600080fd5b810190808051600160201b811115620018ed57600080fd5b820160208101848111156200190157600080fd5b8151600160201b8111828201871017156200191b57600080fd5b505060405163ffffffff861660e01b815260206004820181815283516024840152835193965094508493506044909101919085019080838360005b838110156200197057818101518382015260200162001956565b50505050905090810190601f1680156200199e5780820380516001836020036101000a031916815260200191505b509250505060206040518083038186803b158015620019bc57600080fd5b505afa158015620019d1573d6000803e3d6000fd5b505050506040513d6020811015620019e857600080fd5b505160408051600160e01b63bade39f70281526001600160a01b0385811660048301529151919092169163bade39f791602480830192600092919082900301818387803b15801562001a3957600080fd5b505af115801562001a4e573d6000803e3d6000fd5b505050505b806001600160a01b03166383197ef06040518163ffffffff1660e01b8152600401600060405180830381600087803b15801562001a8f57600080fd5b505af115801562001aa4573d6000803e3d6000fd5b505050505b5050565b6001818154811062001abb57fe5b6000918252602090912001546001600160a01b0316905081565b62001ae08362002424565b62001b2e5760408051600160e51b62461bcd02815260206004820152601360248201526001606a1b721d185cdac8191bd95cc81b9bdd08195e1a5cdd02604482015290519081900360640190fd5b600062001b3b8462002459565b9050336001600160a01b0316816001600160a01b03166381bbfb616040518163ffffffff1660e01b815260040160206040518083038186803b15801562001b8157600080fd5b505afa15801562001b96573d6000803e3d6000fd5b505050506040513d602081101562001bad57600080fd5b50516001600160a01b03161462001c0e5760408051600160e51b62461bcd02815260206004820152601960248201527f796f7520617265206e6f74207468652064656c69766572657200000000000000604482015290519081900360640190fd5b600360009054906101000a90046001600160a01b03166001600160a01b0316631f0df17f826001600160a01b03166302d05d3f6040518163ffffffff1660e01b815260040160206040518083038186803b15801562001c6c57600080fd5b505afa15801562001c81573d6000803e3d6000fd5b505050506040513d602081101562001c9857600080fd5b50516040805163ffffffff841660e01b81526001600160a01b039092166004830152516024808301926020929190829003018186803b15801562001cdb57600080fd5b505afa15801562001cf0573d6000803e3d6000fd5b505050506040513d602081101562001d0757600080fd5b505160408051600160e21b630ae29d29028152600481019182528551604482015285516001600160a01b0390931692632b8a74a4928792879282916024810191606490910190602087019080838360005b8381101562001d7257818101518382015260200162001d58565b50505050905090810190601f16801562001da05780820380516001836020036101000a031916815260200191505b50838103825284518152845160209182019186019080838360005b8381101562001dd557818101518382015260200162001dbb565b50505050905090810190601f16801562001e035780820380516001836020036101000a031916815260200191505b50945050505050600060405180830381600087803b15801562001e2557600080fd5b505af115801562001e3a573d6000803e3d6000fd5b50505050600360009054906101000a90046001600160a01b03166001600160a01b0316631f0df17f826001600160a01b03166302d05d3f6040518163ffffffff1660e01b815260040160206040518083038186803b15801562001e9c57600080fd5b505afa15801562001eb1573d6000803e3d6000fd5b505050506040513d602081101562001ec857600080fd5b50516040805163ffffffff841660e01b81526001600160a01b039092166004830152516024808301926020929190829003018186803b15801562001f0b57600080fd5b505afa15801562001f20573d6000803e3d6000fd5b505050506040513d602081101562001f3757600080fd5b505160408051600160e21b632a7edd8f0281526001600482015290516001600160a01b039092169163a9fb763c9160248082019260009290919082900301818387803b15801562001f8757600080fd5b505af115801562001f9c573d6000803e3d6000fd5b505060035460408051600160e01b631f0df17f02815233600482015290516001600160a01b039092169350631f0df17f9250602480820192602092909190829003018186803b15801562001fef57600080fd5b505afa15801562002004573d6000803e3d6000fd5b505050506040513d60208110156200201b57600080fd5b505160408051600160e21b632a7edd8f0281526002600482015290516001600160a01b039092169163a9fb763c9160248082019260009290919082900301818387803b1580156200206b57600080fd5b505af115801562002080573d6000803e3d6000fd5b50505050600560009054906101000a90046001600160a01b03166001600160a01b031663ccb570e3826001600160a01b031663228cb7336040518163ffffffff1660e01b815260040160206040518083038186803b158015620020e257600080fd5b505afa158015620020f7573d6000803e3d6000fd5b505050506040513d60208110156200210e57600080fd5b50516040805163ffffffff841660e01b8152600481019290925230602483015233604483015251606480830192600092919082900301818387803b1580156200215657600080fd5b505af11580156200216b573d6000803e3d6000fd5b505050506200217a8462002477565b6004805460408051600160e41b630c6326dd02815290516001600160a01b039283169363e3a4f9269386169263c6326dd09281830192600092829003018186803b158015620021c857600080fd5b505afa158015620021dd573d6000803e3d6000fd5b505050506040513d6000823e601f3d908101601f1916820160405260208110156200220757600080fd5b810190808051600160201b8111156200221f57600080fd5b820160208101848111156200223357600080fd5b8151600160201b8111828201871017156200224d57600080fd5b505060405163ffffffff861660e01b815260206004820181815283516024840152835193965094508493506044909101919085019080838360005b83811015620022a257818101518382015260200162002288565b50505050905090810190601f168015620022d05780820380516001836020036101000a031916815260200191505b509250505060206040518083038186803b158015620022ee57600080fd5b505afa15801562002303573d6000803e3d6000fd5b505050506040513d60208110156200231a57600080fd5b505160408051600160e01b63bade39f70281526001600160a01b0387811660048301529151919092169163bade39f791602480830192600092919082900301818387803b1580156200236b57600080fd5b505af115801562002380573d6000803e3d6000fd5b50505050806001600160a01b03166383197ef06040518163ffffffff1660e01b8152600401600060405180830381600087803b158015620014a257600080fd5b606060018054806020026020016040519081016040528092919081815260200182805480156200241a57602002820191906000526020600020905b81546001600160a01b03168152600190910190602001808311620023fb575b5050505050905090565b6001600160a01b0380821660009081526020819052604081205490911615620024505750600162002454565b5060005b919050565b6001600160a01b039081166000908152602081905260409020541690565b60005b60015481101562001aa957816001600160a01b0316600182815481106200249d57fe5b6000918252602090912001546001600160a01b03161415620024e15760018181548110620024c757fe5b600091825260209091200180546001600160a01b03191690555b6001016200247a565b6106f080620024f98339019056fe60806040526003805460ff1916905534801561001a57600080fd5b506040516106f03803806106f08339810180604052608081101561003d57600080fd5b815160208301516040840151606085018051939592949193918301929164010000000081111561006c57600080fd5b8201602081018481111561007f57600080fd5b815164010000000081118282018710171561009957600080fd5b5050600080546001600160a01b0319166001600160a01b0389161790556004869055600585905580519093506100d892506007915060208401906100f8565b5050426006555050600880546001600160a01b0319163317905550610193565b828054600181600116156101000203166002900490600052602060002090601f016020900481019282601f1061013957805160ff1916838001178555610166565b82800160010185558215610166579182015b8281111561016657825182559160200191906001019061014b565b50610172929150610176565b5090565b61019091905b80821115610172576000815560010161017c565b90565b61054e806101a26000396000f3fe608060405234801561001057600080fd5b506004361061009e5760003560e01c80633f1444b5116100665780633f1444b5146101a957806381bbfb611461022657806383197ef01461022e578063c6326dd014610236578063cf3090121461023e5761009e565b806302d05d3f146100a357806318807240146100c7578063228cb7331461017f5780632a960fa714610199578063325a19f1146101a1575b600080fd5b6100ab61025a565b604080516001600160a01b039092168252519081900360200190f35b61017d600480360360408110156100dd57600080fd5b6001600160a01b03823516919081019060408101602082013564010000000081111561010857600080fd5b82018360208201111561011a57600080fd5b8035906020019184600183028401116401000000008311171561013c57600080fd5b91908080601f016020809104026020016040519081016040528093929190818152602001838380828437600092019190915250929550610269945050505050565b005b61018761031b565b60408051918252519081900360200190f35b610187610321565b610187610327565b6101b161032d565b6040805160208082528351818301528351919283929083019185019080838360005b838110156101eb5781810151838201526020016101d3565b50505050905090810190601f1680156102185780820380516001836020036101000a031916815260200191505b509250505060405180910390f35b6100ab6103bb565b61017d6103ca565b6101b1610426565b61024661047e565b604080519115158252519081900360200190f35b6000546001600160a01b031681565b6008546001600160a01b031633146102c25760408051600160e51b62461bcd02815260206004820152601160248201526001607a1b701c195c9b5a5cdcda5bdb8819195b9a595902604482015290519081900360640190fd5b600180546001600160a01b0319166001600160a01b0384161781556003805460ff1916909117905580516102fd906002906020840190610487565b5060026005548161030a57fe5b600580549290910490910190555050565b60055481565b60045481565b60065481565b6007805460408051602060026001851615610100026000190190941693909304601f810184900484028201840190925281815292918301828280156103b35780601f10610388576101008083540402835291602001916103b3565b820191906000526020600020905b81548152906001019060200180831161039657829003601f168201915b505050505081565b6001546001600160a01b031681565b6008546001600160a01b031633146104235760408051600160e51b62461bcd02815260206004820152601160248201526001607a1b701c195c9b5a5cdcda5bdb8819195b9a595902604482015290519081900360640190fd5b30ff5b6002805460408051602060018416156101000260001901909316849004601f810184900484028201840190925281815292918301828280156103b35780601f10610388576101008083540402835291602001916103b3565b60035460ff1681565b828054600181600116156101000203166002900490600052602060002090601f016020900481019282601f106104c857805160ff19168380011785556104f5565b828001600101855582156104f5579182015b828111156104f55782518255916020019190600101906104da565b50610501929150610505565b5090565b61051f91905b80821115610501576000815560010161050b565b9056fea165627a7a723058204a2a80287a3a07411d82f515149caeff1c06bb7ef40ba91c65db1eac6ea226600029636f6e74726163742068617320616c7265616479206265656e20696e697469616c697a6564636f6e7472616374732068617665206e6f74206265656e20696e697469616c697a6564a165627a7a7230582012b44199d360c4b5ce1c6d8f9c10736e63f51bcfccaa908b209bf5a8ab5383980029",
  "source": "pragma solidity ^0.5.0;\n\n// IMPORT INTERFACES\nimport { Task } from './Task.sol';\nimport { UserManager } from '../user/Manager.sol';\nimport { DeviceManager } from '../device/Manager.sol';\nimport { TokenManager } from '../Token.sol';\n\ncontract TaskManager {\n\n    // MAP OF UNIQUE TASKS, [TASK ADDRESS => TASK CONTRACT]\n    mapping (address => Task) tasks;\n\n    // ALL CURRENTLY OPEN TASKS\n    Task[] public open;\n\n    // TIME LIMIT FOR TASK\n    uint limit = 5000;\n\n    // REFERENCES\n    UserManager user_manager;\n    DeviceManager device_manager;\n    TokenManager token_manager;\n\n    // INIT STATUS\n    bool initialized = false;\n\n    // FETCH ALL OPEN TASKS\n    function fetch_open() public view returns(Task[] memory) {\n        return open;\n    }\n\n    // FETCH SPECIFIC TASK\n    function fetch_task(address task) public view returns(Task) {\n        return tasks[task];\n    }\n\n    // ADD TASK\n    function add_task(\n        uint reputation,\n        uint reward,\n        string memory encryption_key\n    ) public {\n\n        // IF CONTRACT HAS BEEN INITIALIZED\n        // SENDER IS A REGISTERED USER\n        // USER HAS ENOUGH TOKENS\n        require(initialized, 'contracts have not been initialized');\n        require(user_manager.exists(msg.sender), 'you are not a registered user');\n        require(token_manager.balance(msg.sender) >= reward + 1, 'insufficient tokens');\n\n        // INSTANTIATE NEW TASK\n        Task task = new Task(\n            msg.sender,\n            reputation,\n            reward,\n            encryption_key\n        );\n\n        // ADD IT TO BOTH LISTS\n        tasks[address(task)] = task;\n        open.push(task);\n\n        // CONSUME ONE TOKEN FOR CREATION\n        token_manager.consume(reward, msg.sender);\n\n        // TRANSFER THE REWARD TOKENS TO THE TASK MANAGER\n        token_manager.transfer(reward, msg.sender, address(this));\n    }\n\n    // ACCEPT TASK\n    function accept_task(\n        address _task,\n        string memory _device\n    ) public payable {\n\n        // IF THE TASK EXISTS\n        // IF THE DEVICE EXISTS\n        require(exists(_task), 'task does not exist');\n        require(device_manager.exists(_device), 'device does not exist');\n\n        // SHORTHAND FOR TASK\n        Task task = fetch_task(_task);\n\n        // IF THE TASK IS NOT LOCKED\n        // IF THE USER IS REGISTERED\n        // IF THE USER HAS ENOUGH REPUTATION\n        // IF THE SENDER HAS ENOUGH TOKENS\n        // IF THE SENDER IS THE DEVICE OWNER\n        require(!task.locked(), 'task is locked');\n        require(user_manager.exists(msg.sender), 'you are not a registered user');\n        require(user_manager.fetch_user(msg.sender).reputation() >= task.min_reputation(), 'not enough reputation');\n        require(token_manager.balance(msg.sender) >= task.reward() / 2, 'insufficient funds given');\n        require(device_manager.fetch_device(_device).owner() == msg.sender, 'you are not the device owner');\n\n        // ACCEPT THE TASK & ASSIGN IT TO THE DEVICE\n        task.accept(msg.sender, _device);\n        device_manager.fetch_device(_device).assign_task(_task);\n\n        // UNLIST TASK FROM OPEN & TRANSFER TOKENS TO TASK MANAGER\n        unlist(_task);\n        token_manager.transfer(task.reward() / 2, msg.sender, address(this));\n    }\n\n    // SUBMIT TASK RESULT\n    function submit_result(\n        address _task,\n        string memory _key,\n        string memory _data\n    ) public {\n\n        // IF THE TASK EXISTS\n        require(exists(_task), 'task does not exist');\n\n        // SHORTHAND FOR TASK\n        Task task = fetch_task(_task);\n\n        // IF THE SENDER IS THE SELLER\n        require(task.deliverer() == msg.sender, 'you are not the deliverer');\n\n        // SEND THE RESULT TO THE TASK CREATORS USER CONTRACT\n        user_manager.fetch_user(task.creator()).add_result(_key, _data);\n\n        // REWARD BOTH PARTIES WITH REPUTATION\n        user_manager.fetch_user(task.creator()).reward(1);\n        user_manager.fetch_user(msg.sender).reward(2);\n\n        // TRANSFER REWARD TOKENS TO THE SENDER\n        token_manager.transfer(\n            task.reward(),\n            address(this),\n            msg.sender\n        );\n\n        // UNLIST FROM OPEN & DEVICE BACKLOG\n        unlist(_task);\n        device_manager.fetch_device(task.device()).unlist_task(_task);\n\n        // FINALLY DESTROY THE TASK\n        task.destroy();\n    }\n\n    // RELEASE THE TASK\n    function release_task(address _task) public {\n\n        // IF THE TASK EXISTS\n        require(exists(_task), 'task does not exist');\n\n        // SHORTHAND\n        Task task = fetch_task(_task);\n\n        // IF THE SENDER IS THE BUYER\n        require(task.creator() == msg.sender, 'you are not the creator');\n\n        // IF THE TASK IS LOCKED OR THE TIME LIMIT HAS BEEN EXCEEDED\n        if (!task.locked() || block.timestamp > task.created() + limit) {\n\n            // TRANSFER TOKENS FROM TASK MANAGER TO SENDER\n            token_manager.transfer(\n                task.reward(),\n                address(this),\n                msg.sender\n            );\n\n            // IF THE TASK IS LISTED, UNLIST IT\n            if (!task.locked()) {\n                unlist(_task);\n\n            // OTHERWISE, REMOVE FROM DEVICE BACKLOG\n            } else {\n                device_manager.fetch_device(task.device()).unlist_task(_task);\n            }\n\n            // DESTROY THE TASK\n            task.destroy();\n        }\n    }\n\n    // INITIALIZE\n    function init(\n        address _user_manager,\n        address _device_manager,\n        address _token_manager\n    ) public {\n\n        // IF THE CONTRACT HAS NOT BEEN INITIALIZED\n        require(!initialized, 'contract has already been initialized');\n\n        // SET REFERENCES\n        user_manager = UserManager(_user_manager);\n        device_manager = DeviceManager(_device_manager);\n        token_manager = TokenManager(_token_manager);\n\n        // BLOCK FURTHER MODIFICATION\n        initialized = true;\n    }\n\n    // CHECK IF TASK EXISTS\n    function exists(address _task) public view returns(bool) {\n        if (address(tasks[_task]) != 0x0000000000000000000000000000000000000000) {\n            return true;\n        } else {\n            return false;\n        }\n    }\n\n    // UNLIST TASK FROM OPEN\n    function unlist(address target) private {\n        for(uint index = 0; index < open.length; index++) {\n            if (address(open[index]) == target) {\n                delete open[index];\n            }\n        }\n    }\n}",
  "sourcePath": "C:/Users/35840/Desktop/coding/node/eth-contracts/contracts/task/Manager.sol",
  "compiler": {
    "name": "solc",
    "version": "0.5.8+commit.23d335f2.Emscripten.clang"
  },
  "schemaVersion": "3.0.17",
  "updatedAt": "2020-02-03T01:12:46.285Z",
  "networkType": "ethereum",
  "devdoc": {
    "methods": {}
  },
  "userdoc": {
    "methods": {}
  }
}