{
  "contractName": "Task",
  "abi": [
    {
      "constant": true,
      "inputs": [],
      "name": "name",
      "outputs": [
        {
          "name": "",
          "type": "string"
        }
      ],
      "payable": false,
      "stateMutability": "view",
      "type": "function"
    },
    {
      "constant": true,
      "inputs": [],
      "name": "task_index",
      "outputs": [
        {
          "name": "",
          "type": "uint256"
        }
      ],
      "payable": false,
      "stateMutability": "view",
      "type": "function"
    },
    {
      "constant": true,
      "inputs": [],
      "name": "seller",
      "outputs": [
        {
          "name": "",
          "type": "address"
        }
      ],
      "payable": false,
      "stateMutability": "view",
      "type": "function"
    },
    {
      "constant": true,
      "inputs": [],
      "name": "reward",
      "outputs": [
        {
          "name": "",
          "type": "uint256"
        }
      ],
      "payable": false,
      "stateMutability": "view",
      "type": "function"
    },
    {
      "constant": true,
      "inputs": [],
      "name": "created",
      "outputs": [
        {
          "name": "",
          "type": "uint256"
        }
      ],
      "payable": false,
      "stateMutability": "view",
      "type": "function"
    },
    {
      "constant": true,
      "inputs": [],
      "name": "device_index",
      "outputs": [
        {
          "name": "",
          "type": "uint256"
        }
      ],
      "payable": false,
      "stateMutability": "view",
      "type": "function"
    },
    {
      "constant": true,
      "inputs": [],
      "name": "buyer",
      "outputs": [
        {
          "name": "",
          "type": "address"
        }
      ],
      "payable": false,
      "stateMutability": "view",
      "type": "function"
    },
    {
      "constant": true,
      "inputs": [],
      "name": "encryption",
      "outputs": [
        {
          "name": "",
          "type": "string"
        }
      ],
      "payable": false,
      "stateMutability": "view",
      "type": "function"
    },
    {
      "constant": true,
      "inputs": [],
      "name": "reputation",
      "outputs": [
        {
          "name": "",
          "type": "uint256"
        }
      ],
      "payable": false,
      "stateMutability": "view",
      "type": "function"
    },
    {
      "constant": true,
      "inputs": [],
      "name": "device",
      "outputs": [
        {
          "name": "",
          "type": "string"
        }
      ],
      "payable": false,
      "stateMutability": "view",
      "type": "function"
    },
    {
      "constant": true,
      "inputs": [],
      "name": "locked",
      "outputs": [
        {
          "name": "",
          "type": "bool"
        }
      ],
      "payable": false,
      "stateMutability": "view",
      "type": "function"
    },
    {
      "inputs": [
        {
          "name": "_buyer",
          "type": "address"
        },
        {
          "name": "_name",
          "type": "string"
        },
        {
          "name": "_reputation",
          "type": "uint256"
        },
        {
          "name": "_encryption",
          "type": "string"
        },
        {
          "name": "_index",
          "type": "uint256"
        }
      ],
      "payable": true,
      "stateMutability": "payable",
      "type": "constructor"
    },
    {
      "constant": false,
      "inputs": [
        {
          "name": "_seller",
          "type": "address"
        },
        {
          "name": "_device",
          "type": "string"
        },
        {
          "name": "_index",
          "type": "uint256"
        }
      ],
      "name": "accept",
      "outputs": [],
      "payable": true,
      "stateMutability": "payable",
      "type": "function"
    },
    {
      "constant": false,
      "inputs": [],
      "name": "unlock",
      "outputs": [],
      "payable": false,
      "stateMutability": "nonpayable",
      "type": "function"
    },
    {
      "constant": false,
      "inputs": [],
      "name": "complete",
      "outputs": [],
      "payable": false,
      "stateMutability": "nonpayable",
      "type": "function"
    },
    {
      "constant": false,
      "inputs": [],
      "name": "release",
      "outputs": [],
      "payable": false,
      "stateMutability": "nonpayable",
      "type": "function"
    }
  ],
  "bytecode": "0x608060408190526001805460a060020a60ff0219169055610a1838819003908190833981018060405260a081101561003657600080fd5b81516020830180519193928301929164010000000081111561005757600080fd5b8201602081018481111561006a57600080fd5b815164010000000081118282018710171561008457600080fd5b505060208201516040909201805191949293916401000000008111156100a957600080fd5b820160208101848111156100bc57600080fd5b81516401000000008111828201871017156100d657600080fd5b505060209182015160008054600160a060020a031916600160a060020a038a16179055865191945092506101109160029190870190610150565b5060038390558151610129906004906020850190610150565b5034600555600955505042600655505060078054600160a060020a031916331790556101eb565b828054600181600116156101000203166002900490600052602060002090601f016020900481019282601f1061019157805160ff19168380011785556101be565b828001600101855582156101be579182015b828111156101be5782518255916020019190600101906101a3565b506101ca9291506101ce565b5090565b6101e891905b808211156101ca57600081556001016101d4565b90565b61081e806101fa6000396000f3fe6080604052600436106100da5763ffffffff7c010000000000000000000000000000000000000000000000000000000060003504166306fdde0381146100df578063074110521461016957806308551a5314610190578063228cb733146101c1578063325a19f1146101d65780633bc8b617146101eb5780633f2d90ef14610200578063522e1177146102ba5780637150d8ae146102cf57806386d1a69f146102e4578063a531d362146102f9578063a69df4b51461030e578063c52164c614610323578063c6326dd014610338578063cf3090121461034d575b600080fd5b3480156100eb57600080fd5b506100f4610376565b6040805160208082528351818301528351919283929083019185019080838360005b8381101561012e578181015183820152602001610116565b50505050905090810190601f16801561015b5780820380516001836020036101000a031916815260200191505b509250505060405180910390f35b34801561017557600080fd5b5061017e610401565b60408051918252519081900360200190f35b34801561019c57600080fd5b506101a5610407565b60408051600160a060020a039092168252519081900360200190f35b3480156101cd57600080fd5b5061017e610416565b3480156101e257600080fd5b5061017e61041c565b3480156101f757600080fd5b5061017e610422565b6102b86004803603606081101561021657600080fd5b600160a060020a03823516919081019060408101602082013564010000000081111561024157600080fd5b82018360208201111561025357600080fd5b8035906020019184600183028401116401000000008311171561027557600080fd5b91908080601f0160208091040260200160405190810160405280939291908181526020018383808284376000920191909152509295505091359250610428915050565b005b3480156102c657600080fd5b506102b86104ec565b3480156102db57600080fd5b506101a561054a565b3480156102f057600080fd5b506102b8610559565b34801561030557600080fd5b506100f46105b7565b34801561031a57600080fd5b506102b8610612565b34801561032f57600080fd5b5061017e6106b5565b34801561034457600080fd5b506100f46106bb565b34801561035957600080fd5b50610362610716565b604080519115158252519081900360200190f35b6002805460408051602060018416156101000260001901909316849004601f810184900484028201840190925281815292918301828280156103f95780601f106103ce576101008083540402835291602001916103f9565b820191906000526020600020905b8154815290600101906020018083116103dc57829003601f168201915b505050505081565b60095481565b600154600160a060020a031681565b60055481565b60065481565b600a5481565b600754600160a060020a03163314610478576040805160e560020a62461bcd02815260206004820152601160248201526000805160206107d3833981519152604482015290519081900360640190fd5b600180547401000000000000000000000000000000000000000073ffffffffffffffffffffffffffffffffffffffff19909116600160a060020a0386161774ff0000000000000000000000000000000000000000191617905581516104e4906008906020850190610737565b50600a555050565b600754600160a060020a0316331461053c576040805160e560020a62461bcd02815260206004820152601160248201526000805160206107d3833981519152604482015290519081900360640190fd5b600154600160a060020a0316ff5b600054600160a060020a031681565b600754600160a060020a031633146105a9576040805160e560020a62461bcd02815260206004820152601160248201526000805160206107d3833981519152604482015290519081900360640190fd5b600054600160a060020a0316ff5b6004805460408051602060026001851615610100026000190190941693909304601f810184900484028201840190925281815292918301828280156103f95780601f106103ce576101008083540402835291602001916103f9565b600154600160a060020a03163314610662576040805160e560020a62461bcd02815260206004820152601160248201526000805160206107d3833981519152604482015290519081900360640190fd5b6001805474ffffffffffffffffffffffffffffffffffffffffff191690556005546040516000916004900480156108fc029183818181858288f193505050501580156106b2573d6000803e3d6000fd5b50565b60035481565b6008805460408051602060026001851615610100026000190190941693909304601f810184900484028201840190925281815292918301828280156103f95780601f106103ce576101008083540402835291602001916103f9565b60015474010000000000000000000000000000000000000000900460ff1681565b828054600181600116156101000203166002900490600052602060002090601f016020900481019282601f1061077857805160ff19168380011785556107a5565b828001600101855582156107a5579182015b828111156107a557825182559160200191906001019061078a565b506107b19291506107b5565b5090565b6107cf91905b808211156107b157600081556001016107bb565b9056fe7065726d697373696f6e2064656e696564000000000000000000000000000000a165627a7a72305820c68a30bf7408373ad1cac4865472dc978e7fa0a1fc0e6ce1382c3d827c0b0b5f0029",
  "source": "pragma solidity ^0.5.0;\n\ncontract Task {\n\n    // BUYER & SELLER\n    address payable public buyer;\n    address payable public seller;\n\n    // LOCKED STATUS\n    bool public locked = false;\n\n    // SPECIFICATIONS\n    string public name;\n    uint public reputation;\n    string public encryption;\n    uint public reward;\n\n    // CREATED TIMESTAMP\n    uint256 public created;\n\n    // TASK MANAGER REFERENCE\n    address task_manager;\n\n    // ASSIGNED DEVICE & RELEVANT INDEXES\n    string public device;\n    uint public task_index;\n    uint public device_index;\n\n    // WHEN CREATED\n    constructor(\n        address payable _buyer,\n        string memory _name,\n        uint _reputation,\n        string memory _encryption,\n        uint _index\n    ) public payable {\n\n        // SET TASK OWNER\n        buyer = _buyer;\n\n        // SET STATIC TASK PARAMS\n        name = _name;\n        reputation = _reputation;\n        encryption = _encryption;\n        reward = msg.value;\n\n        // SET LISTED TASK INDEX & CREATED TIMESTAMP\n        task_index = _index;\n        created = block.timestamp;\n\n        // TASK MANAGER REFERENCE\n        task_manager = msg.sender;\n    }\n\n    // ACCEPT TASK\n    function accept(\n        address payable _seller,\n        string memory _device,\n        uint _index\n    ) public payable {\n\n        // IF THE SENDER IS THE TASK MANAGER\n        require(msg.sender == task_manager, 'permission denied');\n\n        // SET SELLER & LOCK THE TASK\n        seller = _seller;\n        locked = true;\n\n        // SET PERFORMING DEVICE & LISTED INDEX\n        device = _device;\n        device_index = _index;\n    }\n\n    // UNLOCK TASK\n    function unlock() public {\n\n        // IF THE SENDER IS THE SELLER\n        require(msg.sender == seller, 'permission denied');\n\n        // UNLOCK THE TASK & RESET SELLER\n        locked = false;\n        seller = 0x0000000000000000000000000000000000000000;\n\n        // TRANSFER 25% OF THE REWARD BACK\n        seller.transfer(reward / 4);\n    }\n\n    // COMPLETE THE TASK\n    function complete() public {\n\n        // IF THE SENDER IS THE TASK MANAGER\n        require(msg.sender == task_manager, 'permission denied');\n\n        // SELF DESTRUCT & TRANSFER FUNDS TO THE SELLER\n        selfdestruct(seller);\n    }\n\n    // RELEASE THE TASK\n    function release() public {\n\n        // IF THE SENDER IS THE TASK MANAGER\n        require(msg.sender == task_manager, 'permission denied');\n\n        // SELF DESTRUCT & TRANSFER FUNDS TO THE BUYER\n        selfdestruct(buyer);\n    }\n}",
  "sourcePath": "/home/bdalab/wickstjo/eth-contracts/contracts/task/Task.sol",
  "compiler": {
    "name": "solc",
    "version": "0.5.0+commit.1d4f565a.Emscripten.clang"
  },
  "schemaVersion": "3.0.9",
  "updatedAt": "2019-11-21T09:36:25.656Z",
  "devdoc": {
    "methods": {}
  },
  "userdoc": {
    "methods": {}
  }
}