{
  "contractName": "TaskManager",
  "abi": [
    {
      "constant": true,
      "inputs": [
        {
          "name": "",
          "type": "uint256"
        }
      ],
      "name": "open_tasks",
      "outputs": [
        {
          "name": "",
          "type": "address"
        }
      ],
      "payable": false,
      "stateMutability": "view",
      "type": "function"
    },
    {
      "constant": true,
      "inputs": [
        {
          "name": "_task",
          "type": "address"
        }
      ],
      "name": "exists",
      "outputs": [
        {
          "name": "",
          "type": "bool"
        }
      ],
      "payable": false,
      "stateMutability": "view",
      "type": "function"
    },
    {
      "constant": true,
      "inputs": [],
      "name": "fetch_open",
      "outputs": [
        {
          "name": "",
          "type": "address[]"
        }
      ],
      "payable": false,
      "stateMutability": "view",
      "type": "function"
    },
    {
      "constant": true,
      "inputs": [
        {
          "name": "_task",
          "type": "address"
        }
      ],
      "name": "fetch_task",
      "outputs": [
        {
          "name": "",
          "type": "address"
        }
      ],
      "payable": false,
      "stateMutability": "view",
      "type": "function"
    },
    {
      "constant": false,
      "inputs": [
        {
          "name": "name",
          "type": "string"
        },
        {
          "name": "reputation",
          "type": "uint256"
        },
        {
          "name": "encryption",
          "type": "string"
        }
      ],
      "name": "add_task",
      "outputs": [],
      "payable": true,
      "stateMutability": "payable",
      "type": "function"
    },
    {
      "constant": false,
      "inputs": [
        {
          "name": "_task",
          "type": "address"
        },
        {
          "name": "_device",
          "type": "string"
        }
      ],
      "name": "accept_task",
      "outputs": [],
      "payable": true,
      "stateMutability": "payable",
      "type": "function"
    },
    {
      "constant": false,
      "inputs": [
        {
          "name": "_task",
          "type": "address"
        },
        {
          "name": "_ipfs",
          "type": "string"
        },
        {
          "name": "_key",
          "type": "string"
        }
      ],
      "name": "submit_result",
      "outputs": [],
      "payable": false,
      "stateMutability": "nonpayable",
      "type": "function"
    },
    {
      "constant": false,
      "inputs": [
        {
          "name": "_task",
          "type": "address"
        }
      ],
      "name": "release_task",
      "outputs": [],
      "payable": false,
      "stateMutability": "nonpayable",
      "type": "function"
    },
    {
      "constant": false,
      "inputs": [
        {
          "name": "_user_manager",
          "type": "address"
        },
        {
          "name": "_device_manager",
          "type": "address"
        }
      ],
      "name": "init",
      "outputs": [],
      "payable": false,
      "stateMutability": "nonpayable",
      "type": "function"
    }
  ],
  "bytecode": "0x60806040526113886002556003805460ff1916905534801561002057600080fd5b50612e8b806100306000396000f3fe608060405260043610620000925760003560e01c8063d295c9941162000061578063d295c994146200030e578063d91cf5de146200045e578063f09a401614620004c8578063f6a3d24e1462000507578063f772282c14620005525762000092565b806322fb319c146200009757806362ead34b14620001535780637168f509146200018a578063abb315a914620001d4575b600080fd5b6200015160048036036040811015620000af57600080fd5b6001600160a01b038235169190810190604081016020820135600160201b811115620000da57600080fd5b820183602082011115620000ed57600080fd5b803590602001918460018302840111600160201b831117156200010f57600080fd5b91908080601f01602080910402602001604051908101604052809392919081815260200183838082843760009201919091525092955062000589945050505050565b005b3480156200016057600080fd5b5062000151600480360360208110156200017957600080fd5b50356001600160a01b0316620010d1565b3480156200019757600080fd5b50620001b860048036036020811015620001b057600080fd5b5035620016c2565b604080516001600160a01b039092168252519081900360200190f35b6200015160048036036060811015620001ec57600080fd5b810190602081018135600160201b8111156200020757600080fd5b8201836020820111156200021a57600080fd5b803590602001918460018302840111600160201b831117156200023c57600080fd5b91908080601f01602080910402602001604051908101604052809392919081815260200183838082843760009201919091525092958435959094909350604081019250602001359050600160201b8111156200029757600080fd5b820183602082011115620002aa57600080fd5b803590602001918460018302840111600160201b83111715620002cc57600080fd5b91908080601f016020809104026020016040519081016040528093929190818152602001838380828437600092019190915250929550620016ea945050505050565b3480156200031b57600080fd5b5062000151600480360360608110156200033457600080fd5b6001600160a01b038235169190810190604081016020820135600160201b8111156200035f57600080fd5b8201836020820111156200037257600080fd5b803590602001918460018302840111600160201b831117156200039457600080fd5b91908080601f0160208091040260200160405190810160405280939291908181526020018383808284376000920191909152509295949360208101935035915050600160201b811115620003e757600080fd5b820183602082011115620003fa57600080fd5b803590602001918460018302840111600160201b831117156200041c57600080fd5b91908080601f016020809104026020016040519081016040528093929190818152602001838380828437600092019190915250929550620019a7945050505050565b3480156200046b57600080fd5b506200047662002296565b60408051602080825283518183015283519192839290830191858101910280838360005b83811015620004b45781810151838201526020016200049a565b505050509050019250505060405180910390f35b348015620004d557600080fd5b506200015160048036036040811015620004ee57600080fd5b506001600160a01b0381358116916020013516620022fa565b3480156200051457600080fd5b506200053e600480360360208110156200052d57600080fd5b50356001600160a01b031662002383565b604080519115158252519081900360200190f35b3480156200055f57600080fd5b50620001b8600480360360208110156200057857600080fd5b50356001600160a01b0316620023b8565b620005948262002383565b620005e25760408051600160e51b62461bcd02815260206004820152601360248201526001606a1b721d185cdac8191bd95cc81b9bdd08195e1a5cdd02604482015290519081900360640190fd5b60048054604051600160e11b63130d191f02815260209281018381528451602483015284516001600160a01b039093169363261a323e93869383926044909101919085019080838360005b83811015620006475781810151838201526020016200062d565b50505050905090810190601f168015620006755780820380516001836020036101000a031916815260200191505b509250505060206040518083038186803b1580156200069357600080fd5b505afa158015620006a8573d6000803e3d6000fd5b505050506040513d6020811015620006bf57600080fd5b5051620007165760408051600160e51b62461bcd02815260206004820152601560248201527f64657669636520646f6573206e6f742065786973740000000000000000000000604482015290519081900360640190fd5b60006200072383620023b8565b9050806001600160a01b031663cf3090126040518163ffffffff1660e01b815260040160206040518083038186803b1580156200075f57600080fd5b505afa15801562000774573d6000803e3d6000fd5b505050506040513d60208110156200078b57600080fd5b505115620007e35760408051600160e51b62461bcd02815260206004820152600e60248201527f7461736b206973206c6f636b6564000000000000000000000000000000000000604482015290519081900360640190fd5b6002816001600160a01b031663228cb7336040518163ffffffff1660e01b815260040160206040518083038186803b1580156200081f57600080fd5b505afa15801562000834573d6000803e3d6000fd5b505050506040513d60208110156200084b57600080fd5b5051816200085557fe5b04341015620008ae5760408051600160e51b62461bcd02815260206004820152601860248201527f696e73756666696369656e742066756e647320676976656e0000000000000000604482015290519081900360640190fd5b60035460408051600160e11b637b51e92702815233600482015290516101009092046001600160a01b03169163f6a3d24e91602480820192602092909190829003018186803b1580156200090157600080fd5b505afa15801562000916573d6000803e3d6000fd5b505050506040513d60208110156200092d57600080fd5b5051620009845760408051600160e51b62461bcd02815260206004820152601d60248201527f796f7520617265206e6f74206120726567697374657265642075736572000000604482015290519081900360640190fd5b806001600160a01b0316632a960fa76040518163ffffffff1660e01b815260040160206040518083038186803b158015620009be57600080fd5b505afa158015620009d3573d6000803e3d6000fd5b505050506040513d6020811015620009ea57600080fd5b505160035460408051600160e01b631f0df17f02815233600482015290516101009092046001600160a01b031691631f0df17f91602480820192602092909190829003018186803b15801562000a3f57600080fd5b505afa15801562000a54573d6000803e3d6000fd5b505050506040513d602081101562000a6b57600080fd5b505160408051600160e11b636290b26302815290516001600160a01b039092169163c52164c691600480820192602092909190829003018186803b15801562000ab357600080fd5b505afa15801562000ac8573d6000803e3d6000fd5b505050506040513d602081101562000adf57600080fd5b5051101562000b385760408051600160e51b62461bcd02815260206004820152601560248201527f6e6f7420656e6f7567682072657075746174696f6e0000000000000000000000604482015290519081900360640190fd5b60048054604051600160e11b6371d27c93028152602092810183815285516024830152855133946001600160a01b039094169363e3a4f92693889392839260449092019185019080838360005b8381101562000b9f57818101518382015260200162000b85565b50505050905090810190601f16801562000bcd5780820380516001836020036101000a031916815260200191505b509250505060206040518083038186803b15801562000beb57600080fd5b505afa15801562000c00573d6000803e3d6000fd5b505050506040513d602081101562000c1757600080fd5b505160408051600160e01b638da5cb5b02815290516001600160a01b0390921691638da5cb5b91600480820192602092909190829003018186803b15801562000c5f57600080fd5b505afa15801562000c74573d6000803e3d6000fd5b505050506040513d602081101562000c8b57600080fd5b50516001600160a01b03161462000cec5760408051600160e51b62461bcd02815260206004820152601c60248201527f796f7520617265206e6f742074686520646576696365206f776e657200000000604482015290519081900360640190fd5b60048054604051600160e11b6371d27c9302815260209281018381528551602483015285516000946001600160a01b039094169363e3a4f9269388939283926044909201918501908083838b5b8381101562000d5357818101518382015260200162000d39565b50505050905090810190601f16801562000d815780820380516001836020036101000a031916815260200191505b509250505060206040518083038186803b15801562000d9f57600080fd5b505afa15801562000db4573d6000803e3d6000fd5b505050506040513d602081101562000dcb57600080fd5b505160408051600160e01b63e7869fad02815290516001600160a01b039092169163e7869fad91600480820192600092909190829003018186803b15801562000e1357600080fd5b505afa15801562000e28573d6000803e3d6000fd5b505050506040513d6000823e601f3d908101601f19168201604052602081101562000e5257600080fd5b810190808051600160201b81111562000e6a57600080fd5b8201602081018481111562000e7e57600080fd5b81518560208202830111600160201b8211171562000e9b57600080fd5b505051604051600160e01b63c2f0d82d0281523360048201818152604483018490526060602484019081528a5160648501528a519498506001600160a01b038a16975063c2f0d82d965034955091938a93899391608490910190602086019080838360005b8381101562000f1a57818101518382015260200162000f00565b50505050905090810190601f16801562000f485780820380516001836020036101000a031916815260200191505b509450505050506000604051808303818588803b15801562000f6957600080fd5b505af115801562000f7e573d6000803e3d6000fd5b505060048054604051600160e11b6371d27c9302815260209281018381528951602483015289516001600160a01b03909316965063e3a4f92695508994509283926044909201919085019080838360005b8381101562000fe957818101518382015260200162000fcf565b50505050905090810190601f168015620010175780820380516001836020036101000a031916815260200191505b509250505060206040518083038186803b1580156200103557600080fd5b505afa1580156200104a573d6000803e3d6000fd5b505050506040513d60208110156200106157600080fd5b505160408051600160e01b63176e82850281526001600160a01b0387811660048301529151919092169163176e828591602480830192600092919082900301818387803b158015620010b257600080fd5b505af1158015620010c7573d6000803e3d6000fd5b5050505050505050565b620010dc8162002383565b6200112a5760408051600160e51b62461bcd02815260206004820152601360248201526001606a1b721d185cdac8191bd95cc81b9bdd08195e1a5cdd02604482015290519081900360640190fd5b60006200113782620023b8565b9050336001600160a01b0316816001600160a01b03166302d05d3f6040518163ffffffff1660e01b815260040160206040518083038186803b1580156200117d57600080fd5b505afa15801562001192573d6000803e3d6000fd5b505050506040513d6020811015620011a957600080fd5b50516001600160a01b0316146200120a5760408051600160e51b62461bcd02815260206004820152601760248201527f796f7520617265206e6f74207468652063726561746f72000000000000000000604482015290519081900360640190fd5b806001600160a01b031663cf3090126040518163ffffffff1660e01b815260040160206040518083038186803b1580156200124457600080fd5b505afa15801562001259573d6000803e3d6000fd5b505050506040513d60208110156200127057600080fd5b50511580620012e95750600254816001600160a01b031663325a19f16040518163ffffffff1660e01b815260040160206040518083038186803b158015620012b757600080fd5b505afa158015620012cc573d6000803e3d6000fd5b505050506040513d6020811015620012e357600080fd5b50510142115b15620016be576001816001600160a01b031663074110526040518163ffffffff1660e01b815260040160206040518083038186803b1580156200132b57600080fd5b505afa15801562001340573d6000803e3d6000fd5b505050506040513d60208110156200135757600080fd5b5051815481106200136457fe5b6000918252602082200180546001600160a01b031916905560408051600160e21b6338608bcd02815290516001600160a01b0384169263e1822f34926004808201939182900301818387803b158015620013bd57600080fd5b505af1158015620013d2573d6000803e3d6000fd5b50505050600254816001600160a01b031663325a19f16040518163ffffffff1660e01b815260040160206040518083038186803b1580156200141357600080fd5b505afa15801562001428573d6000803e3d6000fd5b505050506040513d60208110156200143f57600080fd5b505101421115620016be576004805460408051600160e41b630c6326dd02815290516001600160a01b039283169363e3a4f9269386169263c6326dd09281830192600092829003018186803b1580156200149857600080fd5b505afa158015620014ad573d6000803e3d6000fd5b505050506040513d6000823e601f3d908101601f191682016040526020811015620014d757600080fd5b810190808051600160201b811115620014ef57600080fd5b820160208101848111156200150357600080fd5b8151600160201b8111828201871017156200151d57600080fd5b505060405163ffffffff861660e01b815260206004820181815283516024840152835193965094508493506044909101919085019080838360005b838110156200157257818101518382015260200162001558565b50505050905090810190601f168015620015a05780820380516001836020036101000a031916815260200191505b509250505060206040518083038186803b158015620015be57600080fd5b505afa158015620015d3573d6000803e3d6000fd5b505050506040513d6020811015620015ea57600080fd5b505160408051600160e01b633bc8b61702815290516001600160a01b039283169263fe32ff4c9290851691633bc8b61791600480820192602092909190829003018186803b1580156200163c57600080fd5b505afa15801562001651573d6000803e3d6000fd5b505050506040513d60208110156200166857600080fd5b50516040805163ffffffff841660e01b8152600481019290925251602480830192600092919082900301818387803b158015620016a457600080fd5b505af1158015620016b9573d6000803e3d6000fd5b505050505b5050565b60018181548110620016d057fe5b6000918252602090912001546001600160a01b0316905081565b60035460ff166200173057604051600160e51b62461bcd02815260040180806020018281038252602381526020018062002e3d6023913960400191505060405180910390fd5b60035460408051600160e11b637b51e92702815233600482015290516101009092046001600160a01b03169163f6a3d24e91602480820192602092909190829003018186803b1580156200178357600080fd5b505afa15801562001798573d6000803e3d6000fd5b505050506040513d6020811015620017af57600080fd5b5051620018065760408051600160e51b62461bcd02815260206004820152601d60248201527f796f7520617265206e6f74206120726567697374657265642075736572000000604482015290519081900360640190fd5b60003433858585600180549050604051620018219062002432565b80866001600160a01b03166001600160a01b031681526020018060200185815260200180602001848152602001838103835287818151815260200191508051906020019080838360005b83811015620018855781810151838201526020016200186b565b50505050905090810190601f168015620018b35780820380516001836020036101000a031916815260200191505b50838103825285518152855160209182019187019080838360005b83811015620018e8578181015183820152602001620018ce565b50505050905090810190601f168015620019165780820380516001836020036101000a031916815260200191505b509750505050505050506040518091039082f0801580156200193c573d6000803e3d6000fd5b506001600160a01b0316600081815260208190526040812080546001600160a01b0319908116841790915560018054808201825592527fb10e2d527612073b26eecdfd717e6a320cf44b4afac2b0732d9fcbe2b7fa0cf6909101805490911690911790555050505050565b620019b28362002383565b62001a005760408051600160e51b62461bcd02815260206004820152601360248201526001606a1b721d185cdac8191bd95cc81b9bdd08195e1a5cdd02604482015290519081900360640190fd5b600062001a0d84620023b8565b9050336001600160a01b0316816001600160a01b03166381bbfb616040518163ffffffff1660e01b815260040160206040518083038186803b15801562001a5357600080fd5b505afa15801562001a68573d6000803e3d6000fd5b505050506040513d602081101562001a7f57600080fd5b50516001600160a01b03161462001ae05760408051600160e51b62461bcd02815260206004820152601960248201527f796f7520617265206e6f74207468652064656c69766572657200000000000000604482015290519081900360640190fd5b600360019054906101000a90046001600160a01b03166001600160a01b0316631f0df17f826001600160a01b03166302d05d3f6040518163ffffffff1660e01b815260040160206040518083038186803b15801562001b3e57600080fd5b505afa15801562001b53573d6000803e3d6000fd5b505050506040513d602081101562001b6a57600080fd5b50516040805163ffffffff841660e01b81526001600160a01b039092166004830152516024808301926020929190829003018186803b15801562001bad57600080fd5b505afa15801562001bc2573d6000803e3d6000fd5b505050506040513d602081101562001bd957600080fd5b505160408051600160e21b630ae29d29028152600481019182528451604482015284516001600160a01b0390931692632b8a74a4928692889282916024810191606490910190602087019080838360005b8381101562001c4457818101518382015260200162001c2a565b50505050905090810190601f16801562001c725780820380516001836020036101000a031916815260200191505b50838103825284518152845160209182019186019080838360005b8381101562001ca757818101518382015260200162001c8d565b50505050905090810190601f16801562001cd55780820380516001836020036101000a031916815260200191505b50945050505050600060405180830381600087803b15801562001cf757600080fd5b505af115801562001d0c573d6000803e3d6000fd5b50505050600360019054906101000a90046001600160a01b03166001600160a01b0316631f0df17f826001600160a01b03166302d05d3f6040518163ffffffff1660e01b815260040160206040518083038186803b15801562001d6e57600080fd5b505afa15801562001d83573d6000803e3d6000fd5b505050506040513d602081101562001d9a57600080fd5b50516040805163ffffffff841660e01b81526001600160a01b039092166004830152516024808301926020929190829003018186803b15801562001ddd57600080fd5b505afa15801562001df2573d6000803e3d6000fd5b505050506040513d602081101562001e0957600080fd5b505160408051600160e21b632a7edd8f0281526001600482015290516001600160a01b039092169163a9fb763c9160248082019260009290919082900301818387803b15801562001e5957600080fd5b505af115801562001e6e573d6000803e3d6000fd5b505060035460408051600160e01b631f0df17f02815233600482015290516101009092046001600160a01b03169350631f0df17f9250602480820192602092909190829003018186803b15801562001ec557600080fd5b505afa15801562001eda573d6000803e3d6000fd5b505050506040513d602081101562001ef157600080fd5b505160408051600160e21b632a7edd8f0281526002600482015290516001600160a01b039092169163a9fb763c9160248082019260009290919082900301818387803b15801562001f4157600080fd5b505af115801562001f56573d6000803e3d6000fd5b505050506001816001600160a01b031663074110526040518163ffffffff1660e01b815260040160206040518083038186803b15801562001f9657600080fd5b505afa15801562001fab573d6000803e3d6000fd5b505050506040513d602081101562001fc257600080fd5b50518154811062001fcf57fe5b6000918252602082200180546001600160a01b03191690556004805460408051600160e41b630c6326dd02815290516001600160a01b039283169463e3a4f926949387169363c6326dd093808201939190829003018186803b1580156200203557600080fd5b505afa1580156200204a573d6000803e3d6000fd5b505050506040513d6000823e601f3d908101601f1916820160405260208110156200207457600080fd5b810190808051600160201b8111156200208c57600080fd5b82016020810184811115620020a057600080fd5b8151600160201b811182820187101715620020ba57600080fd5b505060405163ffffffff861660e01b815260206004820181815283516024840152835193965094508493506044909101919085019080838360005b838110156200210f578181015183820152602001620020f5565b50505050905090810190601f1680156200213d5780820380516001836020036101000a031916815260200191505b509250505060206040518083038186803b1580156200215b57600080fd5b505afa15801562002170573d6000803e3d6000fd5b505050506040513d60208110156200218757600080fd5b505160408051600160e01b633bc8b61702815290516001600160a01b039283169263fe32ff4c9290851691633bc8b61791600480820192602092909190829003018186803b158015620021d957600080fd5b505afa158015620021ee573d6000803e3d6000fd5b505050506040513d60208110156200220557600080fd5b50516040805163ffffffff841660e01b8152600481019290925251602480830192600092919082900301818387803b1580156200224157600080fd5b505af115801562002256573d6000803e3d6000fd5b50505050806001600160a01b031663c76023cf6040518163ffffffff1660e01b8152600401600060405180830381600087803b158015620010b257600080fd5b60606001805480602002602001604051908101604052809291908181526020018280548015620022f057602002820191906000526020600020905b81546001600160a01b03168152600190910190602001808311620022d1575b5050505050905090565b60035460ff16156200234157604051600160e51b62461bcd02815260040180806020018281038252602581526020018062002e186025913960400191505060405180910390fd5b60038054600480546001600160a01b0319166001600160a01b03948516179055610100600160a81b03191661010093909216929092021760ff19166001179055565b6001600160a01b0380821660009081526020819052604081205490911615620023af57506001620023b3565b5060005b919050565b6000620023c58262002383565b620024135760408051600160e51b62461bcd02815260206004820152601360248201526001606a1b721d185cdac8191bd95cc81b9bdd08195e1a5cdd02604482015290519081900360640190fd5b506001600160a01b039081166000908152602081905260409020541690565b6109d780620024418339019056fe608060408190526003805460ff191690556109d738819003908190833981018060405260a081101561003057600080fd5b81516020830180519193928301929164010000000081111561005157600080fd5b8201602081018481111561006457600080fd5b815164010000000081118282018710171561007e57600080fd5b505060208201516040909201805191949293916401000000008111156100a357600080fd5b820160208101848111156100b657600080fd5b81516401000000008111828201871017156100d057600080fd5b5050602091820151600080546001600160a01b0319166001600160a01b038a161790558651919450925061010a916004919087019061014a565b506005839055815161012390600690602085019061014a565b5034600755600a555050426008555050600980546001600160a01b031916331790556101e5565b828054600181600116156101000203166002900490600052602060002090601f016020900481019282601f1061018b57805160ff19168380011785556101b8565b828001600101855582156101b8579182015b828111156101b857825182559160200191906001019061019d565b506101c49291506101c8565b5090565b6101e291905b808211156101c457600081556001016101ce565b90565b6107e3806101f46000396000f3fe6080604052600436106100e85760003560e01c806349511c831161008a578063c76023cf11610059578063c76023cf1461031c578063cf30901214610331578063cf8d1f651461035a578063e1822f341461036f576100e8565b806349511c831461022357806381bbfb611461023a578063c2f0d82d1461024f578063c6326dd014610307576100e8565b8063228cb733116100c6578063228cb733146101cf5780632a960fa7146101e4578063325a19f1146101f95780633bc8b6171461020e576100e8565b806302d05d3f146100ed57806306fdde031461011e57806307411052146101a8575b600080fd5b3480156100f957600080fd5b50610102610384565b604080516001600160a01b039092168252519081900360200190f35b34801561012a57600080fd5b50610133610393565b6040805160208082528351818301528351919283929083019185019080838360005b8381101561016d578181015183820152602001610155565b50505050905090810190601f16801561019a5780820380516001836020036101000a031916815260200191505b509250505060405180910390f35b3480156101b457600080fd5b506101bd610421565b60408051918252519081900360200190f35b3480156101db57600080fd5b506101bd610427565b3480156101f057600080fd5b506101bd61042d565b34801561020557600080fd5b506101bd610433565b34801561021a57600080fd5b506101bd610439565b34801561022f57600080fd5b5061023861043f565b005b34801561024657600080fd5b506101026104e7565b6102386004803603606081101561026557600080fd5b6001600160a01b03823516919081019060408101602082013564010000000081111561029057600080fd5b8201836020820111156102a257600080fd5b803590602001918460018302840111640100000000831117156102c457600080fd5b91908080601f01602080910402602001604051908101604052809392919081815260200183838082843760009201919091525092955050913592506104f6915050565b34801561031357600080fd5b50610133610592565b34801561032857600080fd5b506102386105ea565b34801561033d57600080fd5b50610346610651565b604080519115158252519081900360200190f35b34801561036657600080fd5b5061013361065a565b34801561037b57600080fd5b506102386106b5565b6000546001600160a01b031681565b6004805460408051602060026001851615610100026000190190941693909304601f810184900484028201840190925281815292918301828280156104195780601f106103ee57610100808354040283529160200191610419565b820191906000526020600020905b8154815290600101906020018083116103fc57829003601f168201915b505050505081565b600a5481565b60075481565b60055481565b60085481565b600b5481565b6001546001600160a01b031633146104985760408051600160e51b62461bcd02815260206004820152601160248201526001607a1b701c195c9b5a5cdcda5bdb8819195b9a595902604482015290519081900360640190fd5b6003805460ff19169055600180546001600160a01b03191690556007546040516000916004900480156108fc029183818181858288f193505050501580156104e4573d6000803e3d6000fd5b50565b6001546001600160a01b031681565b6009546001600160a01b0316331461054f5760408051600160e51b62461bcd02815260206004820152601160248201526001607a1b701c195c9b5a5cdcda5bdb8819195b9a595902604482015290519081900360640190fd5b600180546001600160a01b0319166001600160a01b0385161781556003805460ff19169091179055815161058a90600290602085019061071c565b50600b555050565b6002805460408051602060018416156101000260001901909316849004601f810184900484028201840190925281815292918301828280156104195780601f106103ee57610100808354040283529160200191610419565b6009546001600160a01b031633146106435760408051600160e51b62461bcd02815260206004820152601160248201526001607a1b701c195c9b5a5cdcda5bdb8819195b9a595902604482015290519081900360640190fd5b6001546001600160a01b0316ff5b60035460ff1681565b6006805460408051602060026001851615610100026000190190941693909304601f810184900484028201840190925281815292918301828280156104195780601f106103ee57610100808354040283529160200191610419565b6009546001600160a01b0316331461070e5760408051600160e51b62461bcd02815260206004820152601160248201526001607a1b701c195c9b5a5cdcda5bdb8819195b9a595902604482015290519081900360640190fd5b6000546001600160a01b0316ff5b828054600181600116156101000203166002900490600052602060002090601f016020900481019282601f1061075d57805160ff191683800117855561078a565b8280016001018555821561078a579182015b8281111561078a57825182559160200191906001019061076f565b5061079692915061079a565b5090565b6107b491905b8082111561079657600081556001016107a0565b9056fea165627a7a72305820da094391f6bc091b8faba7a4cbbdd396e522703847b1cc325558fba044221d030029636f6e74726163742068617320616c7265616479206265656e20696e697469616c697a6564636f6e7472616374732068617665206e6f74206265656e20696e697469616c697a6564a165627a7a7230582074053a6e69fb338102e500217cc553e213c9ed5f01b031e1786b96d3f60386490029",
  "source": "pragma solidity ^0.5.0;\n\n// IMPORT INTERFACES\nimport { Task } from './Task.sol';\nimport { UserManager } from '../user/Manager.sol';\nimport { DeviceManager } from '../device/Manager.sol';\n\ncontract TaskManager {\n\n    // MAP OF UNIQUE TASKS, [TASK ADDRESS => TASK CONTRACT]\n    mapping (address => Task) tasks;\n\n    // ALL CURRENTLY OPEN TASKS\n    Task[] public open_tasks;\n\n    // TIME LIMIT FOR TASK\n    uint limit = 5000;\n\n    // INIT STATUS\n    bool initialized = false;\n\n    // REFERENCES\n    UserManager user_manager;\n    DeviceManager device_manager;\n\n    // CHECK IF TASK EXISTS\n    function exists(address _task) public view returns(bool) {\n        if (address(tasks[_task]) != 0x0000000000000000000000000000000000000000) {\n            return true;\n        } else {\n            return false;\n        }\n    }\n\n    // FETCH ALL OPEN TASKS\n    function fetch_open() public view returns(Task[] memory) {\n        return open_tasks;\n    }\n\n    // FETCH TASK\n    function fetch_task(address _task) public view returns(Task) {\n\n        // IF THE TASK EXISTS\n        require(exists(_task), 'task does not exist');\n        return tasks[_task];\n    }\n\n    // ADD TASK\n    function add_task(\n        string memory name,\n        uint reputation,\n        string memory encryption\n    ) public payable {\n\n        // IF CONTRACT HAS BEEN INITIALIZED\n        // SENDER IS A REGISTERED USER\n        // USER HAS ENOUGH TOKENS\n        require(initialized, 'contracts have not been initialized');\n        require(user_manager.exists(msg.sender), 'you are not a registered user');\n\n        // INSTANTIATE NEW TASK\n        Task task = (new Task).value(msg.value)(\n            msg.sender,\n            name,\n            reputation,\n            encryption,\n            open_tasks.length\n        );\n\n        // ADD HASHMAP ENTRY & LIST IT\n        tasks[address(task)] = task;\n        open_tasks.push(task);\n    }\n\n    // ACCEPT TASK\n    function accept_task(\n        address _task,\n        string memory _device\n    ) public payable {\n\n        // IF THE TASK EXISTS\n        // IF THE DEVICE EXISTS\n        require(exists(_task), 'task does not exist');\n        require(device_manager.exists(_device), 'device does not exist');\n\n        // SHORTHAND\n        Task task = fetch_task(_task);\n\n        // IF THE TASK IS NOT LOCKED\n        require(!task.locked(), 'task is locked');\n        require(msg.value >= task.reward() / 2, 'insufficient funds given');\n\n        // IF THE USER IS REGISTERED\n        // IF THE USER HAS ENOUGH REPUTATION\n        require(user_manager.exists(msg.sender), 'you are not a registered user');\n        require(user_manager.fetch_user(msg.sender).reputation() >= task.min_reputation(), 'not enough reputation');\n\n        // IF THE SENDER IS THE DEVICE OWNER\n        require(device_manager.fetch_device(_device).owner() == msg.sender, 'you are not the device owner');\n\n        // CURRENT ASSIGNMENT BACKLOG LENGTH\n        uint length = device_manager.fetch_device(_device).fetch_backlog().length;\n\n        // ACCEPT THE TASK & FORWARD THE FUNDS\n        task.accept_task.value(msg.value)(msg.sender, _device, length);\n\n        // ASSIGN TASK TO THE DEVICE\n        device_manager.fetch_device(_device).assign_task(_task);\n    }\n\n    // SUBMIT TASK RESULT\n    function submit_result(\n        address _task,\n        string memory _ipfs,\n        string memory _key\n    ) public {\n\n        // IF THE TASK EXISTS\n        require(exists(_task), 'task does not exist');\n\n        // SHORTHAND\n        Task task = fetch_task(_task);\n\n        // IF THE SENDER IS THE SELLER\n        require(task.deliverer() == msg.sender, 'you are not the deliverer');\n\n        // SEND THE RESULT TO THE BUYERS USER CONTRACT\n        user_manager.fetch_user(task.creator()).add_result(_key, _ipfs);\n\n        // REWARD BOTH PARTIES WITH REPUTATION\n        user_manager.fetch_user(task.creator()).reward(1);\n        user_manager.fetch_user(msg.sender).reward(2);\n\n        // UNLIST FROM OPEN TASKS & DEVICE BACKLOG\n        delete open_tasks[task.task_index()];\n        device_manager.fetch_device(task.device()).clear_task(task.device_index());\n\n        // SELF DESTRUCT TASK\n        task.complete_task();\n    }\n\n    // RELEASE THE TASK\n    function release_task(address _task) public {\n\n        // IF THE TASK EXISTS\n        require(exists(_task), 'task does not exist');\n\n        // SHORTHAND\n        Task task = fetch_task(_task);\n\n        // IF THE SENDER IS THE BUYER\n        require(task.creator() == msg.sender, 'you are not the creator');\n\n        // IF THE TASK IS LOCKED OR THE TIME LIMIT HAS BEEN EXCEEDED\n        if (!task.locked() || block.timestamp > task.created() + limit) {\n\n            // UNLIST & DESTROY THE TASK\n            delete open_tasks[task.task_index()];\n            task.release_task();\n\n            // IF THE TIME LIMIT WAS EXCEEDE\n            if (block.timestamp > task.created() + limit) {\n\n                // UNLIST FROM DEVICE BACKLOG\n                device_manager.fetch_device(task.device()).clear_task(task.device_index());\n            }\n        }\n    }\n\n    // INITIALIZE\n    function init(\n        address _user_manager,\n        address _device_manager\n    ) public {\n\n        // IF THE CONTRACT HAS NOT BEEN INITIALIZED\n        require(!initialized, 'contract has already been initialized');\n\n        // SET REFERENCES\n        user_manager = UserManager(_user_manager);\n        device_manager = DeviceManager(_device_manager);\n\n        // BLOCK FURTHER MODIFICATION\n        initialized = true;\n    }\n}",
  "sourcePath": "C:/Users/35840/Desktop/coding/node/eth-contracts/contracts/task/Manager.sol",
  "compiler": {
    "name": "solc",
    "version": "0.5.8+commit.23d335f2.Emscripten.clang"
  },
  "schemaVersion": "3.0.17",
  "updatedAt": "2019-12-09T18:43:24.370Z",
  "networkType": "ethereum",
  "devdoc": {
    "methods": {}
  },
  "userdoc": {
    "methods": {}
  }
}