{
  "contractName": "TaskManager",
  "abi": [
    {
      "constant": true,
      "inputs": [
        {
          "name": "",
          "type": "uint256"
        }
      ],
      "name": "open",
      "outputs": [
        {
          "name": "",
          "type": "address"
        }
      ],
      "payable": false,
      "stateMutability": "view",
      "type": "function"
    },
    {
      "constant": true,
      "inputs": [
        {
          "name": "_task",
          "type": "address"
        }
      ],
      "name": "exists",
      "outputs": [
        {
          "name": "",
          "type": "bool"
        }
      ],
      "payable": false,
      "stateMutability": "view",
      "type": "function"
    },
    {
      "constant": false,
      "inputs": [
        {
          "name": "name",
          "type": "string"
        },
        {
          "name": "reputation",
          "type": "uint256"
        },
        {
          "name": "encryption",
          "type": "string"
        }
      ],
      "name": "add",
      "outputs": [],
      "payable": true,
      "stateMutability": "payable",
      "type": "function"
    },
    {
      "constant": true,
      "inputs": [
        {
          "name": "_task",
          "type": "address"
        }
      ],
      "name": "fetch",
      "outputs": [
        {
          "name": "",
          "type": "address"
        }
      ],
      "payable": false,
      "stateMutability": "view",
      "type": "function"
    },
    {
      "constant": false,
      "inputs": [
        {
          "name": "_task",
          "type": "address"
        },
        {
          "name": "_device",
          "type": "string"
        }
      ],
      "name": "accept",
      "outputs": [],
      "payable": true,
      "stateMutability": "payable",
      "type": "function"
    },
    {
      "constant": false,
      "inputs": [
        {
          "name": "_task",
          "type": "address"
        },
        {
          "name": "_ipfs",
          "type": "string"
        },
        {
          "name": "_key",
          "type": "string"
        }
      ],
      "name": "submit",
      "outputs": [],
      "payable": false,
      "stateMutability": "nonpayable",
      "type": "function"
    },
    {
      "constant": false,
      "inputs": [
        {
          "name": "_task",
          "type": "address"
        }
      ],
      "name": "release",
      "outputs": [],
      "payable": false,
      "stateMutability": "nonpayable",
      "type": "function"
    },
    {
      "constant": false,
      "inputs": [
        {
          "name": "_user_manager",
          "type": "address"
        },
        {
          "name": "_device_manager",
          "type": "address"
        },
        {
          "name": "_token_manager",
          "type": "address"
        }
      ],
      "name": "init",
      "outputs": [],
      "payable": false,
      "stateMutability": "nonpayable",
      "type": "function"
    }
  ],
  "bytecode": "0x60806040526113886002556003805460ff1916905534801561002057600080fd5b50612a11806100306000396000f3fe6080604052600436106200007d5763ffffffff60e060020a600035041663184b95598114620000825780631880724014620000cd5780631916558714620001895780634f15e54714620001c0578063690e7c0914620002fe578063f109a0be1462000348578063f4b86b72146200037f578063f6a3d24e14620004d3575b600080fd5b3480156200008f57600080fd5b50620000cb60048036036060811015620000a857600080fd5b50600160a060020a0381358116916020810135821691604090910135166200051e565b005b620000cb60048036036040811015620000e557600080fd5b600160a060020a0382351691908101906040810160208201356401000000008111156200011157600080fd5b8201836020820111156200012457600080fd5b803590602001918460018302840111640100000000831117156200014757600080fd5b91908080601f01602080910402602001604051908101604052809392919081815260200183838082843760009201919091525092955062000610945050505050565b3480156200019657600080fd5b50620000cb60048036036020811015620001af57600080fd5b5035600160a060020a0316620011cb565b620000cb60048036036060811015620001d857600080fd5b810190602081018135640100000000811115620001f457600080fd5b8201836020820111156200020757600080fd5b803590602001918460018302840111640100000000831117156200022a57600080fd5b91908080601f016020809104026020016040519081016040528093929190818152602001838380828437600092019190915250929584359590949093506040810192506020013590506401000000008111156200028657600080fd5b8201836020820111156200029957600080fd5b80359060200191846001830284011164010000000083111715620002bc57600080fd5b91908080601f016020809104026020016040519081016040528093929190818152602001838380828437600092019190915250929550620014fc945050505050565b3480156200030b57600080fd5b506200032c600480360360208110156200032457600080fd5b503562001987565b60408051600160a060020a039092168252519081900360200190f35b3480156200035557600080fd5b506200032c600480360360208110156200036e57600080fd5b5035600160a060020a0316620019b0565b3480156200038c57600080fd5b50620000cb60048036036060811015620003a557600080fd5b600160a060020a038235169190810190604081016020820135640100000000811115620003d157600080fd5b820183602082011115620003e457600080fd5b803590602001918460018302840111640100000000831117156200040757600080fd5b91908080601f01602080910402602001604051908101604052809392919081815260200183838082843760009201919091525092959493602081019350359150506401000000008111156200045b57600080fd5b8201836020820111156200046e57600080fd5b803590602001918460018302840111640100000000831117156200049157600080fd5b91908080601f01602080910402602001604051908101604052809392919081815260200183838082843760009201919091525092955062001a25945050505050565b348015620004e057600080fd5b506200050a60048036036020811015620004f957600080fd5b5035600160a060020a03166200214a565b604080519115158252519081900360200190f35b60035460ff1615620005a0576040805160e560020a62461bcd02815260206004820152602560248201527f636f6e74726163742068617320616c7265616479206265656e20696e6974696160448201527f6c697a6564000000000000000000000000000000000000000000000000000000606482015290519081900360840190fd5b6003805460048054600160a060020a0395861673ffffffffffffffffffffffffffffffffffffffff199182161790915560058054948616949091169390931790925560ff19929093166101000274ffffffffffffffffffffffffffffffffffffffff001990911617166001179055565b6200061b826200214a565b151562000661576040805160e560020a62461bcd0281526020600482015260136024820152600080516020620029c6833981519152604482015290519081900360640190fd5b600480546040517f261a323e0000000000000000000000000000000000000000000000000000000081526020928101838152845160248301528451600160a060020a039093169363261a323e93869383926044909101919085019080838360005b83811015620006dc578181015183820152602001620006c2565b50505050905090810190601f1680156200070a5780820380516001836020036101000a031916815260200191505b509250505060206040518083038186803b1580156200072857600080fd5b505afa1580156200073d573d6000803e3d6000fd5b505050506040513d60208110156200075457600080fd5b50511515620007ad576040805160e560020a62461bcd02815260206004820152601560248201527f64657669636520646f6573206e6f742065786973740000000000000000000000604482015290519081900360640190fd5b6000620007ba83620019b0565b905080600160a060020a031663cf3090126040518163ffffffff1660e060020a02815260040160206040518083038186803b158015620007f957600080fd5b505afa1580156200080e573d6000803e3d6000fd5b505050506040513d60208110156200082557600080fd5b5051156200087d576040805160e560020a62461bcd02815260206004820152600e60248201527f7461736b206973206c6f636b6564000000000000000000000000000000000000604482015290519081900360640190fd5b600281600160a060020a031663228cb7336040518163ffffffff1660e060020a02815260040160206040518083038186803b158015620008bc57600080fd5b505afa158015620008d1573d6000803e3d6000fd5b505050506040513d6020811015620008e857600080fd5b5051811515620008f457fe5b043410156200094d576040805160e560020a62461bcd02815260206004820152601860248201527f696e73756666696369656e742066756e647320676976656e0000000000000000604482015290519081900360640190fd5b600354604080517ff6a3d24e0000000000000000000000000000000000000000000000000000000081523360048201529051610100909204600160a060020a03169163f6a3d24e91602480820192602092909190829003018186803b158015620009b657600080fd5b505afa158015620009cb573d6000803e3d6000fd5b505050506040513d6020811015620009e257600080fd5b5051151562000a3b576040805160e560020a62461bcd02815260206004820152601d60248201527f796f7520617265206e6f74206120726567697374657265642075736572000000604482015290519081900360640190fd5b80600160a060020a031663c52164c66040518163ffffffff1660e060020a02815260040160206040518083038186803b15801562000a7857600080fd5b505afa15801562000a8d573d6000803e3d6000fd5b505050506040513d602081101562000aa457600080fd5b5051600354604080517f1f0df17f0000000000000000000000000000000000000000000000000000000081523360048201529051610100909204600160a060020a031691631f0df17f91602480820192602092909190829003018186803b15801562000b0f57600080fd5b505afa15801562000b24573d6000803e3d6000fd5b505050506040513d602081101562000b3b57600080fd5b5051604080517fc52164c60000000000000000000000000000000000000000000000000000000081529051600160a060020a039092169163c52164c691600480820192602092909190829003018186803b15801562000b9957600080fd5b505afa15801562000bae573d6000803e3d6000fd5b505050506040513d602081101562000bc557600080fd5b5051101562000c1e576040805160e560020a62461bcd02815260206004820152601560248201527f6e6f7420656e6f7567682072657075746174696f6e0000000000000000000000604482015290519081900360640190fd5b600480546040517fe3a4f92600000000000000000000000000000000000000000000000000000000815260209281018381528551602483015285513394600160a060020a039094169363e3a4f92693889392839260449092019185019080838360005b8381101562000c9b57818101518382015260200162000c81565b50505050905090810190601f16801562000cc95780820380516001836020036101000a031916815260200191505b509250505060206040518083038186803b15801562000ce757600080fd5b505afa15801562000cfc573d6000803e3d6000fd5b505050506040513d602081101562000d1357600080fd5b5051604080517f8da5cb5b0000000000000000000000000000000000000000000000000000000081529051600160a060020a0390921691638da5cb5b91600480820192602092909190829003018186803b15801562000d7157600080fd5b505afa15801562000d86573d6000803e3d6000fd5b505050506040513d602081101562000d9d57600080fd5b5051600160a060020a03161462000dfe576040805160e560020a62461bcd02815260206004820152601c60248201527f796f7520617265206e6f742074686520646576696365206f776e657200000000604482015290519081900360640190fd5b600480546040517fe3a4f9260000000000000000000000000000000000000000000000000000000081526020928101838152855160248301528551600160a060020a039093169363e3a4f92693879383926044909101919085019080838360005b8381101562000e7957818101518382015260200162000e5f565b50505050905090810190601f16801562000ea75780820380516001836020036101000a031916815260200191505b509250505060206040518083038186803b15801562000ec557600080fd5b505afa15801562000eda573d6000803e3d6000fd5b505050506040513d602081101562000ef157600080fd5b5051604080517f02fb0c5e0000000000000000000000000000000000000000000000000000000081529051600160a060020a03909216916302fb0c5e91600480820192602092909190829003018186803b15801562000f4f57600080fd5b505afa15801562000f64573d6000803e3d6000fd5b505050506040513d602081101562000f7b57600080fd5b5051151562000fd4576040805160e560020a62461bcd02815260206004820152601460248201527f646576696365206973206e6f7420616374697665000000000000000000000000604482015290519081900360640190fd5b604080517f9f0059200000000000000000000000000000000000000000000000000000000081523360048201529051600160a060020a03831691639f00592091349160248082019260009290919082900301818588803b1580156200103857600080fd5b505af11580156200104d573d6000803e3d6000fd5b5050600480546040517fe3a4f9260000000000000000000000000000000000000000000000000000000081526020928101838152885160248301528851600160a060020a03909316965063e3a4f92695508894509283926044909201919085019080838360005b83811015620010ce578181015183820152602001620010b4565b50505050905090810190601f168015620010fc5780820380516001836020036101000a031916815260200191505b509250505060206040518083038186803b1580156200111a57600080fd5b505afa1580156200112f573d6000803e3d6000fd5b505050506040513d60208110156200114657600080fd5b5051604080517f85aba275000000000000000000000000000000000000000000000000000000008152600160a060020a038681166004830152915191909216916385aba27591602480830192600092919082900301818387803b158015620011ad57600080fd5b505af1158015620011c2573d6000803e3d6000fd5b50505050505050565b620011d6816200214a565b15156200121c576040805160e560020a62461bcd0281526020600482015260136024820152600080516020620029c6833981519152604482015290519081900360640190fd5b60006200122982620019b0565b905033600160a060020a031681600160a060020a0316637150d8ae6040518163ffffffff1660e060020a02815260040160206040518083038186803b1580156200127257600080fd5b505afa15801562001287573d6000803e3d6000fd5b505050506040513d60208110156200129e57600080fd5b5051600160a060020a031614620012ff576040805160e560020a62461bcd02815260206004820152601560248201527f796f7520617265206e6f74207468652062757965720000000000000000000000604482015290519081900360640190fd5b80600160a060020a031663cf3090126040518163ffffffff1660e060020a02815260040160206040518083038186803b1580156200133c57600080fd5b505afa15801562001351573d6000803e3d6000fd5b505050506040513d60208110156200136857600080fd5b50518015620013e4575060025481600160a060020a031663325a19f16040518163ffffffff1660e060020a02815260040160206040518083038186803b158015620013b257600080fd5b505afa158015620013c7573d6000803e3d6000fd5b505050506040513d6020811015620013de57600080fd5b50510142105b15620014f857600181600160a060020a0316632986c0e56040518163ffffffff1660e060020a02815260040160206040518083038186803b1580156200142957600080fd5b505afa1580156200143e573d6000803e3d6000fd5b505050506040513d60208110156200145557600080fd5b5051815481106200146257fe5b60009182526020822001805473ffffffffffffffffffffffffffffffffffffffff19169055604080517f86d1a69f0000000000000000000000000000000000000000000000000000000081529051600160a060020a038416926386d1a69f926004808201939182900301818387803b158015620014de57600080fd5b505af1158015620014f3573d6000803e3d6000fd5b505050505b5050565b60035460ff1615156200157f576040805160e560020a62461bcd02815260206004820152602360248201527f636f6e7472616374732068617665206e6f74206265656e20696e697469616c6960448201527f7a65640000000000000000000000000000000000000000000000000000000000606482015290519081900360840190fd5b600354604080517ff6a3d24e0000000000000000000000000000000000000000000000000000000081523360048201529051610100909204600160a060020a03169163f6a3d24e91602480820192602092909190829003018186803b158015620015e857600080fd5b505afa158015620015fd573d6000803e3d6000fd5b505050506040513d60208110156200161457600080fd5b505115156200166d576040805160e560020a62461bcd02815260206004820152601d60248201527f796f7520617265206e6f74206120726567697374657265642075736572000000604482015290519081900360640190fd5b600554604080517fe3d670d70000000000000000000000000000000000000000000000000000000081523360048201529051600192600160a060020a03169163e3d670d7916024808301926020929190829003018186803b158015620016d257600080fd5b505afa158015620016e7573d6000803e3d6000fd5b505050506040513d6020811015620016fe57600080fd5b5051101562001757576040805160e560020a62461bcd02815260206004820152601160248201527f6e6f7420656e6f75676820746f6b656e73000000000000000000000000000000604482015290519081900360640190fd5b600554604080517f9dfa4e94000000000000000000000000000000000000000000000000000000008152600160048201523360248201529051600160a060020a0390921691639dfa4e949160448082019260009290919082900301818387803b158015620017c457600080fd5b505af1158015620017d9573d6000803e3d6000fd5b5050505060003433858585600180549050620017f46200217f565b8086600160a060020a0316600160a060020a031681526020018060200185815260200180602001848152602001838103835287818151815260200191508051906020019080838360005b83811015620018585781810151838201526020016200183e565b50505050905090810190601f168015620018865780820380516001836020036101000a031916815260200191505b50838103825285518152855160209182019187019080838360005b83811015620018bb578181015183820152602001620018a1565b50505050905090810190601f168015620018e95780820380516001836020036101000a031916815260200191505b509750505050505050506040518091039082f0801580156200190f573d6000803e3d6000fd5b50600160a060020a03166000818152602081905260408120805473ffffffffffffffffffffffffffffffffffffffff19908116841790915560018054808201825592527fb10e2d527612073b26eecdfd717e6a320cf44b4afac2b0732d9fcbe2b7fa0cf6909101805490911690911790555050505050565b60018054829081106200199657fe5b600091825260209091200154600160a060020a0316905081565b6000620019bd826200214a565b151562001a03576040805160e560020a62461bcd0281526020600482015260136024820152600080516020620029c6833981519152604482015290519081900360640190fd5b50600160a060020a03808216600090815260208190526040902054165b919050565b62001a30836200214a565b151562001a76576040805160e560020a62461bcd0281526020600482015260136024820152600080516020620029c6833981519152604482015290519081900360640190fd5b600062001a8384620019b0565b905033600160a060020a031681600160a060020a03166308551a536040518163ffffffff1660e060020a02815260040160206040518083038186803b15801562001acc57600080fd5b505afa15801562001ae1573d6000803e3d6000fd5b505050506040513d602081101562001af857600080fd5b5051600160a060020a03161462001b59576040805160e560020a62461bcd02815260206004820152601660248201527f796f7520617265206e6f74207468652073656c6c657200000000000000000000604482015290519081900360640190fd5b600360019054906101000a9004600160a060020a0316600160a060020a0316631f0df17f82600160a060020a0316637150d8ae6040518163ffffffff1660e060020a02815260040160206040518083038186803b15801562001bba57600080fd5b505afa15801562001bcf573d6000803e3d6000fd5b505050506040513d602081101562001be657600080fd5b50516040805160e060020a63ffffffff8516028152600160a060020a039092166004830152516024808301926020929190829003018186803b15801562001c2c57600080fd5b505afa15801562001c41573d6000803e3d6000fd5b505050506040513d602081101562001c5857600080fd5b5051604080517f2b8a74a400000000000000000000000000000000000000000000000000000000815260048101918252845160448201528451600160a060020a0390931692632b8a74a4928692889282916024810191606490910190602087019080838360005b8381101562001cd957818101518382015260200162001cbf565b50505050905090810190601f16801562001d075780820380516001836020036101000a031916815260200191505b50838103825284518152845160209182019186019080838360005b8381101562001d3c57818101518382015260200162001d22565b50505050905090810190601f16801562001d6a5780820380516001836020036101000a031916815260200191505b50945050505050600060405180830381600087803b15801562001d8c57600080fd5b505af115801562001da1573d6000803e3d6000fd5b50505050600360019054906101000a9004600160a060020a0316600160a060020a0316631f0df17f82600160a060020a0316637150d8ae6040518163ffffffff1660e060020a02815260040160206040518083038186803b15801562001e0657600080fd5b505afa15801562001e1b573d6000803e3d6000fd5b505050506040513d602081101562001e3257600080fd5b50516040805160e060020a63ffffffff8516028152600160a060020a039092166004830152516024808301926020929190829003018186803b15801562001e7857600080fd5b505afa15801562001e8d573d6000803e3d6000fd5b505050506040513d602081101562001ea457600080fd5b5051604080517fa9fb763c000000000000000000000000000000000000000000000000000000008152600160048201529051600160a060020a039092169163a9fb763c9160248082019260009290919082900301818387803b15801562001f0a57600080fd5b505af115801562001f1f573d6000803e3d6000fd5b5050600354604080517f1f0df17f0000000000000000000000000000000000000000000000000000000081523360048201529051610100909204600160a060020a03169350631f0df17f9250602480820192602092909190829003018186803b15801562001f8c57600080fd5b505afa15801562001fa1573d6000803e3d6000fd5b505050506040513d602081101562001fb857600080fd5b5051604080517fa9fb763c000000000000000000000000000000000000000000000000000000008152600260048201529051600160a060020a039092169163a9fb763c9160248082019260009290919082900301818387803b1580156200201e57600080fd5b505af115801562002033573d6000803e3d6000fd5b50505050600181600160a060020a0316632986c0e56040518163ffffffff1660e060020a02815260040160206040518083038186803b1580156200207657600080fd5b505afa1580156200208b573d6000803e3d6000fd5b505050506040513d6020811015620020a257600080fd5b505181548110620020af57fe5b60009182526020822001805473ffffffffffffffffffffffffffffffffffffffff19169055604080517f522e11770000000000000000000000000000000000000000000000000000000081529051600160a060020a0384169263522e1177926004808201939182900301818387803b1580156200212b57600080fd5b505af115801562002140573d6000803e3d6000fd5b5050505050505050565b600160a060020a0380821660009081526020819052604081205490911615620021765750600162001a20565b50600062001a20565b60405161083580620021918339019056fe608060408190526001805460a060020a60ff021916905561083538819003908190833981018060405260a081101561003657600080fd5b81516020830180519193928301929164010000000081111561005757600080fd5b8201602081018481111561006a57600080fd5b815164010000000081118282018710171561008457600080fd5b505060208201516040909201805191949293916401000000008111156100a957600080fd5b820160208101848111156100bc57600080fd5b81516401000000008111828201871017156100d657600080fd5b505060209182015160008054600160a060020a031916600160a060020a038a16179055865191945092506101109160029190870190610150565b5060038390558151610129906004906020850190610150565b5034600555600655505042600755505060088054600160a060020a031916331790556101eb565b828054600181600116156101000203166002900490600052602060002090601f016020900481019282601f1061019157805160ff19168380011785556101be565b828001600101855582156101be579182015b828111156101be5782518255916020019190600101906101a3565b506101ca9291506101ce565b5090565b6101e891905b808211156101ca57600081556001016101d4565b90565b61063b806101fa6000396000f3fe6080604052600436106100c45763ffffffff7c010000000000000000000000000000000000000000000000000000000060003504166306fdde0381146100c957806308551a5314610153578063228cb733146101845780632986c0e5146101ab578063325a19f1146101c0578063522e1177146101d55780637150d8ae146101ec57806386d1a69f146102015780639f00592014610216578063a531d3621461023c578063a69df4b514610251578063c52164c614610266578063cf3090121461027b575b600080fd5b3480156100d557600080fd5b506100de6102a4565b6040805160208082528351818301528351919283929083019185019080838360005b83811015610118578181015183820152602001610100565b50505050905090810190601f1680156101455780820380516001836020036101000a031916815260200191505b509250505060405180910390f35b34801561015f57600080fd5b5061016861032f565b60408051600160a060020a039092168252519081900360200190f35b34801561019057600080fd5b5061019961033e565b60408051918252519081900360200190f35b3480156101b757600080fd5b50610199610344565b3480156101cc57600080fd5b5061019961034a565b3480156101e157600080fd5b506101ea610350565b005b3480156101f857600080fd5b506101686103ae565b34801561020d57600080fd5b506101ea6103bd565b6101ea6004803603602081101561022c57600080fd5b5035600160a060020a031661041b565b34801561024857600080fd5b506100de6104ca565b34801561025d57600080fd5b506101ea610525565b34801561027257600080fd5b506101996105c8565b34801561028757600080fd5b506102906105ce565b604080519115158252519081900360200190f35b6002805460408051602060018416156101000260001901909316849004601f810184900484028201840190925281815292918301828280156103275780601f106102fc57610100808354040283529160200191610327565b820191906000526020600020905b81548152906001019060200180831161030a57829003601f168201915b505050505081565b600154600160a060020a031681565b60055481565b60065481565b60075481565b600854600160a060020a031633146103a0576040805160e560020a62461bcd02815260206004820152601160248201526000805160206105f0833981519152604482015290519081900360640190fd5b600154600160a060020a0316ff5b600054600160a060020a031681565b600854600160a060020a0316331461040d576040805160e560020a62461bcd02815260206004820152601160248201526000805160206105f0833981519152604482015290519081900360640190fd5b600054600160a060020a0316ff5b600854600160a060020a0316331461046b576040805160e560020a62461bcd02815260206004820152601160248201526000805160206105f0833981519152604482015290519081900360640190fd5b6001805474ff000000000000000000000000000000000000000019600160a060020a0390931673ffffffffffffffffffffffffffffffffffffffff19909116179190911674010000000000000000000000000000000000000000179055565b6004805460408051602060026001851615610100026000190190941693909304601f810184900484028201840190925281815292918301828280156103275780601f106102fc57610100808354040283529160200191610327565b600154600160a060020a03163314610575576040805160e560020a62461bcd02815260206004820152601160248201526000805160206105f0833981519152604482015290519081900360640190fd5b6001805474ffffffffffffffffffffffffffffffffffffffffff191690556005546040516000916004900480156108fc029183818181858288f193505050501580156105c5573d6000803e3d6000fd5b50565b60035481565b60015474010000000000000000000000000000000000000000900460ff168156fe7065726d697373696f6e2064656e696564000000000000000000000000000000a165627a7a723058204c831c4519e111d421e066c3653dc91204b235f44954e51b25eb9dd2710a396e00297461736b20646f6573206e6f7420657869737400000000000000000000000000a165627a7a72305820faaac2644d0aed568626884c8fab755ad2dc93f3a07c998e2a86ee5f43aeb5200029",
  "source": "pragma solidity ^0.5.0;\n\n// IMPORT INTERFACES\nimport { Task } from './Task.sol';\nimport { UserManager } from '../user/Manager.sol';\nimport { DeviceManager } from '../device/Manager.sol';\nimport { TokenManager } from '../Token.sol';\n\ncontract TaskManager {\n\n    // HASHMAP OF UNIQUE TASKS, [LOCATION => TASK INSTANCE]\n    mapping (address => Task) tasks;\n\n    // OPEN TASKS\n    Task[] public open;\n\n    // TIME LIMIT FOR TASK\n    uint limit = 5000;\n\n    // INIT STATUS\n    bool initialized = false;\n\n    // REFERENCES\n    UserManager user_manager;\n    DeviceManager device_manager;\n    TokenManager token_manager;\n\n    // CHECK IF TASK EXISTS\n    function exists(address _task) public view returns(bool) {\n        if (address(tasks[_task]) != 0x0000000000000000000000000000000000000000) {\n            return true;\n        } else {\n            return false;\n        }\n    }\n\n    // ADD TASK\n    function add(\n        string memory name,\n        uint reputation,\n        string memory encryption\n    ) public payable {\n\n        // IF CONTRACT HAS BEEN INITIALIZED\n        // SENDER IS A REGISTERED USER\n        // USER HAS ENOUGH TOKENS\n        require(initialized, 'contracts have not been initialized');\n        require(user_manager.exists(msg.sender), 'you are not a registered user');\n        require(token_manager.balance(msg.sender) >= 1, 'not enough tokens');\n\n        // REMOVE A TOKEN FROM SENDER\n        token_manager.remove(1, msg.sender);\n\n        // INSTANTIATE NEW TASK\n        Task task = (new Task).value(msg.value)(\n            msg.sender,\n            name,\n            reputation,\n            encryption,\n            open.length\n        );\n\n        // ADD HASHMAP ENTRY & LIST IT\n        tasks[address(task)] = task;\n        open.push(task);\n    }\n\n    // FETCH TASK\n    function fetch(address _task) public view returns(Task) {\n\n        // IF THE TASK EXISTS\n        require(exists(_task), 'task does not exist');\n        return tasks[_task];\n    }\n\n    // ACCEPT TASK\n    function accept(\n        address _task,\n        string memory _device\n    ) public payable {\n\n        // IF THE TASK EXISTS\n        // IF THE DEVICE EXISTS\n        require(exists(_task), 'task does not exist');\n        require(device_manager.exists(_device), 'device does not exist');\n\n        // SHORTHAND\n        Task task = fetch(_task);\n\n        // IF THE TASK IS NOT LOCKED\n        require(!task.locked(), 'task is locked');\n        require(msg.value >= task.reward() / 2, 'insufficient funds given');\n\n        // IF THE USER IS REGISTERED\n        // IF THE USER HAS ENOUGH REPUTATION\n        require(user_manager.exists(msg.sender), 'you are not a registered user');\n        require(user_manager.fetch_user(msg.sender).reputation() >= task.reputation(), 'not enough reputation');\n\n        // IF THE SENDER IS THE DEVICE OWNER\n        // IF THE DEVICE IS ACTIVE\n        require(device_manager.fetch_device(_device).owner() == msg.sender, 'you are not the device owner');\n        require(device_manager.fetch_device(_device).active(), 'device is not active');\n\n        // ACCEPT THE TASK & FORWARD THE FUNDS\n        task.accept.value(msg.value)(msg.sender);\n\n        // ASSIGN TASK TO THE DEVICE\n        device_manager.fetch_device(_device).assign(_task);\n    }\n\n    // SUBMIT TASK RESULT\n    function submit(\n        address _task,\n        string memory _ipfs,\n        string memory _key\n    ) public {\n\n        // IF THE TASK EXISTS\n        require(exists(_task), 'task does not exist');\n\n        // SHORTHAND\n        Task task = fetch(_task);\n\n        // IF THE SENDER IS THE SELLER\n        require(task.seller() == msg.sender, 'you are not the seller');\n\n        // SEND THE RESULT TO THE BUYERS USER CONTRACT\n        user_manager.fetch_user(task.buyer()).add_result(_key, _ipfs);\n\n        // REWARD BOTH PARTIES WITH REPUTATION\n        user_manager.fetch_user(task.buyer()).reward(1);\n        user_manager.fetch_user(msg.sender).reward(2);\n\n        // UNLIST & DESTROY THE TASK\n        delete open[task.index()];\n        task.complete();\n    }\n\n    // RELEASE THE TASK\n    function release(address _task) public {\n\n        // IF THE TASK EXISTS\n        require(exists(_task), 'task does not exist');\n\n        // SHORTHAND\n        Task task = fetch(_task);\n\n        // IF THE SENDER IS THE BUYER\n        require(task.buyer() == msg.sender, 'you are not the buyer');\n\n        // IF THE TASK IS LOCKED & THE TIME LIMIT HAS NOT BEEN EXCEEDED\n        if (task.locked() && block.timestamp < task.created() + limit) {\n\n            // UNLIST & DESTROY THE TASK\n            delete open[task.index()];\n            task.release();\n        }\n    }\n\n    // INITIALIZE\n    function init(\n        address _user_manager,\n        address _device_manager,\n        address _token_manager\n    ) public {\n\n        // IF THE CONTRACT HAS NOT BEEN INITIALIZED\n        require(!initialized, 'contract has already been initialized');\n\n        // SET REFERENCES\n        user_manager = UserManager(_user_manager);\n        device_manager = DeviceManager(_device_manager);\n        token_manager = TokenManager(_token_manager);\n\n        // BLOCK FURTHER MODIFICATION\n        initialized = true;\n    }\n}",
  "sourcePath": "/home/bdalab/wickstjo/eth-contracts/contracts/task/Manager.sol",
  "compiler": {
    "name": "solc",
    "version": "0.5.0+commit.1d4f565a.Emscripten.clang"
  },
  "schemaVersion": "3.0.9",
  "updatedAt": "2019-11-07T11:38:48.785Z",
  "devdoc": {
    "methods": {}
  },
  "userdoc": {
    "methods": {}
  }
}