{
  "contractName": "TaskManager",
  "abi": [
    {
      "constant": true,
      "inputs": [
        {
          "name": "",
          "type": "uint256"
        }
      ],
      "name": "open",
      "outputs": [
        {
          "name": "",
          "type": "address"
        }
      ],
      "payable": false,
      "stateMutability": "view",
      "type": "function"
    },
    {
      "constant": true,
      "inputs": [
        {
          "name": "_task",
          "type": "address"
        }
      ],
      "name": "exists",
      "outputs": [
        {
          "name": "",
          "type": "bool"
        }
      ],
      "payable": false,
      "stateMutability": "view",
      "type": "function"
    },
    {
      "constant": false,
      "inputs": [
        {
          "name": "name",
          "type": "string"
        },
        {
          "name": "reputation",
          "type": "uint256"
        },
        {
          "name": "encryption",
          "type": "string"
        }
      ],
      "name": "add",
      "outputs": [],
      "payable": true,
      "stateMutability": "payable",
      "type": "function"
    },
    {
      "constant": true,
      "inputs": [],
      "name": "fetch_open",
      "outputs": [
        {
          "name": "",
          "type": "address[]"
        }
      ],
      "payable": false,
      "stateMutability": "view",
      "type": "function"
    },
    {
      "constant": true,
      "inputs": [
        {
          "name": "_task",
          "type": "address"
        }
      ],
      "name": "fetch_task",
      "outputs": [
        {
          "name": "",
          "type": "address"
        }
      ],
      "payable": false,
      "stateMutability": "view",
      "type": "function"
    },
    {
      "constant": false,
      "inputs": [
        {
          "name": "_task",
          "type": "address"
        },
        {
          "name": "_device",
          "type": "string"
        }
      ],
      "name": "accept",
      "outputs": [],
      "payable": true,
      "stateMutability": "payable",
      "type": "function"
    },
    {
      "constant": false,
      "inputs": [
        {
          "name": "_task",
          "type": "address"
        },
        {
          "name": "_ipfs",
          "type": "string"
        },
        {
          "name": "_key",
          "type": "string"
        }
      ],
      "name": "submit",
      "outputs": [],
      "payable": false,
      "stateMutability": "nonpayable",
      "type": "function"
    },
    {
      "constant": false,
      "inputs": [
        {
          "name": "_task",
          "type": "address"
        }
      ],
      "name": "release",
      "outputs": [],
      "payable": false,
      "stateMutability": "nonpayable",
      "type": "function"
    },
    {
      "constant": false,
      "inputs": [
        {
          "name": "_user_manager",
          "type": "address"
        },
        {
          "name": "_device_manager",
          "type": "address"
        },
        {
          "name": "_token_manager",
          "type": "address"
        }
      ],
      "name": "init",
      "outputs": [],
      "payable": false,
      "stateMutability": "nonpayable",
      "type": "function"
    }
  ],
  "bytecode": "0x60806040526113886002556003805460ff1916905534801561002057600080fd5b506131ab806100306000396000f3fe608060405260043610620000925760003560e01c8063690e7c091162000061578063690e7c09146200030d578063d91cf5de1462000357578063f4b86b7214620003c1578063f6a3d24e1462000511578063f772282c146200055c5762000092565b8063184b955914620000975780631880724014620000e257806319165587146200019c5780634f15e54714620001d3575b600080fd5b348015620000a457600080fd5b50620000e060048036036060811015620000bd57600080fd5b506001600160a01b03813581169160208101358216916040909101351662000593565b005b620000e060048036036040811015620000fa57600080fd5b6001600160a01b038235169190810190604081016020820135600160201b8111156200012557600080fd5b8201836020820111156200013857600080fd5b803590602001918460018302840111600160201b831117156200015a57600080fd5b91908080601f01602080910402602001604051908101604052809392919081815260200183838082843760009201919091525092955062000630945050505050565b348015620001a957600080fd5b50620000e060048036036020811015620001c257600080fd5b50356001600160a01b031662001320565b620000e060048036036060811015620001eb57600080fd5b810190602081018135600160201b8111156200020657600080fd5b8201836020820111156200021957600080fd5b803590602001918460018302840111600160201b831117156200023b57600080fd5b91908080601f01602080910402602001604051908101604052809392919081815260200183838082843760009201919091525092958435959094909350604081019250602001359050600160201b8111156200029657600080fd5b820183602082011115620002a957600080fd5b803590602001918460018302840111600160201b83111715620002cb57600080fd5b91908080601f01602080910402602001604051908101604052809392919081815260200183838082843760009201919091525092955062001911945050505050565b3480156200031a57600080fd5b506200033b600480360360208110156200033357600080fd5b503562001d12565b604080516001600160a01b039092168252519081900360200190f35b3480156200036457600080fd5b506200036f62001d3a565b60408051602080825283518183015283519192839290830191858101910280838360005b83811015620003ad57818101518382015260200162000393565b505050509050019250505060405180910390f35b348015620003ce57600080fd5b50620000e060048036036060811015620003e757600080fd5b6001600160a01b038235169190810190604081016020820135600160201b8111156200041257600080fd5b8201836020820111156200042557600080fd5b803590602001918460018302840111600160201b831117156200044757600080fd5b91908080601f0160208091040260200160405190810160405280939291908181526020018383808284376000920191909152509295949360208101935035915050600160201b8111156200049a57600080fd5b820183602082011115620004ad57600080fd5b803590602001918460018302840111600160201b83111715620004cf57600080fd5b91908080601f01602080910402602001604051908101604052809392919081815260200183838082843760009201919091525092955062001d9e945050505050565b3480156200051e57600080fd5b5062000548600480360360208110156200053757600080fd5b50356001600160a01b03166200268d565b604080519115158252519081900360200190f35b3480156200056957600080fd5b506200033b600480360360208110156200058257600080fd5b50356001600160a01b0316620026c2565b60035460ff1615620005da57604051600160e51b62461bcd028152600401808060200182810382526025815260200180620031386025913960400191505060405180910390fd5b60038054600480546001600160a01b039586166001600160a01b03199182161790915560058054948616949091169390931790925560ff199290931661010002610100600160a81b031990911617166001179055565b6200063b826200268d565b620006895760408051600160e51b62461bcd02815260206004820152601360248201526001606a1b721d185cdac8191bd95cc81b9bdd08195e1a5cdd02604482015290519081900360640190fd5b60048054604051600160e11b63130d191f02815260209281018381528451602483015284516001600160a01b039093169363261a323e93869383926044909101919085019080838360005b83811015620006ee578181015183820152602001620006d4565b50505050905090810190601f1680156200071c5780820380516001836020036101000a031916815260200191505b509250505060206040518083038186803b1580156200073a57600080fd5b505afa1580156200074f573d6000803e3d6000fd5b505050506040513d60208110156200076657600080fd5b5051620007bd5760408051600160e51b62461bcd02815260206004820152601560248201527f64657669636520646f6573206e6f742065786973740000000000000000000000604482015290519081900360640190fd5b6000620007ca83620026c2565b9050806001600160a01b031663cf3090126040518163ffffffff1660e01b815260040160206040518083038186803b1580156200080657600080fd5b505afa1580156200081b573d6000803e3d6000fd5b505050506040513d60208110156200083257600080fd5b5051156200088a5760408051600160e51b62461bcd02815260206004820152600e60248201527f7461736b206973206c6f636b6564000000000000000000000000000000000000604482015290519081900360640190fd5b6002816001600160a01b031663228cb7336040518163ffffffff1660e01b815260040160206040518083038186803b158015620008c657600080fd5b505afa158015620008db573d6000803e3d6000fd5b505050506040513d6020811015620008f257600080fd5b505181620008fc57fe5b04341015620009555760408051600160e51b62461bcd02815260206004820152601860248201527f696e73756666696369656e742066756e647320676976656e0000000000000000604482015290519081900360640190fd5b60035460408051600160e11b637b51e92702815233600482015290516101009092046001600160a01b03169163f6a3d24e91602480820192602092909190829003018186803b158015620009a857600080fd5b505afa158015620009bd573d6000803e3d6000fd5b505050506040513d6020811015620009d457600080fd5b505162000a2b5760408051600160e51b62461bcd02815260206004820152601d60248201527f796f7520617265206e6f74206120726567697374657265642075736572000000604482015290519081900360640190fd5b806001600160a01b031663c52164c66040518163ffffffff1660e01b815260040160206040518083038186803b15801562000a6557600080fd5b505afa15801562000a7a573d6000803e3d6000fd5b505050506040513d602081101562000a9157600080fd5b505160035460408051600160e01b631f0df17f02815233600482015290516101009092046001600160a01b031691631f0df17f91602480820192602092909190829003018186803b15801562000ae657600080fd5b505afa15801562000afb573d6000803e3d6000fd5b505050506040513d602081101562000b1257600080fd5b505160408051600160e11b636290b26302815290516001600160a01b039092169163c52164c691600480820192602092909190829003018186803b15801562000b5a57600080fd5b505afa15801562000b6f573d6000803e3d6000fd5b505050506040513d602081101562000b8657600080fd5b5051101562000bdf5760408051600160e51b62461bcd02815260206004820152601560248201527f6e6f7420656e6f7567682072657075746174696f6e0000000000000000000000604482015290519081900360640190fd5b60048054604051600160e11b6371d27c93028152602092810183815285516024830152855133946001600160a01b039094169363e3a4f92693889392839260449092019185019080838360005b8381101562000c4657818101518382015260200162000c2c565b50505050905090810190601f16801562000c745780820380516001836020036101000a031916815260200191505b509250505060206040518083038186803b15801562000c9257600080fd5b505afa15801562000ca7573d6000803e3d6000fd5b505050506040513d602081101562000cbe57600080fd5b505160408051600160e01b638da5cb5b02815290516001600160a01b0390921691638da5cb5b91600480820192602092909190829003018186803b15801562000d0657600080fd5b505afa15801562000d1b573d6000803e3d6000fd5b505050506040513d602081101562000d3257600080fd5b50516001600160a01b03161462000d935760408051600160e51b62461bcd02815260206004820152601c60248201527f796f7520617265206e6f742074686520646576696365206f776e657200000000604482015290519081900360640190fd5b60048054604051600160e11b6371d27c9302815260209281018381528551602483015285516001600160a01b039093169363e3a4f92693879383926044909101919085019080838360005b8381101562000df857818101518382015260200162000dde565b50505050905090810190601f16801562000e265780820380516001836020036101000a031916815260200191505b509250505060206040518083038186803b15801562000e4457600080fd5b505afa15801562000e59573d6000803e3d6000fd5b505050506040513d602081101562000e7057600080fd5b505160408051600160e11b63017d862f02815290516001600160a01b03909216916302fb0c5e91600480820192602092909190829003018186803b15801562000eb857600080fd5b505afa15801562000ecd573d6000803e3d6000fd5b505050506040513d602081101562000ee457600080fd5b505162000f3b5760408051600160e51b62461bcd02815260206004820152601460248201527f646576696365206973206e6f7420616374697665000000000000000000000000604482015290519081900360640190fd5b60048054604051600160e11b6371d27c9302815260209281018381528551602483015285516000946001600160a01b039094169363e3a4f9269388939283926044909201918501908083838b5b8381101562000fa257818101518382015260200162000f88565b50505050905090810190601f16801562000fd05780820380516001836020036101000a031916815260200191505b509250505060206040518083038186803b15801562000fee57600080fd5b505afa15801562001003573d6000803e3d6000fd5b505050506040513d60208110156200101a57600080fd5b505160408051600160e11b631ae817b902815290516001600160a01b03909216916335d02f7291600480820192600092909190829003018186803b1580156200106257600080fd5b505afa15801562001077573d6000803e3d6000fd5b505050506040513d6000823e601f3d908101601f191682016040526020811015620010a157600080fd5b810190808051600160201b811115620010b957600080fd5b82016020810184811115620010cd57600080fd5b81518560208202830111600160201b82111715620010ea57600080fd5b505051604051600160e01b633f2d90ef0281523360048201818152604483018490526060602484019081528a5160648501528a519498506001600160a01b038a169750633f2d90ef965034955091938a93899391608490910190602086019080838360005b83811015620011695781810151838201526020016200114f565b50505050905090810190601f168015620011975780820380516001836020036101000a031916815260200191505b509450505050506000604051808303818588803b158015620011b857600080fd5b505af1158015620011cd573d6000803e3d6000fd5b505060048054604051600160e11b6371d27c9302815260209281018381528951602483015289516001600160a01b03909316965063e3a4f92695508994509283926044909201919085019080838360005b83811015620012385781810151838201526020016200121e565b50505050905090810190601f168015620012665780820380516001836020036101000a031916815260200191505b509250505060206040518083038186803b1580156200128457600080fd5b505afa15801562001299573d6000803e3d6000fd5b505050506040513d6020811015620012b057600080fd5b505160408051600160e01b6385aba2750281526001600160a01b038781166004830152915191909216916385aba27591602480830192600092919082900301818387803b1580156200130157600080fd5b505af115801562001316573d6000803e3d6000fd5b5050505050505050565b6200132b816200268d565b620013795760408051600160e51b62461bcd02815260206004820152601360248201526001606a1b721d185cdac8191bd95cc81b9bdd08195e1a5cdd02604482015290519081900360640190fd5b60006200138682620026c2565b9050336001600160a01b0316816001600160a01b0316637150d8ae6040518163ffffffff1660e01b815260040160206040518083038186803b158015620013cc57600080fd5b505afa158015620013e1573d6000803e3d6000fd5b505050506040513d6020811015620013f857600080fd5b50516001600160a01b031614620014595760408051600160e51b62461bcd02815260206004820152601560248201527f796f7520617265206e6f74207468652062757965720000000000000000000000604482015290519081900360640190fd5b806001600160a01b031663cf3090126040518163ffffffff1660e01b815260040160206040518083038186803b1580156200149357600080fd5b505afa158015620014a8573d6000803e3d6000fd5b505050506040513d6020811015620014bf57600080fd5b50511580620015385750600254816001600160a01b031663325a19f16040518163ffffffff1660e01b815260040160206040518083038186803b1580156200150657600080fd5b505afa1580156200151b573d6000803e3d6000fd5b505050506040513d60208110156200153257600080fd5b50510142115b156200190d576001816001600160a01b031663074110526040518163ffffffff1660e01b815260040160206040518083038186803b1580156200157a57600080fd5b505afa1580156200158f573d6000803e3d6000fd5b505050506040513d6020811015620015a657600080fd5b505181548110620015b357fe5b6000918252602082200180546001600160a01b031916905560408051600160e01b6386d1a69f02815290516001600160a01b038416926386d1a69f926004808201939182900301818387803b1580156200160c57600080fd5b505af115801562001621573d6000803e3d6000fd5b50505050600254816001600160a01b031663325a19f16040518163ffffffff1660e01b815260040160206040518083038186803b1580156200166257600080fd5b505afa15801562001677573d6000803e3d6000fd5b505050506040513d60208110156200168e57600080fd5b5051014211156200190d576004805460408051600160e41b630c6326dd02815290516001600160a01b039283169363e3a4f9269386169263c6326dd09281830192600092829003018186803b158015620016e757600080fd5b505afa158015620016fc573d6000803e3d6000fd5b505050506040513d6000823e601f3d908101601f1916820160405260208110156200172657600080fd5b810190808051600160201b8111156200173e57600080fd5b820160208101848111156200175257600080fd5b8151600160201b8111828201871017156200176c57600080fd5b505060405163ffffffff861660e01b815260206004820181815283516024840152835193965094508493506044909101919085019080838360005b83811015620017c1578181015183820152602001620017a7565b50505050905090810190601f168015620017ef5780820380516001836020036101000a031916815260200191505b509250505060206040518083038186803b1580156200180d57600080fd5b505afa15801562001822573d6000803e3d6000fd5b505050506040513d60208110156200183957600080fd5b505160408051600160e01b633bc8b61702815290516001600160a01b039283169263c0fe1af89290851691633bc8b61791600480820192602092909190829003018186803b1580156200188b57600080fd5b505afa158015620018a0573d6000803e3d6000fd5b505050506040513d6020811015620018b757600080fd5b50516040805163ffffffff841660e01b8152600481019290925251602480830192600092919082900301818387803b158015620018f357600080fd5b505af115801562001908573d6000803e3d6000fd5b505050505b5050565b60035460ff166200195757604051600160e51b62461bcd0281526004018080602001828103825260238152602001806200315d6023913960400191505060405180910390fd5b60035460408051600160e11b637b51e92702815233600482015290516101009092046001600160a01b03169163f6a3d24e91602480820192602092909190829003018186803b158015620019aa57600080fd5b505afa158015620019bf573d6000803e3d6000fd5b505050506040513d6020811015620019d657600080fd5b505162001a2d5760408051600160e51b62461bcd02815260206004820152601d60248201527f796f7520617265206e6f74206120726567697374657265642075736572000000604482015290519081900360640190fd5b60055460408051600160e01b63e3d670d702815233600482015290516001926001600160a01b03169163e3d670d7916024808301926020929190829003018186803b15801562001a7c57600080fd5b505afa15801562001a91573d6000803e3d6000fd5b505050506040513d602081101562001aa857600080fd5b5051101562001b015760408051600160e51b62461bcd02815260206004820152601160248201527f6e6f7420656e6f75676820746f6b656e73000000000000000000000000000000604482015290519081900360640190fd5b60055460408051600160e21b63277e93a50281526001600482015233602482015290516001600160a01b0390921691639dfa4e949160448082019260009290919082900301818387803b15801562001b5857600080fd5b505af115801562001b6d573d6000803e3d6000fd5b505050506000343385858560018054905060405162001b8c906200273c565b80866001600160a01b03166001600160a01b031681526020018060200185815260200180602001848152602001838103835287818151815260200191508051906020019080838360005b8381101562001bf057818101518382015260200162001bd6565b50505050905090810190601f16801562001c1e5780820380516001836020036101000a031916815260200191505b50838103825285518152855160209182019187019080838360005b8381101562001c5357818101518382015260200162001c39565b50505050905090810190601f16801562001c815780820380516001836020036101000a031916815260200191505b509750505050505050506040518091039082f08015801562001ca7573d6000803e3d6000fd5b506001600160a01b0316600081815260208190526040812080546001600160a01b0319908116841790915560018054808201825592527fb10e2d527612073b26eecdfd717e6a320cf44b4afac2b0732d9fcbe2b7fa0cf6909101805490911690911790555050505050565b6001818154811062001d2057fe5b6000918252602090912001546001600160a01b0316905081565b6060600180548060200260200160405190810160405280929190818152602001828054801562001d9457602002820191906000526020600020905b81546001600160a01b0316815260019091019060200180831162001d75575b5050505050905090565b62001da9836200268d565b62001df75760408051600160e51b62461bcd02815260206004820152601360248201526001606a1b721d185cdac8191bd95cc81b9bdd08195e1a5cdd02604482015290519081900360640190fd5b600062001e0484620026c2565b9050336001600160a01b0316816001600160a01b03166308551a536040518163ffffffff1660e01b815260040160206040518083038186803b15801562001e4a57600080fd5b505afa15801562001e5f573d6000803e3d6000fd5b505050506040513d602081101562001e7657600080fd5b50516001600160a01b03161462001ed75760408051600160e51b62461bcd02815260206004820152601660248201527f796f7520617265206e6f74207468652073656c6c657200000000000000000000604482015290519081900360640190fd5b600360019054906101000a90046001600160a01b03166001600160a01b0316631f0df17f826001600160a01b0316637150d8ae6040518163ffffffff1660e01b815260040160206040518083038186803b15801562001f3557600080fd5b505afa15801562001f4a573d6000803e3d6000fd5b505050506040513d602081101562001f6157600080fd5b50516040805163ffffffff841660e01b81526001600160a01b039092166004830152516024808301926020929190829003018186803b15801562001fa457600080fd5b505afa15801562001fb9573d6000803e3d6000fd5b505050506040513d602081101562001fd057600080fd5b505160408051600160e21b630ae29d29028152600481019182528451604482015284516001600160a01b0390931692632b8a74a4928692889282916024810191606490910190602087019080838360005b838110156200203b57818101518382015260200162002021565b50505050905090810190601f168015620020695780820380516001836020036101000a031916815260200191505b50838103825284518152845160209182019186019080838360005b838110156200209e57818101518382015260200162002084565b50505050905090810190601f168015620020cc5780820380516001836020036101000a031916815260200191505b50945050505050600060405180830381600087803b158015620020ee57600080fd5b505af115801562002103573d6000803e3d6000fd5b50505050600360019054906101000a90046001600160a01b03166001600160a01b0316631f0df17f826001600160a01b0316637150d8ae6040518163ffffffff1660e01b815260040160206040518083038186803b1580156200216557600080fd5b505afa1580156200217a573d6000803e3d6000fd5b505050506040513d60208110156200219157600080fd5b50516040805163ffffffff841660e01b81526001600160a01b039092166004830152516024808301926020929190829003018186803b158015620021d457600080fd5b505afa158015620021e9573d6000803e3d6000fd5b505050506040513d60208110156200220057600080fd5b505160408051600160e21b632a7edd8f0281526001600482015290516001600160a01b039092169163a9fb763c9160248082019260009290919082900301818387803b1580156200225057600080fd5b505af115801562002265573d6000803e3d6000fd5b505060035460408051600160e01b631f0df17f02815233600482015290516101009092046001600160a01b03169350631f0df17f9250602480820192602092909190829003018186803b158015620022bc57600080fd5b505afa158015620022d1573d6000803e3d6000fd5b505050506040513d6020811015620022e857600080fd5b505160408051600160e21b632a7edd8f0281526002600482015290516001600160a01b039092169163a9fb763c9160248082019260009290919082900301818387803b1580156200233857600080fd5b505af11580156200234d573d6000803e3d6000fd5b505050506001816001600160a01b031663074110526040518163ffffffff1660e01b815260040160206040518083038186803b1580156200238d57600080fd5b505afa158015620023a2573d6000803e3d6000fd5b505050506040513d6020811015620023b957600080fd5b505181548110620023c657fe5b6000918252602082200180546001600160a01b03191690556004805460408051600160e41b630c6326dd02815290516001600160a01b039283169463e3a4f926949387169363c6326dd093808201939190829003018186803b1580156200242c57600080fd5b505afa15801562002441573d6000803e3d6000fd5b505050506040513d6000823e601f3d908101601f1916820160405260208110156200246b57600080fd5b810190808051600160201b8111156200248357600080fd5b820160208101848111156200249757600080fd5b8151600160201b811182820187101715620024b157600080fd5b505060405163ffffffff861660e01b815260206004820181815283516024840152835193965094508493506044909101919085019080838360005b8381101562002506578181015183820152602001620024ec565b50505050905090810190601f168015620025345780820380516001836020036101000a031916815260200191505b509250505060206040518083038186803b1580156200255257600080fd5b505afa15801562002567573d6000803e3d6000fd5b505050506040513d60208110156200257e57600080fd5b505160408051600160e01b633bc8b61702815290516001600160a01b039283169263c0fe1af89290851691633bc8b61791600480820192602092909190829003018186803b158015620025d057600080fd5b505afa158015620025e5573d6000803e3d6000fd5b505050506040513d6020811015620025fc57600080fd5b50516040805163ffffffff841660e01b8152600481019290925251602480830192600092919082900301818387803b1580156200263857600080fd5b505af11580156200264d573d6000803e3d6000fd5b50505050806001600160a01b031663522e11776040518163ffffffff1660e01b8152600401600060405180830381600087803b1580156200130157600080fd5b6001600160a01b0380821660009081526020819052604081205490911615620026b957506001620026bd565b5060005b919050565b6000620026cf826200268d565b6200271d5760408051600160e51b62461bcd02815260206004820152601360248201526001606a1b721d185cdac8191bd95cc81b9bdd08195e1a5cdd02604482015290519081900360640190fd5b506001600160a01b039081166000908152602081905260409020541690565b6109ed806200274b8339019056fe6080604081905260018054600160a01b60ff02191690556109ed38819003908190833981018060405260a081101561003657600080fd5b81516020830180519193928301929164010000000081111561005757600080fd5b8201602081018481111561006a57600080fd5b815164010000000081118282018710171561008457600080fd5b505060208201516040909201805191949293916401000000008111156100a957600080fd5b820160208101848111156100bc57600080fd5b81516401000000008111828201871017156100d657600080fd5b5050602091820151600080546001600160a01b0319166001600160a01b038a16179055865191945092506101109160029190870190610150565b5060038390558151610129906004906020850190610150565b50346005556009555050426006555050600780546001600160a01b031916331790556101eb565b828054600181600116156101000203166002900490600052602060002090601f016020900481019282601f1061019157805160ff19168380011785556101be565b828001600101855582156101be579182015b828111156101be5782518255916020019190600101906101a3565b506101ca9291506101ce565b5090565b6101e891905b808211156101ca57600081556001016101d4565b90565b6107f3806101fa6000396000f3fe6080604052600436106100e85760003560e01c8063522e11771161008a578063a69df4b511610059578063a69df4b51461031c578063c52164c614610331578063c6326dd014610346578063cf3090121461035b576100e8565b8063522e1177146102c85780637150d8ae146102dd57806386d1a69f146102f2578063a531d36214610307576100e8565b8063228cb733116100c6578063228cb733146101cf578063325a19f1146101e45780633bc8b617146101f95780633f2d90ef1461020e576100e8565b806306fdde03146100ed578063074110521461017757806308551a531461019e575b600080fd5b3480156100f957600080fd5b50610102610384565b6040805160208082528351818301528351919283929083019185019080838360005b8381101561013c578181015183820152602001610124565b50505050905090810190601f1680156101695780820380516001836020036101000a031916815260200191505b509250505060405180910390f35b34801561018357600080fd5b5061018c61040f565b60408051918252519081900360200190f35b3480156101aa57600080fd5b506101b3610415565b604080516001600160a01b039092168252519081900360200190f35b3480156101db57600080fd5b5061018c610424565b3480156101f057600080fd5b5061018c61042a565b34801561020557600080fd5b5061018c610430565b6102c66004803603606081101561022457600080fd5b6001600160a01b03823516919081019060408101602082013564010000000081111561024f57600080fd5b82018360208201111561026157600080fd5b8035906020019184600183028401116401000000008311171561028357600080fd5b91908080601f0160208091040260200160405190810160405280939291908181526020018383808284376000920191909152509295505091359250610436915050565b005b3480156102d457600080fd5b506102c66104e5565b3480156102e957600080fd5b506101b361054c565b3480156102fe57600080fd5b506102c661055b565b34801561031357600080fd5b506101026105c2565b34801561032857600080fd5b506102c661061d565b34801561033d57600080fd5b5061018c6106bb565b34801561035257600080fd5b506101026106c1565b34801561036757600080fd5b5061037061071c565b604080519115158252519081900360200190f35b6002805460408051602060018416156101000260001901909316849004601f810184900484028201840190925281815292918301828280156104075780601f106103dc57610100808354040283529160200191610407565b820191906000526020600020905b8154815290600101906020018083116103ea57829003601f168201915b505050505081565b60095481565b6001546001600160a01b031681565b60055481565b60065481565b600a5481565b6007546001600160a01b0316331461048f5760408051600160e51b62461bcd02815260206004820152601160248201526001607a1b701c195c9b5a5cdcda5bdb8819195b9a595902604482015290519081900360640190fd5b60018054600160a01b6001600160a01b03199091166001600160a01b0386161774ff0000000000000000000000000000000000000000191617905581516104dd90600890602085019061072c565b50600a555050565b6007546001600160a01b0316331461053e5760408051600160e51b62461bcd02815260206004820152601160248201526001607a1b701c195c9b5a5cdcda5bdb8819195b9a595902604482015290519081900360640190fd5b6001546001600160a01b0316ff5b6000546001600160a01b031681565b6007546001600160a01b031633146105b45760408051600160e51b62461bcd02815260206004820152601160248201526001607a1b701c195c9b5a5cdcda5bdb8819195b9a595902604482015290519081900360640190fd5b6000546001600160a01b0316ff5b6004805460408051602060026001851615610100026000190190941693909304601f810184900484028201840190925281815292918301828280156104075780601f106103dc57610100808354040283529160200191610407565b6001546001600160a01b031633146106765760408051600160e51b62461bcd02815260206004820152601160248201526001607a1b701c195c9b5a5cdcda5bdb8819195b9a595902604482015290519081900360640190fd5b600180546001600160a81b03191690556005546040516000916004900480156108fc029183818181858288f193505050501580156106b8573d6000803e3d6000fd5b50565b60035481565b6008805460408051602060026001851615610100026000190190941693909304601f810184900484028201840190925281815292918301828280156104075780601f106103dc57610100808354040283529160200191610407565b600154600160a01b900460ff1681565b828054600181600116156101000203166002900490600052602060002090601f016020900481019282601f1061076d57805160ff191683800117855561079a565b8280016001018555821561079a579182015b8281111561079a57825182559160200191906001019061077f565b506107a69291506107aa565b5090565b6107c491905b808211156107a657600081556001016107b0565b9056fea165627a7a723058202ce68e9c59f32dd5f3a10242bef77fa9eeec504dc0702a155f10aa8e6cb8d6630029636f6e74726163742068617320616c7265616479206265656e20696e697469616c697a6564636f6e7472616374732068617665206e6f74206265656e20696e697469616c697a6564a165627a7a72305820bf76b6ec4c6ebfd7f7c1ac456b3989681221bef3ef708a8ead2eea21337422640029",
  "source": "pragma solidity ^0.5.0;\n\n// IMPORT INTERFACES\nimport { Task } from './Task.sol';\nimport { UserManager } from '../user/Manager.sol';\nimport { DeviceManager } from '../device/Manager.sol';\nimport { TokenManager } from '../Token.sol';\n\ncontract TaskManager {\n\n    // HASHMAP OF UNIQUE TASKS, [LOCATION => TASK INSTANCE]\n    mapping (address => Task) tasks;\n\n    // OPEN TASKS\n    Task[] public open;\n\n    // TIME LIMIT FOR TASK\n    uint limit = 5000;\n\n    // INIT STATUS\n    bool initialized = false;\n\n    // REFERENCES\n    UserManager user_manager;\n    DeviceManager device_manager;\n    TokenManager token_manager;\n\n    // CHECK IF TASK EXISTS\n    function exists(address _task) public view returns(bool) {\n        if (address(tasks[_task]) != 0x0000000000000000000000000000000000000000) {\n            return true;\n        } else {\n            return false;\n        }\n    }\n\n    // ADD TASK\n    function add(\n        string memory name,\n        uint reputation,\n        string memory encryption\n    ) public payable {\n\n        // IF CONTRACT HAS BEEN INITIALIZED\n        // SENDER IS A REGISTERED USER\n        // USER HAS ENOUGH TOKENS\n        require(initialized, 'contracts have not been initialized');\n        require(user_manager.exists(msg.sender), 'you are not a registered user');\n        require(token_manager.balance(msg.sender) >= 1, 'not enough tokens');\n\n        // REMOVE A TOKEN FROM SENDER\n        token_manager.remove(1, msg.sender);\n\n        // INSTANTIATE NEW TASK\n        Task task = (new Task).value(msg.value)(\n            msg.sender,\n            name,\n            reputation,\n            encryption,\n            open.length\n        );\n\n        // ADD HASHMAP ENTRY & LIST IT\n        tasks[address(task)] = task;\n        open.push(task);\n    }\n\n    // FETCH ALL OPEN TASKS\n    function fetch_open() public view returns(Task[] memory) {\n        return open;\n    }\n\n    // FETCH TASK\n    function fetch_task(address _task) public view returns(Task) {\n\n        // IF THE TASK EXISTS\n        require(exists(_task), 'task does not exist');\n        return tasks[_task];\n    }\n\n    // ACCEPT TASK\n    function accept(\n        address _task,\n        string memory _device\n    ) public payable {\n\n        // IF THE TASK EXISTS\n        // IF THE DEVICE EXISTS\n        require(exists(_task), 'task does not exist');\n        require(device_manager.exists(_device), 'device does not exist');\n\n        // SHORTHAND\n        Task task = fetch_task(_task);\n\n        // IF THE TASK IS NOT LOCKED\n        require(!task.locked(), 'task is locked');\n        require(msg.value >= task.reward() / 2, 'insufficient funds given');\n\n        // IF THE USER IS REGISTERED\n        // IF THE USER HAS ENOUGH REPUTATION\n        require(user_manager.exists(msg.sender), 'you are not a registered user');\n        require(user_manager.fetch_user(msg.sender).reputation() >= task.reputation(), 'not enough reputation');\n\n        // IF THE SENDER IS THE DEVICE OWNER\n        // IF THE DEVICE IS ACTIVE\n        require(device_manager.fetch_device(_device).owner() == msg.sender, 'you are not the device owner');\n        require(device_manager.fetch_device(_device).active(), 'device is not active');\n\n        // CURRENT ASSIGNMENT BACKLOG LENGTH\n        uint length = device_manager.fetch_device(_device).fetch_assignments().length;\n\n        // ACCEPT THE TASK & FORWARD THE FUNDS\n        task.accept.value(msg.value)(msg.sender, _device, length);\n\n        // ASSIGN TASK TO THE DEVICE\n        device_manager.fetch_device(_device).assign(_task);\n    }\n\n    // SUBMIT TASK RESULT\n    function submit(\n        address _task,\n        string memory _ipfs,\n        string memory _key\n    ) public {\n\n        // IF THE TASK EXISTS\n        require(exists(_task), 'task does not exist');\n\n        // SHORTHAND\n        Task task = fetch_task(_task);\n\n        // IF THE SENDER IS THE SELLER\n        require(task.seller() == msg.sender, 'you are not the seller');\n\n        // SEND THE RESULT TO THE BUYERS USER CONTRACT\n        user_manager.fetch_user(task.buyer()).add_result(_key, _ipfs);\n\n        // REWARD BOTH PARTIES WITH REPUTATION\n        user_manager.fetch_user(task.buyer()).reward(1);\n        user_manager.fetch_user(msg.sender).reward(2);\n\n        // UNLIST FROM OPEN TASKS & DEVICE BACKLOG\n        delete open[task.task_index()];\n        device_manager.fetch_device(task.device()).clear(task.device_index());\n\n        // SELF DESTRUCT TASK\n        task.complete();\n    }\n\n    // RELEASE THE TASK\n    function release(address _task) public {\n\n        // IF THE TASK EXISTS\n        require(exists(_task), 'task does not exist');\n\n        // SHORTHAND\n        Task task = fetch_task(_task);\n\n        // IF THE SENDER IS THE BUYER\n        require(task.buyer() == msg.sender, 'you are not the buyer');\n\n        // IF THE TASK IS LOCKED OR THE TIME LIMIT HAS BEEN EXCEEDED\n        if (!task.locked() || block.timestamp > task.created() + limit) {\n\n            // UNLIST & DESTROY THE TASK\n            delete open[task.task_index()];\n            task.release();\n\n            // IF THE TIME LIMIT WAS EXCEEDE\n            if (block.timestamp > task.created() + limit) {\n\n                // UNLIST FROM DEVICE BACKLOG\n                device_manager.fetch_device(task.device()).clear(task.device_index());\n            }\n        }\n    }\n\n    // INITIALIZE\n    function init(\n        address _user_manager,\n        address _device_manager,\n        address _token_manager\n    ) public {\n\n        // IF THE CONTRACT HAS NOT BEEN INITIALIZED\n        require(!initialized, 'contract has already been initialized');\n\n        // SET REFERENCES\n        user_manager = UserManager(_user_manager);\n        device_manager = DeviceManager(_device_manager);\n        token_manager = TokenManager(_token_manager);\n\n        // BLOCK FURTHER MODIFICATION\n        initialized = true;\n    }\n}",
  "sourcePath": "C:/Users/35840/Desktop/coding/node/eth-contracts/contracts/task/Manager.sol",
  "compiler": {
    "name": "solc",
    "version": "0.5.8+commit.23d335f2.Emscripten.clang"
  },
  "schemaVersion": "3.0.17",
  "updatedAt": "2019-11-09T18:34:22.763Z",
  "networkType": "ethereum",
  "devdoc": {
    "methods": {}
  },
  "userdoc": {
    "methods": {}
  }
}