{
  "contractName": "TaskManager",
  "abi": [
    {
      "constant": true,
      "inputs": [
        {
          "name": "",
          "type": "uint256"
        }
      ],
      "name": "open",
      "outputs": [
        {
          "name": "",
          "type": "address"
        }
      ],
      "payable": false,
      "stateMutability": "view",
      "type": "function"
    },
    {
      "constant": true,
      "inputs": [
        {
          "name": "_task",
          "type": "address"
        }
      ],
      "name": "exists",
      "outputs": [
        {
          "name": "",
          "type": "bool"
        }
      ],
      "payable": false,
      "stateMutability": "view",
      "type": "function"
    },
    {
      "constant": false,
      "inputs": [
        {
          "name": "name",
          "type": "string"
        },
        {
          "name": "reputation",
          "type": "uint256"
        },
        {
          "name": "encryption",
          "type": "string"
        }
      ],
      "name": "add",
      "outputs": [],
      "payable": true,
      "stateMutability": "payable",
      "type": "function"
    },
    {
      "constant": true,
      "inputs": [
        {
          "name": "_task",
          "type": "address"
        }
      ],
      "name": "fetch",
      "outputs": [
        {
          "name": "",
          "type": "address"
        }
      ],
      "payable": false,
      "stateMutability": "view",
      "type": "function"
    },
    {
      "constant": false,
      "inputs": [
        {
          "name": "_task",
          "type": "address"
        },
        {
          "name": "_device",
          "type": "string"
        }
      ],
      "name": "accept",
      "outputs": [],
      "payable": true,
      "stateMutability": "payable",
      "type": "function"
    },
    {
      "constant": false,
      "inputs": [
        {
          "name": "_task",
          "type": "address"
        },
        {
          "name": "_ipfs",
          "type": "string"
        },
        {
          "name": "_key",
          "type": "string"
        }
      ],
      "name": "submit",
      "outputs": [],
      "payable": false,
      "stateMutability": "nonpayable",
      "type": "function"
    },
    {
      "constant": false,
      "inputs": [
        {
          "name": "_task",
          "type": "address"
        }
      ],
      "name": "release",
      "outputs": [],
      "payable": false,
      "stateMutability": "nonpayable",
      "type": "function"
    },
    {
      "constant": false,
      "inputs": [
        {
          "name": "_user_manager",
          "type": "address"
        },
        {
          "name": "_device_manager",
          "type": "address"
        },
        {
          "name": "_token_manager",
          "type": "address"
        }
      ],
      "name": "init",
      "outputs": [],
      "payable": false,
      "stateMutability": "nonpayable",
      "type": "function"
    }
  ],
  "bytecode": "0x60806040526113886002556003805460ff1916905534801561002057600080fd5b5061277b806100306000396000f3fe608060405260043610620000865760003560e01c8063690e7c091162000055578063690e7c091462000301578063f109a0be146200034b578063f4b86b721462000382578063f6a3d24e14620004d25762000086565b8063184b9559146200008b5780631880724014620000d65780631916558714620001905780634f15e54714620001c7575b600080fd5b3480156200009857600080fd5b50620000d460048036036060811015620000b157600080fd5b506001600160a01b0381358116916020810135821691604090910135166200051d565b005b620000d460048036036040811015620000ee57600080fd5b6001600160a01b038235169190810190604081016020820135600160201b8111156200011957600080fd5b8201836020820111156200012c57600080fd5b803590602001918460018302840111600160201b831117156200014e57600080fd5b91908080601f016020809104026020016040519081016040528093929190818152602001838380828437600092019190915250929550620005ba945050505050565b3480156200019d57600080fd5b50620000d460048036036020811015620001b657600080fd5b50356001600160a01b03166200107a565b620000d460048036036060811015620001df57600080fd5b810190602081018135600160201b811115620001fa57600080fd5b8201836020820111156200020d57600080fd5b803590602001918460018302840111600160201b831117156200022f57600080fd5b91908080601f01602080910402602001604051908101604052809392919081815260200183838082843760009201919091525092958435959094909350604081019250602001359050600160201b8111156200028a57600080fd5b8201836020820111156200029d57600080fd5b803590602001918460018302840111600160201b83111715620002bf57600080fd5b91908080601f01602080910402602001604051908101604052809392919081815260200183838082843760009201919091525092955062001384945050505050565b3480156200030e57600080fd5b506200032f600480360360208110156200032757600080fd5b503562001785565b604080516001600160a01b039092168252519081900360200190f35b3480156200035857600080fd5b506200032f600480360360208110156200037157600080fd5b50356001600160a01b0316620017ad565b3480156200038f57600080fd5b50620000d460048036036060811015620003a857600080fd5b6001600160a01b038235169190810190604081016020820135600160201b811115620003d357600080fd5b820183602082011115620003e657600080fd5b803590602001918460018302840111600160201b831117156200040857600080fd5b91908080601f0160208091040260200160405190810160405280939291908181526020018383808284376000920191909152509295949360208101935035915050600160201b8111156200045b57600080fd5b8201836020820111156200046e57600080fd5b803590602001918460018302840111600160201b831117156200049057600080fd5b91908080601f0160208091040260200160405190810160405280939291908181526020018383808284376000920191909152509295506200182a945050505050565b348015620004df57600080fd5b506200050960048036036020811015620004f857600080fd5b50356001600160a01b031662001eca565b604080519115158252519081900360200190f35b60035460ff16156200056457604051600160e51b62461bcd028152600401808060200182810382526025815260200180620027086025913960400191505060405180910390fd5b60038054600480546001600160a01b039586166001600160a01b03199182161790915560058054948616949091169390931790925560ff199290931661010002610100600160a81b031990911617166001179055565b620005c58262001eca565b620006135760408051600160e51b62461bcd02815260206004820152601360248201526001606a1b721d185cdac8191bd95cc81b9bdd08195e1a5cdd02604482015290519081900360640190fd5b60048054604051600160e11b63130d191f02815260209281018381528451602483015284516001600160a01b039093169363261a323e93869383926044909101919085019080838360005b83811015620006785781810151838201526020016200065e565b50505050905090810190601f168015620006a65780820380516001836020036101000a031916815260200191505b509250505060206040518083038186803b158015620006c457600080fd5b505afa158015620006d9573d6000803e3d6000fd5b505050506040513d6020811015620006f057600080fd5b5051620007475760408051600160e51b62461bcd02815260206004820152601560248201527f64657669636520646f6573206e6f742065786973740000000000000000000000604482015290519081900360640190fd5b60006200075483620017ad565b9050806001600160a01b031663cf3090126040518163ffffffff1660e01b815260040160206040518083038186803b1580156200079057600080fd5b505afa158015620007a5573d6000803e3d6000fd5b505050506040513d6020811015620007bc57600080fd5b505115620008145760408051600160e51b62461bcd02815260206004820152600e60248201527f7461736b206973206c6f636b6564000000000000000000000000000000000000604482015290519081900360640190fd5b6002816001600160a01b031663228cb7336040518163ffffffff1660e01b815260040160206040518083038186803b1580156200085057600080fd5b505afa15801562000865573d6000803e3d6000fd5b505050506040513d60208110156200087c57600080fd5b5051816200088657fe5b04341015620008df5760408051600160e51b62461bcd02815260206004820152601860248201527f696e73756666696369656e742066756e647320676976656e0000000000000000604482015290519081900360640190fd5b60035460408051600160e11b637b51e92702815233600482015290516101009092046001600160a01b03169163f6a3d24e91602480820192602092909190829003018186803b1580156200093257600080fd5b505afa15801562000947573d6000803e3d6000fd5b505050506040513d60208110156200095e57600080fd5b5051620009b55760408051600160e51b62461bcd02815260206004820152601d60248201527f796f7520617265206e6f74206120726567697374657265642075736572000000604482015290519081900360640190fd5b806001600160a01b031663c52164c66040518163ffffffff1660e01b815260040160206040518083038186803b158015620009ef57600080fd5b505afa15801562000a04573d6000803e3d6000fd5b505050506040513d602081101562000a1b57600080fd5b505160035460408051600160e11b637884d05f02815233600482015290516101009092046001600160a01b03169163f109a0be91602480820192602092909190829003018186803b15801562000a7057600080fd5b505afa15801562000a85573d6000803e3d6000fd5b505050506040513d602081101562000a9c57600080fd5b505160408051600160e11b636290b26302815290516001600160a01b039092169163c52164c691600480820192602092909190829003018186803b15801562000ae457600080fd5b505afa15801562000af9573d6000803e3d6000fd5b505050506040513d602081101562000b1057600080fd5b5051101562000b695760408051600160e51b62461bcd02815260206004820152601560248201527f6e6f7420656e6f7567682072657075746174696f6e0000000000000000000000604482015290519081900360640190fd5b60048054604051600160e11b6371d27c93028152602092810183815285516024830152855133946001600160a01b039094169363e3a4f92693889392839260449092019185019080838360005b8381101562000bd057818101518382015260200162000bb6565b50505050905090810190601f16801562000bfe5780820380516001836020036101000a031916815260200191505b509250505060206040518083038186803b15801562000c1c57600080fd5b505afa15801562000c31573d6000803e3d6000fd5b505050506040513d602081101562000c4857600080fd5b505160408051600160e01b638da5cb5b02815290516001600160a01b0390921691638da5cb5b91600480820192602092909190829003018186803b15801562000c9057600080fd5b505afa15801562000ca5573d6000803e3d6000fd5b505050506040513d602081101562000cbc57600080fd5b50516001600160a01b03161462000d1d5760408051600160e51b62461bcd02815260206004820152601c60248201527f796f7520617265206e6f742074686520646576696365206f776e657200000000604482015290519081900360640190fd5b60048054604051600160e11b6371d27c9302815260209281018381528551602483015285516001600160a01b039093169363e3a4f92693879383926044909101919085019080838360005b8381101562000d8257818101518382015260200162000d68565b50505050905090810190601f16801562000db05780820380516001836020036101000a031916815260200191505b509250505060206040518083038186803b15801562000dce57600080fd5b505afa15801562000de3573d6000803e3d6000fd5b505050506040513d602081101562000dfa57600080fd5b505160408051600160e11b63017d862f02815290516001600160a01b03909216916302fb0c5e91600480820192602092909190829003018186803b15801562000e4257600080fd5b505afa15801562000e57573d6000803e3d6000fd5b505050506040513d602081101562000e6e57600080fd5b505162000ec55760408051600160e51b62461bcd02815260206004820152601460248201527f646576696365206973206e6f7420616374697665000000000000000000000000604482015290519081900360640190fd5b60408051600160e51b6304f802c902815233600482015290516001600160a01b03831691639f00592091349160248082019260009290919082900301818588803b15801562000f1357600080fd5b505af115801562000f28573d6000803e3d6000fd5b505060048054604051600160e11b6371d27c9302815260209281018381528851602483015288516001600160a01b03909316965063e3a4f92695508894509283926044909201919085019080838360005b8381101562000f9357818101518382015260200162000f79565b50505050905090810190601f16801562000fc15780820380516001836020036101000a031916815260200191505b509250505060206040518083038186803b15801562000fdf57600080fd5b505afa15801562000ff4573d6000803e3d6000fd5b505050506040513d60208110156200100b57600080fd5b505160408051600160e01b6385aba2750281526001600160a01b038681166004830152915191909216916385aba27591602480830192600092919082900301818387803b1580156200105c57600080fd5b505af115801562001071573d6000803e3d6000fd5b50505050505050565b620010858162001eca565b620010d35760408051600160e51b62461bcd02815260206004820152601360248201526001606a1b721d185cdac8191bd95cc81b9bdd08195e1a5cdd02604482015290519081900360640190fd5b6000620010e082620017ad565b9050336001600160a01b0316816001600160a01b0316637150d8ae6040518163ffffffff1660e01b815260040160206040518083038186803b1580156200112657600080fd5b505afa1580156200113b573d6000803e3d6000fd5b505050506040513d60208110156200115257600080fd5b50516001600160a01b031614620011b35760408051600160e51b62461bcd02815260206004820152601560248201527f796f7520617265206e6f74207468652062757965720000000000000000000000604482015290519081900360640190fd5b806001600160a01b031663cf3090126040518163ffffffff1660e01b815260040160206040518083038186803b158015620011ed57600080fd5b505afa15801562001202573d6000803e3d6000fd5b505050506040513d60208110156200121957600080fd5b50518015620012925750600254816001600160a01b031663325a19f16040518163ffffffff1660e01b815260040160206040518083038186803b1580156200126057600080fd5b505afa15801562001275573d6000803e3d6000fd5b505050506040513d60208110156200128c57600080fd5b50510142105b1562001380576001816001600160a01b0316632986c0e56040518163ffffffff1660e01b815260040160206040518083038186803b158015620012d457600080fd5b505afa158015620012e9573d6000803e3d6000fd5b505050506040513d60208110156200130057600080fd5b5051815481106200130d57fe5b6000918252602082200180546001600160a01b031916905560408051600160e01b6386d1a69f02815290516001600160a01b038416926386d1a69f926004808201939182900301818387803b1580156200136657600080fd5b505af11580156200137b573d6000803e3d6000fd5b505050505b5050565b60035460ff16620013ca57604051600160e51b62461bcd0281526004018080602001828103825260238152602001806200272d6023913960400191505060405180910390fd5b60035460408051600160e11b637b51e92702815233600482015290516101009092046001600160a01b03169163f6a3d24e91602480820192602092909190829003018186803b1580156200141d57600080fd5b505afa15801562001432573d6000803e3d6000fd5b505050506040513d60208110156200144957600080fd5b5051620014a05760408051600160e51b62461bcd02815260206004820152601d60248201527f796f7520617265206e6f74206120726567697374657265642075736572000000604482015290519081900360640190fd5b60055460408051600160e01b63e3d670d702815233600482015290516001926001600160a01b03169163e3d670d7916024808301926020929190829003018186803b158015620014ef57600080fd5b505afa15801562001504573d6000803e3d6000fd5b505050506040513d60208110156200151b57600080fd5b50511015620015745760408051600160e51b62461bcd02815260206004820152601160248201527f6e6f7420656e6f75676820746f6b656e73000000000000000000000000000000604482015290519081900360640190fd5b60055460408051600160e21b63277e93a50281526001600482015233602482015290516001600160a01b0390921691639dfa4e949160448082019260009290919082900301818387803b158015620015cb57600080fd5b505af1158015620015e0573d6000803e3d6000fd5b5050505060003433858585600180549050604051620015ff9062001eff565b80866001600160a01b03166001600160a01b031681526020018060200185815260200180602001848152602001838103835287818151815260200191508051906020019080838360005b838110156200166357818101518382015260200162001649565b50505050905090810190601f168015620016915780820380516001836020036101000a031916815260200191505b50838103825285518152855160209182019187019080838360005b83811015620016c6578181015183820152602001620016ac565b50505050905090810190601f168015620016f45780820380516001836020036101000a031916815260200191505b509750505050505050506040518091039082f0801580156200171a573d6000803e3d6000fd5b506001600160a01b0316600081815260208190526040812080546001600160a01b0319908116841790915560018054808201825592527fb10e2d527612073b26eecdfd717e6a320cf44b4afac2b0732d9fcbe2b7fa0cf6909101805490911690911790555050505050565b600181815481106200179357fe5b6000918252602090912001546001600160a01b0316905081565b6000620017ba8262001eca565b620018085760408051600160e51b62461bcd02815260206004820152601360248201526001606a1b721d185cdac8191bd95cc81b9bdd08195e1a5cdd02604482015290519081900360640190fd5b506001600160a01b03808216600090815260208190526040902054165b919050565b620018358362001eca565b620018835760408051600160e51b62461bcd02815260206004820152601360248201526001606a1b721d185cdac8191bd95cc81b9bdd08195e1a5cdd02604482015290519081900360640190fd5b60006200189084620017ad565b9050336001600160a01b0316816001600160a01b03166308551a536040518163ffffffff1660e01b815260040160206040518083038186803b158015620018d657600080fd5b505afa158015620018eb573d6000803e3d6000fd5b505050506040513d60208110156200190257600080fd5b50516001600160a01b031614620019635760408051600160e51b62461bcd02815260206004820152601660248201527f796f7520617265206e6f74207468652073656c6c657200000000000000000000604482015290519081900360640190fd5b600360019054906101000a90046001600160a01b03166001600160a01b031663f109a0be826001600160a01b0316637150d8ae6040518163ffffffff1660e01b815260040160206040518083038186803b158015620019c157600080fd5b505afa158015620019d6573d6000803e3d6000fd5b505050506040513d6020811015620019ed57600080fd5b50516040805163ffffffff841660e01b81526001600160a01b039092166004830152516024808301926020929190829003018186803b15801562001a3057600080fd5b505afa15801562001a45573d6000803e3d6000fd5b505050506040513d602081101562001a5c57600080fd5b505160408051600160e21b630ae29d29028152600481019182528451604482015284516001600160a01b0390931692632b8a74a4928692889282916024810191606490910190602087019080838360005b8381101562001ac757818101518382015260200162001aad565b50505050905090810190601f16801562001af55780820380516001836020036101000a031916815260200191505b50838103825284518152845160209182019186019080838360005b8381101562001b2a57818101518382015260200162001b10565b50505050905090810190601f16801562001b585780820380516001836020036101000a031916815260200191505b50945050505050600060405180830381600087803b15801562001b7a57600080fd5b505af115801562001b8f573d6000803e3d6000fd5b50505050600360019054906101000a90046001600160a01b03166001600160a01b031663f109a0be826001600160a01b0316637150d8ae6040518163ffffffff1660e01b815260040160206040518083038186803b15801562001bf157600080fd5b505afa15801562001c06573d6000803e3d6000fd5b505050506040513d602081101562001c1d57600080fd5b50516040805163ffffffff841660e01b81526001600160a01b039092166004830152516024808301926020929190829003018186803b15801562001c6057600080fd5b505afa15801562001c75573d6000803e3d6000fd5b505050506040513d602081101562001c8c57600080fd5b505160408051600160e21b632a7edd8f0281526001600482015290516001600160a01b039092169163a9fb763c9160248082019260009290919082900301818387803b15801562001cdc57600080fd5b505af115801562001cf1573d6000803e3d6000fd5b505060035460408051600160e11b637884d05f02815233600482015290516101009092046001600160a01b0316935063f109a0be9250602480820192602092909190829003018186803b15801562001d4857600080fd5b505afa15801562001d5d573d6000803e3d6000fd5b505050506040513d602081101562001d7457600080fd5b505160408051600160e21b632a7edd8f0281526002600482015290516001600160a01b039092169163a9fb763c9160248082019260009290919082900301818387803b15801562001dc457600080fd5b505af115801562001dd9573d6000803e3d6000fd5b505050506001816001600160a01b0316632986c0e56040518163ffffffff1660e01b815260040160206040518083038186803b15801562001e1957600080fd5b505afa15801562001e2e573d6000803e3d6000fd5b505050506040513d602081101562001e4557600080fd5b50518154811062001e5257fe5b6000918252602082200180546001600160a01b031916905560408051600160e01b63522e117702815290516001600160a01b0384169263522e1177926004808201939182900301818387803b15801562001eab57600080fd5b505af115801562001ec0573d6000803e3d6000fd5b5050505050505050565b6001600160a01b038082166000908152602081905260408120549091161562001ef65750600162001825565b50600062001825565b6107fa8062001f0e8339019056fe6080604081905260018054600160a01b60ff02191690556107fa38819003908190833981018060405260a081101561003657600080fd5b81516020830180519193928301929164010000000081111561005757600080fd5b8201602081018481111561006a57600080fd5b815164010000000081118282018710171561008457600080fd5b505060208201516040909201805191949293916401000000008111156100a957600080fd5b820160208101848111156100bc57600080fd5b81516401000000008111828201871017156100d657600080fd5b5050602091820151600080546001600160a01b0319166001600160a01b038a16179055865191945092506101109160029190870190610150565b5060038390558151610129906004906020850190610150565b50346005556006555050426007555050600880546001600160a01b031916331790556101eb565b828054600181600116156101000203166002900490600052602060002090601f016020900481019282601f1061019157805160ff19168380011785556101be565b828001600101855582156101be579182015b828111156101be5782518255916020019190600101906101a3565b506101ca9291506101ce565b5090565b6101e891905b808211156101ca57600081556001016101d4565b90565b610600806101fa6000396000f3fe6080604052600436106100c25760003560e01c80637150d8ae1161007f578063a531d36211610059578063a531d3621461023a578063a69df4b51461024f578063c52164c614610264578063cf30901214610279576100c2565b80637150d8ae146101ea57806386d1a69f146101ff5780639f00592014610214576100c2565b806306fdde03146100c757806308551a5314610151578063228cb733146101825780632986c0e5146101a9578063325a19f1146101be578063522e1177146101d3575b600080fd5b3480156100d357600080fd5b506100dc6102a2565b6040805160208082528351818301528351919283929083019185019080838360005b838110156101165781810151838201526020016100fe565b50505050905090810190601f1680156101435780820380516001836020036101000a031916815260200191505b509250505060405180910390f35b34801561015d57600080fd5b5061016661032d565b604080516001600160a01b039092168252519081900360200190f35b34801561018e57600080fd5b5061019761033c565b60408051918252519081900360200190f35b3480156101b557600080fd5b50610197610342565b3480156101ca57600080fd5b50610197610348565b3480156101df57600080fd5b506101e861034e565b005b3480156101f657600080fd5b506101666103b5565b34801561020b57600080fd5b506101e86103c4565b6101e86004803603602081101561022a57600080fd5b50356001600160a01b031661042b565b34801561024657600080fd5b506100dc6104c5565b34801561025b57600080fd5b506101e8610520565b34801561027057600080fd5b506101976105be565b34801561028557600080fd5b5061028e6105c4565b604080519115158252519081900360200190f35b6002805460408051602060018416156101000260001901909316849004601f810184900484028201840190925281815292918301828280156103255780601f106102fa57610100808354040283529160200191610325565b820191906000526020600020905b81548152906001019060200180831161030857829003601f168201915b505050505081565b6001546001600160a01b031681565b60055481565b60065481565b60075481565b6008546001600160a01b031633146103a75760408051600160e51b62461bcd02815260206004820152601160248201526001607a1b701c195c9b5a5cdcda5bdb8819195b9a595902604482015290519081900360640190fd5b6001546001600160a01b0316ff5b6000546001600160a01b031681565b6008546001600160a01b0316331461041d5760408051600160e51b62461bcd02815260206004820152601160248201526001607a1b701c195c9b5a5cdcda5bdb8819195b9a595902604482015290519081900360640190fd5b6000546001600160a01b0316ff5b6008546001600160a01b031633146104845760408051600160e51b62461bcd02815260206004820152601160248201526001607a1b701c195c9b5a5cdcda5bdb8819195b9a595902604482015290519081900360640190fd5b6001805474ff0000000000000000000000000000000000000000196001600160a01b039093166001600160a01b03199091161791909116600160a01b179055565b6004805460408051602060026001851615610100026000190190941693909304601f810184900484028201840190925281815292918301828280156103255780601f106102fa57610100808354040283529160200191610325565b6001546001600160a01b031633146105795760408051600160e51b62461bcd02815260206004820152601160248201526001607a1b701c195c9b5a5cdcda5bdb8819195b9a595902604482015290519081900360640190fd5b600180546001600160a81b03191690556005546040516000916004900480156108fc029183818181858288f193505050501580156105bb573d6000803e3d6000fd5b50565b60035481565b600154600160a01b900460ff168156fea165627a7a723058208f504055e111d4ec103e5e37705a1de4ea23b3543ba2953ff2bdb8d4ab2d41ff0029636f6e74726163742068617320616c7265616479206265656e20696e697469616c697a6564636f6e7472616374732068617665206e6f74206265656e20696e697469616c697a6564a165627a7a72305820c8c85245f5d1fd06c3dcf8426378cab41c2322dbc70655e7a59b694216f73b0b0029",
  "source": "pragma solidity ^0.5.0;\n\n// IMPORT INTERFACES\nimport { Task } from './Task.sol';\nimport { UserManager } from '../user/Manager.sol';\nimport { DeviceManager } from '../device/Manager.sol';\nimport { TokenManager } from '../Token.sol';\n\ncontract TaskManager {\n\n    // HASHMAP OF UNIQUE TASKS, [LOCATION => TASK INSTANCE]\n    mapping (address => Task) tasks;\n\n    // OPEN TASKS\n    Task[] public open;\n\n    // TIME LIMIT FOR TASK\n    uint limit = 5000;\n\n    // INIT STATUS\n    bool initialized = false;\n\n    // REFERENCES\n    UserManager user_manager;\n    DeviceManager device_manager;\n    TokenManager token_manager;\n\n    // CHECK IF TASK EXISTS\n    function exists(address _task) public view returns(bool) {\n        if (address(tasks[_task]) != 0x0000000000000000000000000000000000000000) {\n            return true;\n        } else {\n            return false;\n        }\n    }\n\n    // ADD TASK\n    function add(\n        string memory name,\n        uint reputation,\n        string memory encryption\n    ) public payable {\n\n        // IF CONTRACT HAS BEEN INITIALIZED\n        // SENDER IS A REGISTERED USER\n        // USER HAS ENOUGH TOKENS\n        require(initialized, 'contracts have not been initialized');\n        require(user_manager.exists(msg.sender), 'you are not a registered user');\n        require(token_manager.balance(msg.sender) >= 1, 'not enough tokens');\n\n        // REMOVE A TOKEN FROM SENDER\n        token_manager.remove(1, msg.sender);\n\n        // INSTANTIATE NEW TASK\n        Task task = (new Task).value(msg.value)(\n            msg.sender,\n            name,\n            reputation,\n            encryption,\n            open.length\n        );\n\n        // ADD HASHMAP ENTRY & LIST IT\n        tasks[address(task)] = task;\n        open.push(task);\n    }\n\n    // FETCH TASK\n    function fetch(address _task) public view returns(Task) {\n\n        // IF THE TASK EXISTS\n        require(exists(_task), 'task does not exist');\n        return tasks[_task];\n    }\n\n    // ACCEPT TASK\n    function accept(\n        address _task,\n        string memory _device\n    ) public payable {\n\n        // IF THE TASK EXISTS\n        // IF THE DEVICE EXISTS\n        require(exists(_task), 'task does not exist');\n        require(device_manager.exists(_device), 'device does not exist');\n\n        // SHORTHAND\n        Task task = fetch(_task);\n\n        // IF THE TASK IS NOT LOCKED\n        require(!task.locked(), 'task is locked');\n        require(msg.value >= task.reward() / 2, 'insufficient funds given');\n\n        // IF THE USER IS REGISTERED\n        // IF THE USER HAS ENOUGH REPUTATION\n        require(user_manager.exists(msg.sender), 'you are not a registered user');\n        require(user_manager.fetch(msg.sender).reputation() >= task.reputation(), 'not enough reputation');\n\n        // IF THE SENDER IS THE DEVICE OWNER\n        // IF THE DEVICE IS ACTIVE\n        require(device_manager.fetch_device(_device).owner() == msg.sender, 'you are not the device owner');\n        require(device_manager.fetch_device(_device).active(), 'device is not active');\n\n        // ACCEPT THE TASK & FORWARD THE FUNDS\n        task.accept.value(msg.value)(msg.sender);\n\n        // ASSIGN TASK TO THE DEVICE\n        device_manager.fetch_device(_device).assign(_task);\n    }\n\n    // SUBMIT TASK RESULT\n    function submit(\n        address _task,\n        string memory _ipfs,\n        string memory _key\n    ) public {\n\n        // IF THE TASK EXISTS\n        require(exists(_task), 'task does not exist');\n\n        // SHORTHAND\n        Task task = fetch(_task);\n\n        // IF THE SENDER IS THE SELLER\n        require(task.seller() == msg.sender, 'you are not the seller');\n\n        // SEND THE RESULT TO THE BUYERS USER CONTRACT\n        user_manager.fetch(task.buyer()).add_result(_key, _ipfs);\n\n        // REWARD BOTH PARTIES WITH REPUTATION\n        user_manager.fetch(task.buyer()).reward(1);\n        user_manager.fetch(msg.sender).reward(2);\n\n        // UNLIST & DESTROY THE TASK\n        delete open[task.index()];\n        task.complete();\n    }\n\n    // RELEASE THE TASK\n    function release(address _task) public {\n\n        // IF THE TASK EXISTS\n        require(exists(_task), 'task does not exist');\n\n        // SHORTHAND\n        Task task = fetch(_task);\n\n        // IF THE SENDER IS THE BUYER\n        require(task.buyer() == msg.sender, 'you are not the buyer');\n\n        // IF THE TASK IS LOCKED & THE TIME LIMIT HAS NOT BEEN EXCEEDED\n        if (task.locked() && block.timestamp < task.created() + limit) {\n\n            // UNLIST & DESTROY THE TASK\n            delete open[task.index()];\n            task.release();\n        }\n    }\n\n    // INITIALIZE\n    function init(\n        address _user_manager,\n        address _device_manager,\n        address _token_manager\n    ) public {\n\n        // IF THE CONTRACT HAS NOT BEEN INITIALIZED\n        require(!initialized, 'contract has already been initialized');\n\n        // SET REFERENCES\n        user_manager = UserManager(_user_manager);\n        device_manager = DeviceManager(_device_manager);\n        token_manager = TokenManager(_token_manager);\n\n        // BLOCK FURTHER MODIFICATION\n        initialized = true;\n    }\n}",
  "sourcePath": "C:\\Users\\35840\\Desktop\\coding\\node\\eth-contracts\\contracts\\task\\Manager.sol",
  "compiler": {
    "name": "solc",
    "version": "0.5.8+commit.23d335f2.Emscripten.clang"
  },
  "schemaVersion": "3.0.17",
  "updatedAt": "2019-11-06T20:02:22.558Z",
  "devdoc": {
    "methods": {}
  },
  "userdoc": {
    "methods": {}
  }
}