{
  "contractName": "Task",
  "abi": [
    {
      "constant": true,
      "inputs": [],
      "name": "creator",
      "outputs": [
        {
          "name": "",
          "type": "address"
        }
      ],
      "payable": false,
      "stateMutability": "view",
      "type": "function"
    },
    {
      "constant": true,
      "inputs": [],
      "name": "reward",
      "outputs": [
        {
          "name": "",
          "type": "uint256"
        }
      ],
      "payable": false,
      "stateMutability": "view",
      "type": "function"
    },
    {
      "constant": true,
      "inputs": [],
      "name": "min_reputation",
      "outputs": [
        {
          "name": "",
          "type": "uint256"
        }
      ],
      "payable": false,
      "stateMutability": "view",
      "type": "function"
    },
    {
      "constant": true,
      "inputs": [],
      "name": "created",
      "outputs": [
        {
          "name": "",
          "type": "uint256"
        }
      ],
      "payable": false,
      "stateMutability": "view",
      "type": "function"
    },
    {
      "constant": true,
      "inputs": [],
      "name": "encryption_key",
      "outputs": [
        {
          "name": "",
          "type": "string"
        }
      ],
      "payable": false,
      "stateMutability": "view",
      "type": "function"
    },
    {
      "constant": true,
      "inputs": [],
      "name": "deliverer",
      "outputs": [
        {
          "name": "",
          "type": "address"
        }
      ],
      "payable": false,
      "stateMutability": "view",
      "type": "function"
    },
    {
      "constant": true,
      "inputs": [],
      "name": "device",
      "outputs": [
        {
          "name": "",
          "type": "string"
        }
      ],
      "payable": false,
      "stateMutability": "view",
      "type": "function"
    },
    {
      "constant": true,
      "inputs": [],
      "name": "locked",
      "outputs": [
        {
          "name": "",
          "type": "bool"
        }
      ],
      "payable": false,
      "stateMutability": "view",
      "type": "function"
    },
    {
      "inputs": [
        {
          "name": "_creator",
          "type": "address"
        },
        {
          "name": "_reputation",
          "type": "uint256"
        },
        {
          "name": "_reward",
          "type": "uint256"
        },
        {
          "name": "_encryption_key",
          "type": "string"
        }
      ],
      "payable": false,
      "stateMutability": "nonpayable",
      "type": "constructor"
    },
    {
      "constant": false,
      "inputs": [
        {
          "name": "_deliverer",
          "type": "address"
        },
        {
          "name": "_device",
          "type": "string"
        }
      ],
      "name": "accept",
      "outputs": [],
      "payable": false,
      "stateMutability": "nonpayable",
      "type": "function"
    },
    {
      "constant": false,
      "inputs": [],
      "name": "destroy",
      "outputs": [],
      "payable": false,
      "stateMutability": "nonpayable",
      "type": "function"
    }
  ],
  "bytecode": "0x60806040526003805460ff1916905534801561001a57600080fd5b506040516106f03803806106f08339810180604052608081101561003d57600080fd5b815160208301516040840151606085018051939592949193918301929164010000000081111561006c57600080fd5b8201602081018481111561007f57600080fd5b815164010000000081118282018710171561009957600080fd5b5050600080546001600160a01b0319166001600160a01b0389161790556004869055600585905580519093506100d892506007915060208401906100f8565b5050426006555050600880546001600160a01b0319163317905550610193565b828054600181600116156101000203166002900490600052602060002090601f016020900481019282601f1061013957805160ff1916838001178555610166565b82800160010185558215610166579182015b8281111561016657825182559160200191906001019061014b565b50610172929150610176565b5090565b61019091905b80821115610172576000815560010161017c565b90565b61054e806101a26000396000f3fe608060405234801561001057600080fd5b506004361061009e5760003560e01c80633f1444b5116100665780633f1444b5146101a957806381bbfb611461022657806383197ef01461022e578063c6326dd014610236578063cf3090121461023e5761009e565b806302d05d3f146100a357806318807240146100c7578063228cb7331461017f5780632a960fa714610199578063325a19f1146101a1575b600080fd5b6100ab61025a565b604080516001600160a01b039092168252519081900360200190f35b61017d600480360360408110156100dd57600080fd5b6001600160a01b03823516919081019060408101602082013564010000000081111561010857600080fd5b82018360208201111561011a57600080fd5b8035906020019184600183028401116401000000008311171561013c57600080fd5b91908080601f016020809104026020016040519081016040528093929190818152602001838380828437600092019190915250929550610269945050505050565b005b61018761031b565b60408051918252519081900360200190f35b610187610321565b610187610327565b6101b161032d565b6040805160208082528351818301528351919283929083019185019080838360005b838110156101eb5781810151838201526020016101d3565b50505050905090810190601f1680156102185780820380516001836020036101000a031916815260200191505b509250505060405180910390f35b6100ab6103bb565b61017d6103ca565b6101b1610426565b61024661047e565b604080519115158252519081900360200190f35b6000546001600160a01b031681565b6008546001600160a01b031633146102c25760408051600160e51b62461bcd02815260206004820152601160248201526001607a1b701c195c9b5a5cdcda5bdb8819195b9a595902604482015290519081900360640190fd5b600180546001600160a01b0319166001600160a01b0384161781556003805460ff1916909117905580516102fd906002906020840190610487565b5060026005548161030a57fe5b600580549290910490910190555050565b60055481565b60045481565b60065481565b6007805460408051602060026001851615610100026000190190941693909304601f810184900484028201840190925281815292918301828280156103b35780601f10610388576101008083540402835291602001916103b3565b820191906000526020600020905b81548152906001019060200180831161039657829003601f168201915b505050505081565b6001546001600160a01b031681565b6008546001600160a01b031633146104235760408051600160e51b62461bcd02815260206004820152601160248201526001607a1b701c195c9b5a5cdcda5bdb8819195b9a595902604482015290519081900360640190fd5b30ff5b6002805460408051602060018416156101000260001901909316849004601f810184900484028201840190925281815292918301828280156103b35780601f10610388576101008083540402835291602001916103b3565b60035460ff1681565b828054600181600116156101000203166002900490600052602060002090601f016020900481019282601f106104c857805160ff19168380011785556104f5565b828001600101855582156104f5579182015b828111156104f55782518255916020019190600101906104da565b50610501929150610505565b5090565b61051f91905b80821115610501576000815560010161050b565b9056fea165627a7a723058204a2a80287a3a07411d82f515149caeff1c06bb7ef40ba91c65db1eac6ea226600029",
  "source": "pragma solidity ^0.5.0;\n\ncontract Task {\n\n    // TASK CREATOR, DELIVERER & PERFORMING DEVICE\n    address public creator;\n    address public deliverer;\n    string public device;\n\n    // LOCKED STATUS\n    bool public locked = false;\n\n    // DETAILS\n    uint public min_reputation;\n    uint public reward;\n    uint256 public created;\n    string public encryption_key;\n\n    // TASK MANAGER REFERENCE\n    address task_manager;\n\n    // WHEN CREATED\n    constructor(\n        address _creator,\n        uint _reputation,\n        uint _reward,\n        string memory _encryption_key\n    ) public {\n\n        // TASK DETAILS\n        creator = _creator;\n        min_reputation = _reputation;\n        reward = _reward;\n        encryption_key = _encryption_key;\n        created = block.timestamp;\n\n        // TASK MANAGER REFERENCE\n        task_manager = msg.sender;\n    }\n\n    // ACCEPT TASK\n    function accept(\n        address _deliverer,\n        string memory _device\n    ) public {\n\n        // IF THE SENDER IS THE TASK MANAGER\n        require(msg.sender == task_manager, 'permission denied');\n\n        // SET SELLER & LOCK THE TASK\n        deliverer = _deliverer;\n        locked = true;\n\n        // SET PERFORMING DEVICE & INCREASE THE REWARD\n        device = _device;\n        reward += reward / 2;\n    }\n\n    // SELF DESTRUCT\n    function destroy() public {\n\n        // IF THE SENDER IS THE TASK MANAGER\n        require(msg.sender == task_manager, 'permission denied');\n        selfdestruct(address(uint160(address(this))));\n    }\n}",
  "sourcePath": "C:\\Users\\35840\\Desktop\\coding\\node\\eth-contracts\\contracts\\task\\Task.sol",
  "compiler": {
    "name": "solc",
    "version": "0.5.8+commit.23d335f2.Emscripten.clang"
  },
  "schemaVersion": "3.0.17",
  "updatedAt": "2020-02-03T01:12:44.741Z",
  "devdoc": {
    "methods": {}
  },
  "userdoc": {
    "methods": {}
  }
}