{
  "contractName": "TaskManager",
  "abi": [
    {
      "inputs": [],
      "name": "fee",
      "outputs": [
        {
          "internalType": "uint256",
          "name": "",
          "type": "uint256"
        }
      ],
      "stateMutability": "view",
      "type": "function",
      "constant": true
    },
    {
      "inputs": [
        {
          "internalType": "uint256",
          "name": "",
          "type": "uint256"
        }
      ],
      "name": "open",
      "outputs": [
        {
          "internalType": "contract Task",
          "name": "",
          "type": "address"
        }
      ],
      "stateMutability": "view",
      "type": "function",
      "constant": true
    },
    {
      "inputs": [
        {
          "internalType": "address",
          "name": "task",
          "type": "address"
        }
      ],
      "name": "fetch_task",
      "outputs": [
        {
          "internalType": "contract Task",
          "name": "",
          "type": "address"
        }
      ],
      "stateMutability": "view",
      "type": "function",
      "constant": true
    },
    {
      "inputs": [
        {
          "internalType": "address",
          "name": "task",
          "type": "address"
        }
      ],
      "name": "fetch_result",
      "outputs": [
        {
          "components": [
            {
              "internalType": "string",
              "name": "key",
              "type": "string"
            },
            {
              "internalType": "string",
              "name": "ipfs",
              "type": "string"
            }
          ],
          "internalType": "struct TaskManager.result",
          "name": "",
          "type": "tuple"
        }
      ],
      "stateMutability": "view",
      "type": "function",
      "constant": true
    },
    {
      "inputs": [
        {
          "internalType": "uint256",
          "name": "reputation",
          "type": "uint256"
        },
        {
          "internalType": "uint256",
          "name": "reward",
          "type": "uint256"
        },
        {
          "internalType": "string",
          "name": "encryption_key",
          "type": "string"
        },
        {
          "internalType": "uint256",
          "name": "timelimit",
          "type": "uint256"
        }
      ],
      "name": "add",
      "outputs": [],
      "stateMutability": "nonpayable",
      "type": "function"
    },
    {
      "inputs": [
        {
          "internalType": "address",
          "name": "_task",
          "type": "address"
        },
        {
          "internalType": "string",
          "name": "_device",
          "type": "string"
        }
      ],
      "name": "accept",
      "outputs": [],
      "stateMutability": "nonpayable",
      "type": "function"
    },
    {
      "inputs": [
        {
          "internalType": "address",
          "name": "_task",
          "type": "address"
        },
        {
          "internalType": "string",
          "name": "_key",
          "type": "string"
        },
        {
          "internalType": "string",
          "name": "_ipfs",
          "type": "string"
        }
      ],
      "name": "complete",
      "outputs": [],
      "stateMutability": "nonpayable",
      "type": "function"
    },
    {
      "inputs": [
        {
          "internalType": "address",
          "name": "_task",
          "type": "address"
        }
      ],
      "name": "release",
      "outputs": [],
      "stateMutability": "nonpayable",
      "type": "function"
    },
    {
      "inputs": [
        {
          "internalType": "uint256",
          "name": "_fee",
          "type": "uint256"
        },
        {
          "internalType": "address",
          "name": "_user_manager",
          "type": "address"
        },
        {
          "internalType": "address",
          "name": "_device_manager",
          "type": "address"
        },
        {
          "internalType": "address",
          "name": "_token_manager",
          "type": "address"
        }
      ],
      "name": "init",
      "outputs": [],
      "stateMutability": "nonpayable",
      "type": "function"
    },
    {
      "inputs": [
        {
          "internalType": "address",
          "name": "_task",
          "type": "address"
        }
      ],
      "name": "exists",
      "outputs": [
        {
          "internalType": "bool",
          "name": "",
          "type": "bool"
        }
      ],
      "stateMutability": "view",
      "type": "function",
      "constant": true
    }
  ],
  "bytecode": "0x60806040526004805460ff1916905534801561001a57600080fd5b50612c528061002a6000396000f3fe60806040523480156200001157600080fd5b5060043610620000ac5760003560e01c8063d4c69417116200006f578063d4c69417146200014d578063dc890da91462000164578063ddca3f43146200017b578063f6a3d24e1462000194578063f772282c14620001ba57620000ac565b80631880724014620000b15780631916558714620000ca578063690e7c0914620000e15780638d9ff2cf14620001105780639ea2bdaf1462000136575b600080fd5b620000c8620000c236600462001e55565b620001d1565b005b620000c8620000db36600462001e10565b62000a2b565b620000f8620000f236600462001fc6565b62000f4c565b604051620001079190620020d9565b60405180910390f35b620001276200012136600462001e10565b62000f74565b604051620001079190620023c9565b620000c86200014736600462001ea9565b620010e1565b620000c86200015e36600462002051565b620018a1565b620000c86200017536600462001ff8565b62001b9a565b6200018562001c1e565b60405162000107919062002167565b620001ab620001a536600462001e10565b62001c24565b6040516200010791906200215c565b620000f8620001cb36600462001e10565b62001c59565b620001dc8262001c24565b620002045760405162461bcd60e51b8152600401620001fb906200239c565b60405180910390fd5b60055460405163130d191f60e11b81526001600160a01b039091169063261a323e906200023690849060040162002170565b60206040518083038186803b1580156200024f57600080fd5b505afa15801562000264573d6000803e3d6000fd5b505050506040513d601f19601f820116820180604052508101906200028a919062001f25565b620002a95760405162461bcd60e51b8152600401620001fb9062002294565b6000620002b68362001c59565b9050806001600160a01b031663cf3090126040518163ffffffff1660e01b815260040160206040518083038186803b158015620002f257600080fd5b505afa15801562000307573d6000803e3d6000fd5b505050506040513d601f19601f820116820180604052508101906200032d919062001f25565b156200034d5760405162461bcd60e51b8152600401620001fb90620022c3565b60048054604051637b51e92760e11b81526101009091046001600160a01b03169163f6a3d24e916200038291339101620020d9565b60206040518083038186803b1580156200039b57600080fd5b505afa158015620003b0573d6000803e3d6000fd5b505050506040513d601f19601f82011682018060405250810190620003d6919062001f25565b620003f55760405162461bcd60e51b8152600401620001fb90620022eb565b806001600160a01b031663c52164c66040518163ffffffff1660e01b815260040160206040518083038186803b1580156200042f57600080fd5b505afa15801562000444573d6000803e3d6000fd5b505050506040513d601f19601f820116820180604052508101906200046a919062001fdf565b60048054604051637884d05f60e11b81526101009091046001600160a01b03169163f109a0be916200049f91339101620020d9565b60206040518083038186803b158015620004b857600080fd5b505afa158015620004cd573d6000803e3d6000fd5b505050506040513d601f19601f82011682018060405250810190620004f3919062001e36565b6001600160a01b031663c52164c66040518163ffffffff1660e01b815260040160206040518083038186803b1580156200052c57600080fd5b505afa15801562000541573d6000803e3d6000fd5b505050506040513d601f19601f8201168201806040525081019062000567919062001fdf565b1015620005885760405162461bcd60e51b8152600401620001fb9062002265565b6002816001600160a01b031663228cb7336040518163ffffffff1660e01b815260040160206040518083038186803b158015620005c457600080fd5b505afa158015620005d9573d6000803e3d6000fd5b505050506040513d601f19601f82011682018060405250810190620005ff919062001fdf565b816200060757fe5b60065460405163e3d670d760e01b815292909104916001600160a01b039091169063e3d670d7906200063e903390600401620020d9565b60206040518083038186803b1580156200065757600080fd5b505afa1580156200066c573d6000803e3d6000fd5b505050506040513d601f19601f8201168201806040525081019062000692919062001fdf565b1015620006b35760405162461bcd60e51b8152600401620001fb9062002185565b6005546040516371d27c9360e11b815233916001600160a01b03169063e3a4f92690620006e590869060040162002170565b60206040518083038186803b158015620006fe57600080fd5b505afa15801562000713573d6000803e3d6000fd5b505050506040513d601f19601f8201168201806040525081019062000739919062001e36565b6001600160a01b0316638da5cb5b6040518163ffffffff1660e01b815260040160206040518083038186803b1580156200077257600080fd5b505afa15801562000787573d6000803e3d6000fd5b505050506040513d601f19601f82011682018060405250810190620007ad919062001e36565b6001600160a01b031614620007d65760405162461bcd60e51b8152600401620001fb9062002365565b604051630d50ec8f60e21b81526001600160a01b03821690633543b23c90620008069033908690600401620020ed565b600060405180830381600087803b1580156200082157600080fd5b505af115801562000836573d6000803e3d6000fd5b50506005546040516371d27c9360e11b81526001600160a01b03909116925063e3a4f92691506200086c90859060040162002170565b60206040518083038186803b1580156200088557600080fd5b505afa1580156200089a573d6000803e3d6000fd5b505050506040513d601f19601f82011682018060405250810190620008c0919062001e36565b6001600160a01b031663176e8285846040518263ffffffff1660e01b8152600401620008ed9190620020d9565b600060405180830381600087803b1580156200090857600080fd5b505af11580156200091d573d6000803e3d6000fd5b50505050600660009054906101000a90046001600160a01b03166001600160a01b031663ccb570e36002836001600160a01b031663228cb7336040518163ffffffff1660e01b815260040160206040518083038186803b1580156200098157600080fd5b505afa15801562000996573d6000803e3d6000fd5b505050506040513d601f19601f82011682018060405250810190620009bc919062001fdf565b81620009c457fe5b0433306040518463ffffffff1660e01b8152600401620009e7939291906200241d565b600060405180830381600087803b15801562000a0257600080fd5b505af115801562000a17573d6000803e3d6000fd5b5050505062000a268362001c77565b505050565b62000a368162001c24565b62000a555760405162461bcd60e51b8152600401620001fb906200239c565b600062000a628262001c59565b9050336001600160a01b0316816001600160a01b03166302d05d3f6040518163ffffffff1660e01b815260040160206040518083038186803b15801562000aa857600080fd5b505afa15801562000abd573d6000803e3d6000fd5b505050506040513d601f19601f8201168201806040525081019062000ae3919062001e36565b6001600160a01b03161462000b0c5760405162461bcd60e51b8152600401620001fb90620021f7565b806001600160a01b031663cf3090126040518163ffffffff1660e01b815260040160206040518083038186803b15801562000b4657600080fd5b505afa15801562000b5b573d6000803e3d6000fd5b505050506040513d601f19601f8201168201806040525081019062000b81919062001f25565b158062000c015750806001600160a01b031663b1cb0db36040518163ffffffff1660e01b815260040160206040518083038186803b15801562000bc357600080fd5b505afa15801562000bd8573d6000803e3d6000fd5b505050506040513d601f19601f8201168201806040525081019062000bfe919062001fdf565b42115b1562000f4857600660009054906101000a90046001600160a01b03166001600160a01b031663ccb570e3826001600160a01b031663228cb7336040518163ffffffff1660e01b815260040160206040518083038186803b15801562000c6557600080fd5b505afa15801562000c7a573d6000803e3d6000fd5b505050506040513d601f19601f8201168201806040525081019062000ca0919062001fdf565b30336040518463ffffffff1660e01b815260040162000cc2939291906200241d565b600060405180830381600087803b15801562000cdd57600080fd5b505af115801562000cf2573d6000803e3d6000fd5b50505050806001600160a01b031663cf3090126040518163ffffffff1660e01b815260040160206040518083038186803b15801562000d3057600080fd5b505afa15801562000d45573d6000803e3d6000fd5b505050506040513d601f19601f8201168201806040525081019062000d6b919062001f25565b62000d815762000d7b8262001c77565b62000ef2565b600560009054906101000a90046001600160a01b03166001600160a01b031663e3a4f926826001600160a01b031663c6326dd06040518163ffffffff1660e01b815260040160006040518083038186803b15801562000ddf57600080fd5b505afa15801562000df4573d6000803e3d6000fd5b505050506040513d6000823e601f3d908101601f1916820160405262000e1e919081019062001f47565b6040518263ffffffff1660e01b815260040162000e3c919062002170565b60206040518083038186803b15801562000e5557600080fd5b505afa15801562000e6a573d6000803e3d6000fd5b505050506040513d601f19601f8201168201806040525081019062000e90919062001e36565b6001600160a01b0316637003bd12836040518263ffffffff1660e01b815260040162000ebd9190620020d9565b600060405180830381600087803b15801562000ed857600080fd5b505af115801562000eed573d6000803e3d6000fd5b505050505b806001600160a01b03166383197ef06040518163ffffffff1660e01b8152600401600060405180830381600087803b15801562000f2e57600080fd5b505af115801562000f43573d6000803e3d6000fd5b505050505b5050565b6002818154811062000f5a57fe5b6000918252602090912001546001600160a01b0316905081565b62000f7e62001cea565b6001600160a01b0382166000908152600160208181526040928390208351815460029481161561010002600019011693909304601f810183900490920283016060908101855293830182815292939092849290918491908401828280156200102a5780601f1062000ffe576101008083540402835291602001916200102a565b820191906000526020600020905b8154815290600101906020018083116200100c57829003601f168201915b50505050508152602001600182018054600181600116156101000203166002900480601f016020809104026020016040519081016040528092919081815260200182805460018160011615610100020316600290048015620010d05780601f10620010a457610100808354040283529160200191620010d0565b820191906000526020600020905b815481529060010190602001808311620010b257829003601f168201915b50505050508152505090505b919050565b620010ec8362001c24565b6200110b5760405162461bcd60e51b8152600401620001fb906200239c565b6000620011188462001c59565b9050336001600160a01b0316816001600160a01b03166381bbfb616040518163ffffffff1660e01b815260040160206040518083038186803b1580156200115e57600080fd5b505afa15801562001173573d6000803e3d6000fd5b505050506040513d601f19601f8201168201806040525081019062001199919062001e36565b6001600160a01b031614620011c25760405162461bcd60e51b8152600401620001fb906200222e565b60408051808201825284815260208082018590526001600160a01b03871660009081526001825292909220815180519293919262001204928492019062001d04565b5060208281015180516200121f926001850192019062001d04565b50905050600460019054906101000a90046001600160a01b03166001600160a01b031663f109a0be826001600160a01b03166302d05d3f6040518163ffffffff1660e01b815260040160206040518083038186803b1580156200128157600080fd5b505afa15801562001296573d6000803e3d6000fd5b505050506040513d601f19601f82011682018060405250810190620012bc919062001e36565b6040518263ffffffff1660e01b8152600401620012da9190620020d9565b60206040518083038186803b158015620012f357600080fd5b505afa15801562001308573d6000803e3d6000fd5b505050506040513d601f19601f820116820180604052508101906200132e919062001e36565b6001600160a01b031663cbee4be1856040518263ffffffff1660e01b81526004016200135b9190620020d9565b600060405180830381600087803b1580156200137657600080fd5b505af11580156200138b573d6000803e3d6000fd5b50505050600460019054906101000a90046001600160a01b03166001600160a01b031663f109a0be826001600160a01b03166302d05d3f6040518163ffffffff1660e01b815260040160206040518083038186803b158015620013ed57600080fd5b505afa15801562001402573d6000803e3d6000fd5b505050506040513d601f19601f8201168201806040525081019062001428919062001e36565b6040518263ffffffff1660e01b8152600401620014469190620020d9565b60206040518083038186803b1580156200145f57600080fd5b505afa15801562001474573d6000803e3d6000fd5b505050506040513d601f19601f820116820180604052508101906200149a919062001e36565b6001600160a01b0316630184e95260016040518263ffffffff1660e01b8152600401620014c8919062002167565b600060405180830381600087803b158015620014e357600080fd5b505af1158015620014f8573d6000803e3d6000fd5b505060048054604051637884d05f60e11b81526101009091046001600160a01b0316935063f109a0be92506200153191339101620020d9565b60206040518083038186803b1580156200154a57600080fd5b505afa1580156200155f573d6000803e3d6000fd5b505050506040513d601f19601f8201168201806040525081019062001585919062001e36565b6001600160a01b0316630184e95260026040518263ffffffff1660e01b8152600401620015b3919062002167565b600060405180830381600087803b158015620015ce57600080fd5b505af1158015620015e3573d6000803e3d6000fd5b50505050600660009054906101000a90046001600160a01b03166001600160a01b031663ccb570e3826001600160a01b031663228cb7336040518163ffffffff1660e01b815260040160206040518083038186803b1580156200164557600080fd5b505afa1580156200165a573d6000803e3d6000fd5b505050506040513d601f19601f8201168201806040525081019062001680919062001fdf565b30336040518463ffffffff1660e01b8152600401620016a2939291906200241d565b600060405180830381600087803b158015620016bd57600080fd5b505af1158015620016d2573d6000803e3d6000fd5b50505050600560009054906101000a90046001600160a01b03166001600160a01b031663e3a4f926826001600160a01b031663c6326dd06040518163ffffffff1660e01b815260040160006040518083038186803b1580156200173457600080fd5b505afa15801562001749573d6000803e3d6000fd5b505050506040513d6000823e601f3d908101601f1916820160405262001773919081019062001f47565b6040518263ffffffff1660e01b815260040162001791919062002170565b60206040518083038186803b158015620017aa57600080fd5b505afa158015620017bf573d6000803e3d6000fd5b505050506040513d601f19601f82011682018060405250810190620017e5919062001e36565b6001600160a01b0316637003bd12856040518263ffffffff1660e01b8152600401620018129190620020d9565b600060405180830381600087803b1580156200182d57600080fd5b505af115801562001842573d6000803e3d6000fd5b50505050806001600160a01b03166383197ef06040518163ffffffff1660e01b8152600401600060405180830381600087803b1580156200188257600080fd5b505af115801562001897573d6000803e3d6000fd5b5050505050505050565b60045460ff16620018c65760405162461bcd60e51b8152600401620001fb9062002322565b60048054604051637b51e92760e11b81526101009091046001600160a01b03169163f6a3d24e91620018fb91339101620020d9565b60206040518083038186803b1580156200191457600080fd5b505afa15801562001929573d6000803e3d6000fd5b505050506040513d601f19601f820116820180604052508101906200194f919062001f25565b6200196e5760405162461bcd60e51b8152600401620001fb90620022eb565b60035460065460405163e3d670d760e01b8152918501916001600160a01b039091169063e3d670d790620019a7903390600401620020d9565b60206040518083038186803b158015620019c057600080fd5b505afa158015620019d5573d6000803e3d6000fd5b505050506040513d601f19601f82011682018060405250810190620019fb919062001fdf565b101562001a1c5760405162461bcd60e51b8152600401620001fb9062002185565b6000338585858560405162001a319062001d89565b62001a419594939291906200211b565b604051809103906000f08015801562001a5e573d6000803e3d6000fd5b506001600160a01b0380821660008181526020819052604080822080546001600160a01b031990811685179091556002805460018101825593527f405787fa12a823e0f2b7631cc41b3ba8828b3321ca811111fa75cd3aa3bb5ace909201805490921690921790556006546003549151636f3d98c760e01b815293945090911691636f3d98c79162001af591339060040162002406565b600060405180830381600087803b15801562001b1057600080fd5b505af115801562001b25573d6000803e3d6000fd5b505060065460405163ccb570e360e01b81526001600160a01b03909116925063ccb570e3915062001b5f908790339030906004016200241d565b600060405180830381600087803b15801562001b7a57600080fd5b505af115801562001b8f573d6000803e3d6000fd5b505050505050505050565b60045460ff161562001bc05760405162461bcd60e51b8152600401620001fb90620021b2565b60039390935560048054600580546001600160a01b03199081166001600160a01b03958616179091556006805490911695841695909517909455610100600160a81b031990931661010092909116919091021760ff19166001179055565b60035481565b6001600160a01b038082166000908152602081905260408120549091161562001c5057506001620010dc565b506000620010dc565b6001600160a01b039081166000908152602081905260409020541690565b60005b60025481101562000f4857816001600160a01b03166002828154811062001c9d57fe5b6000918252602090912001546001600160a01b0316141562001ce1576002818154811062001cc757fe5b600091825260209091200180546001600160a01b03191690555b60010162001c7a565b604051806040016040528060608152602001606081525090565b828054600181600116156101000203166002900490600052602060002090601f016020900481019282601f1062001d4757805160ff191683800117855562001d77565b8280016001018555821562001d77579182015b8281111562001d7757825182559160200191906001019062001d5a565b5062001d8592915062001d97565b5090565b61074780620024d683390190565b62001db491905b8082111562001d85576000815560010162001d9e565b90565b600082601f83011262001dc8578081fd5b813562001ddf62001dd98262002464565b6200243c565b915080825283602082850101111562001df757600080fd5b8060208401602084013760009082016020015292915050565b60006020828403121562001e22578081fd5b813562001e2f81620024bc565b9392505050565b60006020828403121562001e48578081fd5b815162001e2f81620024bc565b6000806040838503121562001e68578081fd5b823562001e7581620024bc565b9150602083013567ffffffffffffffff81111562001e91578182fd5b62001e9f8582860162001db7565b9150509250929050565b60008060006060848603121562001ebe578081fd5b833562001ecb81620024bc565b9250602084013567ffffffffffffffff8082111562001ee8578283fd5b62001ef68783880162001db7565b9350604086013591508082111562001f0c578283fd5b5062001f1b8682870162001db7565b9150509250925092565b60006020828403121562001f37578081fd5b8151801515811462001e2f578182fd5b60006020828403121562001f59578081fd5b815167ffffffffffffffff81111562001f70578182fd5b80830184601f82011262001f82578283fd5b8051915062001f9562001dd98362002464565b82815285602084840101111562001faa578384fd5b62001fbd83602083016020850162002489565b95945050505050565b60006020828403121562001fd8578081fd5b5035919050565b60006020828403121562001ff1578081fd5b5051919050565b600080600080608085870312156200200e578081fd5b8435935060208501356200202281620024bc565b925060408501356200203481620024bc565b915060608501356200204681620024bc565b939692955090935050565b6000806000806080858703121562002067578384fd5b8435935060208501359250604085013567ffffffffffffffff8111156200208c578283fd5b6200209a8782880162001db7565b949793965093946060013593505050565b60008151808452620020c581602086016020860162002489565b601f01601f19169290920160200192915050565b6001600160a01b0391909116815260200190565b6001600160a01b03831681526040602082018190526000906200211390830184620020ab565b949350505050565b600060018060a01b038716825285602083015284604083015260a060608301526200214a60a0830185620020ab565b90508260808301529695505050505050565b901515815260200190565b90815260200190565b60006020825262001e2f6020830184620020ab565b602080825260139082015272696e73756666696369656e7420746f6b656e7360681b604082015260600190565b60208082526025908201527f636f6e74726163742068617320616c7265616479206265656e20696e697469616040820152641b1a5e995960da1b606082015260800190565b60208082526017908201527f796f7520617265206e6f74207468652063726561746f72000000000000000000604082015260600190565b60208082526019908201527f796f7520617265206e6f74207468652064656c69766572657200000000000000604082015260600190565b6020808252601590820152743737ba1032b737bab3b4103932b83aba30ba34b7b760591b604082015260600190565b60208082526015908201527419195d9a58d948191bd95cc81b9bdd08195e1a5cdd605a1b604082015260600190565b6020808252600e908201526d1d185cdac81a5cc81b1bd8dad95960921b604082015260600190565b60208082526019908201527f796f75206e65656420746f206265207265676973746572656400000000000000604082015260600190565b60208082526023908201527f636f6e7472616374732068617665206e6f74206265656e20696e697469616c696040820152621e995960ea1b606082015260800190565b6020808252601c908201527f796f7520617265206e6f742074686520646576696365206f776e657200000000604082015260600190565b6020808252601390820152721d185cdac8191bd95cc81b9bdd08195e1a5cdd606a1b604082015260600190565b600060208252825160406020840152620023e76060840182620020ab565b6020850151848203601f19016040860152915062001fbd8183620020ab565b9182526001600160a01b0316602082015260400190565b9283526001600160a01b03918216602084015216604082015260600190565b60405181810167ffffffffffffffff811182821017156200245c57600080fd5b604052919050565b600067ffffffffffffffff8211156200247b578081fd5b50601f01601f191660200190565b60005b83811015620024a65781810151838201526020016200248c565b83811115620024b6576000848401525b50505050565b6001600160a01b0381168114620024d257600080fd5b5056fe60806040526003805460ff1916905534801561001a57600080fd5b50604051610747380380610747833981810160405260a081101561003d57600080fd5b81516020830151604080850151606086018051925194969395919493918201928464010000000082111561007057600080fd5b90830190602082018581111561008557600080fd5b825164010000000081118282018810171561009f57600080fd5b82525081516020918201929091019080838360005b838110156100cc5781810151838201526020016100b4565b50505050905090810190601f1680156100f95780820380516001836020036101000a031916815260200191505b50604052602090810151600080546001600160a01b0319166001600160a01b038a1617905560048790556005869055845190935061013d925060069185019061015f565b5042016007555050600880546001600160a01b03191633179055506101fa9050565b828054600181600116156101000203166002900490600052602060002090601f016020900481019282601f106101a057805160ff19168380011785556101cd565b828001600101855582156101cd579182015b828111156101cd5782518255916020019190600101906101b2565b506101d99291506101dd565b5090565b6101f791905b808211156101d957600081556001016101e3565b90565b61053e806102096000396000f3fe608060405234801561001057600080fd5b506004361061009e5760003560e01c806383197ef01161006657806383197ef01461021e578063b1cb0db314610226578063c52164c61461022e578063c6326dd014610236578063cf3090121461023e5761009e565b806302d05d3f146100a3578063228cb733146100c75780633543b23c146100e15780633f1444b51461019957806381bbfb6114610216575b600080fd5b6100ab61025a565b604080516001600160a01b039092168252519081900360200190f35b6100cf610269565b60408051918252519081900360200190f35b610197600480360360408110156100f757600080fd5b6001600160a01b03823516919081019060408101602082013564010000000081111561012257600080fd5b82018360208201111561013457600080fd5b8035906020019184600183028401116401000000008311171561015657600080fd5b91908080601f01602080910402602001604051908101604052809392919081815260200183838082843760009201919091525092955061026f945050505050565b005b6101a161030d565b6040805160208082528351818301528351919283929083019185019080838360005b838110156101db5781810151838201526020016101c3565b50505050905090810190601f1680156102085780820380516001836020036101000a031916815260200191505b509250505060405180910390f35b6100ab61039b565b6101976103aa565b6100cf610400565b6100cf610406565b6101a161040c565b610246610464565b604080519115158252519081900360200190f35b6000546001600160a01b031681565b60055481565b6008546001600160a01b031633146102c2576040805162461bcd60e51b81526020600482015260116024820152701c195c9b5a5cdcda5bdb8819195b9a5959607a1b604482015290519081900360640190fd5b600180546001600160a01b0319166001600160a01b03841617905580516102f090600290602084019061046d565b50506003805460ff19166001179055506005805460028104019055565b6006805460408051602060026001851615610100026000190190941693909304601f810184900484028201840190925281815292918301828280156103935780601f1061036857610100808354040283529160200191610393565b820191906000526020600020905b81548152906001019060200180831161037657829003601f168201915b505050505081565b6001546001600160a01b031681565b6008546001600160a01b031633146103fd576040805162461bcd60e51b81526020600482015260116024820152701c195c9b5a5cdcda5bdb8819195b9a5959607a1b604482015290519081900360640190fd5b30ff5b60075481565b60045481565b6002805460408051602060018416156101000260001901909316849004601f810184900484028201840190925281815292918301828280156103935780601f1061036857610100808354040283529160200191610393565b60035460ff1681565b828054600181600116156101000203166002900490600052602060002090601f016020900481019282601f106104ae57805160ff19168380011785556104db565b828001600101855582156104db579182015b828111156104db5782518255916020019190600101906104c0565b506104e79291506104eb565b5090565b61050591905b808211156104e757600081556001016104f1565b9056fea2646970667358221220f9e1c09a24f91d122ade18d6d081213dab3c765e7d46a8770fefa96ad30c1d8364736f6c63430006080033a26469706673582212209eff8c7bec905a38de1ecf045d46d1e7339f56171464f236c8d6f1a842b4d62c64736f6c63430006080033",
  "immutableReferences": {},
  "source": "pragma solidity ^0.6.8;\npragma experimental ABIEncoderV2;\n// SPDX-License-Identifier: MIT\n\n// IMPORT INTERFACE\nimport { Task } from './Task.sol';\nimport { UserManager } from '../user/Manager.sol';\nimport { DeviceManager } from '../device/Manager.sol';\nimport { TokenManager } from '../Token.sol';\n\ncontract TaskManager {\n\n    // MAP OF ALL TASKS, [ADDRESS => INTERFACE]\n    mapping (address => Task) tasks;\n\n    // MAP OF ALL TASK RESULTS, [ADDRESS => STRUCT]\n    mapping (address => result) results;\n\n    // ITERABLE LIST OF OPEN TASKS\n    Task[] public open;\n\n    // TASK RESULT PARAMS\n    struct result {\n        string key;         // PUBLIC ENCRYPTION KEY\n        string ipfs;        // IPFS QN-HASH\n    }\n\n    // TOKEN FEE FOR TASK CREATION\n    uint public fee;\n\n    // INIT STATUS & MANAGER REFERENCES\n    bool initialized = false;\n    UserManager user_manager;\n    DeviceManager device_manager;\n    TokenManager token_manager;\n\n    // FETCH TASK BY ADDRESS\n    function fetch_task(address task) public view returns(Task) {\n        return tasks[task];\n    }\n\n    // FETCH TASK BY ADDRESS\n    function fetch_result(address task) public view returns(result memory) {\n        return results[task];\n    }\n\n    // ADD NEW TASK\n    function add(\n        uint reputation,\n        uint reward,\n        string memory encryption_key,\n        uint timelimit\n    ) public {\n\n        // IF CONTRACT HAS BEEN INITIALIZED\n        // SENDER IS A REGISTERED USER\n        // USER HAS ENOUGH TOKENS\n        require(initialized, 'contracts have not been initialized');\n        require(user_manager.exists(msg.sender), 'you need to be registered');\n        require(token_manager.balance(msg.sender) >= reward + fee, 'insufficient tokens');\n\n        // INSTANTIATE NEW TASK\n        Task task = new Task(\n            msg.sender,\n            reputation,\n            reward,\n            encryption_key,\n            timelimit\n        );\n\n        // ADD IT TO BOTH CONTAINERS\n        tasks[address(task)] = task;\n        open.push(task);\n\n        // CONSUME TOKEN FEE FROM THE CREATOR\n        token_manager.consume(fee, msg.sender);\n\n        // TRANSFER THE REWARD TOKENS TO THE TASK MANAGER\n        token_manager.transfer(reward, msg.sender, address(this));\n    }\n\n    // ACCEPT TASK\n    function accept(\n        address _task,\n        string memory _device\n    ) public {\n\n        // IF THE TASK EXISTS\n        // IF THE DEVICE EXISTS\n        require(exists(_task), 'task does not exist');\n        require(device_manager.exists(_device), 'device does not exist');\n\n        // TASK & DEVICE SHORTHANDS\n        Task task = fetch_task(_task);\n\n        // IF THE TASK IS NOT LOCKED\n        // IF THE USER IS REGISTERED\n        // IF THE USER HAS ENOUGH REPUTATION\n        // IF THE SENDER HAS ENOUGH TOKENS\n        // IF THE SENDER IS THE DEVICE OWNER\n        require(!task.locked(), 'task is locked');\n        require(user_manager.exists(msg.sender), 'you need to be registered');\n        require(user_manager.fetch(msg.sender).reputation() >= task.reputation(), 'not enough reputation');\n        require(token_manager.balance(msg.sender) >= task.reward() / 2, 'insufficient tokens');\n        require(device_manager.fetch_device(_device).owner() == msg.sender, 'you are not the device owner');\n\n        // ASSIGN TASK TO THE DELIVERER & DEVICE\n        task.assign(msg.sender, _device);\n        device_manager.fetch_device(_device).assign_task(_task);\n\n        // TRANSFER TOKENS TO TASK MANAGER & UNLIST TASK FROM OPEN\n        token_manager.transfer(task.reward() / 2, msg.sender, address(this));\n        unlist(_task);\n    }\n\n    // COMPLETE TASK BY SUBMITTING RESULT\n    function complete(\n        address _task,\n        string memory _key,\n        string memory _ipfs\n    ) public {\n\n        // IF THE TASK EXISTS\n        require(exists(_task), 'task does not exist');\n\n        // SHORTHAND FOR TASK\n        Task task = fetch_task(_task);\n\n        // IF THE SENDER IS THE DELIVERER\n        require(task.deliverer() == msg.sender, 'you are not the deliverer');\n\n        // CONSTRUCT & PUSH NEW RESULT\n        results[_task] = result({\n            key: _key,\n            ipfs: _ipfs\n        });\n\n        // ADD REFERENCE TO THE TASK CREATOR\n        user_manager.fetch(task.creator()).add_result(_task);\n\n        // REWARD BOTH PARTIES WITH REPUTATION\n        user_manager.fetch(task.creator()).award(1);\n        user_manager.fetch(msg.sender).award(2);\n\n        // TRANSFER REWARD TOKENS FROM THE TASK MANAGER TO THE DELIVERER\n        token_manager.transfer(\n            task.reward(),\n            address(this),\n            msg.sender\n        );\n\n        // CLEAR TASK FROM DEVICE BACKLOG\n        device_manager.fetch_device(task.device()).clear_task(_task);\n\n        // FINALLY DESTROY THE TASK\n        task.destroy();\n    }\n\n    // RELEASE THE TASK\n    function release(address _task) public {\n\n        // IF THE TASK EXISTS\n        require(exists(_task), 'task does not exist');\n\n        // SHORTHAND\n        Task task = fetch_task(_task);\n\n        // IF THE SENDER IS THE CREATOR\n        require(task.creator() == msg.sender, 'you are not the creator');\n\n        // IF THE TASK IS NOT LOCKED OR THE TIME LIMIT HAS BEEN EXCEEDED\n        if (!task.locked() || block.timestamp > task.expires()) {\n\n            // TRANSFER TOKENS FROM TASK MANAGER TO CREATOR\n            token_manager.transfer(\n                task.reward(),\n                address(this),\n                msg.sender\n            );\n\n            // IF THE TASK IS LISTED, UNLIST IT\n            if (!task.locked()) {\n                unlist(_task);\n\n            // OTHERWISE, REMOVE TASK FROM DEVICE BACKLOG\n            } else {\n                device_manager.fetch_device(task.device()).clear_task(_task);\n            }\n\n            // DESTROY THE TASK\n            task.destroy();\n        }\n    }\n\n    // SET STATIC VARIABLES\n    function init(\n        uint _fee,\n        address _user_manager,\n        address _device_manager,\n        address _token_manager\n    ) public {\n\n        // IF THE CONTRACT HAS NOT BEEN INITIALIZED\n        require(!initialized, 'contract has already been initialized');\n\n        // SET TASK TOKEN FEE\n        fee = _fee;\n\n        // SET REFERENCES\n        user_manager = UserManager(_user_manager);\n        device_manager = DeviceManager(_device_manager);\n        token_manager = TokenManager(_token_manager);\n\n        // BLOCK FURTHER MODIFICATION\n        initialized = true;\n    }\n\n    // CHECK IF TASK EXISTS\n    function exists(address _task) public view returns(bool) {\n        if (address(tasks[_task]) != 0x0000000000000000000000000000000000000000) {\n            return true;\n        } else {\n            return false;\n        }\n    }\n\n    // UNLIST TASK FROM OPEN\n    function unlist(address target) private {\n        for(uint index = 0; index < open.length; index++) {\n            if (address(open[index]) == target) {\n                delete open[index];\n            }\n        }\n    }\n}",
  "sourcePath": "C:\\Users\\35840\\Desktop\\coding\\node\\eth-contracts\\contracts\\task\\Manager.sol",
  "compiler": {
    "name": "solc",
    "version": "0.6.8+commit.0bbfe453.Emscripten.clang"
  },
  "schemaVersion": "3.2.0",
  "updatedAt": "2020-06-19T16:15:06.420Z",
  "networkType": "ethereum",
  "devdoc": {
    "methods": {}
  },
  "userdoc": {
    "methods": {}
  }
}