{
  "contractName": "Task",
  "abi": [
    {
      "constant": true,
      "inputs": [],
      "name": "creator",
      "outputs": [
        {
          "name": "",
          "type": "address"
        }
      ],
      "payable": false,
      "stateMutability": "view",
      "type": "function"
    },
    {
      "constant": true,
      "inputs": [],
      "name": "name",
      "outputs": [
        {
          "name": "",
          "type": "string"
        }
      ],
      "payable": false,
      "stateMutability": "view",
      "type": "function"
    },
    {
      "constant": true,
      "inputs": [],
      "name": "task_index",
      "outputs": [
        {
          "name": "",
          "type": "uint256"
        }
      ],
      "payable": false,
      "stateMutability": "view",
      "type": "function"
    },
    {
      "constant": true,
      "inputs": [],
      "name": "reward",
      "outputs": [
        {
          "name": "",
          "type": "uint256"
        }
      ],
      "payable": false,
      "stateMutability": "view",
      "type": "function"
    },
    {
      "constant": true,
      "inputs": [],
      "name": "min_reputation",
      "outputs": [
        {
          "name": "",
          "type": "uint256"
        }
      ],
      "payable": false,
      "stateMutability": "view",
      "type": "function"
    },
    {
      "constant": true,
      "inputs": [],
      "name": "created",
      "outputs": [
        {
          "name": "",
          "type": "uint256"
        }
      ],
      "payable": false,
      "stateMutability": "view",
      "type": "function"
    },
    {
      "constant": true,
      "inputs": [],
      "name": "device_index",
      "outputs": [
        {
          "name": "",
          "type": "uint256"
        }
      ],
      "payable": false,
      "stateMutability": "view",
      "type": "function"
    },
    {
      "constant": true,
      "inputs": [],
      "name": "deliverer",
      "outputs": [
        {
          "name": "",
          "type": "address"
        }
      ],
      "payable": false,
      "stateMutability": "view",
      "type": "function"
    },
    {
      "constant": true,
      "inputs": [],
      "name": "device",
      "outputs": [
        {
          "name": "",
          "type": "string"
        }
      ],
      "payable": false,
      "stateMutability": "view",
      "type": "function"
    },
    {
      "constant": true,
      "inputs": [],
      "name": "locked",
      "outputs": [
        {
          "name": "",
          "type": "bool"
        }
      ],
      "payable": false,
      "stateMutability": "view",
      "type": "function"
    },
    {
      "constant": true,
      "inputs": [],
      "name": "public_user_key",
      "outputs": [
        {
          "name": "",
          "type": "string"
        }
      ],
      "payable": false,
      "stateMutability": "view",
      "type": "function"
    },
    {
      "inputs": [
        {
          "name": "_creator",
          "type": "address"
        },
        {
          "name": "_name",
          "type": "string"
        },
        {
          "name": "_reputation",
          "type": "uint256"
        },
        {
          "name": "_encryption",
          "type": "string"
        },
        {
          "name": "_index",
          "type": "uint256"
        }
      ],
      "payable": true,
      "stateMutability": "payable",
      "type": "constructor"
    },
    {
      "constant": false,
      "inputs": [
        {
          "name": "_deliverer",
          "type": "address"
        },
        {
          "name": "_device",
          "type": "string"
        },
        {
          "name": "_index",
          "type": "uint256"
        }
      ],
      "name": "accept_task",
      "outputs": [],
      "payable": true,
      "stateMutability": "payable",
      "type": "function"
    },
    {
      "constant": false,
      "inputs": [],
      "name": "unlock_task",
      "outputs": [],
      "payable": false,
      "stateMutability": "nonpayable",
      "type": "function"
    },
    {
      "constant": false,
      "inputs": [],
      "name": "complete_task",
      "outputs": [],
      "payable": false,
      "stateMutability": "nonpayable",
      "type": "function"
    },
    {
      "constant": false,
      "inputs": [],
      "name": "release_task",
      "outputs": [],
      "payable": false,
      "stateMutability": "nonpayable",
      "type": "function"
    }
  ],
  "bytecode": "0x608060408190526003805460ff191690556109d738819003908190833981018060405260a081101561003057600080fd5b81516020830180519193928301929164010000000081111561005157600080fd5b8201602081018481111561006457600080fd5b815164010000000081118282018710171561007e57600080fd5b505060208201516040909201805191949293916401000000008111156100a357600080fd5b820160208101848111156100b657600080fd5b81516401000000008111828201871017156100d057600080fd5b5050602091820151600080546001600160a01b0319166001600160a01b038a161790558651919450925061010a916004919087019061014a565b506005839055815161012390600690602085019061014a565b5034600755600a555050426008555050600980546001600160a01b031916331790556101e5565b828054600181600116156101000203166002900490600052602060002090601f016020900481019282601f1061018b57805160ff19168380011785556101b8565b828001600101855582156101b8579182015b828111156101b857825182559160200191906001019061019d565b506101c49291506101c8565b5090565b6101e291905b808211156101c457600081556001016101ce565b90565b6107e3806101f46000396000f3fe6080604052600436106100e85760003560e01c806349511c831161008a578063c76023cf11610059578063c76023cf1461031c578063cf30901214610331578063cf8d1f651461035a578063e1822f341461036f576100e8565b806349511c831461022357806381bbfb611461023a578063c2f0d82d1461024f578063c6326dd014610307576100e8565b8063228cb733116100c6578063228cb733146101cf5780632a960fa7146101e4578063325a19f1146101f95780633bc8b6171461020e576100e8565b806302d05d3f146100ed57806306fdde031461011e57806307411052146101a8575b600080fd5b3480156100f957600080fd5b50610102610384565b604080516001600160a01b039092168252519081900360200190f35b34801561012a57600080fd5b50610133610393565b6040805160208082528351818301528351919283929083019185019080838360005b8381101561016d578181015183820152602001610155565b50505050905090810190601f16801561019a5780820380516001836020036101000a031916815260200191505b509250505060405180910390f35b3480156101b457600080fd5b506101bd610421565b60408051918252519081900360200190f35b3480156101db57600080fd5b506101bd610427565b3480156101f057600080fd5b506101bd61042d565b34801561020557600080fd5b506101bd610433565b34801561021a57600080fd5b506101bd610439565b34801561022f57600080fd5b5061023861043f565b005b34801561024657600080fd5b506101026104e7565b6102386004803603606081101561026557600080fd5b6001600160a01b03823516919081019060408101602082013564010000000081111561029057600080fd5b8201836020820111156102a257600080fd5b803590602001918460018302840111640100000000831117156102c457600080fd5b91908080601f01602080910402602001604051908101604052809392919081815260200183838082843760009201919091525092955050913592506104f6915050565b34801561031357600080fd5b50610133610592565b34801561032857600080fd5b506102386105ea565b34801561033d57600080fd5b50610346610651565b604080519115158252519081900360200190f35b34801561036657600080fd5b5061013361065a565b34801561037b57600080fd5b506102386106b5565b6000546001600160a01b031681565b6004805460408051602060026001851615610100026000190190941693909304601f810184900484028201840190925281815292918301828280156104195780601f106103ee57610100808354040283529160200191610419565b820191906000526020600020905b8154815290600101906020018083116103fc57829003601f168201915b505050505081565b600a5481565b60075481565b60055481565b60085481565b600b5481565b6001546001600160a01b031633146104985760408051600160e51b62461bcd02815260206004820152601160248201526001607a1b701c195c9b5a5cdcda5bdb8819195b9a595902604482015290519081900360640190fd5b6003805460ff19169055600180546001600160a01b03191690556007546040516000916004900480156108fc029183818181858288f193505050501580156104e4573d6000803e3d6000fd5b50565b6001546001600160a01b031681565b6009546001600160a01b0316331461054f5760408051600160e51b62461bcd02815260206004820152601160248201526001607a1b701c195c9b5a5cdcda5bdb8819195b9a595902604482015290519081900360640190fd5b600180546001600160a01b0319166001600160a01b0385161781556003805460ff19169091179055815161058a90600290602085019061071c565b50600b555050565b6002805460408051602060018416156101000260001901909316849004601f810184900484028201840190925281815292918301828280156104195780601f106103ee57610100808354040283529160200191610419565b6009546001600160a01b031633146106435760408051600160e51b62461bcd02815260206004820152601160248201526001607a1b701c195c9b5a5cdcda5bdb8819195b9a595902604482015290519081900360640190fd5b6001546001600160a01b0316ff5b60035460ff1681565b6006805460408051602060026001851615610100026000190190941693909304601f810184900484028201840190925281815292918301828280156104195780601f106103ee57610100808354040283529160200191610419565b6009546001600160a01b0316331461070e5760408051600160e51b62461bcd02815260206004820152601160248201526001607a1b701c195c9b5a5cdcda5bdb8819195b9a595902604482015290519081900360640190fd5b6000546001600160a01b0316ff5b828054600181600116156101000203166002900490600052602060002090601f016020900481019282601f1061075d57805160ff191683800117855561078a565b8280016001018555821561078a579182015b8281111561078a57825182559160200191906001019061076f565b5061079692915061079a565b5090565b6107b491905b8082111561079657600081556001016107a0565b9056fea165627a7a72305820da094391f6bc091b8faba7a4cbbdd396e522703847b1cc325558fba044221d030029",
  "source": "pragma solidity ^0.5.0;\n\ncontract Task {\n\n    // TASK CREATOR, DELIVERER & PERFORMING DEVICE\n    address payable public creator;\n    address payable public deliverer;\n    string public device;\n\n    // LOCKED STATUS\n    bool public locked = false;\n\n    // SPECIFICATIONS\n    string public name;\n    uint public min_reputation;\n    string public public_user_key;\n    uint public reward;\n\n    // CREATED TIMESTAMP\n    uint256 public created;\n\n    // TASK MANAGER REFERENCE\n    address task_manager;\n\n    // RELEVANT INDEXES\n    uint public task_index;\n    uint public device_index;\n\n    // WHEN CREATED\n    constructor(\n        address payable _creator,\n        string memory _name,\n        uint _reputation,\n        string memory _encryption,\n        uint _index\n    ) public payable {\n\n        // SET STATIC TASK PARAMS\n        creator = _creator;\n        name = _name;\n        min_reputation = _reputation;\n        public_user_key = _encryption;\n        reward = msg.value;\n\n        // SET LISTED TASK INDEX & CREATED TIMESTAMP\n        task_index = _index;\n        created = block.timestamp;\n\n        // TASK MANAGER REFERENCE\n        task_manager = msg.sender;\n    }\n\n    // ACCEPT TASK\n    function accept_task(\n        address payable _deliverer,\n        string memory _device,\n        uint _index\n    ) public payable {\n\n        // IF THE SENDER IS THE TASK MANAGER\n        require(msg.sender == task_manager, 'permission denied');\n\n        // SET SELLER & LOCK THE TASK\n        deliverer = _deliverer;\n        locked = true;\n\n        // SET PERFORMING DEVICE & LISTED INDEX\n        device = _device;\n        device_index = _index;\n    }\n\n    // UNLOCK TASK\n    function unlock_task() public {\n\n        // IF THE SENDER IS THE SELLER\n        require(msg.sender == deliverer, 'permission denied');\n\n        // UNLOCK THE TASK & RESET SELLER\n        locked = false;\n        deliverer = 0x0000000000000000000000000000000000000000;\n\n        // TRANSFER 25% OF THE REWARD BACK\n        deliverer.transfer(reward / 4);\n    }\n\n    // COMPLETE THE TASK\n    function complete_task() public {\n\n        // IF THE SENDER IS THE TASK MANAGER\n        require(msg.sender == task_manager, 'permission denied');\n\n        // SELF DESTRUCT & TRANSFER FUNDS TO THE SELLER\n        selfdestruct(deliverer);\n    }\n\n    // RELEASE THE TASK\n    function release_task() public {\n\n        // IF THE SENDER IS THE TASK MANAGER\n        require(msg.sender == task_manager, 'permission denied');\n\n        // SELF DESTRUCT & TRANSFER FUNDS TO THE BUYER\n        selfdestruct(creator);\n    }\n}",
  "sourcePath": "C:\\Users\\35840\\Desktop\\coding\\node\\eth-contracts\\contracts\\task\\Task.sol",
  "compiler": {
    "name": "solc",
    "version": "0.5.8+commit.23d335f2.Emscripten.clang"
  },
  "schemaVersion": "3.0.17",
  "updatedAt": "2020-01-26T01:48:09.908Z",
  "devdoc": {
    "methods": {}
  },
  "userdoc": {
    "methods": {}
  }
}