{
  "contractName": "Task",
  "abi": [
    {
      "constant": true,
      "inputs": [],
      "name": "creator",
      "outputs": [
        {
          "name": "",
          "type": "address"
        }
      ],
      "payable": false,
      "stateMutability": "view",
      "type": "function"
    },
    {
      "constant": true,
      "inputs": [],
      "name": "reward",
      "outputs": [
        {
          "name": "",
          "type": "uint256"
        }
      ],
      "payable": false,
      "stateMutability": "view",
      "type": "function"
    },
    {
      "constant": true,
      "inputs": [],
      "name": "min_reputation",
      "outputs": [
        {
          "name": "",
          "type": "uint256"
        }
      ],
      "payable": false,
      "stateMutability": "view",
      "type": "function"
    },
    {
      "constant": true,
      "inputs": [],
      "name": "created",
      "outputs": [
        {
          "name": "",
          "type": "uint256"
        }
      ],
      "payable": false,
      "stateMutability": "view",
      "type": "function"
    },
    {
      "constant": true,
      "inputs": [],
      "name": "deliverer",
      "outputs": [
        {
          "name": "",
          "type": "address"
        }
      ],
      "payable": false,
      "stateMutability": "view",
      "type": "function"
    },
    {
      "constant": true,
      "inputs": [],
      "name": "device",
      "outputs": [
        {
          "name": "",
          "type": "string"
        }
      ],
      "payable": false,
      "stateMutability": "view",
      "type": "function"
    },
    {
      "constant": true,
      "inputs": [],
      "name": "locked",
      "outputs": [
        {
          "name": "",
          "type": "bool"
        }
      ],
      "payable": false,
      "stateMutability": "view",
      "type": "function"
    },
    {
      "inputs": [
        {
          "name": "_creator",
          "type": "address"
        },
        {
          "name": "_reputation",
          "type": "uint256"
        },
        {
          "name": "_reward",
          "type": "uint256"
        }
      ],
      "payable": false,
      "stateMutability": "nonpayable",
      "type": "constructor"
    },
    {
      "constant": false,
      "inputs": [
        {
          "name": "_deliverer",
          "type": "address"
        },
        {
          "name": "_device",
          "type": "string"
        }
      ],
      "name": "accept",
      "outputs": [],
      "payable": false,
      "stateMutability": "nonpayable",
      "type": "function"
    },
    {
      "constant": false,
      "inputs": [],
      "name": "destroy",
      "outputs": [],
      "payable": false,
      "stateMutability": "nonpayable",
      "type": "function"
    }
  ],
  "bytecode": "0x60806040526003805460ff1916905534801561001a57600080fd5b506040516060806105708339810180604052606081101561003a57600080fd5b5080516020820151604090920151600080546001600160a01b039093166001600160a01b03199384161790556004929092556005919091554260065560078054909116331790556104e0806100906000396000f3fe608060405234801561001057600080fd5b50600436106100935760003560e01c8063325a19f111610066578063325a19f11461019657806381bbfb611461019e57806383197ef0146101a6578063c6326dd0146101ae578063cf3090121461022b57610093565b806302d05d3f1461009857806318807240146100bc578063228cb733146101745780632a960fa71461018e575b600080fd5b6100a0610247565b604080516001600160a01b039092168252519081900360200190f35b610172600480360360408110156100d257600080fd5b6001600160a01b0382351691908101906040810160208201356401000000008111156100fd57600080fd5b82018360208201111561010f57600080fd5b8035906020019184600183028401116401000000008311171561013157600080fd5b91908080601f016020809104026020016040519081016040528093929190818152602001838380828437600092019190915250929550610256945050505050565b005b61017c610308565b60408051918252519081900360200190f35b61017c61030e565b61017c610314565b6100a061031a565b610172610329565b6101b6610385565b6040805160208082528351818301528351919283929083019185019080838360005b838110156101f05781810151838201526020016101d8565b50505050905090810190601f16801561021d5780820380516001836020036101000a031916815260200191505b509250505060405180910390f35b610233610410565b604080519115158252519081900360200190f35b6000546001600160a01b031681565b6007546001600160a01b031633146102af5760408051600160e51b62461bcd02815260206004820152601160248201526001607a1b701c195c9b5a5cdcda5bdb8819195b9a595902604482015290519081900360640190fd5b600180546001600160a01b0319166001600160a01b0384161781556003805460ff1916909117905580516102ea906002906020840190610419565b506002600554816102f757fe5b600580549290910490910190555050565b60055481565b60045481565b60065481565b6001546001600160a01b031681565b6007546001600160a01b031633146103825760408051600160e51b62461bcd02815260206004820152601160248201526001607a1b701c195c9b5a5cdcda5bdb8819195b9a595902604482015290519081900360640190fd5b30ff5b6002805460408051602060018416156101000260001901909316849004601f810184900484028201840190925281815292918301828280156104085780601f106103dd57610100808354040283529160200191610408565b820191906000526020600020905b8154815290600101906020018083116103eb57829003601f168201915b505050505081565b60035460ff1681565b828054600181600116156101000203166002900490600052602060002090601f016020900481019282601f1061045a57805160ff1916838001178555610487565b82800160010185558215610487579182015b8281111561048757825182559160200191906001019061046c565b50610493929150610497565b5090565b6104b191905b80821115610493576000815560010161049d565b9056fea165627a7a7230582028bdcebe008c9e70727c4f6338763cd591312ff0c9d7033f31ad01b87172a8790029",
  "source": "pragma solidity ^0.5.0;\n\ncontract Task {\n\n    // TASK CREATOR, DELIVERER & PERFORMING DEVICE\n    address public creator;\n    address public deliverer;\n    string public device;\n\n    // LOCKED STATUS\n    bool public locked = false;\n\n    // DETAILS\n    uint public min_reputation;\n    uint public reward;\n    uint256 public created;\n\n    // TASK MANAGER REFERENCE\n    address task_manager;\n\n    // WHEN CREATED\n    constructor(\n        address _creator,\n        uint _reputation,\n        uint _reward\n    ) public {\n\n        // TASK DETAILS\n        creator = _creator;\n        min_reputation = _reputation;\n        reward = _reward;\n        created = block.timestamp;\n\n        // TASK MANAGER REFERENCE\n        task_manager = msg.sender;\n    }\n\n    // ACCEPT TASK\n    function accept(\n        address _deliverer,\n        string memory _device\n    ) public {\n\n        // IF THE SENDER IS THE TASK MANAGER\n        require(msg.sender == task_manager, 'permission denied');\n\n        // SET SELLER & LOCK THE TASK\n        deliverer = _deliverer;\n        locked = true;\n\n        // SET PERFORMING DEVICE & INCREASE THE REWARD\n        device = _device;\n        reward += reward / 2;\n    }\n\n    // SELF DESTRUCT\n    function destroy() public {\n\n        // IF THE SENDER IS THE TASK MANAGER\n        require(msg.sender == task_manager, 'permission denied');\n        selfdestruct(address(uint160(address(this))));\n    }\n}",
  "sourcePath": "C:\\Users\\35840\\Desktop\\coding\\node\\eth-contracts\\contracts\\task\\Task.sol",
  "compiler": {
    "name": "solc",
    "version": "0.5.8+commit.23d335f2.Emscripten.clang"
  },
  "schemaVersion": "3.0.17",
  "updatedAt": "2020-02-02T22:25:10.730Z",
  "devdoc": {
    "methods": {}
  },
  "userdoc": {
    "methods": {}
  }
}