{
  "contractName": "TaskManager",
  "abi": [
    {
      "constant": true,
      "inputs": [
        {
          "name": "",
          "type": "uint256"
        }
      ],
      "name": "open_tasks",
      "outputs": [
        {
          "name": "",
          "type": "address"
        }
      ],
      "payable": false,
      "stateMutability": "view",
      "type": "function"
    },
    {
      "constant": true,
      "inputs": [
        {
          "name": "_task",
          "type": "address"
        }
      ],
      "name": "exists",
      "outputs": [
        {
          "name": "",
          "type": "bool"
        }
      ],
      "payable": false,
      "stateMutability": "view",
      "type": "function"
    },
    {
      "constant": true,
      "inputs": [],
      "name": "fetch_open",
      "outputs": [
        {
          "name": "",
          "type": "address[]"
        }
      ],
      "payable": false,
      "stateMutability": "view",
      "type": "function"
    },
    {
      "constant": true,
      "inputs": [
        {
          "name": "_task",
          "type": "address"
        }
      ],
      "name": "fetch_task",
      "outputs": [
        {
          "name": "",
          "type": "address"
        }
      ],
      "payable": false,
      "stateMutability": "view",
      "type": "function"
    },
    {
      "constant": false,
      "inputs": [
        {
          "name": "name",
          "type": "string"
        },
        {
          "name": "reputation",
          "type": "uint256"
        },
        {
          "name": "encryption",
          "type": "string"
        }
      ],
      "name": "add_task",
      "outputs": [],
      "payable": true,
      "stateMutability": "payable",
      "type": "function"
    },
    {
      "constant": false,
      "inputs": [
        {
          "name": "_task",
          "type": "address"
        },
        {
          "name": "_device",
          "type": "string"
        }
      ],
      "name": "accept_task",
      "outputs": [],
      "payable": true,
      "stateMutability": "payable",
      "type": "function"
    },
    {
      "constant": false,
      "inputs": [
        {
          "name": "_task",
          "type": "address"
        },
        {
          "name": "_ipfs",
          "type": "string"
        },
        {
          "name": "_key",
          "type": "string"
        }
      ],
      "name": "submit_result",
      "outputs": [],
      "payable": false,
      "stateMutability": "nonpayable",
      "type": "function"
    },
    {
      "constant": false,
      "inputs": [
        {
          "name": "_task",
          "type": "address"
        }
      ],
      "name": "release_task",
      "outputs": [],
      "payable": false,
      "stateMutability": "nonpayable",
      "type": "function"
    },
    {
      "constant": false,
      "inputs": [
        {
          "name": "_user_manager",
          "type": "address"
        },
        {
          "name": "_device_manager",
          "type": "address"
        },
        {
          "name": "_token_manager",
          "type": "address"
        }
      ],
      "name": "init",
      "outputs": [],
      "payable": false,
      "stateMutability": "nonpayable",
      "type": "function"
    }
  ],
  "bytecode": "0x60806040526113886002556003805460ff1916905534801561002057600080fd5b50612fed806100306000396000f3fe608060405260043610620000925760003560e01c8063abb315a91162000061578063abb315a9146200021d578063d295c9941462000357578063d91cf5de14620004a7578063f6a3d24e1462000511578063f772282c146200055c5762000092565b8063184b9559146200009757806322fb319c14620000e257806362ead34b146200019c5780637168f50914620001d3575b600080fd5b348015620000a457600080fd5b50620000e060048036036060811015620000bd57600080fd5b506001600160a01b03813581169160208101358216916040909101351662000593565b005b620000e060048036036040811015620000fa57600080fd5b6001600160a01b038235169190810190604081016020820135600160201b8111156200012557600080fd5b8201836020820111156200013857600080fd5b803590602001918460018302840111600160201b831117156200015a57600080fd5b91908080601f01602080910402602001604051908101604052809392919081815260200183838082843760009201919091525092955062000630945050505050565b348015620001a957600080fd5b50620000e060048036036020811015620001c257600080fd5b50356001600160a01b031662001178565b348015620001e057600080fd5b506200020160048036036020811015620001f957600080fd5b503562001769565b604080516001600160a01b039092168252519081900360200190f35b620000e0600480360360608110156200023557600080fd5b810190602081018135600160201b8111156200025057600080fd5b8201836020820111156200026357600080fd5b803590602001918460018302840111600160201b831117156200028557600080fd5b91908080601f01602080910402602001604051908101604052809392919081815260200183838082843760009201919091525092958435959094909350604081019250602001359050600160201b811115620002e057600080fd5b820183602082011115620002f357600080fd5b803590602001918460018302840111600160201b831117156200031557600080fd5b91908080601f01602080910402602001604051908101604052809392919081815260200183838082843760009201919091525092955062001791945050505050565b3480156200036457600080fd5b50620000e0600480360360608110156200037d57600080fd5b6001600160a01b038235169190810190604081016020820135600160201b811115620003a857600080fd5b820183602082011115620003bb57600080fd5b803590602001918460018302840111600160201b83111715620003dd57600080fd5b91908080601f0160208091040260200160405190810160405280939291908181526020018383808284376000920191909152509295949360208101935035915050600160201b8111156200043057600080fd5b8201836020820111156200044357600080fd5b803590602001918460018302840111600160201b831117156200046557600080fd5b91908080601f01602080910402602001604051908101604052809392919081815260200183838082843760009201919091525092955062001b92945050505050565b348015620004b457600080fd5b50620004bf62002481565b60408051602080825283518183015283519192839290830191858101910280838360005b83811015620004fd578181015183820152602001620004e3565b505050509050019250505060405180910390f35b3480156200051e57600080fd5b5062000548600480360360208110156200053757600080fd5b50356001600160a01b0316620024e5565b604080519115158252519081900360200190f35b3480156200056957600080fd5b5062000201600480360360208110156200058257600080fd5b50356001600160a01b03166200251a565b60035460ff1615620005da57604051600160e51b62461bcd02815260040180806020018281038252602581526020018062002f7a6025913960400191505060405180910390fd5b60038054600480546001600160a01b039586166001600160a01b03199182161790915560058054948616949091169390931790925560ff199290931661010002610100600160a81b031990911617166001179055565b6200063b82620024e5565b620006895760408051600160e51b62461bcd02815260206004820152601360248201526001606a1b721d185cdac8191bd95cc81b9bdd08195e1a5cdd02604482015290519081900360640190fd5b60048054604051600160e11b63130d191f02815260209281018381528451602483015284516001600160a01b039093169363261a323e93869383926044909101919085019080838360005b83811015620006ee578181015183820152602001620006d4565b50505050905090810190601f1680156200071c5780820380516001836020036101000a031916815260200191505b509250505060206040518083038186803b1580156200073a57600080fd5b505afa1580156200074f573d6000803e3d6000fd5b505050506040513d60208110156200076657600080fd5b5051620007bd5760408051600160e51b62461bcd02815260206004820152601560248201527f64657669636520646f6573206e6f742065786973740000000000000000000000604482015290519081900360640190fd5b6000620007ca836200251a565b9050806001600160a01b031663cf3090126040518163ffffffff1660e01b815260040160206040518083038186803b1580156200080657600080fd5b505afa1580156200081b573d6000803e3d6000fd5b505050506040513d60208110156200083257600080fd5b5051156200088a5760408051600160e51b62461bcd02815260206004820152600e60248201527f7461736b206973206c6f636b6564000000000000000000000000000000000000604482015290519081900360640190fd5b6002816001600160a01b031663228cb7336040518163ffffffff1660e01b815260040160206040518083038186803b158015620008c657600080fd5b505afa158015620008db573d6000803e3d6000fd5b505050506040513d6020811015620008f257600080fd5b505181620008fc57fe5b04341015620009555760408051600160e51b62461bcd02815260206004820152601860248201527f696e73756666696369656e742066756e647320676976656e0000000000000000604482015290519081900360640190fd5b60035460408051600160e11b637b51e92702815233600482015290516101009092046001600160a01b03169163f6a3d24e91602480820192602092909190829003018186803b158015620009a857600080fd5b505afa158015620009bd573d6000803e3d6000fd5b505050506040513d6020811015620009d457600080fd5b505162000a2b5760408051600160e51b62461bcd02815260206004820152601d60248201527f796f7520617265206e6f74206120726567697374657265642075736572000000604482015290519081900360640190fd5b806001600160a01b0316632a960fa76040518163ffffffff1660e01b815260040160206040518083038186803b15801562000a6557600080fd5b505afa15801562000a7a573d6000803e3d6000fd5b505050506040513d602081101562000a9157600080fd5b505160035460408051600160e01b631f0df17f02815233600482015290516101009092046001600160a01b031691631f0df17f91602480820192602092909190829003018186803b15801562000ae657600080fd5b505afa15801562000afb573d6000803e3d6000fd5b505050506040513d602081101562000b1257600080fd5b505160408051600160e11b636290b26302815290516001600160a01b039092169163c52164c691600480820192602092909190829003018186803b15801562000b5a57600080fd5b505afa15801562000b6f573d6000803e3d6000fd5b505050506040513d602081101562000b8657600080fd5b5051101562000bdf5760408051600160e51b62461bcd02815260206004820152601560248201527f6e6f7420656e6f7567682072657075746174696f6e0000000000000000000000604482015290519081900360640190fd5b60048054604051600160e11b6371d27c93028152602092810183815285516024830152855133946001600160a01b039094169363e3a4f92693889392839260449092019185019080838360005b8381101562000c4657818101518382015260200162000c2c565b50505050905090810190601f16801562000c745780820380516001836020036101000a031916815260200191505b509250505060206040518083038186803b15801562000c9257600080fd5b505afa15801562000ca7573d6000803e3d6000fd5b505050506040513d602081101562000cbe57600080fd5b505160408051600160e01b638da5cb5b02815290516001600160a01b0390921691638da5cb5b91600480820192602092909190829003018186803b15801562000d0657600080fd5b505afa15801562000d1b573d6000803e3d6000fd5b505050506040513d602081101562000d3257600080fd5b50516001600160a01b03161462000d935760408051600160e51b62461bcd02815260206004820152601c60248201527f796f7520617265206e6f742074686520646576696365206f776e657200000000604482015290519081900360640190fd5b60048054604051600160e11b6371d27c9302815260209281018381528551602483015285516000946001600160a01b039094169363e3a4f9269388939283926044909201918501908083838b5b8381101562000dfa57818101518382015260200162000de0565b50505050905090810190601f16801562000e285780820380516001836020036101000a031916815260200191505b509250505060206040518083038186803b15801562000e4657600080fd5b505afa15801562000e5b573d6000803e3d6000fd5b505050506040513d602081101562000e7257600080fd5b505160408051600160e01b63e7869fad02815290516001600160a01b039092169163e7869fad91600480820192600092909190829003018186803b15801562000eba57600080fd5b505afa15801562000ecf573d6000803e3d6000fd5b505050506040513d6000823e601f3d908101601f19168201604052602081101562000ef957600080fd5b810190808051600160201b81111562000f1157600080fd5b8201602081018481111562000f2557600080fd5b81518560208202830111600160201b8211171562000f4257600080fd5b505051604051600160e01b63c2f0d82d0281523360048201818152604483018490526060602484019081528a5160648501528a519498506001600160a01b038a16975063c2f0d82d965034955091938a93899391608490910190602086019080838360005b8381101562000fc157818101518382015260200162000fa7565b50505050905090810190601f16801562000fef5780820380516001836020036101000a031916815260200191505b509450505050506000604051808303818588803b1580156200101057600080fd5b505af115801562001025573d6000803e3d6000fd5b505060048054604051600160e11b6371d27c9302815260209281018381528951602483015289516001600160a01b03909316965063e3a4f92695508994509283926044909201919085019080838360005b838110156200109057818101518382015260200162001076565b50505050905090810190601f168015620010be5780820380516001836020036101000a031916815260200191505b509250505060206040518083038186803b158015620010dc57600080fd5b505afa158015620010f1573d6000803e3d6000fd5b505050506040513d60208110156200110857600080fd5b505160408051600160e01b63176e82850281526001600160a01b0387811660048301529151919092169163176e828591602480830192600092919082900301818387803b1580156200115957600080fd5b505af11580156200116e573d6000803e3d6000fd5b5050505050505050565b6200118381620024e5565b620011d15760408051600160e51b62461bcd02815260206004820152601360248201526001606a1b721d185cdac8191bd95cc81b9bdd08195e1a5cdd02604482015290519081900360640190fd5b6000620011de826200251a565b9050336001600160a01b0316816001600160a01b03166302d05d3f6040518163ffffffff1660e01b815260040160206040518083038186803b1580156200122457600080fd5b505afa15801562001239573d6000803e3d6000fd5b505050506040513d60208110156200125057600080fd5b50516001600160a01b031614620012b15760408051600160e51b62461bcd02815260206004820152601760248201527f796f7520617265206e6f74207468652063726561746f72000000000000000000604482015290519081900360640190fd5b806001600160a01b031663cf3090126040518163ffffffff1660e01b815260040160206040518083038186803b158015620012eb57600080fd5b505afa15801562001300573d6000803e3d6000fd5b505050506040513d60208110156200131757600080fd5b50511580620013905750600254816001600160a01b031663325a19f16040518163ffffffff1660e01b815260040160206040518083038186803b1580156200135e57600080fd5b505afa15801562001373573d6000803e3d6000fd5b505050506040513d60208110156200138a57600080fd5b50510142115b1562001765576001816001600160a01b031663074110526040518163ffffffff1660e01b815260040160206040518083038186803b158015620013d257600080fd5b505afa158015620013e7573d6000803e3d6000fd5b505050506040513d6020811015620013fe57600080fd5b5051815481106200140b57fe5b6000918252602082200180546001600160a01b031916905560408051600160e21b6338608bcd02815290516001600160a01b0384169263e1822f34926004808201939182900301818387803b1580156200146457600080fd5b505af115801562001479573d6000803e3d6000fd5b50505050600254816001600160a01b031663325a19f16040518163ffffffff1660e01b815260040160206040518083038186803b158015620014ba57600080fd5b505afa158015620014cf573d6000803e3d6000fd5b505050506040513d6020811015620014e657600080fd5b50510142111562001765576004805460408051600160e41b630c6326dd02815290516001600160a01b039283169363e3a4f9269386169263c6326dd09281830192600092829003018186803b1580156200153f57600080fd5b505afa15801562001554573d6000803e3d6000fd5b505050506040513d6000823e601f3d908101601f1916820160405260208110156200157e57600080fd5b810190808051600160201b8111156200159657600080fd5b82016020810184811115620015aa57600080fd5b8151600160201b811182820187101715620015c457600080fd5b505060405163ffffffff861660e01b815260206004820181815283516024840152835193965094508493506044909101919085019080838360005b8381101562001619578181015183820152602001620015ff565b50505050905090810190601f168015620016475780820380516001836020036101000a031916815260200191505b509250505060206040518083038186803b1580156200166557600080fd5b505afa1580156200167a573d6000803e3d6000fd5b505050506040513d60208110156200169157600080fd5b505160408051600160e01b633bc8b61702815290516001600160a01b039283169263fe32ff4c9290851691633bc8b61791600480820192602092909190829003018186803b158015620016e357600080fd5b505afa158015620016f8573d6000803e3d6000fd5b505050506040513d60208110156200170f57600080fd5b50516040805163ffffffff841660e01b8152600481019290925251602480830192600092919082900301818387803b1580156200174b57600080fd5b505af115801562001760573d6000803e3d6000fd5b505050505b5050565b600181815481106200177757fe5b6000918252602090912001546001600160a01b0316905081565b60035460ff16620017d757604051600160e51b62461bcd02815260040180806020018281038252602381526020018062002f9f6023913960400191505060405180910390fd5b60035460408051600160e11b637b51e92702815233600482015290516101009092046001600160a01b03169163f6a3d24e91602480820192602092909190829003018186803b1580156200182a57600080fd5b505afa1580156200183f573d6000803e3d6000fd5b505050506040513d60208110156200185657600080fd5b5051620018ad5760408051600160e51b62461bcd02815260206004820152601d60248201527f796f7520617265206e6f74206120726567697374657265642075736572000000604482015290519081900360640190fd5b60055460408051600160e41b6309c8a9d302815233600482015290516001926001600160a01b031691639c8a9d30916024808301926020929190829003018186803b158015620018fc57600080fd5b505afa15801562001911573d6000803e3d6000fd5b505050506040513d60208110156200192857600080fd5b50511015620019815760408051600160e51b62461bcd02815260206004820152601160248201527f6e6f7420656e6f75676820746f6b656e73000000000000000000000000000000604482015290519081900360640190fd5b60055460408051600160e01b63e630686b0281526001600482015233602482015290516001600160a01b039092169163e630686b9160448082019260009290919082900301818387803b158015620019d857600080fd5b505af1158015620019ed573d6000803e3d6000fd5b505050506000343385858560018054905060405162001a0c9062002594565b80866001600160a01b03166001600160a01b031681526020018060200185815260200180602001848152602001838103835287818151815260200191508051906020019080838360005b8381101562001a7057818101518382015260200162001a56565b50505050905090810190601f16801562001a9e5780820380516001836020036101000a031916815260200191505b50838103825285518152855160209182019187019080838360005b8381101562001ad357818101518382015260200162001ab9565b50505050905090810190601f16801562001b015780820380516001836020036101000a031916815260200191505b509750505050505050506040518091039082f08015801562001b27573d6000803e3d6000fd5b506001600160a01b0316600081815260208190526040812080546001600160a01b0319908116841790915560018054808201825592527fb10e2d527612073b26eecdfd717e6a320cf44b4afac2b0732d9fcbe2b7fa0cf6909101805490911690911790555050505050565b62001b9d83620024e5565b62001beb5760408051600160e51b62461bcd02815260206004820152601360248201526001606a1b721d185cdac8191bd95cc81b9bdd08195e1a5cdd02604482015290519081900360640190fd5b600062001bf8846200251a565b9050336001600160a01b0316816001600160a01b03166381bbfb616040518163ffffffff1660e01b815260040160206040518083038186803b15801562001c3e57600080fd5b505afa15801562001c53573d6000803e3d6000fd5b505050506040513d602081101562001c6a57600080fd5b50516001600160a01b03161462001ccb5760408051600160e51b62461bcd02815260206004820152601960248201527f796f7520617265206e6f74207468652064656c69766572657200000000000000604482015290519081900360640190fd5b600360019054906101000a90046001600160a01b03166001600160a01b0316631f0df17f826001600160a01b03166302d05d3f6040518163ffffffff1660e01b815260040160206040518083038186803b15801562001d2957600080fd5b505afa15801562001d3e573d6000803e3d6000fd5b505050506040513d602081101562001d5557600080fd5b50516040805163ffffffff841660e01b81526001600160a01b039092166004830152516024808301926020929190829003018186803b15801562001d9857600080fd5b505afa15801562001dad573d6000803e3d6000fd5b505050506040513d602081101562001dc457600080fd5b505160408051600160e21b630ae29d29028152600481019182528451604482015284516001600160a01b0390931692632b8a74a4928692889282916024810191606490910190602087019080838360005b8381101562001e2f57818101518382015260200162001e15565b50505050905090810190601f16801562001e5d5780820380516001836020036101000a031916815260200191505b50838103825284518152845160209182019186019080838360005b8381101562001e9257818101518382015260200162001e78565b50505050905090810190601f16801562001ec05780820380516001836020036101000a031916815260200191505b50945050505050600060405180830381600087803b15801562001ee257600080fd5b505af115801562001ef7573d6000803e3d6000fd5b50505050600360019054906101000a90046001600160a01b03166001600160a01b0316631f0df17f826001600160a01b03166302d05d3f6040518163ffffffff1660e01b815260040160206040518083038186803b15801562001f5957600080fd5b505afa15801562001f6e573d6000803e3d6000fd5b505050506040513d602081101562001f8557600080fd5b50516040805163ffffffff841660e01b81526001600160a01b039092166004830152516024808301926020929190829003018186803b15801562001fc857600080fd5b505afa15801562001fdd573d6000803e3d6000fd5b505050506040513d602081101562001ff457600080fd5b505160408051600160e21b632a7edd8f0281526001600482015290516001600160a01b039092169163a9fb763c9160248082019260009290919082900301818387803b1580156200204457600080fd5b505af115801562002059573d6000803e3d6000fd5b505060035460408051600160e01b631f0df17f02815233600482015290516101009092046001600160a01b03169350631f0df17f9250602480820192602092909190829003018186803b158015620020b057600080fd5b505afa158015620020c5573d6000803e3d6000fd5b505050506040513d6020811015620020dc57600080fd5b505160408051600160e21b632a7edd8f0281526002600482015290516001600160a01b039092169163a9fb763c9160248082019260009290919082900301818387803b1580156200212c57600080fd5b505af115801562002141573d6000803e3d6000fd5b505050506001816001600160a01b031663074110526040518163ffffffff1660e01b815260040160206040518083038186803b1580156200218157600080fd5b505afa15801562002196573d6000803e3d6000fd5b505050506040513d6020811015620021ad57600080fd5b505181548110620021ba57fe5b6000918252602082200180546001600160a01b03191690556004805460408051600160e41b630c6326dd02815290516001600160a01b039283169463e3a4f926949387169363c6326dd093808201939190829003018186803b1580156200222057600080fd5b505afa15801562002235573d6000803e3d6000fd5b505050506040513d6000823e601f3d908101601f1916820160405260208110156200225f57600080fd5b810190808051600160201b8111156200227757600080fd5b820160208101848111156200228b57600080fd5b8151600160201b811182820187101715620022a557600080fd5b505060405163ffffffff861660e01b815260206004820181815283516024840152835193965094508493506044909101919085019080838360005b83811015620022fa578181015183820152602001620022e0565b50505050905090810190601f168015620023285780820380516001836020036101000a031916815260200191505b509250505060206040518083038186803b1580156200234657600080fd5b505afa1580156200235b573d6000803e3d6000fd5b505050506040513d60208110156200237257600080fd5b505160408051600160e01b633bc8b61702815290516001600160a01b039283169263fe32ff4c9290851691633bc8b61791600480820192602092909190829003018186803b158015620023c457600080fd5b505afa158015620023d9573d6000803e3d6000fd5b505050506040513d6020811015620023f057600080fd5b50516040805163ffffffff841660e01b8152600481019290925251602480830192600092919082900301818387803b1580156200242c57600080fd5b505af115801562002441573d6000803e3d6000fd5b50505050806001600160a01b031663c76023cf6040518163ffffffff1660e01b8152600401600060405180830381600087803b1580156200115957600080fd5b60606001805480602002602001604051908101604052809291908181526020018280548015620024db57602002820191906000526020600020905b81546001600160a01b03168152600190910190602001808311620024bc575b5050505050905090565b6001600160a01b0380821660009081526020819052604081205490911615620025115750600162002515565b5060005b919050565b60006200252782620024e5565b620025755760408051600160e51b62461bcd02815260206004820152601360248201526001606a1b721d185cdac8191bd95cc81b9bdd08195e1a5cdd02604482015290519081900360640190fd5b506001600160a01b039081166000908152602081905260409020541690565b6109d780620025a38339019056fe608060408190526003805460ff191690556109d738819003908190833981018060405260a081101561003057600080fd5b81516020830180519193928301929164010000000081111561005157600080fd5b8201602081018481111561006457600080fd5b815164010000000081118282018710171561007e57600080fd5b505060208201516040909201805191949293916401000000008111156100a357600080fd5b820160208101848111156100b657600080fd5b81516401000000008111828201871017156100d057600080fd5b5050602091820151600080546001600160a01b0319166001600160a01b038a161790558651919450925061010a916004919087019061014a565b506005839055815161012390600690602085019061014a565b5034600755600a555050426008555050600980546001600160a01b031916331790556101e5565b828054600181600116156101000203166002900490600052602060002090601f016020900481019282601f1061018b57805160ff19168380011785556101b8565b828001600101855582156101b8579182015b828111156101b857825182559160200191906001019061019d565b506101c49291506101c8565b5090565b6101e291905b808211156101c457600081556001016101ce565b90565b6107e3806101f46000396000f3fe6080604052600436106100e85760003560e01c806349511c831161008a578063c76023cf11610059578063c76023cf1461031c578063cf30901214610331578063cf8d1f651461035a578063e1822f341461036f576100e8565b806349511c831461022357806381bbfb611461023a578063c2f0d82d1461024f578063c6326dd014610307576100e8565b8063228cb733116100c6578063228cb733146101cf5780632a960fa7146101e4578063325a19f1146101f95780633bc8b6171461020e576100e8565b806302d05d3f146100ed57806306fdde031461011e57806307411052146101a8575b600080fd5b3480156100f957600080fd5b50610102610384565b604080516001600160a01b039092168252519081900360200190f35b34801561012a57600080fd5b50610133610393565b6040805160208082528351818301528351919283929083019185019080838360005b8381101561016d578181015183820152602001610155565b50505050905090810190601f16801561019a5780820380516001836020036101000a031916815260200191505b509250505060405180910390f35b3480156101b457600080fd5b506101bd610421565b60408051918252519081900360200190f35b3480156101db57600080fd5b506101bd610427565b3480156101f057600080fd5b506101bd61042d565b34801561020557600080fd5b506101bd610433565b34801561021a57600080fd5b506101bd610439565b34801561022f57600080fd5b5061023861043f565b005b34801561024657600080fd5b506101026104e7565b6102386004803603606081101561026557600080fd5b6001600160a01b03823516919081019060408101602082013564010000000081111561029057600080fd5b8201836020820111156102a257600080fd5b803590602001918460018302840111640100000000831117156102c457600080fd5b91908080601f01602080910402602001604051908101604052809392919081815260200183838082843760009201919091525092955050913592506104f6915050565b34801561031357600080fd5b50610133610592565b34801561032857600080fd5b506102386105ea565b34801561033d57600080fd5b50610346610651565b604080519115158252519081900360200190f35b34801561036657600080fd5b5061013361065a565b34801561037b57600080fd5b506102386106b5565b6000546001600160a01b031681565b6004805460408051602060026001851615610100026000190190941693909304601f810184900484028201840190925281815292918301828280156104195780601f106103ee57610100808354040283529160200191610419565b820191906000526020600020905b8154815290600101906020018083116103fc57829003601f168201915b505050505081565b600a5481565b60075481565b60055481565b60085481565b600b5481565b6001546001600160a01b031633146104985760408051600160e51b62461bcd02815260206004820152601160248201526001607a1b701c195c9b5a5cdcda5bdb8819195b9a595902604482015290519081900360640190fd5b6003805460ff19169055600180546001600160a01b03191690556007546040516000916004900480156108fc029183818181858288f193505050501580156104e4573d6000803e3d6000fd5b50565b6001546001600160a01b031681565b6009546001600160a01b0316331461054f5760408051600160e51b62461bcd02815260206004820152601160248201526001607a1b701c195c9b5a5cdcda5bdb8819195b9a595902604482015290519081900360640190fd5b600180546001600160a01b0319166001600160a01b0385161781556003805460ff19169091179055815161058a90600290602085019061071c565b50600b555050565b6002805460408051602060018416156101000260001901909316849004601f810184900484028201840190925281815292918301828280156104195780601f106103ee57610100808354040283529160200191610419565b6009546001600160a01b031633146106435760408051600160e51b62461bcd02815260206004820152601160248201526001607a1b701c195c9b5a5cdcda5bdb8819195b9a595902604482015290519081900360640190fd5b6001546001600160a01b0316ff5b60035460ff1681565b6006805460408051602060026001851615610100026000190190941693909304601f810184900484028201840190925281815292918301828280156104195780601f106103ee57610100808354040283529160200191610419565b6009546001600160a01b0316331461070e5760408051600160e51b62461bcd02815260206004820152601160248201526001607a1b701c195c9b5a5cdcda5bdb8819195b9a595902604482015290519081900360640190fd5b6000546001600160a01b0316ff5b828054600181600116156101000203166002900490600052602060002090601f016020900481019282601f1061075d57805160ff191683800117855561078a565b8280016001018555821561078a579182015b8281111561078a57825182559160200191906001019061076f565b5061079692915061079a565b5090565b6107b491905b8082111561079657600081556001016107a0565b9056fea165627a7a72305820da094391f6bc091b8faba7a4cbbdd396e522703847b1cc325558fba044221d030029636f6e74726163742068617320616c7265616479206265656e20696e697469616c697a6564636f6e7472616374732068617665206e6f74206265656e20696e697469616c697a6564a165627a7a72305820651966d765666f450dea674d5607d9e02f6e9eb0e19fa64c9cdd54964d2f71110029",
  "source": "pragma solidity ^0.5.0;\n\n// IMPORT INTERFACES\nimport { Task } from './Task.sol';\nimport { UserManager } from '../user/Manager.sol';\nimport { DeviceManager } from '../device/Manager.sol';\nimport { TokenManager } from '../Token.sol';\n\ncontract TaskManager {\n\n    // MAP OF UNIQUE TASKS, [TASK ADDRESS => TASK CONTRACT]\n    mapping (address => Task) tasks;\n\n    // ALL CURRENTLY OPEN TASKS\n    Task[] public open_tasks;\n\n    // TIME LIMIT FOR TASK\n    uint limit = 5000;\n\n    // INIT STATUS\n    bool initialized = false;\n\n    // REFERENCES\n    UserManager user_manager;\n    DeviceManager device_manager;\n    TokenManager token_manager;\n\n    // CHECK IF TASK EXISTS\n    function exists(address _task) public view returns(bool) {\n        if (address(tasks[_task]) != 0x0000000000000000000000000000000000000000) {\n            return true;\n        } else {\n            return false;\n        }\n    }\n\n    // FETCH ALL OPEN TASKS\n    function fetch_open() public view returns(Task[] memory) {\n        return open_tasks;\n    }\n\n    // FETCH TASK\n    function fetch_task(address _task) public view returns(Task) {\n\n        // IF THE TASK EXISTS\n        require(exists(_task), 'task does not exist');\n        return tasks[_task];\n    }\n\n    // ADD TASK\n    function add_task(\n        string memory name,\n        uint reputation,\n        string memory encryption\n    ) public payable {\n\n        // IF CONTRACT HAS BEEN INITIALIZED\n        // SENDER IS A REGISTERED USER\n        // USER HAS ENOUGH TOKENS\n        require(initialized, 'contracts have not been initialized');\n        require(user_manager.exists(msg.sender), 'you are not a registered user');\n        require(token_manager.user_balance(msg.sender) >= 1, 'not enough tokens');\n\n        // REMOVE A TOKEN FROM SENDER\n        token_manager.consume_token(1, msg.sender);\n\n        // INSTANTIATE NEW TASK\n        Task task = (new Task).value(msg.value)(\n            msg.sender,\n            name,\n            reputation,\n            encryption,\n            open_tasks.length\n        );\n\n        // ADD HASHMAP ENTRY & LIST IT\n        tasks[address(task)] = task;\n        open_tasks.push(task);\n    }\n\n    // ACCEPT TASK\n    function accept_task(\n        address _task,\n        string memory _device\n    ) public payable {\n\n        // IF THE TASK EXISTS\n        // IF THE DEVICE EXISTS\n        require(exists(_task), 'task does not exist');\n        require(device_manager.exists(_device), 'device does not exist');\n\n        // SHORTHAND\n        Task task = fetch_task(_task);\n\n        // IF THE TASK IS NOT LOCKED\n        require(!task.locked(), 'task is locked');\n        require(msg.value >= task.reward() / 2, 'insufficient funds given');\n\n        // IF THE USER IS REGISTERED\n        // IF THE USER HAS ENOUGH REPUTATION\n        require(user_manager.exists(msg.sender), 'you are not a registered user');\n        require(user_manager.fetch_user(msg.sender).reputation() >= task.min_reputation(), 'not enough reputation');\n\n        // IF THE SENDER IS THE DEVICE OWNER\n        require(device_manager.fetch_device(_device).owner() == msg.sender, 'you are not the device owner');\n\n        // CURRENT ASSIGNMENT BACKLOG LENGTH\n        uint length = device_manager.fetch_device(_device).fetch_backlog().length;\n\n        // ACCEPT THE TASK & FORWARD THE FUNDS\n        task.accept_task.value(msg.value)(msg.sender, _device, length);\n\n        // ASSIGN TASK TO THE DEVICE\n        device_manager.fetch_device(_device).assign_task(_task);\n    }\n\n    // SUBMIT TASK RESULT\n    function submit_result(\n        address _task,\n        string memory _ipfs,\n        string memory _key\n    ) public {\n\n        // IF THE TASK EXISTS\n        require(exists(_task), 'task does not exist');\n\n        // SHORTHAND\n        Task task = fetch_task(_task);\n\n        // IF THE SENDER IS THE SELLER\n        require(task.deliverer() == msg.sender, 'you are not the deliverer');\n\n        // SEND THE RESULT TO THE BUYERS USER CONTRACT\n        user_manager.fetch_user(task.creator()).add_result(_key, _ipfs);\n\n        // REWARD BOTH PARTIES WITH REPUTATION\n        user_manager.fetch_user(task.creator()).reward(1);\n        user_manager.fetch_user(msg.sender).reward(2);\n\n        // UNLIST FROM OPEN TASKS & DEVICE BACKLOG\n        delete open_tasks[task.task_index()];\n        device_manager.fetch_device(task.device()).clear_task(task.device_index());\n\n        // SELF DESTRUCT TASK\n        task.complete_task();\n    }\n\n    // RELEASE THE TASK\n    function release_task(address _task) public {\n\n        // IF THE TASK EXISTS\n        require(exists(_task), 'task does not exist');\n\n        // SHORTHAND\n        Task task = fetch_task(_task);\n\n        // IF THE SENDER IS THE BUYER\n        require(task.creator() == msg.sender, 'you are not the creator');\n\n        // IF THE TASK IS LOCKED OR THE TIME LIMIT HAS BEEN EXCEEDED\n        if (!task.locked() || block.timestamp > task.created() + limit) {\n\n            // UNLIST & DESTROY THE TASK\n            delete open_tasks[task.task_index()];\n            task.release_task();\n\n            // IF THE TIME LIMIT WAS EXCEEDE\n            if (block.timestamp > task.created() + limit) {\n\n                // UNLIST FROM DEVICE BACKLOG\n                device_manager.fetch_device(task.device()).clear_task(task.device_index());\n            }\n        }\n    }\n\n    // INITIALIZE\n    function init(\n        address _user_manager,\n        address _device_manager,\n        address _token_manager\n    ) public {\n\n        // IF THE CONTRACT HAS NOT BEEN INITIALIZED\n        require(!initialized, 'contract has already been initialized');\n\n        // SET REFERENCES\n        user_manager = UserManager(_user_manager);\n        device_manager = DeviceManager(_device_manager);\n        token_manager = TokenManager(_token_manager);\n\n        // BLOCK FURTHER MODIFICATION\n        initialized = true;\n    }\n}",
  "sourcePath": "C:/Users/35840/Desktop/coding/node/eth-contracts/contracts/task/Manager.sol",
  "compiler": {
    "name": "solc",
    "version": "0.5.8+commit.23d335f2.Emscripten.clang"
  },
  "schemaVersion": "3.0.17",
  "updatedAt": "2019-11-29T04:24:43.407Z",
  "networkType": "ethereum",
  "devdoc": {
    "methods": {}
  },
  "userdoc": {
    "methods": {}
  }
}