{
  "contractName": "TokenManager",
  "abi": [
    {
      "constant": true,
      "inputs": [],
      "name": "token_price",
      "outputs": [
        {
          "name": "",
          "type": "uint256"
        }
      ],
      "payable": false,
      "stateMutability": "view",
      "type": "function"
    },
    {
      "constant": true,
      "inputs": [
        {
          "name": "",
          "type": "address"
        }
      ],
      "name": "tokens",
      "outputs": [
        {
          "name": "",
          "type": "uint256"
        }
      ],
      "payable": false,
      "stateMutability": "view",
      "type": "function"
    },
    {
      "constant": true,
      "inputs": [
        {
          "name": "user",
          "type": "address"
        }
      ],
      "name": "user_balance",
      "outputs": [
        {
          "name": "",
          "type": "uint256"
        }
      ],
      "payable": false,
      "stateMutability": "view",
      "type": "function"
    },
    {
      "constant": false,
      "inputs": [
        {
          "name": "amount",
          "type": "uint256"
        }
      ],
      "name": "buy_token",
      "outputs": [],
      "payable": true,
      "stateMutability": "payable",
      "type": "function"
    },
    {
      "constant": false,
      "inputs": [
        {
          "name": "amount",
          "type": "uint256"
        },
        {
          "name": "user",
          "type": "address"
        }
      ],
      "name": "consume_token",
      "outputs": [],
      "payable": false,
      "stateMutability": "nonpayable",
      "type": "function"
    },
    {
      "constant": false,
      "inputs": [
        {
          "name": "amount",
          "type": "uint256"
        },
        {
          "name": "user",
          "type": "address"
        }
      ],
      "name": "transfer_token",
      "outputs": [],
      "payable": false,
      "stateMutability": "nonpayable",
      "type": "function"
    },
    {
      "constant": false,
      "inputs": [
        {
          "name": "_token_price",
          "type": "uint256"
        },
        {
          "name": "_task_manager",
          "type": "address"
        }
      ],
      "name": "init",
      "outputs": [],
      "payable": false,
      "stateMutability": "nonpayable",
      "type": "function"
    }
  ],
  "bytecode": "0x60806040526002805460ff1916905534801561001a57600080fd5b506105b78061002a6000396000f3fe6080604052600436106100705760003560e01c8063b792e6ec1161004e578063b792e6ec1461010a578063e486033914610143578063e630686b14610176578063ede56d88146101af57610070565b8063025db764146100755780637b4fd96e146100b05780639c8a9d30146100d7575b600080fd5b34801561008157600080fd5b506100ae6004803603604081101561009857600080fd5b50803590602001356001600160a01b03166101cc565b005b3480156100bc57600080fd5b506100c56102a6565b60408051918252519081900360200190f35b3480156100e357600080fd5b506100c5600480360360208110156100fa57600080fd5b50356001600160a01b03166102ac565b34801561011657600080fd5b506100ae6004803603604081101561012d57600080fd5b50803590602001356001600160a01b03166102c7565b34801561014f57600080fd5b506100c56004803603602081101561016657600080fd5b50356001600160a01b0316610340565b34801561018257600080fd5b506100ae6004803603604081101561019957600080fd5b50803590602001356001600160a01b0316610352565b6100ae600480360360208110156101c557600080fd5b503561048e565b60025460ff1661021057604051600160e51b62461bcd02815260040180806020018281038252602181526020018061056b6021913960400191505060405180910390fd5b336000908152602081905260409020548211156102775760408051600160e51b62461bcd02815260206004820152601960248201527f7573657220746f6b656e20636f756e7420657863656564656400000000000000604482015290519081900360640190fd5b33600090815260208190526040808220805485900390556001600160a01b039290921681522080549091019055565b60015481565b6001600160a01b031660009081526020819052604090205490565b60025460ff161561030c57604051600160e51b62461bcd0281526004018080602001828103825260258152602001806105466025913960400191505060405180910390fd5b60019182556002805460ff196001600160a01b0390931661010002610100600160a81b031990911617919091169091179055565b60006020819052908152604090205481565b60025460ff1661039657604051600160e51b62461bcd02815260040180806020018281038252602181526020018061056b6021913960400191505060405180910390fd5b6001600160a01b0381166000908152602081905260409020548211156104065760408051600160e51b62461bcd02815260206004820152601960248201527f7573657220746f6b656e20636f756e7420657863656564656400000000000000604482015290519081900360640190fd5b60025461010090046001600160a01b0316331461046d5760408051600160e51b62461bcd02815260206004820152601b60248201527f796f752063616e6e6f742063616c6c2074686973206d6574686f640000000000604482015290519081900360640190fd5b6001600160a01b031660009081526020819052604090208054919091039055565b60025460ff166104d257604051600160e51b62461bcd02815260040180806020018281038252602181526020018061056b6021913960400191505060405180910390fd5b6001548102341461052d5760408051600160e51b62461bcd02815260206004820152601260248201527f696e73756666696369656e742066756e64730000000000000000000000000000604482015290519081900360640190fd5b3360009081526020819052604090208054909101905556fe636f6e74726163742068617320616c7265616479206265656e20696e697469616c697a6564636f6e747261637420686173206e6f74206265656e20696e697469616c697a6564a165627a7a7230582014e15ae48e522ecfdb4824800773bfc1e65e4273f0a364c8d42d959a1b2369010029",
  "source": "pragma solidity ^0.5.0;\r\n\r\ncontract TokenManager {\r\n\r\n    // MAP OF TOKEN OWNERSHIP, [ETH USER => AMOUNT]\r\n    mapping (address => uint) public tokens;\r\n\r\n    // TOKEN PRICE\r\n    uint public token_price;\r\n\r\n    // INIT STATUS & TASK MANAGER REFERENCE\r\n    bool initialized = false;\r\n    address task_manager;\r\n\r\n    // FETCH USER BALANCE\r\n    function user_balance(address user) public view returns(uint) {\r\n        return tokens[user];\r\n    }\r\n\r\n    // BUY TOKEN\r\n    function buy_token(uint amount) public payable {\r\n\r\n        // IF THE CONTRACT HAS BEEN INITIALIZED\r\n        // IF THE SENDER HAS SUFFICIENT FUNDS\r\n        require(initialized, 'contract has not been initialized');\r\n        require(msg.value == amount * token_price, 'insufficient funds');\r\n\r\n        // INCREASE TOKEN COUNT FOR SENDER\r\n        tokens[msg.sender] += amount;\r\n    }\r\n\r\n    // REMOVE TOKEN\r\n    function consume_token(uint amount, address user) public {\r\n\r\n        // IF THE CONTRACT HAS BEEN INITIALIZED\r\n        // IF THE USER HAS SUFFICIENT FUNDS\r\n        // IF THE CALLER IS THE TASK MANAGER CONTRACT\r\n        require(initialized, 'contract has not been initialized');\r\n        require(tokens[user] >= amount, 'user token count exceeded');\r\n        require(msg.sender == task_manager, 'you cannot call this method');\r\n\r\n        // DECREASE TOKEN COUNT FOR USER\r\n        tokens[user] -= amount;\r\n    }\r\n\r\n    // TRANSFER TOKENS TO ANOTHER USER\r\n    function transfer_token(uint amount, address user) public {\r\n\r\n        // IF THE CONTRACT HAS BEEN INITIALIZED\r\n        // IF THE SENDER HAS ENOUGH TOKENS TO TRANSFER\r\n        require(initialized, 'contract has not been initialized');\r\n        require(tokens[msg.sender] >= amount, 'user token count exceeded');\r\n\r\n        // REDUCE TOKENS FROM SENDER, THEN INCREASE THEM FOR USER\r\n        tokens[msg.sender] -= amount;\r\n        tokens[user] += amount;\r\n    }\r\n\r\n    // INITIALIZE\r\n    function init(uint _token_price, address _task_manager) public {\r\n\r\n        // IF THE CONTRACT HAS NOT BEEN INITIALIZED BEFORE\r\n        require(!initialized, 'contract has already been initialized');\r\n\r\n        // SET PRICE & TASK MANAGER REFERENCE\r\n        token_price = _token_price;\r\n        task_manager = _task_manager;\r\n\r\n        // BLOCK FURTHER MODIFICATIONS\r\n        initialized = true;\r\n    }\r\n}",
  "sourcePath": "C:/Users/35840/Desktop/coding/node/eth-contracts/contracts/Token.sol",
  "compiler": {
    "name": "solc",
    "version": "0.5.8+commit.23d335f2.Emscripten.clang"
  },
  "schemaVersion": "3.0.17",
  "updatedAt": "2020-01-26T01:48:11.711Z",
  "networkType": "ethereum",
  "devdoc": {
    "methods": {}
  },
  "userdoc": {
    "methods": {}
  }
}