{
  "contractName": "TokenManager",
  "abi": [
    {
      "constant": true,
      "inputs": [],
      "name": "token_price",
      "outputs": [
        {
          "name": "",
          "type": "uint256"
        }
      ],
      "payable": false,
      "stateMutability": "view",
      "type": "function"
    },
    {
      "constant": true,
      "inputs": [
        {
          "name": "",
          "type": "address"
        }
      ],
      "name": "tokens",
      "outputs": [
        {
          "name": "",
          "type": "uint256"
        }
      ],
      "payable": false,
      "stateMutability": "view",
      "type": "function"
    },
    {
      "constant": true,
      "inputs": [
        {
          "name": "user",
          "type": "address"
        }
      ],
      "name": "balance",
      "outputs": [
        {
          "name": "",
          "type": "uint256"
        }
      ],
      "payable": false,
      "stateMutability": "view",
      "type": "function"
    },
    {
      "constant": false,
      "inputs": [
        {
          "name": "amount",
          "type": "uint256"
        }
      ],
      "name": "buy",
      "outputs": [],
      "payable": true,
      "stateMutability": "payable",
      "type": "function"
    },
    {
      "constant": false,
      "inputs": [
        {
          "name": "amount",
          "type": "uint256"
        }
      ],
      "name": "sell",
      "outputs": [],
      "payable": false,
      "stateMutability": "nonpayable",
      "type": "function"
    },
    {
      "constant": false,
      "inputs": [
        {
          "name": "amount",
          "type": "uint256"
        },
        {
          "name": "user",
          "type": "address"
        }
      ],
      "name": "consume",
      "outputs": [],
      "payable": false,
      "stateMutability": "nonpayable",
      "type": "function"
    },
    {
      "constant": false,
      "inputs": [
        {
          "name": "amount",
          "type": "uint256"
        },
        {
          "name": "from",
          "type": "address"
        },
        {
          "name": "to",
          "type": "address"
        }
      ],
      "name": "transfer",
      "outputs": [],
      "payable": false,
      "stateMutability": "nonpayable",
      "type": "function"
    },
    {
      "constant": false,
      "inputs": [
        {
          "name": "_token_price",
          "type": "uint256"
        },
        {
          "name": "_task_manager",
          "type": "address"
        }
      ],
      "name": "init",
      "outputs": [],
      "payable": false,
      "stateMutability": "nonpayable",
      "type": "function"
    }
  ],
  "bytecode": "0x60806040526002805460ff1916905534801561001a57600080fd5b506106758061002a6000396000f3fe60806040526004361061007b5760003560e01c8063d96a094a1161004e578063d96a094a1461015c578063e3d670d714610179578063e4849b32146101ac578063e4860339146101d65761007b565b80636f3d98c7146100805780637b4fd96e146100bb578063b792e6ec146100e2578063ccb570e31461011b575b600080fd5b34801561008c57600080fd5b506100b9600480360360408110156100a357600080fd5b50803590602001356001600160a01b0316610209565b005b3480156100c757600080fd5b506100d06102d5565b60408051918252519081900360200190f35b3480156100ee57600080fd5b506100b96004803603604081101561010557600080fd5b50803590602001356001600160a01b03166102db565b34801561012757600080fd5b506100b96004803603606081101561013e57600080fd5b508035906001600160a01b0360208201358116916040013516610354565b6100b96004803603602081101561017257600080fd5b5035610431565b34801561018557600080fd5b506100d06004803603602081101561019c57600080fd5b50356001600160a01b03166104e8565b3480156101b857600080fd5b506100b9600480360360208110156101cf57600080fd5b5035610503565b3480156101e257600080fd5b506100d0600480360360208110156101f957600080fd5b50356001600160a01b03166105f1565b60025460ff1661024d57604051600160e51b62461bcd0281526004018080602001828103825260218152602001806106296021913960400191505060405180910390fd5b60025461010090046001600160a01b031633146102b45760408051600160e51b62461bcd02815260206004820152601b60248201527f796f752063616e6e6f742063616c6c2074686973206d6574686f640000000000604482015290519081900360640190fd5b6001600160a01b031660009081526020819052604090208054919091039055565b60015481565b60025460ff161561032057604051600160e51b62461bcd0281526004018080602001828103825260258152602001806106046025913960400191505060405180910390fd5b60019182556002805460ff196001600160a01b0390931661010002610100600160a81b031990911617919091169091179055565b60025460ff1661039857604051600160e51b62461bcd0281526004018080602001828103825260218152602001806106296021913960400191505060405180910390fd5b60025461010090046001600160a01b031633146103ff5760408051600160e51b62461bcd02815260206004820152601b60248201527f796f752063616e6e6f742063616c6c2074686973206d6574686f640000000000604482015290519081900360640190fd5b6001600160a01b0391821660009081526020819052604080822080548690039055919092168252902080549091019055565b60025460ff1661047557604051600160e51b62461bcd0281526004018080602001828103825260218152602001806106296021913960400191505060405180910390fd5b600154810234146104d05760408051600160e51b62461bcd02815260206004820152601260248201527f696e73756666696369656e742066756e64730000000000000000000000000000604482015290519081900360640190fd5b33600090815260208190526040902080549091019055565b6001600160a01b031660009081526020819052604090205490565b60025460ff1661054757604051600160e51b62461bcd0281526004018080602001828103825260218152602001806106296021913960400191505060405180910390fd5b80610551336104e8565b10156105a75760408051600160e51b62461bcd02815260206004820152601160248201527f6e6f7420656e6f75676820746f6b656e73000000000000000000000000000000604482015290519081900360640190fd5b3360008181526020819052604080822080548590039055600154905190840280156108fc0292909190818181858888f193505050501580156105ed573d6000803e3d6000fd5b5050565b6000602081905290815260409020548156fe636f6e74726163742068617320616c7265616479206265656e20696e697469616c697a6564636f6e747261637420686173206e6f74206265656e20696e697469616c697a6564a165627a7a72305820cc4009373f09720434f362db841c8af1e0f751a7d492f10a7888400578f36fa40029",
  "source": "pragma solidity ^0.5.0;\r\n\r\ncontract TokenManager {\r\n\r\n    // MAP OF TOKEN OWNERSHIP, [ETH USER => AMOUNT]\r\n    mapping (address => uint) public tokens;\r\n\r\n    // TOKEN PRICE\r\n    uint public token_price;\r\n\r\n    // INIT STATUS & TASK MANAGER REFERENCE\r\n    bool initialized = false;\r\n    address task_manager;\r\n\r\n    // FETCH USER BALANCE\r\n    function balance(address user) public view returns(uint) {\r\n        return tokens[user];\r\n    }\r\n\r\n    // BUY TOKENS\r\n    function buy(uint amount) public payable {\r\n\r\n        // IF THE CONTRACT HAS BEEN INITIALIZED\r\n        // IF THE SENDER HAS SUFFICIENT FUNDS\r\n        require(initialized, 'contract has not been initialized');\r\n        require(msg.value == amount * token_price, 'insufficient funds');\r\n\r\n        // INCREASE TOKEN COUNT FOR SENDER\r\n        tokens[msg.sender] += amount;\r\n    }\r\n\r\n    // SELL TOKENS\r\n    function sell(uint amount) public {\r\n\r\n        // IF THE CONTRACT HAS BEEN INITIALIZED\r\n        // IF THE USER HAS ENOUGH TOKENS\r\n        require(initialized, 'contract has not been initialized');\r\n        require(balance(msg.sender) >= amount, 'not enough tokens');\r\n\r\n        // DECREASE TOKEN COUNT FOR USER\r\n        tokens[msg.sender] -= amount;\r\n\r\n        // TRANSFER ETH\r\n        msg.sender.transfer(amount * token_price);\r\n    }\r\n\r\n    // CONSUME TOKENS\r\n    function consume(uint amount, address user) public {\r\n\r\n        // IF THE CONTRACT HAS BEEN INITIALIZED\r\n        // IF THE USER HAS SUFFICIENT FUNDS\r\n        // IF THE CALLER IS THE TASK MANAGER CONTRACT\r\n        require(initialized, 'contract has not been initialized');\r\n        require(msg.sender == task_manager, 'you cannot call this method');\r\n\r\n        // DECREASE TOKEN COUNT FOR USER\r\n        tokens[user] -= amount;\r\n    }\r\n\r\n    // TRANSFER TOKENS BETWEEN USERS\r\n    function transfer(uint amount, address from, address to) public {\r\n\r\n        // IF THE CONTRACT HAS BEEN INITIALIZED\r\n        // IF THE SENDER HAS ENOUGH TOKENS TO TRANSFER\r\n        require(initialized, 'contract has not been initialized');\r\n        require(msg.sender == task_manager, 'you cannot call this method');\r\n\r\n        // REDUCE TOKENS FROM SENDER, THEN INCREASE THEM FOR USER\r\n        tokens[from] -= amount;\r\n        tokens[to] += amount;\r\n    }\r\n\r\n    // INITIALIZE\r\n    function init(uint _token_price, address _task_manager) public {\r\n\r\n        // IF THE CONTRACT HAS NOT BEEN INITIALIZED BEFORE\r\n        require(!initialized, 'contract has already been initialized');\r\n\r\n        // SET PRICE & TASK MANAGER REFERENCE\r\n        token_price = _token_price;\r\n        task_manager = _task_manager;\r\n\r\n        // BLOCK FURTHER MODIFICATIONS\r\n        initialized = true;\r\n    }\r\n}",
  "sourcePath": "C:\\Users\\35840\\Desktop\\coding\\node\\eth-contracts\\contracts\\Token.sol",
  "compiler": {
    "name": "solc",
    "version": "0.5.8+commit.23d335f2.Emscripten.clang"
  },
  "schemaVersion": "3.0.17",
  "updatedAt": "2020-02-03T01:12:46.294Z",
  "networkType": "ethereum",
  "devdoc": {
    "methods": {}
  },
  "userdoc": {
    "methods": {}
  }
}