{
  "contractName": "TokenManager",
  "abi": [
    {
      "inputs": [],
      "name": "price",
      "outputs": [
        {
          "internalType": "uint256",
          "name": "",
          "type": "uint256"
        }
      ],
      "stateMutability": "view",
      "type": "function",
      "constant": true
    },
    {
      "inputs": [
        {
          "internalType": "address",
          "name": "",
          "type": "address"
        }
      ],
      "name": "tokens",
      "outputs": [
        {
          "internalType": "uint256",
          "name": "",
          "type": "uint256"
        }
      ],
      "stateMutability": "view",
      "type": "function",
      "constant": true
    },
    {
      "inputs": [
        {
          "internalType": "address",
          "name": "user",
          "type": "address"
        }
      ],
      "name": "balance",
      "outputs": [
        {
          "internalType": "uint256",
          "name": "",
          "type": "uint256"
        }
      ],
      "stateMutability": "view",
      "type": "function",
      "constant": true
    },
    {
      "inputs": [
        {
          "internalType": "uint256",
          "name": "amount",
          "type": "uint256"
        }
      ],
      "name": "purchase",
      "outputs": [],
      "stateMutability": "payable",
      "type": "function",
      "payable": true
    },
    {
      "inputs": [
        {
          "internalType": "uint256",
          "name": "amount",
          "type": "uint256"
        },
        {
          "internalType": "address",
          "name": "user",
          "type": "address"
        }
      ],
      "name": "consume",
      "outputs": [],
      "stateMutability": "nonpayable",
      "type": "function"
    },
    {
      "inputs": [
        {
          "internalType": "uint256",
          "name": "amount",
          "type": "uint256"
        },
        {
          "internalType": "address",
          "name": "from",
          "type": "address"
        },
        {
          "internalType": "address",
          "name": "to",
          "type": "address"
        }
      ],
      "name": "transfer",
      "outputs": [],
      "stateMutability": "nonpayable",
      "type": "function"
    },
    {
      "inputs": [
        {
          "internalType": "uint256",
          "name": "_price",
          "type": "uint256"
        },
        {
          "internalType": "address",
          "name": "_task_manager",
          "type": "address"
        }
      ],
      "name": "init",
      "outputs": [],
      "stateMutability": "nonpayable",
      "type": "function"
    }
  ],
  "bytecode": "0x60806040526002805460ff1916905534801561001a57600080fd5b5061052f8061002a6000396000f3fe6080604052600436106100705760003560e01c8063ccb570e31161004e578063ccb570e314610110578063e3d670d714610151578063e486033914610184578063efef39a1146101b757610070565b80636f3d98c714610075578063a035b1fe146100b0578063b792e6ec146100d7575b600080fd5b34801561008157600080fd5b506100ae6004803603604081101561009857600080fd5b50803590602001356001600160a01b03166101d4565b005b3480156100bc57600080fd5b506100c561028e565b60408051918252519081900360200190f35b3480156100e357600080fd5b506100ae600480360360408110156100fa57600080fd5b50803590602001356001600160a01b0316610294565b34801561011c57600080fd5b506100ae6004803603606081101561013357600080fd5b508035906001600160a01b036020820135811691604001351661030a565b34801561015d57600080fd5b506100c56004803603602081101561017457600080fd5b50356001600160a01b03166103d5565b34801561019057600080fd5b506100c5600480360360208110156101a757600080fd5b50356001600160a01b03166103f0565b6100ae600480360360208110156101cd57600080fd5b5035610402565b60025460ff166102155760405162461bcd60e51b81526004018080602001828103825260218152602001806104d96021913960400191505060405180910390fd5b60025461010090046001600160a01b0316331461026d576040805162461bcd60e51b81526020600482015260116024820152701c195c9b5a5cdcda5bdb8819195b9a5959607a1b604482015290519081900360640190fd5b6001600160a01b031660009081526020819052604090208054919091039055565b60015481565b60025460ff16156102d65760405162461bcd60e51b81526004018080602001828103825260258152602001806104b46025913960400191505060405180910390fd5b60019182556002805460ff196001600160a01b0390931661010002610100600160a81b031990911617919091169091179055565b60025460ff1661034b5760405162461bcd60e51b81526004018080602001828103825260218152602001806104d96021913960400191505060405180910390fd5b60025461010090046001600160a01b031633146103a3576040805162461bcd60e51b81526020600482015260116024820152701c195c9b5a5cdcda5bdb8819195b9a5959607a1b604482015290519081900360640190fd5b6001600160a01b0391821660009081526020819052604080822080548690039055919092168252902080549091019055565b6001600160a01b031660009081526020819052604090205490565b60006020819052908152604090205481565b60025460ff166104435760405162461bcd60e51b81526004018080602001828103825260218152602001806104d96021913960400191505060405180910390fd5b6001548102341461049b576040805162461bcd60e51b815260206004820152601b60248201527f696e73756666696369656e742066756e64732070726f76696465640000000000604482015290519081900360640190fd5b3360009081526020819052604090208054909101905556fe636f6e74726163742068617320616c7265616479206265656e20696e697469616c697a6564636f6e747261637420686173206e6f74206265656e20696e697469616c697a6564a26469706673582212208b3f7ea5eee971668015a38eafa82244f3d64ae8080fe2aa26b895f9d54737e464736f6c63430006080033",
  "immutableReferences": {},
  "source": "pragma solidity ^0.6.8;\r\n// SPDX-License-Identifier: MIT\r\n\r\ncontract TokenManager {\r\n\r\n    // MAP OF TOKEN OWNERSHIP, [USER ADDRESS => AMOUNT]\r\n    mapping (address => uint) public tokens;\r\n\r\n    // TOKEN PRICE\r\n    uint public price;\r\n\r\n    // INIT STATUS & TASK MANAGER REFERENCE\r\n    bool initialized = false;\r\n    address task_manager;\r\n\r\n    // FETCH USER TOKEN BALANCE\r\n    function balance(address user) public view returns(uint) {\r\n        return tokens[user];\r\n    }\r\n\r\n    // PURCHASE TOKENS\r\n    function purchase(uint amount) public payable {\r\n\r\n        // IF THE CONTRACT HAS BEEN INITIALIZED\r\n        // IF THE SENDER HAS SUFFICIENT FUNDS\r\n        require(initialized, 'contract has not been initialized');\r\n        require(msg.value == amount * price, 'insufficient funds provided');\r\n\r\n        // INCREASE TOKEN COUNT FOR SENDER\r\n        tokens[msg.sender] += amount;\r\n    }\r\n\r\n    // CONSUME USER TOKENS\r\n    function consume(uint amount, address user) public {\r\n\r\n        // IF THE CONTRACT HAS BEEN INITIALIZED\r\n        // IF THE CALLER IS THE TASK MANAGER CONTRACT\r\n        require(initialized, 'contract has not been initialized');\r\n        require(msg.sender == task_manager, 'permission denied');\r\n\r\n        // DECREASE TOKEN COUNT FOR USER\r\n        tokens[user] -= amount;\r\n    }\r\n\r\n    // TRANSFER TOKENS BETWEEN USERS\r\n    function transfer(uint amount, address from, address to) public {\r\n\r\n        // IF THE CONTRACT HAS BEEN INITIALIZED\r\n        // IF THE SENDER HAS ENOUGH TOKENS TO TRANSFER\r\n        require(initialized, 'contract has not been initialized');\r\n        require(msg.sender == task_manager, 'permission denied');\r\n\r\n        // REDUCE TOKENS FROM SENDER, THEN INCREASE THEM FOR USER\r\n        tokens[from] -= amount;\r\n        tokens[to] += amount;\r\n    }\r\n\r\n    // SET STATIC VARIABLES\r\n    function init(uint _price, address _task_manager) public {\r\n\r\n        // IF THE CONTRACT HAS NOT BEEN INITIALIZED BEFORE\r\n        require(!initialized, 'contract has already been initialized');\r\n\r\n        // SET TOKEN PRICE & TASK MANAGER REFERENCE\r\n        price = _price;\r\n        task_manager = _task_manager;\r\n\r\n        // BLOCK FURTHER MODIFICATIONS\r\n        initialized = true;\r\n    }\r\n}",
  "sourcePath": "C:\\Users\\35840\\Desktop\\coding\\node\\eth-contracts\\contracts\\Token.sol",
  "compiler": {
    "name": "solc",
    "version": "0.6.8+commit.0bbfe453.Emscripten.clang"
  },
  "schemaVersion": "3.2.0",
  "updatedAt": "2020-06-19T16:15:06.430Z",
  "networkType": "ethereum",
  "devdoc": {
    "methods": {}
  },
  "userdoc": {
    "methods": {}
  }
}