{
  "contractName": "Token",
  "abi": [
    {
      "constant": true,
      "inputs": [],
      "name": "initialized",
      "outputs": [
        {
          "name": "",
          "type": "bool"
        }
      ],
      "payable": false,
      "stateMutability": "view",
      "type": "function"
    },
    {
      "constant": true,
      "inputs": [],
      "name": "price",
      "outputs": [
        {
          "name": "",
          "type": "uint256"
        }
      ],
      "payable": false,
      "stateMutability": "view",
      "type": "function"
    },
    {
      "constant": true,
      "inputs": [],
      "name": "task_manager",
      "outputs": [
        {
          "name": "",
          "type": "address"
        }
      ],
      "payable": false,
      "stateMutability": "view",
      "type": "function"
    },
    {
      "constant": true,
      "inputs": [
        {
          "name": "",
          "type": "address"
        }
      ],
      "name": "tokens",
      "outputs": [
        {
          "name": "",
          "type": "uint256"
        }
      ],
      "payable": false,
      "stateMutability": "view",
      "type": "function"
    },
    {
      "anonymous": false,
      "inputs": [
        {
          "indexed": false,
          "name": "user",
          "type": "address"
        },
        {
          "indexed": false,
          "name": "amount",
          "type": "uint256"
        }
      ],
      "name": "Update",
      "type": "event"
    },
    {
      "constant": false,
      "inputs": [
        {
          "name": "_price",
          "type": "uint256"
        },
        {
          "name": "_task_manager",
          "type": "address"
        }
      ],
      "name": "init",
      "outputs": [],
      "payable": false,
      "stateMutability": "nonpayable",
      "type": "function"
    },
    {
      "constant": true,
      "inputs": [
        {
          "name": "user",
          "type": "address"
        }
      ],
      "name": "balance",
      "outputs": [
        {
          "name": "",
          "type": "uint256"
        }
      ],
      "payable": false,
      "stateMutability": "view",
      "type": "function"
    },
    {
      "constant": false,
      "inputs": [
        {
          "name": "amount",
          "type": "uint256"
        }
      ],
      "name": "add",
      "outputs": [],
      "payable": true,
      "stateMutability": "payable",
      "type": "function"
    },
    {
      "constant": false,
      "inputs": [
        {
          "name": "amount",
          "type": "uint256"
        },
        {
          "name": "user",
          "type": "address"
        }
      ],
      "name": "remove",
      "outputs": [],
      "payable": false,
      "stateMutability": "nonpayable",
      "type": "function"
    },
    {
      "constant": false,
      "inputs": [
        {
          "name": "amount",
          "type": "uint256"
        },
        {
          "name": "user",
          "type": "address"
        }
      ],
      "name": "transfer",
      "outputs": [],
      "payable": false,
      "stateMutability": "nonpayable",
      "type": "function"
    }
  ],
  "bytecode": "0x60806040526000805460ff1916905534801561001a57600080fd5b506107258061002a6000396000f3fe6080604052600436106100865760003560e01c8063b17f7d3111610059578063b17f7d3114610133578063b7760c8f14610164578063b792e6ec1461019d578063e3d670d7146101d6578063e48603391461020957610086565b80631003e2d21461008b578063158ef93e146100aa5780639dfa4e94146100d3578063a035b1fe1461010c575b600080fd5b6100a8600480360360208110156100a157600080fd5b503561023c565b005b3480156100b657600080fd5b506100bf61031c565b604080519115158252519081900360200190f35b3480156100df57600080fd5b506100a8600480360360408110156100f657600080fd5b50803590602001356001600160a01b0316610325565b34801561011857600080fd5b5061012161048c565b60408051918252519081900360200190f35b34801561013f57600080fd5b50610148610492565b604080516001600160a01b039092168252519081900360200190f35b34801561017057600080fd5b506100a86004803603604081101561018757600080fd5b50803590602001356001600160a01b03166104a6565b3480156101a957600080fd5b506100a8600480360360408110156101c057600080fd5b50803590602001356001600160a01b03166105ec565b3480156101e257600080fd5b50610121600480360360208110156101f957600080fd5b50356001600160a01b0316610666565b34801561021557600080fd5b506101216004803603602081101561022c57600080fd5b50356001600160a01b0316610681565b60005460ff1661028057604051600160e51b62461bcd0281526004018080602001828103825260218152602001806106d96021913960400191505060405180910390fd5b600254810234146102db5760408051600160e51b62461bcd02815260206004820152601260248201527f696e73756666696369656e742066756e64730000000000000000000000000000604482015290519081900360640190fd5b33600081815260016020908152604091829020805485019081905582519384529083015280516000805160206106b98339815191529281900390910190a150565b60005460ff1681565b60005460ff1661036957604051600160e51b62461bcd0281526004018080602001828103825260218152602001806106d96021913960400191505060405180910390fd5b6001600160a01b0381166000908152600160205260409020548211156103d95760408051600160e51b62461bcd02815260206004820152601960248201527f7573657220746f6b656e20636f756e7420657863656564656400000000000000604482015290519081900360640190fd5b60005461010090046001600160a01b031633146104405760408051600160e51b62461bcd02815260206004820152601b60248201527f796f752063616e6e6f742063616c6c2074686973206d6574686f640000000000604482015290519081900360640190fd5b6001600160a01b03811660008181526001602090815260409182902080548690039081905582519384529083015280516000805160206106b98339815191529281900390910190a15050565b60025481565b60005461010090046001600160a01b031681565b60005460ff166104ea57604051600160e51b62461bcd0281526004018080602001828103825260218152602001806106d96021913960400191505060405180910390fd5b336000908152600160205260409020548211156105515760408051600160e51b62461bcd02815260206004820152601960248201527f7573657220746f6b656e20636f756e7420657863656564656400000000000000604482015290519081900360640190fd5b336000818152600160209081526040808320805487900381556001600160a01b038616845281842080548801905592849052915482519384529083015280516000805160206106b98339815191529281900390910190a16001600160a01b0381166000818152600160209081526040918290205482519384529083015280516000805160206106b98339815191529281900390910190a15050565b60005460ff161561063157604051600160e51b62461bcd0281526004018080602001828103825260258152602001806106946025913960400191505060405180910390fd5b6002919091556000805460ff196001600160a01b0390931661010002610100600160a81b031990911617919091166001179055565b6001600160a01b031660009081526001602052604090205490565b6001602052600090815260409020548156fe636f6e74726163742068617320616c7265616479206265656e20696e697469616c697a65645f66d2a93b609bc6596b75c6dbb0e4f3f7cafd4b3b617157ff304d1076e58375636f6e747261637420686173206e6f74206265656e20696e697469616c697a6564a165627a7a723058207328f786ae2f1ac47a3524dcaf457db87ae1f3a3a5a96b9e431d6ff2f81a611e0029",
  "source": "pragma solidity ^0.5.0;\n\ncontract Token {\n\n    // INIT STATUS & TASK MANAGER LOCATION\n    bool public initialized = false;\n    address public task_manager;\n\n    // HASHMAP OF TOKEN OWNERS, [OWNER => AMOUNT]\n    mapping (address => uint) public tokens;\n\n    // TOKEN PRICE\n    uint public price;\n\n    // BALANCE CHANGE EVENT\n    event Update(address user, uint amount);\n\n    // INITIALIZE PARAMS\n    function init(uint _price, address _task_manager) public {\n\n        // IF THE CONTRACT HAS NOT BEEN INITIALIZED BEFORE\n        require(!initialized, 'contract has already been initialized');\n\n        // SET PRICE & TASK MANAGER LOCATION\n        price = _price;\n        task_manager = _task_manager;\n\n        // BLOCK FURTHER MODIFICATIONS\n        initialized = true;\n    }\n\n    // FETCH USER BALANCE\n    function balance(address user) public view returns(uint) {\n        return tokens[user];\n    }\n\n    // ADD TOKEN\n    function add(uint amount) public payable {\n\n        // IF THE CONTRACT HAS BEEN INITIALIZED\n        // IF THE SENDER HAS SUFFICIENT FUNDS\n        require(initialized, 'contract has not been initialized');\n        require(msg.value == amount * price, 'insufficient funds');\n\n        // INCREASE TOKEN COUNT FOR SENDER\n        tokens[msg.sender] += amount;\n\n        // EMIT EVENT\n        emit Update(msg.sender, tokens[msg.sender]);\n    }\n\n    // REMOVE TOKEN\n    function remove(uint amount, address user) public {\n\n        // IF THE CONTRACT HAS BEEN INITIALIZED\n        // IF THE USER HAS SUFFICIENT FUNDS\n        // IF THE CALLER IS THE TASK MANAGER CONTRACT\n        require(initialized, 'contract has not been initialized');\n        require(tokens[user] >= amount, 'user token count exceeded');\n        require(msg.sender == task_manager, 'you cannot call this method');\n\n        // DECREASE TOKEN COUNT FOR USER\n        tokens[user] -= amount;\n\n        // SEND EVENT\n        emit Update(user, tokens[user]);\n    }\n\n    // TRANSFER TOKENS FROM SENDER TO USER\n    function transfer(uint amount, address user) public {\n\n        // IF THE CONTRACT HAS BEEN INITIALIZED\n        // IF THE SENDER HAS ENOUGH TOKENS TO TRANSFER\n        require(initialized, 'contract has not been initialized');\n        require(tokens[msg.sender] >= amount, 'user token count exceeded');\n\n        // REDUCE TOKENS FROM SENDER, THEN INCREASE THEM FOR USER\n        tokens[msg.sender] -= amount;\n        tokens[user] += amount;\n\n        // EMIT EVENT FOR BOTH USERS\n        emit Update(msg.sender, tokens[msg.sender]);\n        emit Update(user, tokens[user]);\n    }\n}",
  "sourcePath": "C:/Users/35840/Desktop/coding/node/eth-contracts/contracts/Token.sol",
  "compiler": {
    "name": "solc",
    "version": "0.5.8+commit.23d335f2.Emscripten.clang"
  },
  "schemaVersion": "3.0.17",
  "updatedAt": "2019-11-04T18:15:50.142Z",
  "devdoc": {
    "methods": {}
  },
  "userdoc": {
    "methods": {}
  }
}