{
  "contractName": "TokenManager",
  "abi": [
    {
      "constant": true,
      "inputs": [],
      "name": "price",
      "outputs": [
        {
          "name": "",
          "type": "uint256"
        }
      ],
      "payable": false,
      "stateMutability": "view",
      "type": "function"
    },
    {
      "constant": true,
      "inputs": [
        {
          "name": "",
          "type": "address"
        }
      ],
      "name": "tokens",
      "outputs": [
        {
          "name": "",
          "type": "uint256"
        }
      ],
      "payable": false,
      "stateMutability": "view",
      "type": "function"
    },
    {
      "constant": true,
      "inputs": [
        {
          "name": "user",
          "type": "address"
        }
      ],
      "name": "balance",
      "outputs": [
        {
          "name": "",
          "type": "uint256"
        }
      ],
      "payable": false,
      "stateMutability": "view",
      "type": "function"
    },
    {
      "constant": false,
      "inputs": [
        {
          "name": "amount",
          "type": "uint256"
        }
      ],
      "name": "add",
      "outputs": [],
      "payable": true,
      "stateMutability": "payable",
      "type": "function"
    },
    {
      "constant": false,
      "inputs": [
        {
          "name": "amount",
          "type": "uint256"
        },
        {
          "name": "user",
          "type": "address"
        }
      ],
      "name": "remove",
      "outputs": [],
      "payable": false,
      "stateMutability": "nonpayable",
      "type": "function"
    },
    {
      "constant": false,
      "inputs": [
        {
          "name": "amount",
          "type": "uint256"
        },
        {
          "name": "user",
          "type": "address"
        }
      ],
      "name": "transfer",
      "outputs": [],
      "payable": false,
      "stateMutability": "nonpayable",
      "type": "function"
    },
    {
      "constant": false,
      "inputs": [
        {
          "name": "_price",
          "type": "uint256"
        },
        {
          "name": "_task_manager",
          "type": "address"
        }
      ],
      "name": "init",
      "outputs": [],
      "payable": false,
      "stateMutability": "nonpayable",
      "type": "function"
    }
  ],
  "bytecode": "0x60806040526002805460ff1916905534801561001a57600080fd5b506105b78061002a6000396000f3fe6080604052600436106100705760003560e01c8063b7760c8f1161004e578063b7760c8f146100f4578063b792e6ec1461012d578063e3d670d714610166578063e48603391461019957610070565b80631003e2d2146100755780639dfa4e9414610094578063a035b1fe146100cd575b600080fd5b6100926004803603602081101561008b57600080fd5b50356101cc565b005b3480156100a057600080fd5b50610092600480360360408110156100b757600080fd5b50803590602001356001600160a01b0316610283565b3480156100d957600080fd5b506100e26103bf565b60408051918252519081900360200190f35b34801561010057600080fd5b506100926004803603604081101561011757600080fd5b50803590602001356001600160a01b03166103c5565b34801561013957600080fd5b506100926004803603604081101561015057600080fd5b50803590602001356001600160a01b031661049f565b34801561017257600080fd5b506100e26004803603602081101561018957600080fd5b50356001600160a01b0316610518565b3480156101a557600080fd5b506100e2600480360360208110156101bc57600080fd5b50356001600160a01b0316610533565b60025460ff1661021057604051600160e51b62461bcd02815260040180806020018281038252602181526020018061056b6021913960400191505060405180910390fd5b6001548102341461026b5760408051600160e51b62461bcd02815260206004820152601260248201527f696e73756666696369656e742066756e64730000000000000000000000000000604482015290519081900360640190fd5b33600090815260208190526040902080549091019055565b60025460ff166102c757604051600160e51b62461bcd02815260040180806020018281038252602181526020018061056b6021913960400191505060405180910390fd5b6001600160a01b0381166000908152602081905260409020548211156103375760408051600160e51b62461bcd02815260206004820152601960248201527f7573657220746f6b656e20636f756e7420657863656564656400000000000000604482015290519081900360640190fd5b60025461010090046001600160a01b0316331461039e5760408051600160e51b62461bcd02815260206004820152601b60248201527f796f752063616e6e6f742063616c6c2074686973206d6574686f640000000000604482015290519081900360640190fd5b6001600160a01b031660009081526020819052604090208054919091039055565b60015481565b60025460ff1661040957604051600160e51b62461bcd02815260040180806020018281038252602181526020018061056b6021913960400191505060405180910390fd5b336000908152602081905260409020548211156104705760408051600160e51b62461bcd02815260206004820152601960248201527f7573657220746f6b656e20636f756e7420657863656564656400000000000000604482015290519081900360640190fd5b33600090815260208190526040808220805485900390556001600160a01b039290921681522080549091019055565b60025460ff16156104e457604051600160e51b62461bcd0281526004018080602001828103825260258152602001806105466025913960400191505060405180910390fd5b60019182556002805460ff196001600160a01b0390931661010002610100600160a81b031990911617919091169091179055565b6001600160a01b031660009081526020819052604090205490565b6000602081905290815260409020548156fe636f6e74726163742068617320616c7265616479206265656e20696e697469616c697a6564636f6e747261637420686173206e6f74206265656e20696e697469616c697a6564a165627a7a723058202adf198b482b8e4612be8f527a9f86e0a86c205ee10bd77fcf1883276f5b533d0029",
  "source": "pragma solidity ^0.5.0;\n\ncontract TokenManager {\n\n    // HASHMAP OF TOKEN OWNERSHIP, [USER ADDRESS => AMOUNT]\n    mapping (address => uint) public tokens;\n\n    // TOKEN PRICE\n    uint public price;\n\n    // INIT STATUS & TASK MANAGER REFERENCE\n    bool initialized = false;\n    address task_manager;\n\n    // FETCH USER BALANCE\n    function balance(address user) public view returns(uint) {\n        return tokens[user];\n    }\n\n    // ADD TOKEN\n    function add(uint amount) public payable {\n\n        // IF THE CONTRACT HAS BEEN INITIALIZED\n        // IF THE SENDER HAS SUFFICIENT FUNDS\n        require(initialized, 'contract has not been initialized');\n        require(msg.value == amount * price, 'insufficient funds');\n\n        // INCREASE TOKEN COUNT FOR SENDER\n        tokens[msg.sender] += amount;\n    }\n\n    // REMOVE TOKEN\n    function remove(uint amount, address user) public {\n\n        // IF THE CONTRACT HAS BEEN INITIALIZED\n        // IF THE USER HAS SUFFICIENT FUNDS\n        // IF THE CALLER IS THE TASK MANAGER CONTRACT\n        require(initialized, 'contract has not been initialized');\n        require(tokens[user] >= amount, 'user token count exceeded');\n        require(msg.sender == task_manager, 'you cannot call this method');\n\n        // DECREASE TOKEN COUNT FOR USER\n        tokens[user] -= amount;\n    }\n\n    // TRANSFER TOKENS FROM SENDER TO USER\n    function transfer(uint amount, address user) public {\n\n        // IF THE CONTRACT HAS BEEN INITIALIZED\n        // IF THE SENDER HAS ENOUGH TOKENS TO TRANSFER\n        require(initialized, 'contract has not been initialized');\n        require(tokens[msg.sender] >= amount, 'user token count exceeded');\n\n        // REDUCE TOKENS FROM SENDER, THEN INCREASE THEM FOR USER\n        tokens[msg.sender] -= amount;\n        tokens[user] += amount;\n    }\n\n    // INITIALIZE\n    function init(uint _price, address _task_manager) public {\n\n        // IF THE CONTRACT HAS NOT BEEN INITIALIZED BEFORE\n        require(!initialized, 'contract has already been initialized');\n\n        // SET PRICE & TASK MANAGER REFERENCE\n        price = _price;\n        task_manager = _task_manager;\n\n        // BLOCK FURTHER MODIFICATIONS\n        initialized = true;\n    }\n}",
  "sourcePath": "C:\\Users\\35840\\Desktop\\coding\\node\\eth-contracts\\contracts\\Token.sol",
  "compiler": {
    "name": "solc",
    "version": "0.5.8+commit.23d335f2.Emscripten.clang"
  },
  "schemaVersion": "3.0.17",
  "updatedAt": "2019-11-06T20:02:22.549Z",
  "devdoc": {
    "methods": {}
  },
  "userdoc": {
    "methods": {}
  }
}