{
  "contractName": "TokenManager",
  "abi": [
    {
      "constant": true,
      "inputs": [],
      "name": "price",
      "outputs": [
        {
          "name": "",
          "type": "uint256"
        }
      ],
      "payable": false,
      "stateMutability": "view",
      "type": "function"
    },
    {
      "constant": true,
      "inputs": [
        {
          "name": "",
          "type": "address"
        }
      ],
      "name": "tokens",
      "outputs": [
        {
          "name": "",
          "type": "uint256"
        }
      ],
      "payable": false,
      "stateMutability": "view",
      "type": "function"
    },
    {
      "constant": true,
      "inputs": [
        {
          "name": "user",
          "type": "address"
        }
      ],
      "name": "balance",
      "outputs": [
        {
          "name": "",
          "type": "uint256"
        }
      ],
      "payable": false,
      "stateMutability": "view",
      "type": "function"
    },
    {
      "constant": false,
      "inputs": [
        {
          "name": "amount",
          "type": "uint256"
        }
      ],
      "name": "add",
      "outputs": [],
      "payable": true,
      "stateMutability": "payable",
      "type": "function"
    },
    {
      "constant": false,
      "inputs": [
        {
          "name": "amount",
          "type": "uint256"
        },
        {
          "name": "user",
          "type": "address"
        }
      ],
      "name": "remove",
      "outputs": [],
      "payable": false,
      "stateMutability": "nonpayable",
      "type": "function"
    },
    {
      "constant": false,
      "inputs": [
        {
          "name": "amount",
          "type": "uint256"
        },
        {
          "name": "user",
          "type": "address"
        }
      ],
      "name": "transfer",
      "outputs": [],
      "payable": false,
      "stateMutability": "nonpayable",
      "type": "function"
    },
    {
      "constant": false,
      "inputs": [
        {
          "name": "_price",
          "type": "uint256"
        },
        {
          "name": "_task_manager",
          "type": "address"
        }
      ],
      "name": "init",
      "outputs": [],
      "payable": false,
      "stateMutability": "nonpayable",
      "type": "function"
    }
  ],
  "bytecode": "0x60806040526002805460ff1916905534801561001a57600080fd5b506106868061002a6000396000f3fe6080604052600436106100825763ffffffff7c01000000000000000000000000000000000000000000000000000000006000350416631003e2d281146100875780639dfa4e94146100a6578063a035b1fe146100df578063b7760c8f14610106578063b792e6ec1461013f578063e3d670d714610178578063e4860339146101ab575b600080fd5b6100a46004803603602081101561009d57600080fd5b50356101de565b005b3480156100b257600080fd5b506100a4600480360360408110156100c957600080fd5b5080359060200135600160a060020a03166102d3565b3480156100eb57600080fd5b506100f461044d565b60408051918252519081900360200190f35b34801561011257600080fd5b506100a46004803603604081101561012957600080fd5b5080359060200135600160a060020a0316610453565b34801561014b57600080fd5b506100a46004803603604081101561016257600080fd5b5080359060200135600160a060020a031661056b565b34801561018457600080fd5b506100f46004803603602081101561019b57600080fd5b5035600160a060020a031661062d565b3480156101b757600080fd5b506100f4600480360360208110156101ce57600080fd5b5035600160a060020a0316610648565b60025460ff161515610260576040805160e560020a62461bcd02815260206004820152602160248201527f636f6e747261637420686173206e6f74206265656e20696e697469616c697a6560448201527f6400000000000000000000000000000000000000000000000000000000000000606482015290519081900360840190fd5b600154810234146102bb576040805160e560020a62461bcd02815260206004820152601260248201527f696e73756666696369656e742066756e64730000000000000000000000000000604482015290519081900360640190fd5b33600090815260208190526040902080549091019055565b60025460ff161515610355576040805160e560020a62461bcd02815260206004820152602160248201527f636f6e747261637420686173206e6f74206265656e20696e697469616c697a6560448201527f6400000000000000000000000000000000000000000000000000000000000000606482015290519081900360840190fd5b600160a060020a0381166000908152602081905260409020548211156103c5576040805160e560020a62461bcd02815260206004820152601960248201527f7573657220746f6b656e20636f756e7420657863656564656400000000000000604482015290519081900360640190fd5b6002546101009004600160a060020a0316331461042c576040805160e560020a62461bcd02815260206004820152601b60248201527f796f752063616e6e6f742063616c6c2074686973206d6574686f640000000000604482015290519081900360640190fd5b600160a060020a031660009081526020819052604090208054919091039055565b60015481565b60025460ff1615156104d5576040805160e560020a62461bcd02815260206004820152602160248201527f636f6e747261637420686173206e6f74206265656e20696e697469616c697a6560448201527f6400000000000000000000000000000000000000000000000000000000000000606482015290519081900360840190fd5b3360009081526020819052604090205482111561053c576040805160e560020a62461bcd02815260206004820152601960248201527f7573657220746f6b656e20636f756e7420657863656564656400000000000000604482015290519081900360640190fd5b3360009081526020819052604080822080548590039055600160a060020a039290921681522080549091019055565b60025460ff16156105ec576040805160e560020a62461bcd02815260206004820152602560248201527f636f6e74726163742068617320616c7265616479206265656e20696e6974696160448201527f6c697a6564000000000000000000000000000000000000000000000000000000606482015290519081900360840190fd5b60019182556002805460ff19600160a060020a039093166101000274ffffffffffffffffffffffffffffffffffffffff001990911617919091169091179055565b600160a060020a031660009081526020819052604090205490565b6000602081905290815260409020548156fea165627a7a723058205ef1b6af42f2a52d56cb87faab94229215ebcb2ada47abd91050413a8d0aef5b0029",
  "source": "pragma solidity ^0.5.0;\n\ncontract TokenManager {\n\n    // HASHMAP OF TOKEN OWNERSHIP, [USER ADDRESS => AMOUNT]\n    mapping (address => uint) public tokens;\n\n    // TOKEN PRICE\n    uint public price;\n\n    // INIT STATUS & TASK MANAGER REFERENCE\n    bool initialized = false;\n    address task_manager;\n\n    // FETCH USER BALANCE\n    function balance(address user) public view returns(uint) {\n        return tokens[user];\n    }\n\n    // ADD TOKEN\n    function add(uint amount) public payable {\n\n        // IF THE CONTRACT HAS BEEN INITIALIZED\n        // IF THE SENDER HAS SUFFICIENT FUNDS\n        require(initialized, 'contract has not been initialized');\n        require(msg.value == amount * price, 'insufficient funds');\n\n        // INCREASE TOKEN COUNT FOR SENDER\n        tokens[msg.sender] += amount;\n    }\n\n    // REMOVE TOKEN\n    function remove(uint amount, address user) public {\n\n        // IF THE CONTRACT HAS BEEN INITIALIZED\n        // IF THE USER HAS SUFFICIENT FUNDS\n        // IF THE CALLER IS THE TASK MANAGER CONTRACT\n        require(initialized, 'contract has not been initialized');\n        require(tokens[user] >= amount, 'user token count exceeded');\n        require(msg.sender == task_manager, 'you cannot call this method');\n\n        // DECREASE TOKEN COUNT FOR USER\n        tokens[user] -= amount;\n    }\n\n    // TRANSFER TOKENS FROM SENDER TO USER\n    function transfer(uint amount, address user) public {\n\n        // IF THE CONTRACT HAS BEEN INITIALIZED\n        // IF THE SENDER HAS ENOUGH TOKENS TO TRANSFER\n        require(initialized, 'contract has not been initialized');\n        require(tokens[msg.sender] >= amount, 'user token count exceeded');\n\n        // REDUCE TOKENS FROM SENDER, THEN INCREASE THEM FOR USER\n        tokens[msg.sender] -= amount;\n        tokens[user] += amount;\n    }\n\n    // INITIALIZE\n    function init(uint _price, address _task_manager) public {\n\n        // IF THE CONTRACT HAS NOT BEEN INITIALIZED BEFORE\n        require(!initialized, 'contract has already been initialized');\n\n        // SET PRICE & TASK MANAGER REFERENCE\n        price = _price;\n        task_manager = _task_manager;\n\n        // BLOCK FURTHER MODIFICATIONS\n        initialized = true;\n    }\n}",
  "sourcePath": "/home/bdalab/wickstjo/eth-contracts/contracts/Token.sol",
  "compiler": {
    "name": "solc",
    "version": "0.5.0+commit.1d4f565a.Emscripten.clang"
  },
  "schemaVersion": "3.0.9",
  "updatedAt": "2019-11-07T10:05:59.836Z",
  "devdoc": {
    "methods": {}
  },
  "userdoc": {
    "methods": {}
  }
}