{
  "contractName": "UserManager",
  "abi": [
    {
      "constant": true,
      "inputs": [
        {
          "name": "",
          "type": "address"
        }
      ],
      "name": "users",
      "outputs": [
        {
          "name": "",
          "type": "address"
        }
      ],
      "payable": false,
      "stateMutability": "view",
      "type": "function"
    },
    {
      "constant": true,
      "inputs": [
        {
          "name": "user",
          "type": "address"
        }
      ],
      "name": "exists",
      "outputs": [
        {
          "name": "",
          "type": "bool"
        }
      ],
      "payable": false,
      "stateMutability": "view",
      "type": "function"
    },
    {
      "constant": true,
      "inputs": [
        {
          "name": "user",
          "type": "address"
        }
      ],
      "name": "fetch",
      "outputs": [
        {
          "name": "",
          "type": "address"
        }
      ],
      "payable": false,
      "stateMutability": "view",
      "type": "function"
    },
    {
      "constant": false,
      "inputs": [
        {
          "name": "nickname",
          "type": "string"
        }
      ],
      "name": "add",
      "outputs": [],
      "payable": false,
      "stateMutability": "nonpayable",
      "type": "function"
    }
  ],
  "bytecode": "0x608060405234801561001057600080fd5b50610de0806100206000396000f3fe608060405234801561001057600080fd5b506004361061004c5760003560e01c8063a87430ba14610051578063b0c8f9dc14610093578063f109a0be1461013b578063f6a3d24e14610161575b600080fd5b6100776004803603602081101561006757600080fd5b50356001600160a01b031661019b565b604080516001600160a01b039092168252519081900360200190f35b610139600480360360208110156100a957600080fd5b8101906020810181356401000000008111156100c457600080fd5b8201836020820111156100d657600080fd5b803590602001918460018302840111640100000000831117156100f857600080fd5b91908080601f0160208091040260200160405190810160405280939291908181526020018383808284376000920191909152509295506101b6945050505050565b005b6100776004803603602081101561015157600080fd5b50356001600160a01b03166102d6565b6101876004803603602081101561017757600080fd5b50356001600160a01b0316610357565b604080519115158252519081900360200190f35b6000602081905290815260409020546001600160a01b031681565b6101bf33610357565b156102145760408051600160e51b62461bcd02815260206004820152601360248201527f7573657220616c72656164792065786973747300000000000000000000000000604482015290519081900360640190fd5b8060405161022190610389565b60208082528251818301528251829160408301919085019080838360005b8381101561025757818101518382015260200161023f565b50505050905090810190601f1680156102845780820380516001836020036101000a031916815260200191505b5092505050604051809103906000f0801580156102a5573d6000803e3d6000fd5b5033600090815260208190526040902080546001600160a01b0319166001600160a01b039290921691909117905550565b60006102e182610357565b6103355760408051600160e51b62461bcd02815260206004820152601360248201527f7573657220646f6573206e6f7420657869737400000000000000000000000000604482015290519081900360640190fd5b506001600160a01b03808216600090815260208190526040902054165b919050565b6001600160a01b038082166000908152602081905260408120549091161561038157506001610352565b506000610352565b610a1e806103978339019056fe60806040523480156200001157600080fd5b5060405162000a1e38038062000a1e83398101806040526200003791908101906200015a565b80516200004c90600090602084019062000059565b505060006001556200021c565b828054600181600116156101000203166002900490600052602060002090601f016020900481019282601f106200009c57805160ff1916838001178555620000cc565b82800160010185558215620000cc579182015b82811115620000cc578251825591602001919060010190620000af565b50620000da929150620000de565b5090565b620000fb91905b80821115620000da5760008155600101620000e5565b90565b600082601f8301126200011057600080fd5b8151620001276200012182620001c1565b6200019a565b915080825260208301602083018583830111156200014457600080fd5b62000151838284620001e9565b50505092915050565b6000602082840312156200016d57600080fd5b81516001600160401b038111156200018457600080fd5b6200019284828501620000fe565b949350505050565b6040518181016001600160401b0381118282101715620001b957600080fd5b604052919050565b60006001600160401b03821115620001d857600080fd5b506020601f91909101601f19160190565b60005b8381101562000206578181015183820152602001620001ec565b8381111562000216576000848401525b50505050565b6107f2806200022c6000396000f3fe608060405234801561001057600080fd5b50600436106100575760003560e01c80631eedba801461005c5780636bc493681461007a57806377c237fd1461008f578063c52164c6146100b0578063f772282c146100c5575b600080fd5b6100646100e5565b6040516100719190610692565b60405180910390f35b61008d6100883660046105a7565b610173565b005b6100a261009d366004610581565b6101ca565b6040516100719291906106aa565b6100b8610303565b60405161007191906106e0565b6100d86100d3366004610581565b610309565b60405161007191906106cf565b6000805460408051602060026001851615610100026000190190941693909304601f8101849004840282018401909252818152929183018282801561016b5780601f106101405761010080835404028352916020019161016b565b820191906000526020600020905b81548152906001019060200180831161014e57829003601f168201915b505050505081565b6040805180820182528381526020808201849052336000908152600282529290922081518051929391926101aa9284920190610467565b5060208281015180516101c39260018501920190610467565b5050505050565b600260208181526000928352604092839020805484516001821615610100026000190190911693909304601f810183900483028401830190945283835292839183018282801561025b5780601f106102305761010080835404028352916020019161025b565b820191906000526020600020905b81548152906001019060200180831161023e57829003601f168201915b505050505090806001018054600181600116156101000203166002900480601f0160208091040260200160405190810160405280929190818152602001828054600181600116156101000203166002900480156102f95780601f106102ce576101008083540402835291602001916102f9565b820191906000526020600020905b8154815290600101906020018083116102dc57829003601f168201915b5050505050905082565b60015481565b6103116104e5565b6001600160a01b038216600090815260026020818152604092839020835181546060601f60001961010060018516150201909216959095049081018490049093028101840185529384018281529092849284918401828280156103b55780601f1061038a576101008083540402835291602001916103b5565b820191906000526020600020905b81548152906001019060200180831161039857829003601f168201915b50505050508152602001600182018054600181600116156101000203166002900480601f0160208091040260200160405190810160405280929190818152602001828054600181600116156101000203166002900480156104575780601f1061042c57610100808354040283529160200191610457565b820191906000526020600020905b81548152906001019060200180831161043a57829003601f168201915b5050505050815250509050919050565b828054600181600116156101000203166002900490600052602060002090601f016020900481019282601f106104a857805160ff19168380011785556104d5565b828001600101855582156104d5579182015b828111156104d55782518255916020019190600101906104ba565b506104e19291506104ff565b5090565b604051806040016040528060608152602001606081525090565b61051991905b808211156104e15760008155600101610505565b90565b8035610527816107a1565b92915050565b600082601f83011261053e57600080fd5b813561055161054c82610715565b6106ee565b9150808252602083016020830185838301111561056d57600080fd5b61057883828461075b565b50505092915050565b60006020828403121561059357600080fd5b600061059f848461051c565b949350505050565b600080604083850312156105ba57600080fd5b823567ffffffffffffffff8111156105d157600080fd5b6105dd8582860161052d565b925050602083013567ffffffffffffffff8111156105fa57600080fd5b6106068582860161052d565b9150509250929050565b600061061b8261073d565b6106258185610741565b9350610635818560208601610767565b61063e81610797565b9093019392505050565b80516040808452600091908401906106608282610610565b9150506020830151848203602086015261067a8282610610565b95945050505050565b61068c81610519565b82525050565b602080825281016106a38184610610565b9392505050565b604080825281016106bb8185610610565b9050818103602083015261059f8184610610565b602080825281016106a38184610648565b602081016105278284610683565b60405181810167ffffffffffffffff8111828210171561070d57600080fd5b604052919050565b600067ffffffffffffffff82111561072c57600080fd5b506020601f91909101601f19160190565b5190565b90815260200190565b60006001600160a01b038216610527565b82818337506000910152565b60005b8381101561078257818101518382015260200161076a565b83811115610791576000848401525b50505050565b601f01601f191690565b6107aa8161074a565b81146107b557600080fd5b5056fea265627a7a723058207d9af59416347576432ffab0bf6c372be6c34bb93ea32eebaa17ba03cf7cf74f6c6578706572696d656e74616cf50037a165627a7a723058209eca98add9215835dfdc6bfc710bba37a9cac65d3b2c0981cc78554412349f950029",
  "source": "pragma solidity ^0.5.0;\n\n// IMPORT USER INTERFACE\nimport { User } from './User.sol';\n\ncontract UserManager {\n\n    // HASHMAP OF USER CONTRACTS -- [OWNER => LOCATION]\n    mapping (address => User) public users;\n\n    // CHECK IF USER EXISTS\n    function exists(address user) public view returns(bool) {\n        if (address(users[user]) != 0x0000000000000000000000000000000000000000) {\n            return true;\n        } else {\n            return false;\n        }\n    }\n\n    // FETCH USER\n    function fetch(address user) public view returns(User) {\n\n        // IF THE USER EXISTS\n        require(exists(user), 'user does not exist');\n\n        // FETCH DETAILS\n        return users[user];\n    }\n\n    // ADD ENTRY TO HASHMAP\n    function add(string memory nickname) public {\n\n        // IF THE USER DOES NOT EXIST\n        require(!exists(msg.sender), 'user already exists');\n\n        // PUSH ENTRY TO HASHMAP\n        users[msg.sender] = new User(nickname);\n    }\n}",
  "sourcePath": "C:\\Users\\35840\\Desktop\\coding\\node\\eth-contracts\\contracts\\user\\Manager.sol",
  "compiler": {
    "name": "solc",
    "version": "0.5.8+commit.23d335f2.Emscripten.clang"
  },
  "schemaVersion": "3.0.17",
  "updatedAt": "2019-11-04T18:15:50.148Z",
  "devdoc": {
    "methods": {}
  },
  "userdoc": {
    "methods": {}
  }
}