{
  "contractName": "User",
  "abi": [
    {
      "constant": true,
      "inputs": [],
      "name": "name",
      "outputs": [
        {
          "name": "",
          "type": "string"
        }
      ],
      "payable": false,
      "stateMutability": "view",
      "type": "function"
    },
    {
      "constant": true,
      "inputs": [
        {
          "name": "",
          "type": "uint256"
        }
      ],
      "name": "completed",
      "outputs": [
        {
          "name": "",
          "type": "address"
        }
      ],
      "payable": false,
      "stateMutability": "view",
      "type": "function"
    },
    {
      "constant": true,
      "inputs": [],
      "name": "reputation",
      "outputs": [
        {
          "name": "",
          "type": "uint256"
        }
      ],
      "payable": false,
      "stateMutability": "view",
      "type": "function"
    },
    {
      "constant": true,
      "inputs": [
        {
          "name": "",
          "type": "address"
        }
      ],
      "name": "results",
      "outputs": [
        {
          "name": "key",
          "type": "string"
        },
        {
          "name": "ipfs",
          "type": "string"
        }
      ],
      "payable": false,
      "stateMutability": "view",
      "type": "function"
    },
    {
      "inputs": [
        {
          "name": "_name",
          "type": "string"
        },
        {
          "name": "_task_manager",
          "type": "address"
        }
      ],
      "payable": false,
      "stateMutability": "nonpayable",
      "type": "constructor"
    },
    {
      "constant": false,
      "inputs": [
        {
          "name": "_key",
          "type": "string"
        },
        {
          "name": "_ipfs",
          "type": "string"
        }
      ],
      "name": "add_result",
      "outputs": [],
      "payable": false,
      "stateMutability": "nonpayable",
      "type": "function"
    },
    {
      "constant": true,
      "inputs": [],
      "name": "fetch_completed",
      "outputs": [
        {
          "name": "",
          "type": "address[]"
        }
      ],
      "payable": false,
      "stateMutability": "view",
      "type": "function"
    },
    {
      "constant": true,
      "inputs": [
        {
          "name": "task",
          "type": "address"
        }
      ],
      "name": "fetch_result",
      "outputs": [
        {
          "components": [
            {
              "name": "key",
              "type": "string"
            },
            {
              "name": "ipfs",
              "type": "string"
            }
          ],
          "name": "",
          "type": "tuple"
        }
      ],
      "payable": false,
      "stateMutability": "view",
      "type": "function"
    },
    {
      "constant": false,
      "inputs": [
        {
          "name": "amount",
          "type": "uint256"
        }
      ],
      "name": "reward",
      "outputs": [],
      "payable": false,
      "stateMutability": "nonpayable",
      "type": "function"
    }
  ],
  "bytecode": "0x608060405260026001553480156200001657600080fd5b5060405162000d5938038062000d5983398101806040526200003c91908101906200018d565b81516200005190600090602085019062000079565b50600480546001600160a01b0319166001600160a01b03929092169190911790555062000291565b828054600181600116156101000203166002900490600052602060002090601f016020900481019282601f10620000bc57805160ff1916838001178555620000ec565b82800160010185558215620000ec579182015b82811115620000ec578251825591602001919060010190620000cf565b50620000fa929150620000fe565b5090565b6200011b91905b80821115620000fa576000815560010162000105565b90565b80516200012b8162000277565b92915050565b600082601f8301126200014357600080fd5b81516200015a62000154826200020a565b620001e3565b915080825260208301602083018583830111156200017757600080fd5b6200018483828462000244565b50505092915050565b60008060408385031215620001a157600080fd5b82516001600160401b03811115620001b857600080fd5b620001c68582860162000131565b9250506020620001d9858286016200011e565b9150509250929050565b6040518181016001600160401b03811182821017156200020257600080fd5b604052919050565b60006001600160401b038211156200022157600080fd5b506020601f91909101601f19160190565b60006001600160a01b0382166200012b565b60005b838110156200026157818101518382015260200162000247565b8381111562000271576000848401525b50505050565b620002828162000232565b81146200028e57600080fd5b50565b610ab880620002a16000396000f3fe608060405234801561001057600080fd5b50600436106100885760003560e01c8063c0cca5ef1161005b578063c0cca5ef146100f3578063c52164c614610113578063d1799cb914610128578063ef378f621461013d57610088565b806306fdde031461008d5780632b8a74a4146100ab5780638d9ff2cf146100c0578063a9fb763c146100e0575b600080fd5b61009561015e565b6040516100a29190610940565b60405180910390f35b6100be6100b9366004610762565b6101ec565b005b6100d36100ce36600461073c565b6102bb565b6040516100a29190610986565b6100be6100ee3660046107cb565b610419565b6101066101013660046107cb565b610451565b6040516100a2919061091a565b61011b610478565b6040516100a29190610997565b61013061047e565b6040516100a29190610928565b61015061014b36600461073c565b6104e1565b6040516100a2929190610951565b6000805460408051602060026001851615610100026000190190941693909304601f810184900484028201840190925281815292918301828280156101e45780601f106101b9576101008083540402835291602001916101e4565b820191906000526020600020905b8154815290600101906020018083116101c757829003601f168201915b505050505081565b6004546001600160a01b0316331461022257604051600160e51b62461bcd02815260040161021990610976565b60405180910390fd5b604080518082018252838152602080820184905233600090815260028252929092208151805192939192610259928492019061061a565b506020828101518051610272926001850192019061061a565b5050600380546001810182556000919091527fc2575a0e9e593c00f959f8c92f12db2869c3395a3b0502d05e2516446f71f85b0180546001600160a01b03191633179055505050565b6102c3610698565b6001600160a01b038216600090815260026020818152604092839020835181546060601f60001961010060018516150201909216959095049081018490049093028101840185529384018281529092849284918401828280156103675780601f1061033c57610100808354040283529160200191610367565b820191906000526020600020905b81548152906001019060200180831161034a57829003601f168201915b50505050508152602001600182018054600181600116156101000203166002900480601f0160208091040260200160405190810160405280929190818152602001828054600181600116156101000203166002900480156104095780601f106103de57610100808354040283529160200191610409565b820191906000526020600020905b8154815290600101906020018083116103ec57829003601f168201915b5050505050815250509050919050565b6004546001600160a01b0316331461044657604051600160e51b62461bcd02815260040161021990610976565b600180549091019055565b6003818154811061045e57fe5b6000918252602090912001546001600160a01b0316905081565b60015481565b606060038054806020026020016040519081016040528092919081815260200182805480156104d657602002820191906000526020600020905b81546001600160a01b031681526001909101906020018083116104b8575b505050505090505b90565b600260208181526000928352604092839020805484516001821615610100026000190190911693909304601f81018390048302840183019094528383529283918301828280156105725780601f1061054757610100808354040283529160200191610572565b820191906000526020600020905b81548152906001019060200180831161055557829003601f168201915b505050505090806001018054600181600116156101000203166002900480601f0160208091040260200160405190810160405280929190818152602001828054600181600116156101000203166002900480156106105780601f106105e557610100808354040283529160200191610610565b820191906000526020600020905b8154815290600101906020018083116105f357829003601f168201915b5050505050905082565b828054600181600116156101000203166002900490600052602060002090601f016020900481019282601f1061065b57805160ff1916838001178555610688565b82800160010185558215610688579182015b8281111561068857825182559160200191906001019061066d565b506106949291506106b2565b5090565b604051806040016040528060608152602001606081525090565b6104de91905b8082111561069457600081556001016106b8565b80356106d781610a5e565b92915050565b600082601f8301126106ee57600080fd5b81356107016106fc826109cc565b6109a5565b9150808252602083016020830185838301111561071d57600080fd5b610728838284610a18565b50505092915050565b80356106d781610a75565b60006020828403121561074e57600080fd5b600061075a84846106cc565b949350505050565b6000806040838503121561077557600080fd5b823567ffffffffffffffff81111561078c57600080fd5b610798858286016106dd565b925050602083013567ffffffffffffffff8111156107b557600080fd5b6107c1858286016106dd565b9150509250929050565b6000602082840312156107dd57600080fd5b600061075a8484610731565b60006107f583836107fd565b505060200190565b61080681610a07565b82525050565b6000610817826109fa565b61082181856109fe565b935061082c836109f4565b8060005b8381101561085a57815161084488826107e9565b975061084f836109f4565b925050600101610830565b509495945050505050565b6000610870826109fa565b61087a81856109fe565b935061088a818560208601610a24565b61089381610a54565b9093019392505050565b60006108aa6011836109fe565b7f7065726d697373696f6e2064656e696564000000000000000000000000000000815260200192915050565b80516040808452600091908401906108ee8282610865565b915050602083015184820360208601526109088282610865565b95945050505050565b610806816104de565b602081016106d782846107fd565b60208082528101610939818461080c565b9392505050565b602080825281016109398184610865565b604080825281016109628185610865565b9050818103602083015261075a8184610865565b602080825281016106d78161089d565b6020808252810161093981846108d6565b602081016106d78284610911565b60405181810167ffffffffffffffff811182821017156109c457600080fd5b604052919050565b600067ffffffffffffffff8211156109e357600080fd5b506020601f91909101601f19160190565b60200190565b5190565b90815260200190565b60006001600160a01b0382166106d7565b82818337506000910152565b60005b83811015610a3f578181015183820152602001610a27565b83811115610a4e576000848401525b50505050565b601f01601f191690565b610a6781610a07565b8114610a7257600080fd5b50565b610a67816104de56fea265627a7a72305820526a13e505c4a8a12bbe9fba3263cffc5f1727ab5b7880d282983281e31397c16c6578706572696d656e74616cf50037",
  "source": "pragma solidity ^0.5.0;\npragma experimental ABIEncoderV2;\n\ncontract User {\n\n    // NAME & CURRENT REPUTATION\n    string public name;\n    uint public reputation = 2;\n\n    // MAP OF TASK RESULTS -- [TASK LOCATION => RESPONSE DATA]\n    mapping (address => data) public results;\n\n    // ITERABLE ARRAY OF COMPLETED TASKS\n    address[] public completed;\n\n    // TASK RESPONSE DATA STRUCT\n    struct data {\n        string key;         // PUBLIC KEY TO ASYMETRIC ENCRYPTION\n        string ipfs;        // IPFS QM HASH\n    }\n\n    // USER MANAGER REFERENCE\n    address task_manager;\n\n    // WHEN CREATED, SET NICKNAME & TASK MANAGER ADDRESS\n    constructor(\n        string memory _name,\n        address _task_manager\n    ) public {\n        name = _name;\n        task_manager = _task_manager;\n    }\n\n    // ADD TASK RESULT\n    function add_result(string memory _key, string memory _ipfs) public {\n\n        // IF SENDER IS THE TASK MANAGER\n        require(msg.sender == task_manager, 'permission denied');\n\n        // PUSH ENTRY TO HASHMAP\n        results[msg.sender] = data({\n            key: _key,\n            ipfs: _ipfs\n        });\n\n        // PSUH TO COMPLETED\n        completed.push(msg.sender);\n    }\n\n    // FETCH ALL COMPLETED TASKS\n    function fetch_completed() public view returns(address[] memory) {\n        return completed;\n    }\n\n    // FETCH TASK RESULT\n    function fetch_result(address task) public view returns (data memory) {\n        return results[task];\n    }\n\n    // REWARD REPUTATION\n    function reward(uint amount) public {\n\n        // IF SENDER IS THE TASK MANAGER\n        require(msg.sender == task_manager, 'permission denied');\n\n        // INCREASE BY AMOUNT\n        reputation += amount;\n    }\n}",
  "sourcePath": "C:\\Users\\35840\\Desktop\\coding\\node\\eth-contracts\\contracts\\user\\User.sol",
  "compiler": {
    "name": "solc",
    "version": "0.5.8+commit.23d335f2.Emscripten.clang"
  },
  "schemaVersion": "3.0.17",
  "updatedAt": "2019-11-09T18:34:21.185Z",
  "devdoc": {
    "methods": {}
  },
  "userdoc": {
    "methods": {}
  }
}