{
  "contractName": "User",
  "abi": [
    {
      "constant": true,
      "inputs": [],
      "name": "name",
      "outputs": [
        {
          "name": "",
          "type": "string"
        }
      ],
      "payable": false,
      "stateMutability": "view",
      "type": "function"
    },
    {
      "constant": true,
      "inputs": [
        {
          "name": "",
          "type": "uint256"
        }
      ],
      "name": "task_results",
      "outputs": [
        {
          "name": "",
          "type": "address"
        }
      ],
      "payable": false,
      "stateMutability": "view",
      "type": "function"
    },
    {
      "constant": true,
      "inputs": [],
      "name": "reputation",
      "outputs": [
        {
          "name": "",
          "type": "uint256"
        }
      ],
      "payable": false,
      "stateMutability": "view",
      "type": "function"
    },
    {
      "constant": true,
      "inputs": [
        {
          "name": "",
          "type": "address"
        }
      ],
      "name": "results",
      "outputs": [
        {
          "name": "key",
          "type": "string"
        },
        {
          "name": "ipfs",
          "type": "string"
        }
      ],
      "payable": false,
      "stateMutability": "view",
      "type": "function"
    },
    {
      "inputs": [
        {
          "name": "_name",
          "type": "string"
        },
        {
          "name": "_task_manager",
          "type": "address"
        }
      ],
      "payable": false,
      "stateMutability": "nonpayable",
      "type": "constructor"
    },
    {
      "constant": false,
      "inputs": [
        {
          "name": "_key",
          "type": "string"
        },
        {
          "name": "_ipfs",
          "type": "string"
        }
      ],
      "name": "add_result",
      "outputs": [],
      "payable": false,
      "stateMutability": "nonpayable",
      "type": "function"
    },
    {
      "constant": true,
      "inputs": [],
      "name": "fetch_all",
      "outputs": [
        {
          "name": "",
          "type": "address[]"
        }
      ],
      "payable": false,
      "stateMutability": "view",
      "type": "function"
    },
    {
      "constant": true,
      "inputs": [
        {
          "name": "task",
          "type": "address"
        }
      ],
      "name": "fetch_result",
      "outputs": [
        {
          "components": [
            {
              "name": "key",
              "type": "string"
            },
            {
              "name": "ipfs",
              "type": "string"
            }
          ],
          "name": "",
          "type": "tuple"
        }
      ],
      "payable": false,
      "stateMutability": "view",
      "type": "function"
    },
    {
      "constant": false,
      "inputs": [
        {
          "name": "amount",
          "type": "uint256"
        }
      ],
      "name": "reward",
      "outputs": [],
      "payable": false,
      "stateMutability": "nonpayable",
      "type": "function"
    }
  ],
  "bytecode": "0x6080604052600180553480156200001557600080fd5b5060405162000d5838038062000d5883398101806040526200003b91908101906200018c565b81516200005090600090602085019062000078565b50600480546001600160a01b0319166001600160a01b03929092169190911790555062000290565b828054600181600116156101000203166002900490600052602060002090601f016020900481019282601f10620000bb57805160ff1916838001178555620000eb565b82800160010185558215620000eb579182015b82811115620000eb578251825591602001919060010190620000ce565b50620000f9929150620000fd565b5090565b6200011a91905b80821115620000f9576000815560010162000104565b90565b80516200012a8162000276565b92915050565b600082601f8301126200014257600080fd5b815162000159620001538262000209565b620001e2565b915080825260208301602083018583830111156200017657600080fd5b6200018383828462000243565b50505092915050565b60008060408385031215620001a057600080fd5b82516001600160401b03811115620001b757600080fd5b620001c58582860162000130565b9250506020620001d8858286016200011d565b9150509250929050565b6040518181016001600160401b03811182821017156200020157600080fd5b604052919050565b60006001600160401b038211156200022057600080fd5b506020601f91909101601f19160190565b60006001600160a01b0382166200012a565b60005b838110156200026057818101518382015260200162000246565b8381111562000270576000848401525b50505050565b620002818162000231565b81146200028d57600080fd5b50565b610ab880620002a06000396000f3fe608060405234801561001057600080fd5b50600436106100885760003560e01c8063a9fb763c1161005b578063a9fb763c14610100578063b8d03f6314610113578063c52164c614610128578063ef378f621461013d57610088565b806306fdde031461008d5780632b8a74a4146100ab5780633882d5ec146100c05780638d9ff2cf146100e0575b600080fd5b61009561015e565b6040516100a29190610940565b60405180910390f35b6100be6100b9366004610762565b6101ec565b005b6100d36100ce3660046107cb565b6102bb565b6040516100a2919061091a565b6100f36100ee36600461073c565b6102e2565b6040516100a29190610986565b6100be61010e3660046107cb565b610440565b61011b610478565b6040516100a29190610928565b6101306104db565b6040516100a29190610997565b61015061014b36600461073c565b6104e1565b6040516100a2929190610951565b6000805460408051602060026001851615610100026000190190941693909304601f810184900484028201840190925281815292918301828280156101e45780601f106101b9576101008083540402835291602001916101e4565b820191906000526020600020905b8154815290600101906020018083116101c757829003601f168201915b505050505081565b6004546001600160a01b0316331461022257604051600160e51b62461bcd02815260040161021990610976565b60405180910390fd5b604080518082018252838152602080820184905233600090815260028252929092208151805192939192610259928492019061061a565b506020828101518051610272926001850192019061061a565b5050600380546001810182556000919091527fc2575a0e9e593c00f959f8c92f12db2869c3395a3b0502d05e2516446f71f85b0180546001600160a01b03191633179055505050565b600381815481106102c857fe5b6000918252602090912001546001600160a01b0316905081565b6102ea610698565b6001600160a01b038216600090815260026020818152604092839020835181546060601f600019610100600185161502019092169590950490810184900490930281018401855293840182815290928492849184018282801561038e5780601f106103635761010080835404028352916020019161038e565b820191906000526020600020905b81548152906001019060200180831161037157829003601f168201915b50505050508152602001600182018054600181600116156101000203166002900480601f0160208091040260200160405190810160405280929190818152602001828054600181600116156101000203166002900480156104305780601f1061040557610100808354040283529160200191610430565b820191906000526020600020905b81548152906001019060200180831161041357829003601f168201915b5050505050815250509050919050565b6004546001600160a01b0316331461046d57604051600160e51b62461bcd02815260040161021990610976565b600180549091019055565b606060038054806020026020016040519081016040528092919081815260200182805480156104d057602002820191906000526020600020905b81546001600160a01b031681526001909101906020018083116104b2575b505050505090505b90565b60015481565b600260208181526000928352604092839020805484516001821615610100026000190190911693909304601f81018390048302840183019094528383529283918301828280156105725780601f1061054757610100808354040283529160200191610572565b820191906000526020600020905b81548152906001019060200180831161055557829003601f168201915b505050505090806001018054600181600116156101000203166002900480601f0160208091040260200160405190810160405280929190818152602001828054600181600116156101000203166002900480156106105780601f106105e557610100808354040283529160200191610610565b820191906000526020600020905b8154815290600101906020018083116105f357829003601f168201915b5050505050905082565b828054600181600116156101000203166002900490600052602060002090601f016020900481019282601f1061065b57805160ff1916838001178555610688565b82800160010185558215610688579182015b8281111561068857825182559160200191906001019061066d565b506106949291506106b2565b5090565b604051806040016040528060608152602001606081525090565b6104d891905b8082111561069457600081556001016106b8565b80356106d781610a5e565b92915050565b600082601f8301126106ee57600080fd5b81356107016106fc826109cc565b6109a5565b9150808252602083016020830185838301111561071d57600080fd5b610728838284610a18565b50505092915050565b80356106d781610a75565b60006020828403121561074e57600080fd5b600061075a84846106cc565b949350505050565b6000806040838503121561077557600080fd5b823567ffffffffffffffff81111561078c57600080fd5b610798858286016106dd565b925050602083013567ffffffffffffffff8111156107b557600080fd5b6107c1858286016106dd565b9150509250929050565b6000602082840312156107dd57600080fd5b600061075a8484610731565b60006107f583836107fd565b505060200190565b61080681610a07565b82525050565b6000610817826109fa565b61082181856109fe565b935061082c836109f4565b8060005b8381101561085a57815161084488826107e9565b975061084f836109f4565b925050600101610830565b509495945050505050565b6000610870826109fa565b61087a81856109fe565b935061088a818560208601610a24565b61089381610a54565b9093019392505050565b60006108aa6011836109fe565b7f7065726d697373696f6e2064656e696564000000000000000000000000000000815260200192915050565b80516040808452600091908401906108ee8282610865565b915050602083015184820360208601526109088282610865565b95945050505050565b610806816104d8565b602081016106d782846107fd565b60208082528101610939818461080c565b9392505050565b602080825281016109398184610865565b604080825281016109628185610865565b9050818103602083015261075a8184610865565b602080825281016106d78161089d565b6020808252810161093981846108d6565b602081016106d78284610911565b60405181810167ffffffffffffffff811182821017156109c457600080fd5b604052919050565b600067ffffffffffffffff8211156109e357600080fd5b506020601f91909101601f19160190565b60200190565b5190565b90815260200190565b60006001600160a01b0382166106d7565b82818337506000910152565b60005b83811015610a3f578181015183820152602001610a27565b83811115610a4e576000848401525b50505050565b601f01601f191690565b610a6781610a07565b8114610a7257600080fd5b50565b610a67816104d856fea265627a7a7230582010fa20f779c6d689a5810fc0124c44452224fba4b81f7e20a3fbe2ce1342c10e6c6578706572696d656e74616cf50037",
  "source": "pragma solidity ^0.5.0;\npragma experimental ABIEncoderV2;\n\ncontract User {\n\n    // NAME & CURRENT REPUTATION\n    string public name;\n    uint public reputation = 1;\n\n    // MAP OF COMPLETED TASKS -- [TASK ADDRESS => TASK REPORT]\n    mapping (address => task_report) public results;\n\n    // ITERABLE ARRAY OF ALL TASK RESULTS\n    address[] public task_results;\n\n    // TASK REPORT OBJECT\n    struct task_report {\n        string key;         // DEVICE GENERATED PUBLIC KEY FOR DECRYPTION\n        string ipfs;        // IPFS QM HASH\n    }\n\n    // TASK MANAGER REFERENCE\n    address task_manager;\n\n    // WHEN CREATED, SET NICKNAME & TASK MANAGER ADDRESS\n    constructor(\n        string memory _name,\n        address _task_manager\n    ) public {\n        name = _name;\n        task_manager = _task_manager;\n    }\n\n    // ADD TASK RESULT\n    function add_result(string memory _key, string memory _ipfs) public {\n\n        // IF SENDER IS THE TASK MANAGER\n        require(msg.sender == task_manager, 'permission denied');\n\n        // PUSH ENTRY TO HASHMAP\n        results[msg.sender] = task_report({\n            key: _key,\n            ipfs: _ipfs\n        });\n\n        // PSUH TO COMPLETED\n        task_results.push(msg.sender);\n    }\n\n    // FETCH ALL TASK RESULTS\n    function fetch_all() public view returns(address[] memory) {\n        return task_results;\n    }\n\n    // FETCH SPECIFIC TASK RESULT\n    function fetch_result(address task) public view returns (task_report memory) {\n        return results[task];\n    }\n\n    // REWARD REPUTATION\n    function reward(uint amount) public {\n\n        // IF SENDER IS THE TASK MANAGER\n        require(msg.sender == task_manager, 'permission denied');\n\n        // INCREASE BY AMOUNT\n        reputation += amount;\n    }\n}",
  "sourcePath": "C:\\Users\\35840\\Desktop\\coding\\node\\eth-contracts\\contracts\\user\\User.sol",
  "compiler": {
    "name": "solc",
    "version": "0.5.8+commit.23d335f2.Emscripten.clang"
  },
  "schemaVersion": "3.0.17",
  "updatedAt": "2019-12-09T18:43:22.735Z",
  "devdoc": {
    "methods": {}
  },
  "userdoc": {
    "methods": {}
  }
}