{
  "contractName": "User",
  "abi": [
    {
      "constant": true,
      "inputs": [],
      "name": "name",
      "outputs": [
        {
          "name": "",
          "type": "string"
        }
      ],
      "payable": false,
      "stateMutability": "view",
      "type": "function"
    },
    {
      "constant": true,
      "inputs": [
        {
          "name": "",
          "type": "uint256"
        }
      ],
      "name": "completed",
      "outputs": [
        {
          "name": "",
          "type": "address"
        }
      ],
      "payable": false,
      "stateMutability": "view",
      "type": "function"
    },
    {
      "constant": true,
      "inputs": [],
      "name": "reputation",
      "outputs": [
        {
          "name": "",
          "type": "uint256"
        }
      ],
      "payable": false,
      "stateMutability": "view",
      "type": "function"
    },
    {
      "constant": true,
      "inputs": [
        {
          "name": "",
          "type": "address"
        }
      ],
      "name": "results",
      "outputs": [
        {
          "name": "key",
          "type": "string"
        },
        {
          "name": "ipfs",
          "type": "string"
        }
      ],
      "payable": false,
      "stateMutability": "view",
      "type": "function"
    },
    {
      "inputs": [
        {
          "name": "_name",
          "type": "string"
        },
        {
          "name": "_task_manager",
          "type": "address"
        }
      ],
      "payable": false,
      "stateMutability": "nonpayable",
      "type": "constructor"
    },
    {
      "constant": false,
      "inputs": [
        {
          "name": "_key",
          "type": "string"
        },
        {
          "name": "_ipfs",
          "type": "string"
        }
      ],
      "name": "add_result",
      "outputs": [],
      "payable": false,
      "stateMutability": "nonpayable",
      "type": "function"
    },
    {
      "constant": true,
      "inputs": [],
      "name": "fetch_completed",
      "outputs": [
        {
          "name": "",
          "type": "address[]"
        }
      ],
      "payable": false,
      "stateMutability": "view",
      "type": "function"
    },
    {
      "constant": true,
      "inputs": [
        {
          "name": "task",
          "type": "address"
        }
      ],
      "name": "fetch_result",
      "outputs": [
        {
          "components": [
            {
              "name": "key",
              "type": "string"
            },
            {
              "name": "ipfs",
              "type": "string"
            }
          ],
          "name": "",
          "type": "tuple"
        }
      ],
      "payable": false,
      "stateMutability": "view",
      "type": "function"
    },
    {
      "constant": false,
      "inputs": [
        {
          "name": "amount",
          "type": "uint256"
        }
      ],
      "name": "reward",
      "outputs": [],
      "payable": false,
      "stateMutability": "nonpayable",
      "type": "function"
    }
  ],
  "bytecode": "0x608060405260026001553480156200001657600080fd5b5060405162000df938038062000df983398101806040526200003c91908101906200018f565b81516200005190600090602085019062000079565b5060048054600160a060020a031916600160a060020a03929092169190911790555062000286565b828054600181600116156101000203166002900490600052602060002090601f016020900481019282601f10620000bc57805160ff1916838001178555620000ec565b82800160010185558215620000ec579182015b82811115620000ec578251825591602001919060010190620000cf565b50620000fa929150620000fe565b5090565b6200011b91905b80821115620000fa576000815560010162000105565b90565b60006200012c825162000240565b9392505050565b6000601f820183136200014557600080fd5b81516200015c62000156826200020c565b620001e5565b915080825260208301602083018583830111156200017957600080fd5b6200018683828462000253565b50505092915050565b60008060408385031215620001a357600080fd5b82516001604060020a03811115620001ba57600080fd5b620001c88582860162000133565b9250506020620001db858286016200011e565b9150509250929050565b6040518181016001604060020a03811182821017156200020457600080fd5b604052919050565b60006001604060020a038211156200022357600080fd5b506020601f91909101601f19160190565b600160a060020a031690565b60006200024d8262000234565b92915050565b60005b838110156200027057818101518382015260200162000256565b8381111562000280576000848401525b50505050565b610b6380620002966000396000f3fe60806040526004361061008d5763ffffffff7c010000000000000000000000000000000000000000000000000000000060003504166306fdde0381146100925780632b8a74a4146100bd5780638d9ff2cf146100df578063a9fb763c1461010c578063c0cca5ef1461012c578063c52164c614610159578063d1799cb91461017b578063ef378f621461019d575b600080fd5b34801561009e57600080fd5b506100a76101cb565b6040516100b49190610a07565b60405180910390f35b3480156100c957600080fd5b506100dd6100d836600461084c565b610259565b005b3480156100eb57600080fd5b506100ff6100fa366004610826565b610359565b6040516100b49190610a4d565b34801561011857600080fd5b506100dd6101273660046108b5565b6104c4565b34801561013857600080fd5b5061014c6101473660046108b5565b610520565b6040516100b491906109e2565b34801561016557600080fd5b5061016e610555565b6040516100b49190610a5e565b34801561018757600080fd5b5061019061055b565b6040516100b491906109f6565b3480156101a957600080fd5b506101bd6101b8366004610826565b6105cb565b6040516100b4929190610a18565b6000805460408051602060026001851615610100026000190190941693909304601f810184900484028201840190925281815292918301828280156102515780601f1061022657610100808354040283529160200191610251565b820191906000526020600020905b81548152906001019060200180831161023457829003601f168201915b505050505081565b60045473ffffffffffffffffffffffffffffffffffffffff1633146102b3576040517f08c379a00000000000000000000000000000000000000000000000000000000081526004016102aa90610a3d565b60405180910390fd5b6040805180820182528381526020808201849052336000908152600282529290922081518051929391926102ea9284920190610704565b5060208281015180516103039260018501920190610704565b5050600380546001810182556000919091527fc2575a0e9e593c00f959f8c92f12db2869c3395a3b0502d05e2516446f71f85b01805473ffffffffffffffffffffffffffffffffffffffff191633179055505050565b610361610782565b73ffffffffffffffffffffffffffffffffffffffff8216600090815260026020818152604092839020835181546060601f60001961010060018516150201909216959095049081018490049093028101840185529384018281529092849284918401828280156104125780601f106103e757610100808354040283529160200191610412565b820191906000526020600020905b8154815290600101906020018083116103f557829003601f168201915b50505050508152602001600182018054600181600116156101000203166002900480601f0160208091040260200160405190810160405280929190818152602001828054600181600116156101000203166002900480156104b45780601f10610489576101008083540402835291602001916104b4565b820191906000526020600020905b81548152906001019060200180831161049757829003601f168201915b5050505050815250509050919050565b60045473ffffffffffffffffffffffffffffffffffffffff163314610515576040517f08c379a00000000000000000000000000000000000000000000000000000000081526004016102aa90610a3d565b600180549091019055565b600380548290811061052e57fe5b60009182526020909120015473ffffffffffffffffffffffffffffffffffffffff16905081565b60015481565b606060038054806020026020016040519081016040528092919081815260200182805480156105c057602002820191906000526020600020905b815473ffffffffffffffffffffffffffffffffffffffff168152600190910190602001808311610595575b505050505090505b90565b600260208181526000928352604092839020805484516001821615610100026000190190911693909304601f810183900483028401830190945283835292839183018282801561065c5780601f106106315761010080835404028352916020019161065c565b820191906000526020600020905b81548152906001019060200180831161063f57829003601f168201915b505050505090806001018054600181600116156101000203166002900480601f0160208091040260200160405190810160405280929190818152602001828054600181600116156101000203166002900480156106fa5780601f106106cf576101008083540402835291602001916106fa565b820191906000526020600020905b8154815290600101906020018083116106dd57829003601f168201915b5050505050905082565b828054600181600116156101000203166002900490600052602060002090601f016020900481019282601f1061074557805160ff1916838001178555610772565b82800160010185558215610772579182015b82811115610772578251825591602001919060010190610757565b5061077e929150610799565b5090565b604080518082019091526060808252602082015290565b6105c891905b8082111561077e576000815560010161079f565b60006107bf8235610ac5565b9392505050565b6000601f820183136107d757600080fd5b81356107ea6107e582610a93565b610a6c565b9150808252602083016020830185838301111561080657600080fd5b610811838284610ae3565b50505092915050565b60006107bf82356105c8565b60006020828403121561083857600080fd5b600061084484846107b3565b949350505050565b6000806040838503121561085f57600080fd5b823567ffffffffffffffff81111561087657600080fd5b610882858286016107c6565b925050602083013567ffffffffffffffff81111561089f57600080fd5b6108ab858286016107c6565b9150509250929050565b6000602082840312156108c757600080fd5b6000610844848461081a565b6108dc81610ac5565b82525050565b60006108ed82610ac1565b8084526020840193506108ff83610abb565b60005b8281101561092f576109158683516108d3565b61091e82610abb565b602096909601959150600101610902565b5093949350505050565b600061094482610ac1565b808452610958816020860160208601610aef565b61096181610b1f565b9093016020019392505050565b601181527f7065726d697373696f6e2064656e696564000000000000000000000000000000602082015260400190565b80516040808452600091908401906109b68282610939565b915050602083015184820360208601526109d08282610939565b95945050505050565b6108dc816105c8565b602081016109f082846108d3565b92915050565b602080825281016107bf81846108e2565b602080825281016107bf8184610939565b60408082528101610a298185610939565b905081810360208301526108448184610939565b602080825281016109f08161096e565b602080825281016107bf818461099e565b602081016109f082846109d9565b60405181810167ffffffffffffffff81118282101715610a8b57600080fd5b604052919050565b600067ffffffffffffffff821115610aaa57600080fd5b506020601f91909101601f19160190565b60200190565b5190565b600073ffffffffffffffffffffffffffffffffffffffff82166109f0565b82818337506000910152565b60005b83811015610b0a578181015183820152602001610af2565b83811115610b19576000848401525b50505050565b601f01601f19169056fea265627a7a723058206bccaee783fa67d16e5229a2b28fcf4dd9bc5cc958b505e7341e5f4ce989fcb96c6578706572696d656e74616cf50037",
  "source": "pragma solidity ^0.5.0;\npragma experimental ABIEncoderV2;\n\ncontract User {\n\n    // NAME & CURRENT REPUTATION\n    string public name;\n    uint public reputation = 2;\n\n    // MAP OF TASK RESULTS -- [TASK LOCATION => RESPONSE DATA]\n    mapping (address => data) public results;\n\n    // ITERABLE ARRAY OF COMPLETED TASKS\n    address[] public completed;\n\n    // TASK RESPONSE DATA STRUCT\n    struct data {\n        string key;         // PUBLIC KEY TO ASYMETRIC ENCRYPTION\n        string ipfs;        // IPFS QM HASH\n    }\n\n    // USER MANAGER REFERENCE\n    address task_manager;\n\n    // WHEN CREATED, SET NICKNAME & TASK MANAGER ADDRESS\n    constructor(\n        string memory _name,\n        address _task_manager\n    ) public {\n        name = _name;\n        task_manager = _task_manager;\n    }\n\n    // ADD TASK RESULT\n    function add_result(string memory _key, string memory _ipfs) public {\n\n        // IF SENDER IS THE TASK MANAGER\n        require(msg.sender == task_manager, 'permission denied');\n\n        // PUSH ENTRY TO HASHMAP\n        results[msg.sender] = data({\n            key: _key,\n            ipfs: _ipfs\n        });\n\n        // PSUH TO COMPLETED\n        completed.push(msg.sender);\n    }\n\n    // FETCH ALL COMPLETED TASKS\n    function fetch_completed() public view returns(address[] memory) {\n        return completed;\n    }\n\n    // FETCH TASK RESULT\n    function fetch_result(address task) public view returns (data memory) {\n        return results[task];\n    }\n\n    // REWARD REPUTATION\n    function reward(uint amount) public {\n\n        // IF SENDER IS THE TASK MANAGER\n        require(msg.sender == task_manager, 'permission denied');\n\n        // INCREASE BY AMOUNT\n        reputation += amount;\n    }\n}",
  "sourcePath": "/home/bdalab/wickstjo/eth-contracts/contracts/user/User.sol",
  "compiler": {
    "name": "solc",
    "version": "0.5.0+commit.1d4f565a.Emscripten.clang"
  },
  "schemaVersion": "3.0.9",
  "updatedAt": "2019-11-21T09:36:25.659Z",
  "devdoc": {
    "methods": {}
  },
  "userdoc": {
    "methods": {}
  }
}