{
  "contractName": "UserManager",
  "abi": [
    {
      "constant": true,
      "inputs": [
        {
          "name": "",
          "type": "address"
        }
      ],
      "name": "users",
      "outputs": [
        {
          "name": "",
          "type": "address"
        }
      ],
      "payable": false,
      "stateMutability": "view",
      "type": "function"
    },
    {
      "constant": true,
      "inputs": [
        {
          "name": "user",
          "type": "address"
        }
      ],
      "name": "exists",
      "outputs": [
        {
          "name": "",
          "type": "bool"
        }
      ],
      "payable": false,
      "stateMutability": "view",
      "type": "function"
    },
    {
      "constant": true,
      "inputs": [
        {
          "name": "user",
          "type": "address"
        }
      ],
      "name": "fetch",
      "outputs": [
        {
          "name": "",
          "type": "address"
        }
      ],
      "payable": false,
      "stateMutability": "view",
      "type": "function"
    },
    {
      "constant": false,
      "inputs": [
        {
          "name": "nickname",
          "type": "string"
        }
      ],
      "name": "add",
      "outputs": [],
      "payable": false,
      "stateMutability": "nonpayable",
      "type": "function"
    },
    {
      "constant": false,
      "inputs": [
        {
          "name": "_task_manager",
          "type": "address"
        }
      ],
      "name": "init",
      "outputs": [],
      "payable": false,
      "stateMutability": "nonpayable",
      "type": "function"
    }
  ],
  "bytecode": "0x60806040526001805460ff1916905534801561001a57600080fd5b50610fc48061002a6000396000f3fe608060405234801561001057600080fd5b50600436106100575760003560e01c806319ab453c1461005c578063a87430ba14610084578063b0c8f9dc146100c6578063f109a0be1461016c578063f6a3d24e14610192575b600080fd5b6100826004803603602081101561007257600080fd5b50356001600160a01b03166101cc565b005b6100aa6004803603602081101561009a57600080fd5b50356001600160a01b031661023f565b604080516001600160a01b039092168252519081900360200190f35b610082600480360360208110156100dc57600080fd5b8101906020810181356401000000008111156100f757600080fd5b82018360208201111561010957600080fd5b8035906020019184600183028401116401000000008311171561012b57600080fd5b91908080601f01602080910402602001604051908101604052809392919081815260200183838082843760009201919091525092955061025a945050505050565b6100aa6004803603602081101561018257600080fd5b50356001600160a01b03166103a1565b6101b8600480360360208110156101a857600080fd5b50356001600160a01b0316610422565b604080519115158252519081900360200190f35b60015460ff161561021157604051600160e51b62461bcd028152600401808060200182810382526025815260200180610f746025913960400191505060405180910390fd5b6001805460ff196001600160a01b0390931661010002610100600160a81b0319909116179190911681179055565b6000602081905290815260409020546001600160a01b031681565b61026333610422565b156102b85760408051600160e51b62461bcd02815260206004820152601360248201527f7573657220616c72656164792065786973747300000000000000000000000000604482015290519081900360640190fd5b600154604051829161010090046001600160a01b0316906102d890610454565b6001600160a01b03821660208083019190915260408083528451908301528351829160608301919086019080838360005b83811015610321578181015183820152602001610309565b50505050905090810190601f16801561034e5780820380516001836020036101000a031916815260200191505b509350505050604051809103906000f080158015610370573d6000803e3d6000fd5b5033600090815260208190526040902080546001600160a01b0319166001600160a01b039290921691909117905550565b60006103ac82610422565b6104005760408051600160e51b62461bcd02815260206004820152601360248201527f7573657220646f6573206e6f7420657869737400000000000000000000000000604482015290519081900360640190fd5b506001600160a01b03808216600090815260208190526040902054165b919050565b6001600160a01b038082166000908152602081905260408120549091161561044c5750600161041d565b50600061041d565b610b12806104628339019056fe608060405260006001553480156200001657600080fd5b5060405162000b1238038062000b1283398101806040526200003c91908101906200018d565b81516200005190600090602085019062000079565b50600380546001600160a01b0319166001600160a01b03929092169190911790555062000291565b828054600181600116156101000203166002900490600052602060002090601f016020900481019282601f10620000bc57805160ff1916838001178555620000ec565b82800160010185558215620000ec579182015b82811115620000ec578251825591602001919060010190620000cf565b50620000fa929150620000fe565b5090565b6200011b91905b80821115620000fa576000815560010162000105565b90565b80516200012b8162000277565b92915050565b600082601f8301126200014357600080fd5b81516200015a62000154826200020a565b620001e3565b915080825260208301602083018583830111156200017757600080fd5b6200018483828462000244565b50505092915050565b60008060408385031215620001a157600080fd5b82516001600160401b03811115620001b857600080fd5b620001c68582860162000131565b9250506020620001d9858286016200011e565b9150509250929050565b6040518181016001600160401b03811182821017156200020257600080fd5b604052919050565b60006001600160401b038211156200022157600080fd5b506020601f91909101601f19160190565b60006001600160a01b0382166200012b565b60005b838110156200026157818101518382015260200162000247565b8381111562000271576000848401525b50505050565b620002828162000232565b81146200028e57600080fd5b50565b61087180620002a16000396000f3fe608060405234801561001057600080fd5b50600436106100575760003560e01c80631eedba801461005c5780636bc493681461007a57806377c237fd1461008f578063c52164c6146100b0578063f772282c146100c5575b600080fd5b6100646100e5565b6040516100719190610701565b60405180910390f35b61008d6100883660046105dd565b610173565b005b6100a261009d3660046105b7565b610200565b604051610071929190610719565b6100b8610339565b604051610071919061075f565b6100d86100d33660046105b7565b61033f565b604051610071919061074e565b6000805460408051602060026001851615610100026000190190941693909304601f8101849004840282018401909252818152929183018282801561016b5780601f106101405761010080835404028352916020019161016b565b820191906000526020600020905b81548152906001019060200180831161014e57829003601f168201915b505050505081565b6003546001600160a01b031633146101a957604051600160e51b62461bcd0281526004016101a09061073e565b60405180910390fd5b6040805180820182528381526020808201849052336000908152600282529290922081518051929391926101e0928492019061049d565b5060208281015180516101f9926001850192019061049d565b5050505050565b600260208181526000928352604092839020805484516001821615610100026000190190911693909304601f81018390048302840183019094528383529283918301828280156102915780601f1061026657610100808354040283529160200191610291565b820191906000526020600020905b81548152906001019060200180831161027457829003601f168201915b505050505090806001018054600181600116156101000203166002900480601f01602080910402602001604051908101604052809291908181526020018280546001816001161561010002031660029004801561032f5780601f106103045761010080835404028352916020019161032f565b820191906000526020600020905b81548152906001019060200180831161031257829003601f168201915b5050505050905082565b60015481565b61034761051b565b6001600160a01b038216600090815260026020818152604092839020835181546060601f60001961010060018516150201909216959095049081018490049093028101840185529384018281529092849284918401828280156103eb5780601f106103c0576101008083540402835291602001916103eb565b820191906000526020600020905b8154815290600101906020018083116103ce57829003601f168201915b50505050508152602001600182018054600181600116156101000203166002900480601f01602080910402602001604051908101604052809291908181526020018280546001816001161561010002031660029004801561048d5780601f106104625761010080835404028352916020019161048d565b820191906000526020600020905b81548152906001019060200180831161047057829003601f168201915b5050505050815250509050919050565b828054600181600116156101000203166002900490600052602060002090601f016020900481019282601f106104de57805160ff191683800117855561050b565b8280016001018555821561050b579182015b8281111561050b5782518255916020019190600101906104f0565b50610517929150610535565b5090565b604051806040016040528060608152602001606081525090565b61054f91905b80821115610517576000815560010161053b565b90565b803561055d81610820565b92915050565b600082601f83011261057457600080fd5b813561058761058282610794565b61076d565b915080825260208301602083018583830111156105a357600080fd5b6105ae8382846107da565b50505092915050565b6000602082840312156105c957600080fd5b60006105d58484610552565b949350505050565b600080604083850312156105f057600080fd5b823567ffffffffffffffff81111561060757600080fd5b61061385828601610563565b925050602083013567ffffffffffffffff81111561063057600080fd5b61063c85828601610563565b9150509250929050565b6000610651826107bc565b61065b81856107c0565b935061066b8185602086016107e6565b61067481610816565b9093019392505050565b600061068b6011836107c0565b7f7065726d697373696f6e2064656e696564000000000000000000000000000000815260200192915050565b80516040808452600091908401906106cf8282610646565b915050602083015184820360208601526106e98282610646565b95945050505050565b6106fb8161054f565b82525050565b602080825281016107128184610646565b9392505050565b6040808252810161072a8185610646565b905081810360208301526105d58184610646565b6020808252810161055d8161067e565b6020808252810161071281846106b7565b6020810161055d82846106f2565b60405181810167ffffffffffffffff8111828210171561078c57600080fd5b604052919050565b600067ffffffffffffffff8211156107ab57600080fd5b506020601f91909101601f19160190565b5190565b90815260200190565b60006001600160a01b03821661055d565b82818337506000910152565b60005b838110156108015781810151838201526020016107e9565b83811115610810576000848401525b50505050565b601f01601f191690565b610829816107c9565b811461083457600080fd5b5056fea265627a7a7230582077068069699e440be1b545c9209018d0be42fc68644aefdecdde2894007ed0f16c6578706572696d656e74616cf50037636f6e74726163742068617320616c7265616479206265656e20696e697469616c697a6564a165627a7a723058203c7ab8aec1dfa0e236764e2e02eef5f769b5d1ebbe12f8a75e459f5881b2ecc00029",
  "source": "pragma solidity ^0.5.0;\n\n// IMPORT USER INTERFACE\nimport { User } from './User.sol';\n\ncontract UserManager {\n\n    // HASHMAP OF USER CONTRACTS -- [OWNER => LOCATION]\n    mapping (address => User) public users;\n\n    // INIT STATUS & TASK MANAGER ADDRESS\n    bool initialized = false;\n    address task_manager;\n\n    // CHECK IF USER EXISTS\n    function exists(address user) public view returns(bool) {\n        if (address(users[user]) != 0x0000000000000000000000000000000000000000) {\n            return true;\n        } else {\n            return false;\n        }\n    }\n\n    // FETCH USER\n    function fetch(address user) public view returns(User) {\n\n        // IF THE USER EXISTS\n        require(exists(user), 'user does not exist');\n\n        // FETCH DETAILS\n        return users[user];\n    }\n\n    // ADD ENTRY TO HASHMAP\n    function add(string memory nickname) public {\n\n        // IF THE USER DOES NOT EXIST\n        require(!exists(msg.sender), 'user already exists');\n\n        // PUSH ENTRY TO HASHMAP\n        users[msg.sender] = new User(nickname, task_manager);\n    }\n\n    // INITIALIZE CONTRACT\n    function init(address _task_manager) public {\n\n        // IF THE CONTRACT HAS NOT BEEN INITIALIZED\n        require(!initialized, 'contract has already been initialized');\n\n        // SET REFERENCES\n        task_manager = _task_manager;\n\n        // BLOCK FURTHER MODIFICATION\n        initialized = true;\n    }\n}",
  "sourcePath": "C:\\Users\\35840\\Desktop\\coding\\node\\eth-contracts\\contracts\\user\\Manager.sol",
  "compiler": {
    "name": "solc",
    "version": "0.5.8+commit.23d335f2.Emscripten.clang"
  },
  "schemaVersion": "3.0.17",
  "updatedAt": "2019-11-05T19:30:16.240Z",
  "devdoc": {
    "methods": {}
  },
  "userdoc": {
    "methods": {}
  }
}