{
  "contractName": "User",
  "abi": [
    {
      "inputs": [
        {
          "internalType": "address",
          "name": "_task_manager",
          "type": "address"
        }
      ],
      "stateMutability": "nonpayable",
      "type": "constructor"
    },
    {
      "inputs": [],
      "name": "reputation",
      "outputs": [
        {
          "internalType": "uint256",
          "name": "",
          "type": "uint256"
        }
      ],
      "stateMutability": "view",
      "type": "function"
    },
    {
      "inputs": [
        {
          "internalType": "uint256",
          "name": "",
          "type": "uint256"
        }
      ],
      "name": "results",
      "outputs": [
        {
          "internalType": "address",
          "name": "",
          "type": "address"
        }
      ],
      "stateMutability": "view",
      "type": "function"
    },
    {
      "inputs": [
        {
          "internalType": "address",
          "name": "task",
          "type": "address"
        }
      ],
      "name": "add_result",
      "outputs": [],
      "stateMutability": "nonpayable",
      "type": "function"
    },
    {
      "inputs": [
        {
          "internalType": "uint256",
          "name": "amount",
          "type": "uint256"
        }
      ],
      "name": "award",
      "outputs": [],
      "stateMutability": "nonpayable",
      "type": "function"
    }
  ],
  "bytecode": "0x6080604052600160005534801561001557600080fd5b506040516102b63803806102b68339818101604052602081101561003857600080fd5b5051600280546001600160a01b0319166001600160a01b0390921691909117905561024e806100686000396000f3fe608060405234801561001057600080fd5b506004361061004c5760003560e01c80630184e952146100515780631b0c27da14610070578063c52164c6146100a9578063cbee4be1146100c3575b600080fd5b61006e6004803603602081101561006757600080fd5b50356100e9565b005b61008d6004803603602081101561008657600080fd5b5035610147565b604080516001600160a01b039092168252519081900360200190f35b6100b161016e565b60408051918252519081900360200190f35b61006e600480360360208110156100d957600080fd5b50356001600160a01b0316610174565b6002546001600160a01b0316331461013c576040805162461bcd60e51b81526020600482015260116024820152701c195c9b5a5cdcda5bdb8819195b9a5959607a1b604482015290519081900360640190fd5b600080549091019055565b6001818154811061015457fe5b6000918252602090912001546001600160a01b0316905081565b60005481565b6002546001600160a01b031633146101c7576040805162461bcd60e51b81526020600482015260116024820152701c195c9b5a5cdcda5bdb8819195b9a5959607a1b604482015290519081900360640190fd5b6001805480820182556000919091527fb10e2d527612073b26eecdfd717e6a320cf44b4afac2b0732d9fcbe2b7fa0cf60180546001600160a01b0319166001600160a01b039290921691909117905556fea264697066735822122014272c1cfd06611d935728ab5400fd4b5e5bae62cdd75ced9639edfbfd40c1e864736f6c63430006080033",
  "immutableReferences": {},
  "source": "pragma solidity ^0.6.8;\n// SPDX-License-Identifier: MIT\n\ncontract User {\n\n    // CURRENT REPUTATION\n    uint public reputation = 1;\n\n    // ITERABLE LIST OF TASK RESULTS\n    address[] public results;\n\n    // TASK MANAGER REFERENCE\n    address task_manager;\n\n    // WHEN CREATED, SET TASK MANAGER REFERENCE\n    constructor(address _task_manager) public {\n        task_manager = _task_manager;\n    }\n\n    // ADD TASK RESULT\n    function add_result(address task) public {\n\n        // IF SENDER IS THE TASK MANAGER\n        require(msg.sender == task_manager, 'permission denied');\n\n        // PUSH TO RESULTS\n        results.push(task);\n    }\n\n    // INCREASE REPUTATION\n    function award(uint amount) public {\n\n        // IF SENDER IS THE TASK MANAGER\n        require(msg.sender == task_manager, 'permission denied');\n\n        // INCREASE BY AMOUNT\n        reputation += amount;\n    }\n}",
  "sourcePath": "C:\\Users\\35840\\Desktop\\coding\\node\\eth-contracts\\contracts\\user\\User.sol",
  "compiler": {
    "name": "solc",
    "version": "0.6.8+commit.0bbfe453.Emscripten.clang"
  },
  "schemaVersion": "3.2.0",
  "updatedAt": "2020-06-23T22:05:20.561Z",
  "devdoc": {
    "methods": {}
  },
  "userdoc": {
    "methods": {}
  }
}