{
  "contractName": "UserManager",
  "abi": [
    {
      "inputs": [
        {
          "internalType": "uint256",
          "name": "",
          "type": "uint256"
        }
      ],
      "name": "everyone",
      "outputs": [
        {
          "internalType": "address",
          "name": "",
          "type": "address"
        }
      ],
      "stateMutability": "view",
      "type": "function",
      "constant": true
    },
    {
      "inputs": [
        {
          "internalType": "address",
          "name": "",
          "type": "address"
        }
      ],
      "name": "users",
      "outputs": [
        {
          "internalType": "contract User",
          "name": "",
          "type": "address"
        }
      ],
      "stateMutability": "view",
      "type": "function",
      "constant": true
    },
    {
      "inputs": [
        {
          "internalType": "address",
          "name": "user",
          "type": "address"
        }
      ],
      "name": "fetch",
      "outputs": [
        {
          "internalType": "contract User",
          "name": "",
          "type": "address"
        }
      ],
      "stateMutability": "view",
      "type": "function",
      "constant": true
    },
    {
      "inputs": [],
      "name": "add",
      "outputs": [],
      "stateMutability": "nonpayable",
      "type": "function"
    },
    {
      "inputs": [
        {
          "internalType": "address",
          "name": "_task_manager",
          "type": "address"
        }
      ],
      "name": "init",
      "outputs": [],
      "stateMutability": "nonpayable",
      "type": "function"
    },
    {
      "inputs": [
        {
          "internalType": "address",
          "name": "user",
          "type": "address"
        }
      ],
      "name": "exists",
      "outputs": [
        {
          "internalType": "bool",
          "name": "",
          "type": "bool"
        }
      ],
      "stateMutability": "view",
      "type": "function",
      "constant": true
    }
  ],
  "bytecode": "0x60806040526002805460ff1916905534801561001a57600080fd5b506106ea8061002a6000396000f3fe608060405234801561001057600080fd5b50600436106100625760003560e01c806319ab453c146100675780634f2be91f1461008f57806378e46b1014610097578063a87430ba146100d0578063f109a0be146100f6578063f6a3d24e1461011c575b600080fd5b61008d6004803603602081101561007d57600080fd5b50356001600160a01b0316610156565b005b61008d6101c7565b6100b4600480360360208110156100ad57600080fd5b5035610316565b604080516001600160a01b039092168252519081900360200190f35b6100b4600480360360208110156100e657600080fd5b50356001600160a01b031661033d565b6100b46004803603602081101561010c57600080fd5b50356001600160a01b0316610358565b6101426004803603602081101561013257600080fd5b50356001600160a01b0316610379565b604080519115158252519081900360200190f35b60025460ff16156101985760405162461bcd60e51b815260040180806020018281038252602581526020018061066f6025913960400191505060405180910390fd5b6002805460ff196001600160a01b0390931661010002610100600160a81b031990911617919091166001179055565b60025460ff166102085760405162461bcd60e51b81526004018080602001828103825260218152602001806106946021913960400191505060405180910390fd5b61021133610379565b15610263576040805162461bcd60e51b815260206004820152601d60248201527f6164647265737320697320616c72656164792072656769737465726564000000604482015290519081900360640190fd5b600260019054906101000a90046001600160a01b0316604051610285906103ab565b6001600160a01b03909116815260405190819003602001906000f0801580156102b2573d6000803e3d6000fd5b5033600081815260208190526040812080546001600160a01b03949094166001600160a01b031994851617905560018054808201825591527fb10e2d527612073b26eecdfd717e6a320cf44b4afac2b0732d9fcbe2b7fa0cf6018054909216179055565b6001818154811061032357fe5b6000918252602090912001546001600160a01b0316905081565b6000602081905290815260409020546001600160a01b031681565b6001600160a01b03808216600090815260208190526040902054165b919050565b6001600160a01b03808216600090815260208190526040812054909116156103a357506001610374565b506000610374565b6102b6806103b98339019056fe6080604052600160005534801561001557600080fd5b506040516102b63803806102b68339818101604052602081101561003857600080fd5b5051600280546001600160a01b0319166001600160a01b0390921691909117905561024e806100686000396000f3fe608060405234801561001057600080fd5b506004361061004c5760003560e01c80630184e952146100515780631b0c27da14610070578063c52164c6146100a9578063cbee4be1146100c3575b600080fd5b61006e6004803603602081101561006757600080fd5b50356100e9565b005b61008d6004803603602081101561008657600080fd5b5035610147565b604080516001600160a01b039092168252519081900360200190f35b6100b161016e565b60408051918252519081900360200190f35b61006e600480360360208110156100d957600080fd5b50356001600160a01b0316610174565b6002546001600160a01b0316331461013c576040805162461bcd60e51b81526020600482015260116024820152701c195c9b5a5cdcda5bdb8819195b9a5959607a1b604482015290519081900360640190fd5b600080549091019055565b6001818154811061015457fe5b6000918252602090912001546001600160a01b0316905081565b60005481565b6002546001600160a01b031633146101c7576040805162461bcd60e51b81526020600482015260116024820152701c195c9b5a5cdcda5bdb8819195b9a5959607a1b604482015290519081900360640190fd5b6001805480820182556000919091527fb10e2d527612073b26eecdfd717e6a320cf44b4afac2b0732d9fcbe2b7fa0cf60180546001600160a01b0319166001600160a01b039290921691909117905556fea264697066735822122014272c1cfd06611d935728ab5400fd4b5e5bae62cdd75ced9639edfbfd40c1e864736f6c63430006080033636f6e74726163742068617320616c7265616479206265656e20696e697469616c697a6564636f6e747261637420686173206e6f74206265656e20696e697469616c697a6564a2646970667358221220847282033819960c857b2e3c17689f1923ebfa760898239c34b685a1d79d95cb64736f6c63430006080033",
  "immutableReferences": {},
  "source": "pragma solidity ^0.6.8;\r\n// SPDX-License-Identifier: MIT\r\n\r\n// IMPORT INTERFACE\r\nimport { User } from './User.sol';\r\n\r\ncontract UserManager {\r\n\r\n    // MAP OF ALL USERS, [ADDRESS => INTERFACE]\r\n    mapping (address => User) public users;\r\n\r\n    // ITERABLE LIST OF USERS\r\n    address[] public everyone;\r\n\r\n    // INIT STATUS & TASK MANAGER REFERENCE\r\n    bool initialized = false;\r\n    address task_manager;\r\n\r\n    // FETCH USER CONTRACT\r\n    function fetch(address user) public view returns(User) {\r\n        return users[user];\r\n    }\r\n\r\n    // ADD NEW USER\r\n    function add() public {\r\n\r\n        // IF THE CONTRACT HAS BEEN INITIALIZED\r\n        // IF THE USER DOES NOT EXIST\r\n        require(initialized, 'contract has not been initialized');\r\n        require(!exists(msg.sender), 'address is already registered');\r\n\r\n        // PUSH ENTRY TO BOTH CONTAINERS\r\n        users[msg.sender] = new User(task_manager);\r\n        everyone.push(msg.sender);\r\n    }\r\n\r\n    // SET STATIC VARIABLES\r\n    function init(address _task_manager) public {\r\n\r\n        // IF THE CONTRACT HAS NOT BEEN INITIALIZED\r\n        require(!initialized, 'contract has already been initialized');\r\n\r\n        // SET REFERENCE & BLOCK FURTHER MODIFICATION\r\n        task_manager = _task_manager;\r\n        initialized = true;\r\n    }\r\n\r\n    // CHECK IF USER EXISTS\r\n    function exists(address user) public view returns(bool) {\r\n        if (address(users[user]) != 0x0000000000000000000000000000000000000000) {\r\n            return true;\r\n        } else {\r\n            return false;\r\n        }\r\n    }\r\n}",
  "sourcePath": "C:\\Users\\35840\\Desktop\\coding\\node\\eth-contracts\\contracts\\user\\Manager.sol",
  "compiler": {
    "name": "solc",
    "version": "0.6.8+commit.0bbfe453.Emscripten.clang"
  },
  "schemaVersion": "3.2.0",
  "updatedAt": "2020-06-18T20:07:00.802Z",
  "networkType": "ethereum",
  "devdoc": {
    "methods": {}
  },
  "userdoc": {
    "methods": {}
  }
}