{
  "contractName": "UserManager",
  "abi": [
    {
      "constant": true,
      "inputs": [
        {
          "name": "",
          "type": "address"
        }
      ],
      "name": "users",
      "outputs": [
        {
          "name": "",
          "type": "address"
        }
      ],
      "payable": false,
      "stateMutability": "view",
      "type": "function"
    },
    {
      "constant": true,
      "inputs": [
        {
          "name": "user",
          "type": "address"
        }
      ],
      "name": "exists",
      "outputs": [
        {
          "name": "",
          "type": "bool"
        }
      ],
      "payable": false,
      "stateMutability": "view",
      "type": "function"
    },
    {
      "constant": true,
      "inputs": [],
      "name": "fetch_all",
      "outputs": [
        {
          "name": "",
          "type": "address[]"
        }
      ],
      "payable": false,
      "stateMutability": "view",
      "type": "function"
    },
    {
      "constant": true,
      "inputs": [
        {
          "name": "user",
          "type": "address"
        }
      ],
      "name": "fetch_user",
      "outputs": [
        {
          "name": "",
          "type": "address"
        }
      ],
      "payable": false,
      "stateMutability": "view",
      "type": "function"
    },
    {
      "constant": false,
      "inputs": [
        {
          "name": "name",
          "type": "string"
        }
      ],
      "name": "add",
      "outputs": [],
      "payable": false,
      "stateMutability": "nonpayable",
      "type": "function"
    },
    {
      "constant": false,
      "inputs": [
        {
          "name": "_task_manager",
          "type": "address"
        }
      ],
      "name": "init",
      "outputs": [],
      "payable": false,
      "stateMutability": "nonpayable",
      "type": "function"
    }
  ],
  "bytecode": "0x60806040526002805460ff1916905534801561001a57600080fd5b5061136a8061002a6000396000f3fe608060405234801561001057600080fd5b50600436106100625760003560e01c806319ab453c146100675780631f0df17f1461008f578063a87430ba146100d1578063b0c8f9dc146100f7578063b8d03f631461019d578063f6a3d24e146101f5575b600080fd5b61008d6004803603602081101561007d57600080fd5b50356001600160a01b031661022f565b005b6100b5600480360360208110156100a557600080fd5b50356001600160a01b03166102a3565b604080516001600160a01b039092168252519081900360200190f35b6100b5600480360360208110156100e757600080fd5b50356001600160a01b0316610324565b61008d6004803603602081101561010d57600080fd5b81019060208101813564010000000081111561012857600080fd5b82018360208201111561013a57600080fd5b8035906020019184600183028401116401000000008311171561015c57600080fd5b91908080601f01602080910402602001604051908101604052809392919081815260200183838082843760009201919091525092955061033f945050505050565b6101a56104fe565b60408051602080825283518183015283519192839290830191858101910280838360005b838110156101e15781810151838201526020016101c9565b505050509050019250505060405180910390f35b61021b6004803603602081101561020b57600080fd5b50356001600160a01b0316610560565b604080519115158252519081900360200190f35b60025460ff161561027457604051600160e51b62461bcd0281526004018080602001828103825260258152602001806112f96025913960400191505060405180910390fd5b6002805460ff196001600160a01b0390931661010002610100600160a81b031990911617919091166001179055565b60006102ae82610560565b6103025760408051600160e51b62461bcd02815260206004820152601360248201527f7573657220646f6573206e6f7420657869737400000000000000000000000000604482015290519081900360640190fd5b506001600160a01b03808216600090815260208190526040902054165b919050565b6000602081905290815260409020546001600160a01b031681565b60025460ff1661038357604051600160e51b62461bcd02815260040180806020018281038252602181526020018061131e6021913960400191505060405180910390fd5b61038c33610560565b156103e15760408051600160e51b62461bcd02815260206004820152601360248201527f7573657220616c72656164792065786973747300000000000000000000000000604482015290519081900360640190fd5b600254604051829161010090046001600160a01b03169061040190610592565b6001600160a01b03821660208083019190915260408083528451908301528351829160608301919086019080838360005b8381101561044a578181015183820152602001610432565b50505050905090810190601f1680156104775780820380516001836020036101000a031916815260200191505b509350505050604051809103906000f080158015610499573d6000803e3d6000fd5b5033600081815260208190526040812080546001600160a01b03949094166001600160a01b031994851617905560018054808201825591527fb10e2d527612073b26eecdfd717e6a320cf44b4afac2b0732d9fcbe2b7fa0cf601805490921617905550565b6060600180548060200260200160405190810160405280929190818152602001828054801561055657602002820191906000526020600020905b81546001600160a01b03168152600190910190602001808311610538575b5050505050905090565b6001600160a01b038082166000908152602081905260408120549091161561058a5750600161031f565b50600061031f565b610d59806105a08339019056fe608060405260026001553480156200001657600080fd5b5060405162000d5938038062000d5983398101806040526200003c91908101906200018d565b81516200005190600090602085019062000079565b50600480546001600160a01b0319166001600160a01b03929092169190911790555062000291565b828054600181600116156101000203166002900490600052602060002090601f016020900481019282601f10620000bc57805160ff1916838001178555620000ec565b82800160010185558215620000ec579182015b82811115620000ec578251825591602001919060010190620000cf565b50620000fa929150620000fe565b5090565b6200011b91905b80821115620000fa576000815560010162000105565b90565b80516200012b8162000277565b92915050565b600082601f8301126200014357600080fd5b81516200015a62000154826200020a565b620001e3565b915080825260208301602083018583830111156200017757600080fd5b6200018483828462000244565b50505092915050565b60008060408385031215620001a157600080fd5b82516001600160401b03811115620001b857600080fd5b620001c68582860162000131565b9250506020620001d9858286016200011e565b9150509250929050565b6040518181016001600160401b03811182821017156200020257600080fd5b604052919050565b60006001600160401b038211156200022157600080fd5b506020601f91909101601f19160190565b60006001600160a01b0382166200012b565b60005b838110156200026157818101518382015260200162000247565b8381111562000271576000848401525b50505050565b620002828162000232565b81146200028e57600080fd5b50565b610ab880620002a16000396000f3fe608060405234801561001057600080fd5b50600436106100885760003560e01c8063c0cca5ef1161005b578063c0cca5ef146100f3578063c52164c614610113578063d1799cb914610128578063ef378f621461013d57610088565b806306fdde031461008d5780632b8a74a4146100ab5780638d9ff2cf146100c0578063a9fb763c146100e0575b600080fd5b61009561015e565b6040516100a29190610940565b60405180910390f35b6100be6100b9366004610762565b6101ec565b005b6100d36100ce36600461073c565b6102bb565b6040516100a29190610986565b6100be6100ee3660046107cb565b610419565b6101066101013660046107cb565b610451565b6040516100a2919061091a565b61011b610478565b6040516100a29190610997565b61013061047e565b6040516100a29190610928565b61015061014b36600461073c565b6104e1565b6040516100a2929190610951565b6000805460408051602060026001851615610100026000190190941693909304601f810184900484028201840190925281815292918301828280156101e45780601f106101b9576101008083540402835291602001916101e4565b820191906000526020600020905b8154815290600101906020018083116101c757829003601f168201915b505050505081565b6004546001600160a01b0316331461022257604051600160e51b62461bcd02815260040161021990610976565b60405180910390fd5b604080518082018252838152602080820184905233600090815260028252929092208151805192939192610259928492019061061a565b506020828101518051610272926001850192019061061a565b5050600380546001810182556000919091527fc2575a0e9e593c00f959f8c92f12db2869c3395a3b0502d05e2516446f71f85b0180546001600160a01b03191633179055505050565b6102c3610698565b6001600160a01b038216600090815260026020818152604092839020835181546060601f60001961010060018516150201909216959095049081018490049093028101840185529384018281529092849284918401828280156103675780601f1061033c57610100808354040283529160200191610367565b820191906000526020600020905b81548152906001019060200180831161034a57829003601f168201915b50505050508152602001600182018054600181600116156101000203166002900480601f0160208091040260200160405190810160405280929190818152602001828054600181600116156101000203166002900480156104095780601f106103de57610100808354040283529160200191610409565b820191906000526020600020905b8154815290600101906020018083116103ec57829003601f168201915b5050505050815250509050919050565b6004546001600160a01b0316331461044657604051600160e51b62461bcd02815260040161021990610976565b600180549091019055565b6003818154811061045e57fe5b6000918252602090912001546001600160a01b0316905081565b60015481565b606060038054806020026020016040519081016040528092919081815260200182805480156104d657602002820191906000526020600020905b81546001600160a01b031681526001909101906020018083116104b8575b505050505090505b90565b600260208181526000928352604092839020805484516001821615610100026000190190911693909304601f81018390048302840183019094528383529283918301828280156105725780601f1061054757610100808354040283529160200191610572565b820191906000526020600020905b81548152906001019060200180831161055557829003601f168201915b505050505090806001018054600181600116156101000203166002900480601f0160208091040260200160405190810160405280929190818152602001828054600181600116156101000203166002900480156106105780601f106105e557610100808354040283529160200191610610565b820191906000526020600020905b8154815290600101906020018083116105f357829003601f168201915b5050505050905082565b828054600181600116156101000203166002900490600052602060002090601f016020900481019282601f1061065b57805160ff1916838001178555610688565b82800160010185558215610688579182015b8281111561068857825182559160200191906001019061066d565b506106949291506106b2565b5090565b604051806040016040528060608152602001606081525090565b6104de91905b8082111561069457600081556001016106b8565b80356106d781610a5e565b92915050565b600082601f8301126106ee57600080fd5b81356107016106fc826109cc565b6109a5565b9150808252602083016020830185838301111561071d57600080fd5b610728838284610a18565b50505092915050565b80356106d781610a75565b60006020828403121561074e57600080fd5b600061075a84846106cc565b949350505050565b6000806040838503121561077557600080fd5b823567ffffffffffffffff81111561078c57600080fd5b610798858286016106dd565b925050602083013567ffffffffffffffff8111156107b557600080fd5b6107c1858286016106dd565b9150509250929050565b6000602082840312156107dd57600080fd5b600061075a8484610731565b60006107f583836107fd565b505060200190565b61080681610a07565b82525050565b6000610817826109fa565b61082181856109fe565b935061082c836109f4565b8060005b8381101561085a57815161084488826107e9565b975061084f836109f4565b925050600101610830565b509495945050505050565b6000610870826109fa565b61087a81856109fe565b935061088a818560208601610a24565b61089381610a54565b9093019392505050565b60006108aa6011836109fe565b7f7065726d697373696f6e2064656e696564000000000000000000000000000000815260200192915050565b80516040808452600091908401906108ee8282610865565b915050602083015184820360208601526109088282610865565b95945050505050565b610806816104de565b602081016106d782846107fd565b60208082528101610939818461080c565b9392505050565b602080825281016109398184610865565b604080825281016109628185610865565b9050818103602083015261075a8184610865565b602080825281016106d78161089d565b6020808252810161093981846108d6565b602081016106d78284610911565b60405181810167ffffffffffffffff811182821017156109c457600080fd5b604052919050565b600067ffffffffffffffff8211156109e357600080fd5b506020601f91909101601f19160190565b60200190565b5190565b90815260200190565b60006001600160a01b0382166106d7565b82818337506000910152565b60005b83811015610a3f578181015183820152602001610a27565b83811115610a4e576000848401525b50505050565b601f01601f191690565b610a6781610a07565b8114610a7257600080fd5b50565b610a67816104de56fea265627a7a72305820526a13e505c4a8a12bbe9fba3263cffc5f1727ab5b7880d282983281e31397c16c6578706572696d656e74616cf50037636f6e74726163742068617320616c7265616479206265656e20696e697469616c697a6564636f6e747261637420686173206e6f74206265656e20696e697469616c697a6564a165627a7a72305820a8ea04e27a24de1f1d14f2747cbb5775b91c0514360c1bc9b75f8344b3f641f20029",
  "source": "pragma solidity ^0.5.0;\n\n// IMPORT INTERFACE\nimport { User } from './User.sol';\n\ncontract UserManager {\n\n    // MAP OF USER INSTANCES -- [OWNER => LOCATION]\n    mapping (address => User) public users;\n\n    // ITERABLE LIST OF USERS\n    address[] everyone;\n\n    // INIT STATUS & TASK MANAGER ADDRESS\n    bool initialized = false;\n    address task_manager;\n\n    // CHECK IF USER EXISTS\n    function exists(address user) public view returns(bool) {\n        if (address(users[user]) != 0x0000000000000000000000000000000000000000) {\n            return true;\n        } else {\n            return false;\n        }\n    }\n\n    // FETCH ALL USERS\n    function fetch_all() public view returns(address[] memory) {\n        return everyone;\n    }\n\n    // FETCH USER\n    function fetch_user(address user) public view returns(User) {\n\n        // IF THE USER EXISTS\n        require(exists(user), 'user does not exist');\n        return users[user];\n    }\n\n    // ADD ENTRY TO HASHMAP\n    function add(string memory name) public {\n\n        // IF THE CONTRACT HAS BEEN INITIALIZED\n        // IF THE USER DOES NOT EXIST\n        require(initialized, 'contract has not been initialized');\n        require(!exists(msg.sender), 'user already exists');\n\n        // PUSH ENTRY TO MAP & ARRAY\n        users[msg.sender] = new User(name, task_manager);\n        everyone.push(msg.sender);\n    }\n\n    // INITIALIZE CONTRACT\n    function init(address _task_manager) public {\n\n        // IF THE CONTRACT HAS NOT BEEN INITIALIZED\n        require(!initialized, 'contract has already been initialized');\n\n        // SET REFERENCES\n        task_manager = _task_manager;\n\n        // BLOCK FURTHER MODIFICATION\n        initialized = true;\n    }\n}",
  "sourcePath": "C:\\Users\\35840\\Desktop\\coding\\node\\eth-contracts\\contracts\\user\\Manager.sol",
  "compiler": {
    "name": "solc",
    "version": "0.5.8+commit.23d335f2.Emscripten.clang"
  },
  "schemaVersion": "3.0.17",
  "updatedAt": "2019-11-09T18:34:22.752Z",
  "networkType": "ethereum",
  "devdoc": {
    "methods": {}
  },
  "userdoc": {
    "methods": {}
  }
}