{
  "contractName": "UserManager",
  "abi": [
    {
      "constant": true,
      "inputs": [
        {
          "name": "",
          "type": "address"
        }
      ],
      "name": "users",
      "outputs": [
        {
          "name": "",
          "type": "address"
        }
      ],
      "payable": false,
      "stateMutability": "view",
      "type": "function"
    },
    {
      "constant": true,
      "inputs": [
        {
          "name": "user",
          "type": "address"
        }
      ],
      "name": "exists",
      "outputs": [
        {
          "name": "",
          "type": "bool"
        }
      ],
      "payable": false,
      "stateMutability": "view",
      "type": "function"
    },
    {
      "constant": true,
      "inputs": [],
      "name": "fetch_everyone",
      "outputs": [
        {
          "name": "",
          "type": "address[]"
        }
      ],
      "payable": false,
      "stateMutability": "view",
      "type": "function"
    },
    {
      "constant": true,
      "inputs": [
        {
          "name": "user",
          "type": "address"
        }
      ],
      "name": "fetch_user",
      "outputs": [
        {
          "name": "",
          "type": "address"
        }
      ],
      "payable": false,
      "stateMutability": "view",
      "type": "function"
    },
    {
      "constant": false,
      "inputs": [
        {
          "name": "name",
          "type": "string"
        }
      ],
      "name": "add_user",
      "outputs": [],
      "payable": false,
      "stateMutability": "nonpayable",
      "type": "function"
    },
    {
      "constant": false,
      "inputs": [
        {
          "name": "_task_manager",
          "type": "address"
        }
      ],
      "name": "init",
      "outputs": [],
      "payable": false,
      "stateMutability": "nonpayable",
      "type": "function"
    }
  ],
  "bytecode": "0x60806040526002805460ff1916905534801561001a57600080fd5b506113698061002a6000396000f3fe608060405234801561001057600080fd5b50600436106100625760003560e01c806319ab453c146100675780631f0df17f1461008f57806387a358aa146100d1578063a0fc1cf714610177578063a87430ba146101cf578063f6a3d24e146101f5575b600080fd5b61008d6004803603602081101561007d57600080fd5b50356001600160a01b031661022f565b005b6100b5600480360360208110156100a557600080fd5b50356001600160a01b03166102a3565b604080516001600160a01b039092168252519081900360200190f35b61008d600480360360208110156100e757600080fd5b81019060208101813564010000000081111561010257600080fd5b82018360208201111561011457600080fd5b8035906020019184600183028401116401000000008311171561013657600080fd5b91908080601f016020809104026020016040519081016040528093929190818152602001838380828437600092019190915250929550610324945050505050565b61017f6104e3565b60408051602080825283518183015283519192839290830191858101910280838360005b838110156101bb5781810151838201526020016101a3565b505050509050019250505060405180910390f35b6100b5600480360360208110156101e557600080fd5b50356001600160a01b0316610545565b61021b6004803603602081101561020b57600080fd5b50356001600160a01b0316610560565b604080519115158252519081900360200190f35b60025460ff161561027457604051600160e51b62461bcd0281526004018080602001828103825260258152602001806112f86025913960400191505060405180910390fd5b6002805460ff196001600160a01b0390931661010002610100600160a81b031990911617919091166001179055565b60006102ae82610560565b6103025760408051600160e51b62461bcd02815260206004820152601360248201527f7573657220646f6573206e6f7420657869737400000000000000000000000000604482015290519081900360640190fd5b506001600160a01b03808216600090815260208190526040902054165b919050565b60025460ff1661036857604051600160e51b62461bcd02815260040180806020018281038252602181526020018061131d6021913960400191505060405180910390fd5b61037133610560565b156103c65760408051600160e51b62461bcd02815260206004820152601360248201527f7573657220616c72656164792065786973747300000000000000000000000000604482015290519081900360640190fd5b600254604051829161010090046001600160a01b0316906103e690610592565b6001600160a01b03821660208083019190915260408083528451908301528351829160608301919086019080838360005b8381101561042f578181015183820152602001610417565b50505050905090810190601f16801561045c5780820380516001836020036101000a031916815260200191505b509350505050604051809103906000f08015801561047e573d6000803e3d6000fd5b5033600081815260208190526040812080546001600160a01b03949094166001600160a01b031994851617905560018054808201825591527fb10e2d527612073b26eecdfd717e6a320cf44b4afac2b0732d9fcbe2b7fa0cf601805490921617905550565b6060600180548060200260200160405190810160405280929190818152602001828054801561053b57602002820191906000526020600020905b81546001600160a01b0316815260019091019060200180831161051d575b5050505050905090565b6000602081905290815260409020546001600160a01b031681565b6001600160a01b038082166000908152602081905260408120549091161561058a5750600161031f565b50600061031f565b610d58806105a08339019056fe6080604052600180553480156200001557600080fd5b5060405162000d5838038062000d5883398101806040526200003b91908101906200018c565b81516200005090600090602085019062000078565b50600480546001600160a01b0319166001600160a01b03929092169190911790555062000290565b828054600181600116156101000203166002900490600052602060002090601f016020900481019282601f10620000bb57805160ff1916838001178555620000eb565b82800160010185558215620000eb579182015b82811115620000eb578251825591602001919060010190620000ce565b50620000f9929150620000fd565b5090565b6200011a91905b80821115620000f9576000815560010162000104565b90565b80516200012a8162000276565b92915050565b600082601f8301126200014257600080fd5b815162000159620001538262000209565b620001e2565b915080825260208301602083018583830111156200017657600080fd5b6200018383828462000243565b50505092915050565b60008060408385031215620001a057600080fd5b82516001600160401b03811115620001b757600080fd5b620001c58582860162000130565b9250506020620001d8858286016200011d565b9150509250929050565b6040518181016001600160401b03811182821017156200020157600080fd5b604052919050565b60006001600160401b038211156200022057600080fd5b506020601f91909101601f19160190565b60006001600160a01b0382166200012a565b60005b838110156200026057818101518382015260200162000246565b8381111562000270576000848401525b50505050565b620002818162000231565b81146200028d57600080fd5b50565b610ab880620002a06000396000f3fe608060405234801561001057600080fd5b50600436106100885760003560e01c8063a9fb763c1161005b578063a9fb763c14610100578063b8d03f6314610113578063c52164c614610128578063ef378f621461013d57610088565b806306fdde031461008d5780632b8a74a4146100ab5780633882d5ec146100c05780638d9ff2cf146100e0575b600080fd5b61009561015e565b6040516100a29190610940565b60405180910390f35b6100be6100b9366004610762565b6101ec565b005b6100d36100ce3660046107cb565b6102bb565b6040516100a2919061091a565b6100f36100ee36600461073c565b6102e2565b6040516100a29190610986565b6100be61010e3660046107cb565b610440565b61011b610478565b6040516100a29190610928565b6101306104db565b6040516100a29190610997565b61015061014b36600461073c565b6104e1565b6040516100a2929190610951565b6000805460408051602060026001851615610100026000190190941693909304601f810184900484028201840190925281815292918301828280156101e45780601f106101b9576101008083540402835291602001916101e4565b820191906000526020600020905b8154815290600101906020018083116101c757829003601f168201915b505050505081565b6004546001600160a01b0316331461022257604051600160e51b62461bcd02815260040161021990610976565b60405180910390fd5b604080518082018252838152602080820184905233600090815260028252929092208151805192939192610259928492019061061a565b506020828101518051610272926001850192019061061a565b5050600380546001810182556000919091527fc2575a0e9e593c00f959f8c92f12db2869c3395a3b0502d05e2516446f71f85b0180546001600160a01b03191633179055505050565b600381815481106102c857fe5b6000918252602090912001546001600160a01b0316905081565b6102ea610698565b6001600160a01b038216600090815260026020818152604092839020835181546060601f600019610100600185161502019092169590950490810184900490930281018401855293840182815290928492849184018282801561038e5780601f106103635761010080835404028352916020019161038e565b820191906000526020600020905b81548152906001019060200180831161037157829003601f168201915b50505050508152602001600182018054600181600116156101000203166002900480601f0160208091040260200160405190810160405280929190818152602001828054600181600116156101000203166002900480156104305780601f1061040557610100808354040283529160200191610430565b820191906000526020600020905b81548152906001019060200180831161041357829003601f168201915b5050505050815250509050919050565b6004546001600160a01b0316331461046d57604051600160e51b62461bcd02815260040161021990610976565b600180549091019055565b606060038054806020026020016040519081016040528092919081815260200182805480156104d057602002820191906000526020600020905b81546001600160a01b031681526001909101906020018083116104b2575b505050505090505b90565b60015481565b600260208181526000928352604092839020805484516001821615610100026000190190911693909304601f81018390048302840183019094528383529283918301828280156105725780601f1061054757610100808354040283529160200191610572565b820191906000526020600020905b81548152906001019060200180831161055557829003601f168201915b505050505090806001018054600181600116156101000203166002900480601f0160208091040260200160405190810160405280929190818152602001828054600181600116156101000203166002900480156106105780601f106105e557610100808354040283529160200191610610565b820191906000526020600020905b8154815290600101906020018083116105f357829003601f168201915b5050505050905082565b828054600181600116156101000203166002900490600052602060002090601f016020900481019282601f1061065b57805160ff1916838001178555610688565b82800160010185558215610688579182015b8281111561068857825182559160200191906001019061066d565b506106949291506106b2565b5090565b604051806040016040528060608152602001606081525090565b6104d891905b8082111561069457600081556001016106b8565b80356106d781610a5e565b92915050565b600082601f8301126106ee57600080fd5b81356107016106fc826109cc565b6109a5565b9150808252602083016020830185838301111561071d57600080fd5b610728838284610a18565b50505092915050565b80356106d781610a75565b60006020828403121561074e57600080fd5b600061075a84846106cc565b949350505050565b6000806040838503121561077557600080fd5b823567ffffffffffffffff81111561078c57600080fd5b610798858286016106dd565b925050602083013567ffffffffffffffff8111156107b557600080fd5b6107c1858286016106dd565b9150509250929050565b6000602082840312156107dd57600080fd5b600061075a8484610731565b60006107f583836107fd565b505060200190565b61080681610a07565b82525050565b6000610817826109fa565b61082181856109fe565b935061082c836109f4565b8060005b8381101561085a57815161084488826107e9565b975061084f836109f4565b925050600101610830565b509495945050505050565b6000610870826109fa565b61087a81856109fe565b935061088a818560208601610a24565b61089381610a54565b9093019392505050565b60006108aa6011836109fe565b7f7065726d697373696f6e2064656e696564000000000000000000000000000000815260200192915050565b80516040808452600091908401906108ee8282610865565b915050602083015184820360208601526109088282610865565b95945050505050565b610806816104d8565b602081016106d782846107fd565b60208082528101610939818461080c565b9392505050565b602080825281016109398184610865565b604080825281016109628185610865565b9050818103602083015261075a8184610865565b602080825281016106d78161089d565b6020808252810161093981846108d6565b602081016106d78284610911565b60405181810167ffffffffffffffff811182821017156109c457600080fd5b604052919050565b600067ffffffffffffffff8211156109e357600080fd5b506020601f91909101601f19160190565b60200190565b5190565b90815260200190565b60006001600160a01b0382166106d7565b82818337506000910152565b60005b83811015610a3f578181015183820152602001610a27565b83811115610a4e576000848401525b50505050565b601f01601f191690565b610a6781610a07565b8114610a7257600080fd5b50565b610a67816104d856fea265627a7a7230582010fa20f779c6d689a5810fc0124c44452224fba4b81f7e20a3fbe2ce1342c10e6c6578706572696d656e74616cf50037636f6e74726163742068617320616c7265616479206265656e20696e697469616c697a6564636f6e747261637420686173206e6f74206265656e20696e697469616c697a6564a165627a7a723058202fbc98b6f822a0583c2c4def2ab4b0cca04ae96a8351e1d18f714d3edf69e74e0029",
  "source": "pragma solidity ^0.5.0;\n\n// IMPORT INTERFACE\nimport { User } from './User.sol';\n\ncontract UserManager {\n\n    // MAP OF REGISTERED USERS -- [ETH USER => USER CONTRACT]\n    mapping (address => User) public users;\n\n    // ITERABLE LIST OF ALL USERS\n    address[] everyone;\n\n    // INIT STATUS & TASK MANAGER ADDRESS\n    bool initialized = false;\n    address task_manager;\n\n    // CHECK IF USER EXISTS\n    function exists(address user) public view returns(bool) {\n        if (address(users[user]) != 0x0000000000000000000000000000000000000000) {\n            return true;\n        } else {\n            return false;\n        }\n    }\n\n    // FETCH ALL USERS\n    function fetch_everyone() public view returns(address[] memory) {\n        return everyone;\n    }\n\n    // FETCH USER\n    function fetch_user(address user) public view returns(User) {\n\n        // IF THE USER EXISTS\n        require(exists(user), 'user does not exist');\n        return users[user];\n    }\n\n    // ADD ENTRY TO HASHMAP\n    function add_user(string memory name) public {\n\n        // IF THE CONTRACT HAS BEEN INITIALIZED\n        // IF THE USER DOES NOT EXIST\n        require(initialized, 'contract has not been initialized');\n        require(!exists(msg.sender), 'user already exists');\n\n        // PUSH ENTRY TO MAP & ARRAY\n        users[msg.sender] = new User(name, task_manager);\n        everyone.push(msg.sender);\n    }\n\n    // INITIALIZE CONTRACT\n    function init(address _task_manager) public {\n\n        // IF THE CONTRACT HAS NOT BEEN INITIALIZED\n        require(!initialized, 'contract has already been initialized');\n\n        // SET REFERENCES\n        task_manager = _task_manager;\n\n        // BLOCK FURTHER MODIFICATION\n        initialized = true;\n    }\n}",
  "sourcePath": "C:\\Users\\35840\\Desktop\\coding\\node\\eth-contracts\\contracts\\user\\Manager.sol",
  "compiler": {
    "name": "solc",
    "version": "0.5.8+commit.23d335f2.Emscripten.clang"
  },
  "schemaVersion": "3.0.17",
  "updatedAt": "2019-11-29T04:24:43.397Z",
  "networkType": "ethereum",
  "devdoc": {
    "methods": {}
  },
  "userdoc": {
    "methods": {}
  }
}