{
  "contractName": "User",
  "abi": [
    {
      "constant": true,
      "inputs": [
        {
          "name": "",
          "type": "uint256"
        }
      ],
      "name": "task_results",
      "outputs": [
        {
          "name": "",
          "type": "address"
        }
      ],
      "payable": false,
      "stateMutability": "view",
      "type": "function"
    },
    {
      "constant": true,
      "inputs": [],
      "name": "reputation",
      "outputs": [
        {
          "name": "",
          "type": "uint256"
        }
      ],
      "payable": false,
      "stateMutability": "view",
      "type": "function"
    },
    {
      "constant": true,
      "inputs": [
        {
          "name": "",
          "type": "address"
        }
      ],
      "name": "results",
      "outputs": [
        {
          "name": "key",
          "type": "string"
        },
        {
          "name": "data",
          "type": "string"
        }
      ],
      "payable": false,
      "stateMutability": "view",
      "type": "function"
    },
    {
      "inputs": [
        {
          "name": "_task_manager",
          "type": "address"
        }
      ],
      "payable": false,
      "stateMutability": "nonpayable",
      "type": "constructor"
    },
    {
      "constant": true,
      "inputs": [],
      "name": "fetch_all",
      "outputs": [
        {
          "name": "",
          "type": "address[]"
        }
      ],
      "payable": false,
      "stateMutability": "view",
      "type": "function"
    },
    {
      "constant": true,
      "inputs": [
        {
          "name": "task",
          "type": "address"
        }
      ],
      "name": "fetch_result",
      "outputs": [
        {
          "components": [
            {
              "name": "key",
              "type": "string"
            },
            {
              "name": "data",
              "type": "string"
            }
          ],
          "name": "",
          "type": "tuple"
        }
      ],
      "payable": false,
      "stateMutability": "view",
      "type": "function"
    },
    {
      "constant": false,
      "inputs": [
        {
          "name": "_key",
          "type": "string"
        },
        {
          "name": "_data",
          "type": "string"
        }
      ],
      "name": "add_result",
      "outputs": [],
      "payable": false,
      "stateMutability": "nonpayable",
      "type": "function"
    },
    {
      "constant": false,
      "inputs": [
        {
          "name": "amount",
          "type": "uint256"
        }
      ],
      "name": "reward",
      "outputs": [],
      "payable": false,
      "stateMutability": "nonpayable",
      "type": "function"
    }
  ],
  "bytecode": "0x6080604052600160005534801561001557600080fd5b50604051602080610ac58339810180604052610034919081019061006a565b600380546001600160a01b0319166001600160a01b03929092169190911790556100b8565b8051610064816100a1565b92915050565b60006020828403121561007c57600080fd5b60006100888484610059565b949350505050565b60006001600160a01b038216610064565b6100aa81610090565b81146100b557600080fd5b50565b6109fe806100c76000396000f3fe608060405234801561001057600080fd5b506004361061007d5760003560e01c8063a9fb763c1161005b578063a9fb763c146100e0578063b8d03f63146100f3578063c52164c614610108578063ef378f621461011d5761007d565b80632b8a74a4146100825780633882d5ec146100975780638d9ff2cf146100c0575b600080fd5b6100956100903660046106b9565b61013e565b005b6100aa6100a5366004610722565b61020d565b6040516100b79190610871565b60405180910390f35b6100d36100ce366004610693565b610234565b6040516100b791906108cc565b6100956100ee366004610722565b610396565b6100fb6103ce565b6040516100b7919061087f565b610110610431565b6040516100b791906108dd565b61013061012b366004610693565b610437565b6040516100b7929190610897565b6003546001600160a01b0316331461017457604051600160e51b62461bcd02815260040161016b906108bc565b60405180910390fd5b6040805180820182528381526020808201849052336000908152600182529290922081518051929391926101ab9284920190610571565b5060208281015180516101c49260018501920190610571565b5050600280546001810182556000919091527f405787fa12a823e0f2b7631cc41b3ba8828b3321ca811111fa75cd3aa3bb5ace0180546001600160a01b03191633179055505050565b6002818154811061021a57fe5b6000918252602090912001546001600160a01b0316905081565b61023c6105ef565b6001600160a01b0382166000908152600160208181526040928390208351815460029481161561010002600019011693909304601f810183900490920283016060908101855293830182815292939092849290918491908401828280156102e45780601f106102b9576101008083540402835291602001916102e4565b820191906000526020600020905b8154815290600101906020018083116102c757829003601f168201915b50505050508152602001600182018054600181600116156101000203166002900480601f0160208091040260200160405190810160405280929190818152602001828054600181600116156101000203166002900480156103865780601f1061035b57610100808354040283529160200191610386565b820191906000526020600020905b81548152906001019060200180831161036957829003601f168201915b5050505050815250509050919050565b6003546001600160a01b031633146103c357604051600160e51b62461bcd02815260040161016b906108bc565b600080549091019055565b6060600280548060200260200160405190810160405280929190818152602001828054801561042657602002820191906000526020600020905b81546001600160a01b03168152600190910190602001808311610408575b505050505090505b90565b60005481565b60016020818152600092835260409283902080548451600294821615610100026000190190911693909304601f81018390048302840183019094528383529283918301828280156104c95780601f1061049e576101008083540402835291602001916104c9565b820191906000526020600020905b8154815290600101906020018083116104ac57829003601f168201915b505050505090806001018054600181600116156101000203166002900480601f0160208091040260200160405190810160405280929190818152602001828054600181600116156101000203166002900480156105675780601f1061053c57610100808354040283529160200191610567565b820191906000526020600020905b81548152906001019060200180831161054a57829003601f168201915b5050505050905082565b828054600181600116156101000203166002900490600052602060002090601f016020900481019282601f106105b257805160ff19168380011785556105df565b828001600101855582156105df579182015b828111156105df5782518255916020019190600101906105c4565b506105eb929150610609565b5090565b604051806040016040528060608152602001606081525090565b61042e91905b808211156105eb576000815560010161060f565b803561062e816109a4565b92915050565b600082601f83011261064557600080fd5b813561065861065382610912565b6108eb565b9150808252602083016020830185838301111561067457600080fd5b61067f83828461095e565b50505092915050565b803561062e816109bb565b6000602082840312156106a557600080fd5b60006106b18484610623565b949350505050565b600080604083850312156106cc57600080fd5b823567ffffffffffffffff8111156106e357600080fd5b6106ef85828601610634565b925050602083013567ffffffffffffffff81111561070c57600080fd5b61071885828601610634565b9150509250929050565b60006020828403121561073457600080fd5b60006106b18484610688565b600061074c8383610754565b505060200190565b61075d8161094d565b82525050565b600061076e82610940565b6107788185610944565b93506107838361093a565b8060005b838110156107b157815161079b8882610740565b97506107a68361093a565b925050600101610787565b509495945050505050565b60006107c782610940565b6107d18185610944565b93506107e181856020860161096a565b6107ea8161099a565b9093019392505050565b6000610801601183610944565b7f7065726d697373696f6e2064656e696564000000000000000000000000000000815260200192915050565b805160408084526000919084019061084582826107bc565b9150506020830151848203602086015261085f82826107bc565b95945050505050565b61075d8161042e565b6020810161062e8284610754565b602080825281016108908184610763565b9392505050565b604080825281016108a881856107bc565b905081810360208301526106b181846107bc565b6020808252810161062e816107f4565b60208082528101610890818461082d565b6020810161062e8284610868565b60405181810167ffffffffffffffff8111828210171561090a57600080fd5b604052919050565b600067ffffffffffffffff82111561092957600080fd5b506020601f91909101601f19160190565b60200190565b5190565b90815260200190565b60006001600160a01b03821661062e565b82818337506000910152565b60005b8381101561098557818101518382015260200161096d565b83811115610994576000848401525b50505050565b601f01601f191690565b6109ad8161094d565b81146109b857600080fd5b50565b6109ad8161042e56fea265627a7a723058200512a6ebbe405babd36681a23afc497ddfdaee5b9cb2461e77831cec54f118bb6c6578706572696d656e74616cf50037",
  "source": "pragma solidity ^0.5.0;\npragma experimental ABIEncoderV2;\n\ncontract User {\n\n    // NAME & CURRENT REPUTATION\n    uint public reputation = 1;\n\n    // MAP OF COMPLETED TASKS -- [TASK ADDRESS => TASK REPORT]\n    mapping (address => task_report) public results;\n\n    // ITERABLE ARRAY OF ALL COMPLETED TASK RESULTS\n    address[] public task_results;\n\n    // TASK REPORT OBJECT\n    struct task_report {\n        string key;         // DEVICE GENERATED PUBLIC KEY FOR DECRYPTION\n        string data;        // ENCRYPTED DATA\n    }\n\n    // TASK MANAGER REFERENCE\n    address task_manager;\n\n    // WHEN CREATED, SET TASK MANAGER ADDRESS\n    constructor(address _task_manager) public {\n        task_manager = _task_manager;\n    }\n\n    // FETCH ALL TASK RESULTS\n    function fetch_all() public view returns(address[] memory) {\n        return task_results;\n    }\n\n    // FETCH SPECIFIC TASK RESULT\n    function fetch_result(address task) public view returns (task_report memory) {\n        return results[task];\n    }\n\n    // ADD TASK RESULT\n    function add_result(\n        string memory _key,\n        string memory _data\n    ) public {\n\n        // IF SENDER IS THE TASK MANAGER\n        require(msg.sender == task_manager, 'permission denied');\n\n        // PUSH ENTRY TO HASHMAP\n        results[msg.sender] = task_report({\n            key: _key,\n            data: _data\n        });\n\n        // PUSH TO COMPLETED\n        task_results.push(msg.sender);\n    }\n\n    // REWARD REPUTATION\n    function reward(uint amount) public {\n\n        // IF SENDER IS THE TASK MANAGER\n        require(msg.sender == task_manager, 'permission denied');\n\n        // INCREASE BY AMOUNT\n        reputation += amount;\n    }\n}",
  "sourcePath": "C:\\Users\\35840\\Desktop\\coding\\node\\eth-contracts\\contracts\\user\\User.sol",
  "compiler": {
    "name": "solc",
    "version": "0.5.8+commit.23d335f2.Emscripten.clang"
  },
  "schemaVersion": "3.0.17",
  "updatedAt": "2020-02-03T01:12:44.745Z",
  "devdoc": {
    "methods": {}
  },
  "userdoc": {
    "methods": {}
  }
}