{
  "contractName": "User",
  "abi": [
    {
      "constant": true,
      "inputs": [],
      "name": "nickname",
      "outputs": [
        {
          "name": "",
          "type": "string"
        }
      ],
      "payable": false,
      "stateMutability": "view",
      "type": "function"
    },
    {
      "constant": true,
      "inputs": [
        {
          "name": "",
          "type": "address"
        }
      ],
      "name": "tasks",
      "outputs": [
        {
          "name": "key",
          "type": "string"
        },
        {
          "name": "ipfs",
          "type": "string"
        }
      ],
      "payable": false,
      "stateMutability": "view",
      "type": "function"
    },
    {
      "constant": true,
      "inputs": [],
      "name": "reputation",
      "outputs": [
        {
          "name": "",
          "type": "uint256"
        }
      ],
      "payable": false,
      "stateMutability": "view",
      "type": "function"
    },
    {
      "inputs": [
        {
          "name": "_nickname",
          "type": "string"
        },
        {
          "name": "_task_manager",
          "type": "address"
        }
      ],
      "payable": false,
      "stateMutability": "nonpayable",
      "type": "constructor"
    },
    {
      "constant": false,
      "inputs": [
        {
          "name": "_key",
          "type": "string"
        },
        {
          "name": "_ipfs",
          "type": "string"
        }
      ],
      "name": "add_task",
      "outputs": [],
      "payable": false,
      "stateMutability": "nonpayable",
      "type": "function"
    },
    {
      "constant": true,
      "inputs": [
        {
          "name": "location",
          "type": "address"
        }
      ],
      "name": "fetch_task",
      "outputs": [
        {
          "components": [
            {
              "name": "key",
              "type": "string"
            },
            {
              "name": "ipfs",
              "type": "string"
            }
          ],
          "name": "",
          "type": "tuple"
        }
      ],
      "payable": false,
      "stateMutability": "view",
      "type": "function"
    }
  ],
  "bytecode": "0x608060405260006001553480156200001657600080fd5b5060405162000b1238038062000b1283398101806040526200003c91908101906200018d565b81516200005190600090602085019062000079565b50600380546001600160a01b0319166001600160a01b03929092169190911790555062000291565b828054600181600116156101000203166002900490600052602060002090601f016020900481019282601f10620000bc57805160ff1916838001178555620000ec565b82800160010185558215620000ec579182015b82811115620000ec578251825591602001919060010190620000cf565b50620000fa929150620000fe565b5090565b6200011b91905b80821115620000fa576000815560010162000105565b90565b80516200012b8162000277565b92915050565b600082601f8301126200014357600080fd5b81516200015a62000154826200020a565b620001e3565b915080825260208301602083018583830111156200017757600080fd5b6200018483828462000244565b50505092915050565b60008060408385031215620001a157600080fd5b82516001600160401b03811115620001b857600080fd5b620001c68582860162000131565b9250506020620001d9858286016200011e565b9150509250929050565b6040518181016001600160401b03811182821017156200020257600080fd5b604052919050565b60006001600160401b038211156200022157600080fd5b506020601f91909101601f19160190565b60006001600160a01b0382166200012b565b60005b838110156200026157818101518382015260200162000247565b8381111562000271576000848401525b50505050565b620002828162000232565b81146200028e57600080fd5b50565b61087180620002a16000396000f3fe608060405234801561001057600080fd5b50600436106100575760003560e01c80631eedba801461005c5780636bc493681461007a57806377c237fd1461008f578063c52164c6146100b0578063f772282c146100c5575b600080fd5b6100646100e5565b6040516100719190610701565b60405180910390f35b61008d6100883660046105dd565b610173565b005b6100a261009d3660046105b7565b610200565b604051610071929190610719565b6100b8610339565b604051610071919061075f565b6100d86100d33660046105b7565b61033f565b604051610071919061074e565b6000805460408051602060026001851615610100026000190190941693909304601f8101849004840282018401909252818152929183018282801561016b5780601f106101405761010080835404028352916020019161016b565b820191906000526020600020905b81548152906001019060200180831161014e57829003601f168201915b505050505081565b6003546001600160a01b031633146101a957604051600160e51b62461bcd0281526004016101a09061073e565b60405180910390fd5b6040805180820182528381526020808201849052336000908152600282529290922081518051929391926101e0928492019061049d565b5060208281015180516101f9926001850192019061049d565b5050505050565b600260208181526000928352604092839020805484516001821615610100026000190190911693909304601f81018390048302840183019094528383529283918301828280156102915780601f1061026657610100808354040283529160200191610291565b820191906000526020600020905b81548152906001019060200180831161027457829003601f168201915b505050505090806001018054600181600116156101000203166002900480601f01602080910402602001604051908101604052809291908181526020018280546001816001161561010002031660029004801561032f5780601f106103045761010080835404028352916020019161032f565b820191906000526020600020905b81548152906001019060200180831161031257829003601f168201915b5050505050905082565b60015481565b61034761051b565b6001600160a01b038216600090815260026020818152604092839020835181546060601f60001961010060018516150201909216959095049081018490049093028101840185529384018281529092849284918401828280156103eb5780601f106103c0576101008083540402835291602001916103eb565b820191906000526020600020905b8154815290600101906020018083116103ce57829003601f168201915b50505050508152602001600182018054600181600116156101000203166002900480601f01602080910402602001604051908101604052809291908181526020018280546001816001161561010002031660029004801561048d5780601f106104625761010080835404028352916020019161048d565b820191906000526020600020905b81548152906001019060200180831161047057829003601f168201915b5050505050815250509050919050565b828054600181600116156101000203166002900490600052602060002090601f016020900481019282601f106104de57805160ff191683800117855561050b565b8280016001018555821561050b579182015b8281111561050b5782518255916020019190600101906104f0565b50610517929150610535565b5090565b604051806040016040528060608152602001606081525090565b61054f91905b80821115610517576000815560010161053b565b90565b803561055d81610820565b92915050565b600082601f83011261057457600080fd5b813561058761058282610794565b61076d565b915080825260208301602083018583830111156105a357600080fd5b6105ae8382846107da565b50505092915050565b6000602082840312156105c957600080fd5b60006105d58484610552565b949350505050565b600080604083850312156105f057600080fd5b823567ffffffffffffffff81111561060757600080fd5b61061385828601610563565b925050602083013567ffffffffffffffff81111561063057600080fd5b61063c85828601610563565b9150509250929050565b6000610651826107bc565b61065b81856107c0565b935061066b8185602086016107e6565b61067481610816565b9093019392505050565b600061068b6011836107c0565b7f7065726d697373696f6e2064656e696564000000000000000000000000000000815260200192915050565b80516040808452600091908401906106cf8282610646565b915050602083015184820360208601526106e98282610646565b95945050505050565b6106fb8161054f565b82525050565b602080825281016107128184610646565b9392505050565b6040808252810161072a8185610646565b905081810360208301526105d58184610646565b6020808252810161055d8161067e565b6020808252810161071281846106b7565b6020810161055d82846106f2565b60405181810167ffffffffffffffff8111828210171561078c57600080fd5b604052919050565b600067ffffffffffffffff8211156107ab57600080fd5b506020601f91909101601f19160190565b5190565b90815260200190565b60006001600160a01b03821661055d565b82818337506000910152565b60005b838110156108015781810151838201526020016107e9565b83811115610810576000848401525b50505050565b601f01601f191690565b610829816107c9565b811461083457600080fd5b5056fea265627a7a7230582077068069699e440be1b545c9209018d0be42fc68644aefdecdde2894007ed0f16c6578706572696d656e74616cf50037",
  "source": "pragma solidity ^0.5.0;\npragma experimental ABIEncoderV2;\n\ncontract User {\n\n    // NICKNAME & CURRENT REPUTATION\n    string public nickname;\n    uint public reputation = 0;\n\n    // HASHMAP OF TASK RESPONSES -- [TASK LOCATION => RESPONSE DATA]\n    mapping (address => data) public tasks;\n\n    // TASK RESPONSE DATA STRUCT\n    struct data {\n        string key;         // PUBLIC KEY TO ASYMETRIC ENCRYPTION\n        string ipfs;        // IPFS QM HASH\n    }\n\n    // USER MANAGER REFERENCE\n    address task_manager;\n\n    // WHEN CREATED, SET NICKNAME & TASK MANAGER ADDRESS\n    constructor(\n        string memory _nickname,\n        address _task_manager\n    ) public {\n        nickname = _nickname;\n        task_manager = _task_manager;\n    }\n\n    // ADD TASK RESULT\n    function add_task(string memory _key, string memory _ipfs) public {\n\n        // IF SENDER IS THE TASK MANAGER\n        require(msg.sender == task_manager, 'permission denied');\n\n        // PUSH ENTRY TO HASHMAP\n        tasks[msg.sender] = data({\n            key: _key,\n            ipfs: _ipfs\n        });\n    }\n\n    // FETCH TASK RESULT\n    function fetch_task(address location) public view returns (data memory) {\n        return tasks[location];\n    }\n}",
  "sourcePath": "C:\\Users\\35840\\Desktop\\coding\\node\\eth-contracts\\contracts\\user\\User.sol",
  "compiler": {
    "name": "solc",
    "version": "0.5.8+commit.23d335f2.Emscripten.clang"
  },
  "schemaVersion": "3.0.17",
  "updatedAt": "2019-11-05T19:30:16.242Z",
  "devdoc": {
    "methods": {}
  },
  "userdoc": {
    "methods": {}
  }
}