{
  "contractName": "User",
  "abi": [
    {
      "constant": true,
      "inputs": [],
      "name": "name",
      "outputs": [
        {
          "name": "",
          "type": "string"
        }
      ],
      "payable": false,
      "stateMutability": "view",
      "type": "function"
    },
    {
      "constant": true,
      "inputs": [],
      "name": "reputation",
      "outputs": [
        {
          "name": "",
          "type": "uint256"
        }
      ],
      "payable": false,
      "stateMutability": "view",
      "type": "function"
    },
    {
      "constant": true,
      "inputs": [
        {
          "name": "",
          "type": "address"
        }
      ],
      "name": "results",
      "outputs": [
        {
          "name": "key",
          "type": "string"
        },
        {
          "name": "ipfs",
          "type": "string"
        }
      ],
      "payable": false,
      "stateMutability": "view",
      "type": "function"
    },
    {
      "inputs": [
        {
          "name": "_name",
          "type": "string"
        },
        {
          "name": "_task_manager",
          "type": "address"
        }
      ],
      "payable": false,
      "stateMutability": "nonpayable",
      "type": "constructor"
    },
    {
      "constant": false,
      "inputs": [
        {
          "name": "_key",
          "type": "string"
        },
        {
          "name": "_ipfs",
          "type": "string"
        }
      ],
      "name": "add_result",
      "outputs": [],
      "payable": false,
      "stateMutability": "nonpayable",
      "type": "function"
    },
    {
      "constant": true,
      "inputs": [
        {
          "name": "task",
          "type": "address"
        }
      ],
      "name": "fetch_result",
      "outputs": [
        {
          "components": [
            {
              "name": "key",
              "type": "string"
            },
            {
              "name": "ipfs",
              "type": "string"
            }
          ],
          "name": "",
          "type": "tuple"
        }
      ],
      "payable": false,
      "stateMutability": "view",
      "type": "function"
    },
    {
      "constant": false,
      "inputs": [
        {
          "name": "amount",
          "type": "uint256"
        }
      ],
      "name": "reward",
      "outputs": [],
      "payable": false,
      "stateMutability": "nonpayable",
      "type": "function"
    }
  ],
  "bytecode": "0x608060405260006001553480156200001657600080fd5b5060405162000c2438038062000c2483398101806040526200003c91908101906200018f565b81516200005190600090602085019062000079565b5060038054600160a060020a031916600160a060020a03929092169190911790555062000286565b828054600181600116156101000203166002900490600052602060002090601f016020900481019282601f10620000bc57805160ff1916838001178555620000ec565b82800160010185558215620000ec579182015b82811115620000ec578251825591602001919060010190620000cf565b50620000fa929150620000fe565b5090565b6200011b91905b80821115620000fa576000815560010162000105565b90565b60006200012c825162000240565b9392505050565b6000601f820183136200014557600080fd5b81516200015c62000156826200020c565b620001e5565b915080825260208301602083018583830111156200017957600080fd5b6200018683828462000253565b50505092915050565b60008060408385031215620001a357600080fd5b82516001604060020a03811115620001ba57600080fd5b620001c88582860162000133565b9250506020620001db858286016200011e565b9150509250929050565b6040518181016001604060020a03811182821017156200020457600080fd5b604052919050565b60006001604060020a038211156200022357600080fd5b506020601f91909101601f19160190565b600160a060020a031690565b60006200024d8262000234565b92915050565b60005b838110156200027057818101518382015260200162000256565b8381111562000280576000848401525b50505050565b61098e80620002966000396000f3fe6080604052600436106100775763ffffffff7c010000000000000000000000000000000000000000000000000000000060003504166306fdde03811461007c5780632b8a74a4146100a75780638d9ff2cf146100c9578063a9fb763c146100f6578063c52164c614610116578063ef378f6214610138575b600080fd5b34801561008857600080fd5b50610091610166565b60405161009e919061082c565b60405180910390f35b3480156100b357600080fd5b506100c76100c23660046106f6565b6101f4565b005b3480156100d557600080fd5b506100e96100e43660046106d0565b6102a5565b60405161009e9190610878565b34801561010257600080fd5b506100c761011136600461075f565b610410565b34801561012257600080fd5b5061012b61046c565b60405161009e9190610889565b34801561014457600080fd5b506101586101533660046106d0565b610472565b60405161009e92919061083d565b6000805460408051602060026001851615610100026000190190941693909304601f810184900484028201840190925281815292918301828280156101ec5780601f106101c1576101008083540402835291602001916101ec565b820191906000526020600020905b8154815290600101906020018083116101cf57829003601f168201915b505050505081565b60035473ffffffffffffffffffffffffffffffffffffffff16331461024e576040517f08c379a000000000000000000000000000000000000000000000000000000000815260040161024590610862565b60405180910390fd5b60408051808201825283815260208082018490523360009081526002825292909220815180519293919261028592849201906105ab565b50602082810151805161029e92600185019201906105ab565b5050505050565b6102ad610629565b73ffffffffffffffffffffffffffffffffffffffff8216600090815260026020818152604092839020835181546060601f600019610100600185161502019092169590950490810184900490930281018401855293840182815290928492849184018282801561035e5780601f106103335761010080835404028352916020019161035e565b820191906000526020600020905b81548152906001019060200180831161034157829003601f168201915b50505050508152602001600182018054600181600116156101000203166002900480601f0160208091040260200160405190810160405280929190818152602001828054600181600116156101000203166002900480156104005780601f106103d557610100808354040283529160200191610400565b820191906000526020600020905b8154815290600101906020018083116103e357829003601f168201915b5050505050815250509050919050565b60035473ffffffffffffffffffffffffffffffffffffffff163314610461576040517f08c379a000000000000000000000000000000000000000000000000000000000815260040161024590610862565b600180549091019055565b60015481565b600260208181526000928352604092839020805484516001821615610100026000190190911693909304601f81018390048302840183019094528383529283918301828280156105035780601f106104d857610100808354040283529160200191610503565b820191906000526020600020905b8154815290600101906020018083116104e657829003601f168201915b505050505090806001018054600181600116156101000203166002900480601f0160208091040260200160405190810160405280929190818152602001828054600181600116156101000203166002900480156105a15780601f10610576576101008083540402835291602001916105a1565b820191906000526020600020905b81548152906001019060200180831161058457829003601f168201915b5050505050905082565b828054600181600116156101000203166002900490600052602060002090601f016020900481019282601f106105ec57805160ff1916838001178555610619565b82800160010185558215610619579182015b828111156106195782518255916020019190600101906105fe565b50610625929150610640565b5090565b604080518082019091526060808252602082015290565b61065a91905b808211156106255760008155600101610646565b90565b60006106698235610903565b9392505050565b6000601f8201831361068157600080fd5b813561069461068f826108be565b610897565b915080825260208301602083018583830111156106b057600080fd5b6106bb83828461090e565b50505092915050565b6000610669823561065a565b6000602082840312156106e257600080fd5b60006106ee848461065d565b949350505050565b6000806040838503121561070957600080fd5b823567ffffffffffffffff81111561072057600080fd5b61072c85828601610670565b925050602083013567ffffffffffffffff81111561074957600080fd5b61075585828601610670565b9150509250929050565b60006020828403121561077157600080fd5b60006106ee84846106c4565b6000610788826108e6565b80845261079c81602086016020860161091a565b6107a58161094a565b9093016020019392505050565b601181527f7065726d697373696f6e2064656e696564000000000000000000000000000000602082015260400190565b80516040808452600091908401906107fa828261077d565b91505060208301518482036020860152610814828261077d565b95945050505050565b6108268161065a565b82525050565b60208082528101610669818461077d565b6040808252810161084e818561077d565b905081810360208301526106ee818461077d565b60208082528101610872816107b2565b92915050565b6020808252810161066981846107e2565b60208101610872828461081d565b60405181810167ffffffffffffffff811182821017156108b657600080fd5b604052919050565b600067ffffffffffffffff8211156108d557600080fd5b506020601f91909101601f19160190565b5190565b73ffffffffffffffffffffffffffffffffffffffff1690565b6000610872826108ea565b82818337506000910152565b60005b8381101561093557818101518382015260200161091d565b83811115610944576000848401525b50505050565b601f01601f19169056fea265627a7a72305820c0c4f46c9678e41abce53a18cc3eeacd5f84ea20e6b3fe5135806dd1b19a98076c6578706572696d656e74616cf50037",
  "source": "pragma solidity ^0.5.0;\npragma experimental ABIEncoderV2;\n\ncontract User {\n\n    // NAME & CURRENT REPUTATION\n    string public name;\n    uint public reputation = 0;\n\n    // MAP OF TASK RESULTS -- [TASK LOCATION => RESPONSE DATA]\n    mapping (address => data) public results;\n\n    // TASK RESPONSE DATA STRUCT\n    struct data {\n        string key;         // PUBLIC KEY TO ASYMETRIC ENCRYPTION\n        string ipfs;        // IPFS QM HASH\n    }\n\n    // USER MANAGER REFERENCE\n    address task_manager;\n\n    // WHEN CREATED, SET NICKNAME & TASK MANAGER ADDRESS\n    constructor(\n        string memory _name,\n        address _task_manager\n    ) public {\n        name = _name;\n        task_manager = _task_manager;\n    }\n\n    // ADD TASK RESULT\n    function add_result(string memory _key, string memory _ipfs) public {\n\n        // IF SENDER IS THE TASK MANAGER\n        require(msg.sender == task_manager, 'permission denied');\n\n        // PUSH ENTRY TO HASHMAP\n        results[msg.sender] = data({\n            key: _key,\n            ipfs: _ipfs\n        });\n    }\n\n    // FETCH TASK RESULT\n    function fetch_result(address task) public view returns (data memory) {\n        return results[task];\n    }\n\n    // REWARD REPUTATION\n    function reward(uint amount) public {\n\n        // IF SENDER IS THE TASK MANAGER\n        require(msg.sender == task_manager, 'permission denied');\n\n        // INCREASE BY AMOUNT\n        reputation += amount;\n    }\n}",
  "sourcePath": "/home/bdalab/wickstjo/eth-contracts/contracts/user/User.sol",
  "compiler": {
    "name": "solc",
    "version": "0.5.0+commit.1d4f565a.Emscripten.clang"
  },
  "schemaVersion": "3.0.9",
  "updatedAt": "2019-11-07T10:02:12.186Z",
  "devdoc": {
    "methods": {}
  },
  "userdoc": {
    "methods": {}
  }
}