{
  "contractName": "User",
  "abi": [
    {
      "constant": true,
      "inputs": [],
      "name": "name",
      "outputs": [
        {
          "name": "",
          "type": "string"
        }
      ],
      "payable": false,
      "stateMutability": "view",
      "type": "function"
    },
    {
      "constant": true,
      "inputs": [],
      "name": "reputation",
      "outputs": [
        {
          "name": "",
          "type": "uint256"
        }
      ],
      "payable": false,
      "stateMutability": "view",
      "type": "function"
    },
    {
      "constant": true,
      "inputs": [
        {
          "name": "",
          "type": "address"
        }
      ],
      "name": "results",
      "outputs": [
        {
          "name": "key",
          "type": "string"
        },
        {
          "name": "ipfs",
          "type": "string"
        }
      ],
      "payable": false,
      "stateMutability": "view",
      "type": "function"
    },
    {
      "inputs": [
        {
          "name": "_name",
          "type": "string"
        },
        {
          "name": "_task_manager",
          "type": "address"
        }
      ],
      "payable": false,
      "stateMutability": "nonpayable",
      "type": "constructor"
    },
    {
      "constant": false,
      "inputs": [
        {
          "name": "_key",
          "type": "string"
        },
        {
          "name": "_ipfs",
          "type": "string"
        }
      ],
      "name": "add_result",
      "outputs": [],
      "payable": false,
      "stateMutability": "nonpayable",
      "type": "function"
    },
    {
      "constant": true,
      "inputs": [
        {
          "name": "task",
          "type": "address"
        }
      ],
      "name": "fetch_result",
      "outputs": [
        {
          "components": [
            {
              "name": "key",
              "type": "string"
            },
            {
              "name": "ipfs",
              "type": "string"
            }
          ],
          "name": "",
          "type": "tuple"
        }
      ],
      "payable": false,
      "stateMutability": "view",
      "type": "function"
    },
    {
      "constant": false,
      "inputs": [
        {
          "name": "amount",
          "type": "uint256"
        }
      ],
      "name": "reward",
      "outputs": [],
      "payable": false,
      "stateMutability": "nonpayable",
      "type": "function"
    }
  ],
  "bytecode": "0x608060405260006001553480156200001657600080fd5b5060405162000b9a38038062000b9a83398101806040526200003c91908101906200018d565b81516200005190600090602085019062000079565b50600380546001600160a01b0319166001600160a01b03929092169190911790555062000291565b828054600181600116156101000203166002900490600052602060002090601f016020900481019282601f10620000bc57805160ff1916838001178555620000ec565b82800160010185558215620000ec579182015b82811115620000ec578251825591602001919060010190620000cf565b50620000fa929150620000fe565b5090565b6200011b91905b80821115620000fa576000815560010162000105565b90565b80516200012b8162000277565b92915050565b600082601f8301126200014357600080fd5b81516200015a62000154826200020a565b620001e3565b915080825260208301602083018583830111156200017757600080fd5b6200018483828462000244565b50505092915050565b60008060408385031215620001a157600080fd5b82516001600160401b03811115620001b857600080fd5b620001c68582860162000131565b9250506020620001d9858286016200011e565b9150509250929050565b6040518181016001600160401b03811182821017156200020257600080fd5b604052919050565b60006001600160401b038211156200022157600080fd5b506020601f91909101601f19160190565b60006001600160a01b0382166200012b565b60005b838110156200026157818101518382015260200162000247565b8381111562000271576000848401525b50505050565b620002828162000232565b81146200028e57600080fd5b50565b6108f980620002a16000396000f3fe608060405234801561001057600080fd5b50600436106100625760003560e01c806306fdde03146100675780632b8a74a4146100855780638d9ff2cf1461009a578063a9fb763c146100ba578063c52164c6146100cd578063ef378f62146100e2575b600080fd5b61006f610103565b60405161007c9190610780565b60405180910390f35b61009861009336600461063e565b610191565b005b6100ad6100a8366004610618565b61021e565b60405161007c91906107cd565b6100986100c83660046106a7565b61037c565b6100d56103b4565b60405161007c91906107de565b6100f56100f0366004610618565b6103ba565b60405161007c929190610798565b6000805460408051602060026001851615610100026000190190941693909304601f810184900484028201840190925281815292918301828280156101895780601f1061015e57610100808354040283529160200191610189565b820191906000526020600020905b81548152906001019060200180831161016c57829003601f168201915b505050505081565b6003546001600160a01b031633146101c757604051600160e51b62461bcd0281526004016101be906107bd565b60405180910390fd5b6040805180820182528381526020808201849052336000908152600282529290922081518051929391926101fe92849201906104f3565b50602082810151805161021792600185019201906104f3565b5050505050565b610226610571565b6001600160a01b038216600090815260026020818152604092839020835181546060601f60001961010060018516150201909216959095049081018490049093028101840185529384018281529092849284918401828280156102ca5780601f1061029f576101008083540402835291602001916102ca565b820191906000526020600020905b8154815290600101906020018083116102ad57829003601f168201915b50505050508152602001600182018054600181600116156101000203166002900480601f01602080910402602001604051908101604052809291908181526020018280546001816001161561010002031660029004801561036c5780601f106103415761010080835404028352916020019161036c565b820191906000526020600020905b81548152906001019060200180831161034f57829003601f168201915b5050505050815250509050919050565b6003546001600160a01b031633146103a957604051600160e51b62461bcd0281526004016101be906107bd565b600180549091019055565b60015481565b600260208181526000928352604092839020805484516001821615610100026000190190911693909304601f810183900483028401830190945283835292839183018282801561044b5780601f106104205761010080835404028352916020019161044b565b820191906000526020600020905b81548152906001019060200180831161042e57829003601f168201915b505050505090806001018054600181600116156101000203166002900480601f0160208091040260200160405190810160405280929190818152602001828054600181600116156101000203166002900480156104e95780601f106104be576101008083540402835291602001916104e9565b820191906000526020600020905b8154815290600101906020018083116104cc57829003601f168201915b5050505050905082565b828054600181600116156101000203166002900490600052602060002090601f016020900481019282601f1061053457805160ff1916838001178555610561565b82800160010185558215610561579182015b82811115610561578251825591602001919060010190610546565b5061056d92915061058b565b5090565b604051806040016040528060608152602001606081525090565b6105a591905b8082111561056d5760008155600101610591565b90565b80356105b38161089f565b92915050565b600082601f8301126105ca57600080fd5b81356105dd6105d882610813565b6107ec565b915080825260208301602083018583830111156105f957600080fd5b610604838284610859565b50505092915050565b80356105b3816108b6565b60006020828403121561062a57600080fd5b600061063684846105a8565b949350505050565b6000806040838503121561065157600080fd5b823567ffffffffffffffff81111561066857600080fd5b610674858286016105b9565b925050602083013567ffffffffffffffff81111561069157600080fd5b61069d858286016105b9565b9150509250929050565b6000602082840312156106b957600080fd5b6000610636848461060d565b60006106d08261083b565b6106da818561083f565b93506106ea818560208601610865565b6106f381610895565b9093019392505050565b600061070a60118361083f565b7f7065726d697373696f6e2064656e696564000000000000000000000000000000815260200192915050565b805160408084526000919084019061074e82826106c5565b9150506020830151848203602086015261076882826106c5565b95945050505050565b61077a816105a5565b82525050565b6020808252810161079181846106c5565b9392505050565b604080825281016107a981856106c5565b9050818103602083015261063681846106c5565b602080825281016105b3816106fd565b602080825281016107918184610736565b602081016105b38284610771565b60405181810167ffffffffffffffff8111828210171561080b57600080fd5b604052919050565b600067ffffffffffffffff82111561082a57600080fd5b506020601f91909101601f19160190565b5190565b90815260200190565b60006001600160a01b0382166105b3565b82818337506000910152565b60005b83811015610880578181015183820152602001610868565b8381111561088f576000848401525b50505050565b601f01601f191690565b6108a881610848565b81146108b357600080fd5b50565b6108a8816105a556fea265627a7a72305820125126ce4cd61c65675147c1a015c2cbaf8bc8d96a640f892ed94e633a6852a16c6578706572696d656e74616cf50037",
  "source": "pragma solidity ^0.5.0;\npragma experimental ABIEncoderV2;\n\ncontract User {\n\n    // NAME & CURRENT REPUTATION\n    string public name;\n    uint public reputation = 0;\n\n    // MAP OF TASK RESULTS -- [TASK LOCATION => RESPONSE DATA]\n    mapping (address => data) public results;\n\n    // TASK RESPONSE DATA STRUCT\n    struct data {\n        string key;         // PUBLIC KEY TO ASYMETRIC ENCRYPTION\n        string ipfs;        // IPFS QM HASH\n    }\n\n    // USER MANAGER REFERENCE\n    address task_manager;\n\n    // WHEN CREATED, SET NICKNAME & TASK MANAGER ADDRESS\n    constructor(\n        string memory _name,\n        address _task_manager\n    ) public {\n        name = _name;\n        task_manager = _task_manager;\n    }\n\n    // ADD TASK RESULT\n    function add_result(string memory _key, string memory _ipfs) public {\n\n        // IF SENDER IS THE TASK MANAGER\n        require(msg.sender == task_manager, 'permission denied');\n\n        // PUSH ENTRY TO HASHMAP\n        results[msg.sender] = data({\n            key: _key,\n            ipfs: _ipfs\n        });\n    }\n\n    // FETCH TASK RESULT\n    function fetch_result(address task) public view returns (data memory) {\n        return results[task];\n    }\n\n    // REWARD REPUTATION\n    function reward(uint amount) public {\n\n        // IF SENDER IS THE TASK MANAGER\n        require(msg.sender == task_manager, 'permission denied');\n\n        // INCREASE BY AMOUNT\n        reputation += amount;\n    }\n}",
  "sourcePath": "C:\\Users\\35840\\Desktop\\coding\\node\\eth-contracts\\contracts\\user\\User.sol",
  "compiler": {
    "name": "solc",
    "version": "0.5.8+commit.23d335f2.Emscripten.clang"
  },
  "schemaVersion": "3.0.17",
  "updatedAt": "2019-11-06T20:02:22.567Z",
  "devdoc": {
    "methods": {}
  },
  "userdoc": {
    "methods": {}
  }
}