{
  "contractName": "UserManager",
  "abi": [
    {
      "constant": true,
      "inputs": [
        {
          "name": "",
          "type": "address"
        }
      ],
      "name": "users",
      "outputs": [
        {
          "name": "",
          "type": "address"
        }
      ],
      "payable": false,
      "stateMutability": "view",
      "type": "function"
    },
    {
      "constant": true,
      "inputs": [],
      "name": "fetch_everyone",
      "outputs": [
        {
          "name": "",
          "type": "address[]"
        }
      ],
      "payable": false,
      "stateMutability": "view",
      "type": "function"
    },
    {
      "constant": true,
      "inputs": [
        {
          "name": "user",
          "type": "address"
        }
      ],
      "name": "fetch_user",
      "outputs": [
        {
          "name": "",
          "type": "address"
        }
      ],
      "payable": false,
      "stateMutability": "view",
      "type": "function"
    },
    {
      "constant": false,
      "inputs": [],
      "name": "add",
      "outputs": [],
      "payable": false,
      "stateMutability": "nonpayable",
      "type": "function"
    },
    {
      "constant": false,
      "inputs": [
        {
          "name": "_task_manager",
          "type": "address"
        }
      ],
      "name": "init",
      "outputs": [],
      "payable": false,
      "stateMutability": "nonpayable",
      "type": "function"
    },
    {
      "constant": true,
      "inputs": [
        {
          "name": "user",
          "type": "address"
        }
      ],
      "name": "exists",
      "outputs": [
        {
          "name": "",
          "type": "bool"
        }
      ],
      "payable": false,
      "stateMutability": "view",
      "type": "function"
    }
  ],
  "bytecode": "0x60806040526002805460ff1916905534801561001a57600080fd5b50610f6e8061002a6000396000f3fe608060405234801561001057600080fd5b50600436106100625760003560e01c806319ab453c146100675780631f0df17f1461008f5780634f2be91f146100d1578063a0fc1cf7146100d9578063a87430ba14610131578063f6a3d24e14610157575b600080fd5b61008d6004803603602081101561007d57600080fd5b50356001600160a01b0316610191565b005b6100b5600480360360208110156100a557600080fd5b50356001600160a01b0316610205565b604080516001600160a01b039092168252519081900360200190f35b61008d610226565b6100e161037b565b60408051602080825283518183015283519192839290830191858101910280838360005b8381101561011d578181015183820152602001610105565b505050509050019250505060405180910390f35b6100b56004803603602081101561014757600080fd5b50356001600160a01b03166103dd565b61017d6004803603602081101561016d57600080fd5b50356001600160a01b03166103f8565b604080519115158252519081900360200190f35b60025460ff16156101d657604051600160e51b62461bcd028152600401808060200182810382526025815260200180610efd6025913960400191505060405180910390fd5b6002805460ff196001600160a01b0390931661010002610100600160a81b031990911617919091166001179055565b6001600160a01b03808216600090815260208190526040902054165b919050565b60025460ff1661026a57604051600160e51b62461bcd028152600401808060200182810382526021815260200180610f226021913960400191505060405180910390fd5b610273336103f8565b156102c85760408051600160e51b62461bcd02815260206004820152601360248201527f7573657220616c72656164792065786973747300000000000000000000000000604482015290519081900360640190fd5b600260019054906101000a90046001600160a01b03166040516102ea9061042a565b6001600160a01b03909116815260405190819003602001906000f080158015610317573d6000803e3d6000fd5b5033600081815260208190526040812080546001600160a01b03949094166001600160a01b031994851617905560018054808201825591527fb10e2d527612073b26eecdfd717e6a320cf44b4afac2b0732d9fcbe2b7fa0cf6018054909216179055565b606060018054806020026020016040519081016040528092919081815260200182805480156103d357602002820191906000526020600020905b81546001600160a01b031681526001909101906020018083116103b5575b5050505050905090565b6000602081905290815260409020546001600160a01b031681565b6001600160a01b038082166000908152602081905260408120549091161561042257506001610221565b506000610221565b610ac5806104388339019056fe6080604052600160005534801561001557600080fd5b50604051602080610ac58339810180604052610034919081019061006a565b600380546001600160a01b0319166001600160a01b03929092169190911790556100b8565b8051610064816100a1565b92915050565b60006020828403121561007c57600080fd5b60006100888484610059565b949350505050565b60006001600160a01b038216610064565b6100aa81610090565b81146100b557600080fd5b50565b6109fe806100c76000396000f3fe608060405234801561001057600080fd5b506004361061007d5760003560e01c8063a9fb763c1161005b578063a9fb763c146100e0578063b8d03f63146100f3578063c52164c614610108578063ef378f621461011d5761007d565b80632b8a74a4146100825780633882d5ec146100975780638d9ff2cf146100c0575b600080fd5b6100956100903660046106b9565b61013e565b005b6100aa6100a5366004610722565b61020d565b6040516100b79190610871565b60405180910390f35b6100d36100ce366004610693565b610234565b6040516100b791906108cc565b6100956100ee366004610722565b610396565b6100fb6103ce565b6040516100b7919061087f565b610110610431565b6040516100b791906108dd565b61013061012b366004610693565b610437565b6040516100b7929190610897565b6003546001600160a01b0316331461017457604051600160e51b62461bcd02815260040161016b906108bc565b60405180910390fd5b6040805180820182528381526020808201849052336000908152600182529290922081518051929391926101ab9284920190610571565b5060208281015180516101c49260018501920190610571565b5050600280546001810182556000919091527f405787fa12a823e0f2b7631cc41b3ba8828b3321ca811111fa75cd3aa3bb5ace0180546001600160a01b03191633179055505050565b6002818154811061021a57fe5b6000918252602090912001546001600160a01b0316905081565b61023c6105ef565b6001600160a01b0382166000908152600160208181526040928390208351815460029481161561010002600019011693909304601f810183900490920283016060908101855293830182815292939092849290918491908401828280156102e45780601f106102b9576101008083540402835291602001916102e4565b820191906000526020600020905b8154815290600101906020018083116102c757829003601f168201915b50505050508152602001600182018054600181600116156101000203166002900480601f0160208091040260200160405190810160405280929190818152602001828054600181600116156101000203166002900480156103865780601f1061035b57610100808354040283529160200191610386565b820191906000526020600020905b81548152906001019060200180831161036957829003601f168201915b5050505050815250509050919050565b6003546001600160a01b031633146103c357604051600160e51b62461bcd02815260040161016b906108bc565b600080549091019055565b6060600280548060200260200160405190810160405280929190818152602001828054801561042657602002820191906000526020600020905b81546001600160a01b03168152600190910190602001808311610408575b505050505090505b90565b60005481565b60016020818152600092835260409283902080548451600294821615610100026000190190911693909304601f81018390048302840183019094528383529283918301828280156104c95780601f1061049e576101008083540402835291602001916104c9565b820191906000526020600020905b8154815290600101906020018083116104ac57829003601f168201915b505050505090806001018054600181600116156101000203166002900480601f0160208091040260200160405190810160405280929190818152602001828054600181600116156101000203166002900480156105675780601f1061053c57610100808354040283529160200191610567565b820191906000526020600020905b81548152906001019060200180831161054a57829003601f168201915b5050505050905082565b828054600181600116156101000203166002900490600052602060002090601f016020900481019282601f106105b257805160ff19168380011785556105df565b828001600101855582156105df579182015b828111156105df5782518255916020019190600101906105c4565b506105eb929150610609565b5090565b604051806040016040528060608152602001606081525090565b61042e91905b808211156105eb576000815560010161060f565b803561062e816109a4565b92915050565b600082601f83011261064557600080fd5b813561065861065382610912565b6108eb565b9150808252602083016020830185838301111561067457600080fd5b61067f83828461095e565b50505092915050565b803561062e816109bb565b6000602082840312156106a557600080fd5b60006106b18484610623565b949350505050565b600080604083850312156106cc57600080fd5b823567ffffffffffffffff8111156106e357600080fd5b6106ef85828601610634565b925050602083013567ffffffffffffffff81111561070c57600080fd5b61071885828601610634565b9150509250929050565b60006020828403121561073457600080fd5b60006106b18484610688565b600061074c8383610754565b505060200190565b61075d8161094d565b82525050565b600061076e82610940565b6107788185610944565b93506107838361093a565b8060005b838110156107b157815161079b8882610740565b97506107a68361093a565b925050600101610787565b509495945050505050565b60006107c782610940565b6107d18185610944565b93506107e181856020860161096a565b6107ea8161099a565b9093019392505050565b6000610801601183610944565b7f7065726d697373696f6e2064656e696564000000000000000000000000000000815260200192915050565b805160408084526000919084019061084582826107bc565b9150506020830151848203602086015261085f82826107bc565b95945050505050565b61075d8161042e565b6020810161062e8284610754565b602080825281016108908184610763565b9392505050565b604080825281016108a881856107bc565b905081810360208301526106b181846107bc565b6020808252810161062e816107f4565b60208082528101610890818461082d565b6020810161062e8284610868565b60405181810167ffffffffffffffff8111828210171561090a57600080fd5b604052919050565b600067ffffffffffffffff82111561092957600080fd5b506020601f91909101601f19160190565b60200190565b5190565b90815260200190565b60006001600160a01b03821661062e565b82818337506000910152565b60005b8381101561098557818101518382015260200161096d565b83811115610994576000848401525b50505050565b601f01601f191690565b6109ad8161094d565b81146109b857600080fd5b50565b6109ad8161042e56fea265627a7a723058200512a6ebbe405babd36681a23afc497ddfdaee5b9cb2461e77831cec54f118bb6c6578706572696d656e74616cf50037636f6e74726163742068617320616c7265616479206265656e20696e697469616c697a6564636f6e747261637420686173206e6f74206265656e20696e697469616c697a6564a165627a7a72305820d518c013e5e4b7859c98014ad2398980f933a960bae3c489c02e8dfda56353f30029",
  "source": "pragma solidity ^0.5.0;\n\n// IMPORT INTERFACE\nimport { User } from './User.sol';\n\ncontract UserManager {\n\n    // MAP OF REGISTERED USERS -- [ETH USER => USER CONTRACT]\n    mapping (address => User) public users;\n\n    // ITERABLE LIST OF ALL USERS\n    address[] everyone;\n\n    // INIT STATUS & TASK MANAGER ADDRESS\n    bool initialized = false;\n    address task_manager;\n\n    // FETCH ALL USERS\n    function fetch_everyone() public view returns(address[] memory) {\n        return everyone;\n    }\n\n    // FETCH SPECIFIC USER\n    function fetch_user(address user) public view returns(User) {\n        return users[user];\n    }\n\n    // ADD ENTRY TO HASHMAP\n    function add() public {\n\n        // IF THE CONTRACT HAS BEEN INITIALIZED\n        // IF THE USER DOES NOT EXIST\n        require(initialized, 'contract has not been initialized');\n        require(!exists(msg.sender), 'user already exists');\n\n        // PUSH ENTRY TO MAP & ARRAY\n        users[msg.sender] = new User(task_manager);\n        everyone.push(msg.sender);\n    }\n\n    // INITIALIZE CONTRACT\n    function init(address _task_manager) public {\n\n        // IF THE CONTRACT HAS NOT BEEN INITIALIZED\n        require(!initialized, 'contract has already been initialized');\n\n        // SET REFERENCE & BLOCK FURTHER MODIFICATION\n        task_manager = _task_manager;\n        initialized = true;\n    }\n\n    // CHECK IF USER EXISTS\n    function exists(address user) public view returns(bool) {\n        if (address(users[user]) != 0x0000000000000000000000000000000000000000) {\n            return true;\n        } else {\n            return false;\n        }\n    }\n}",
  "sourcePath": "C:\\Users\\35840\\Desktop\\coding\\node\\eth-contracts\\contracts\\user\\Manager.sol",
  "compiler": {
    "name": "solc",
    "version": "0.5.8+commit.23d335f2.Emscripten.clang"
  },
  "schemaVersion": "3.0.17",
  "updatedAt": "2020-02-03T01:12:46.277Z",
  "networkType": "ethereum",
  "devdoc": {
    "methods": {}
  },
  "userdoc": {
    "methods": {}
  }
}