{
  "contractName": "UserManager",
  "abi": [
    {
      "constant": true,
      "inputs": [
        {
          "name": "",
          "type": "uint256"
        }
      ],
      "name": "everyone",
      "outputs": [
        {
          "name": "",
          "type": "address"
        }
      ],
      "payable": false,
      "stateMutability": "view",
      "type": "function"
    },
    {
      "constant": true,
      "inputs": [
        {
          "name": "",
          "type": "address"
        }
      ],
      "name": "users",
      "outputs": [
        {
          "name": "",
          "type": "address"
        }
      ],
      "payable": false,
      "stateMutability": "view",
      "type": "function"
    },
    {
      "constant": true,
      "inputs": [
        {
          "name": "user",
          "type": "address"
        }
      ],
      "name": "exists",
      "outputs": [
        {
          "name": "",
          "type": "bool"
        }
      ],
      "payable": false,
      "stateMutability": "view",
      "type": "function"
    },
    {
      "constant": true,
      "inputs": [],
      "name": "fetch_all",
      "outputs": [
        {
          "name": "",
          "type": "address[]"
        }
      ],
      "payable": false,
      "stateMutability": "view",
      "type": "function"
    },
    {
      "constant": true,
      "inputs": [
        {
          "name": "user",
          "type": "address"
        }
      ],
      "name": "fetch_user",
      "outputs": [
        {
          "name": "",
          "type": "address"
        }
      ],
      "payable": false,
      "stateMutability": "view",
      "type": "function"
    },
    {
      "constant": false,
      "inputs": [
        {
          "name": "name",
          "type": "string"
        }
      ],
      "name": "add",
      "outputs": [],
      "payable": false,
      "stateMutability": "nonpayable",
      "type": "function"
    },
    {
      "constant": false,
      "inputs": [
        {
          "name": "_task_manager",
          "type": "address"
        }
      ],
      "name": "init",
      "outputs": [],
      "payable": false,
      "stateMutability": "nonpayable",
      "type": "function"
    }
  ],
  "bytecode": "0x60806040526002805460ff1916905534801561001a57600080fd5b506113438061002a6000396000f3fe6080604052600436106100825763ffffffff7c010000000000000000000000000000000000000000000000000000000060003504166319ab453c81146100875780631f0df17f146100bc57806378e46b101461010b578063a87430ba14610135578063b0c8f9dc14610168578063b8d03f631461021b578063f6a3d24e14610280575b600080fd5b34801561009357600080fd5b506100ba600480360360208110156100aa57600080fd5b5035600160a060020a03166102c7565b005b3480156100c857600080fd5b506100ef600480360360208110156100df57600080fd5b5035600160a060020a0316610384565b60408051600160a060020a039092168252519081900360200190f35b34801561011757600080fd5b506100ef6004803603602081101561012e57600080fd5b5035610407565b34801561014157600080fd5b506100ef6004803603602081101561015857600080fd5b5035600160a060020a031661042f565b34801561017457600080fd5b506100ba6004803603602081101561018b57600080fd5b8101906020810181356401000000008111156101a657600080fd5b8201836020820111156101b857600080fd5b803590602001918460018302840111640100000000831117156101da57600080fd5b91908080601f01602080910402602001604051908101604052809392919081815260200183838082843760009201919091525092955061044a945050505050565b34801561022757600080fd5b5061023061064f565b60408051602080825283518183015283519192839290830191858101910280838360005b8381101561026c578181015183820152602001610254565b505050509050019250505060405180910390f35b34801561028c57600080fd5b506102b3600480360360208110156102a357600080fd5b5035600160a060020a03166106b1565b604080519115158252519081900360200190f35b60025460ff1615610348576040805160e560020a62461bcd02815260206004820152602560248201527f636f6e74726163742068617320616c7265616479206265656e20696e6974696160448201527f6c697a6564000000000000000000000000000000000000000000000000000000606482015290519081900360840190fd5b6002805460ff19600160a060020a039093166101000274ffffffffffffffffffffffffffffffffffffffff001990911617919091166001179055565b600061038f826106b1565b15156103e5576040805160e560020a62461bcd02815260206004820152601360248201527f7573657220646f6573206e6f7420657869737400000000000000000000000000604482015290519081900360640190fd5b50600160a060020a03808216600090815260208190526040902054165b919050565b600180548290811061041557fe5b600091825260209091200154600160a060020a0316905081565b600060208190529081526040902054600160a060020a031681565b60025460ff1615156104cc576040805160e560020a62461bcd02815260206004820152602160248201527f636f6e747261637420686173206e6f74206265656e20696e697469616c697a6560448201527f6400000000000000000000000000000000000000000000000000000000000000606482015290519081900360840190fd5b6104d5336106b1565b1561052a576040805160e560020a62461bcd02815260206004820152601360248201527f7573657220616c72656164792065786973747300000000000000000000000000604482015290519081900360640190fd5b60025481906101009004600160a060020a03166105456106e3565b600160a060020a03821660208083019190915260408083528451908301528351829160608301919086019080838360005b8381101561058e578181015183820152602001610576565b50505050905090810190601f1680156105bb5780820380516001836020036101000a031916815260200191505b509350505050604051809103906000f0801580156105dd573d6000803e3d6000fd5b503360008181526020819052604081208054600160a060020a039490941673ffffffffffffffffffffffffffffffffffffffff1994851617905560018054808201825591527fb10e2d527612073b26eecdfd717e6a320cf44b4afac2b0732d9fcbe2b7fa0cf601805490921617905550565b606060018054806020026020016040519081016040528092919081815260200182805480156106a757602002820191906000526020600020905b8154600160a060020a03168152600190910190602001808311610689575b5050505050905090565b600160a060020a03808216600090815260208190526040812054909116156106db57506001610402565b506000610402565b604051610c24806106f48339019056fe608060405260006001553480156200001657600080fd5b5060405162000c2438038062000c2483398101806040526200003c91908101906200018f565b81516200005190600090602085019062000079565b5060038054600160a060020a031916600160a060020a03929092169190911790555062000286565b828054600181600116156101000203166002900490600052602060002090601f016020900481019282601f10620000bc57805160ff1916838001178555620000ec565b82800160010185558215620000ec579182015b82811115620000ec578251825591602001919060010190620000cf565b50620000fa929150620000fe565b5090565b6200011b91905b80821115620000fa576000815560010162000105565b90565b60006200012c825162000240565b9392505050565b6000601f820183136200014557600080fd5b81516200015c62000156826200020c565b620001e5565b915080825260208301602083018583830111156200017957600080fd5b6200018683828462000253565b50505092915050565b60008060408385031215620001a357600080fd5b82516001604060020a03811115620001ba57600080fd5b620001c88582860162000133565b9250506020620001db858286016200011e565b9150509250929050565b6040518181016001604060020a03811182821017156200020457600080fd5b604052919050565b60006001604060020a038211156200022357600080fd5b506020601f91909101601f19160190565b600160a060020a031690565b60006200024d8262000234565b92915050565b60005b838110156200027057818101518382015260200162000256565b8381111562000280576000848401525b50505050565b61098e80620002966000396000f3fe6080604052600436106100775763ffffffff7c010000000000000000000000000000000000000000000000000000000060003504166306fdde03811461007c5780632b8a74a4146100a75780638d9ff2cf146100c9578063a9fb763c146100f6578063c52164c614610116578063ef378f6214610138575b600080fd5b34801561008857600080fd5b50610091610166565b60405161009e919061082c565b60405180910390f35b3480156100b357600080fd5b506100c76100c23660046106f6565b6101f4565b005b3480156100d557600080fd5b506100e96100e43660046106d0565b6102a5565b60405161009e9190610878565b34801561010257600080fd5b506100c761011136600461075f565b610410565b34801561012257600080fd5b5061012b61046c565b60405161009e9190610889565b34801561014457600080fd5b506101586101533660046106d0565b610472565b60405161009e92919061083d565b6000805460408051602060026001851615610100026000190190941693909304601f810184900484028201840190925281815292918301828280156101ec5780601f106101c1576101008083540402835291602001916101ec565b820191906000526020600020905b8154815290600101906020018083116101cf57829003601f168201915b505050505081565b60035473ffffffffffffffffffffffffffffffffffffffff16331461024e576040517f08c379a000000000000000000000000000000000000000000000000000000000815260040161024590610862565b60405180910390fd5b60408051808201825283815260208082018490523360009081526002825292909220815180519293919261028592849201906105ab565b50602082810151805161029e92600185019201906105ab565b5050505050565b6102ad610629565b73ffffffffffffffffffffffffffffffffffffffff8216600090815260026020818152604092839020835181546060601f600019610100600185161502019092169590950490810184900490930281018401855293840182815290928492849184018282801561035e5780601f106103335761010080835404028352916020019161035e565b820191906000526020600020905b81548152906001019060200180831161034157829003601f168201915b50505050508152602001600182018054600181600116156101000203166002900480601f0160208091040260200160405190810160405280929190818152602001828054600181600116156101000203166002900480156104005780601f106103d557610100808354040283529160200191610400565b820191906000526020600020905b8154815290600101906020018083116103e357829003601f168201915b5050505050815250509050919050565b60035473ffffffffffffffffffffffffffffffffffffffff163314610461576040517f08c379a000000000000000000000000000000000000000000000000000000000815260040161024590610862565b600180549091019055565b60015481565b600260208181526000928352604092839020805484516001821615610100026000190190911693909304601f81018390048302840183019094528383529283918301828280156105035780601f106104d857610100808354040283529160200191610503565b820191906000526020600020905b8154815290600101906020018083116104e657829003601f168201915b505050505090806001018054600181600116156101000203166002900480601f0160208091040260200160405190810160405280929190818152602001828054600181600116156101000203166002900480156105a15780601f10610576576101008083540402835291602001916105a1565b820191906000526020600020905b81548152906001019060200180831161058457829003601f168201915b5050505050905082565b828054600181600116156101000203166002900490600052602060002090601f016020900481019282601f106105ec57805160ff1916838001178555610619565b82800160010185558215610619579182015b828111156106195782518255916020019190600101906105fe565b50610625929150610640565b5090565b604080518082019091526060808252602082015290565b61065a91905b808211156106255760008155600101610646565b90565b60006106698235610903565b9392505050565b6000601f8201831361068157600080fd5b813561069461068f826108be565b610897565b915080825260208301602083018583830111156106b057600080fd5b6106bb83828461090e565b50505092915050565b6000610669823561065a565b6000602082840312156106e257600080fd5b60006106ee848461065d565b949350505050565b6000806040838503121561070957600080fd5b823567ffffffffffffffff81111561072057600080fd5b61072c85828601610670565b925050602083013567ffffffffffffffff81111561074957600080fd5b61075585828601610670565b9150509250929050565b60006020828403121561077157600080fd5b60006106ee84846106c4565b6000610788826108e6565b80845261079c81602086016020860161091a565b6107a58161094a565b9093016020019392505050565b601181527f7065726d697373696f6e2064656e696564000000000000000000000000000000602082015260400190565b80516040808452600091908401906107fa828261077d565b91505060208301518482036020860152610814828261077d565b95945050505050565b6108268161065a565b82525050565b60208082528101610669818461077d565b6040808252810161084e818561077d565b905081810360208301526106ee818461077d565b60208082528101610872816107b2565b92915050565b6020808252810161066981846107e2565b60208101610872828461081d565b60405181810167ffffffffffffffff811182821017156108b657600080fd5b604052919050565b600067ffffffffffffffff8211156108d557600080fd5b506020601f91909101601f19160190565b5190565b73ffffffffffffffffffffffffffffffffffffffff1690565b6000610872826108ea565b82818337506000910152565b60005b8381101561093557818101518382015260200161091d565b83811115610944576000848401525b50505050565b601f01601f19169056fea265627a7a72305820c0c4f46c9678e41abce53a18cc3eeacd5f84ea20e6b3fe5135806dd1b19a98076c6578706572696d656e74616cf50037a165627a7a72305820d50da37209c2250f4fca648d81751ef5e1f06fb8cb6d4b8c4dc3d9830404130a0029",
  "source": "pragma solidity ^0.5.0;\n\n// IMPORT INTERFACE\nimport { User } from './User.sol';\n\ncontract UserManager {\n\n    // MAP OF USER INSTANCES -- [OWNER => LOCATION]\n    mapping (address => User) public users;\n\n    // ITERABLE LIST OF USERS\n    address[] public everyone;\n\n    // INIT STATUS & TASK MANAGER ADDRESS\n    bool initialized = false;\n    address task_manager;\n\n    // CHECK IF USER EXISTS\n    function exists(address user) public view returns(bool) {\n        if (address(users[user]) != 0x0000000000000000000000000000000000000000) {\n            return true;\n        } else {\n            return false;\n        }\n    }\n\n    // FETCH ALL USERS\n    function fetch_all() public view returns(address[] memory) {\n        return everyone;\n    }\n\n    // FETCH USER\n    function fetch_user(address user) public view returns(User) {\n\n        // IF THE USER EXISTS\n        require(exists(user), 'user does not exist');\n        return users[user];\n    }\n\n    // ADD ENTRY TO HASHMAP\n    function add(string memory name) public {\n\n        // IF THE CONTRACT HAS BEEN INITIALIZED\n        // IF THE USER DOES NOT EXIST\n        require(initialized, 'contract has not been initialized');\n        require(!exists(msg.sender), 'user already exists');\n\n        // PUSH ENTRY TO MAP & ARRAY\n        users[msg.sender] = new User(name, task_manager);\n        everyone.push(msg.sender);\n    }\n\n    // INITIALIZE CONTRACT\n    function init(address _task_manager) public {\n\n        // IF THE CONTRACT HAS NOT BEEN INITIALIZED\n        require(!initialized, 'contract has already been initialized');\n\n        // SET REFERENCES\n        task_manager = _task_manager;\n\n        // BLOCK FURTHER MODIFICATION\n        initialized = true;\n    }\n}",
  "sourcePath": "/home/bdalab/wickstjo/eth-contracts/contracts/user/Manager.sol",
  "compiler": {
    "name": "solc",
    "version": "0.5.0+commit.1d4f565a.Emscripten.clang"
  },
  "schemaVersion": "3.0.9",
  "updatedAt": "2019-11-07T11:38:48.759Z",
  "devdoc": {
    "methods": {}
  },
  "userdoc": {
    "methods": {}
  }
}