{
  "contractName": "UserManager",
  "abi": [
    {
      "constant": true,
      "inputs": [
        {
          "name": "",
          "type": "address"
        }
      ],
      "name": "users",
      "outputs": [
        {
          "name": "",
          "type": "address"
        }
      ],
      "payable": false,
      "stateMutability": "view",
      "type": "function"
    },
    {
      "constant": true,
      "inputs": [
        {
          "name": "user",
          "type": "address"
        }
      ],
      "name": "exists",
      "outputs": [
        {
          "name": "",
          "type": "bool"
        }
      ],
      "payable": false,
      "stateMutability": "view",
      "type": "function"
    },
    {
      "constant": true,
      "inputs": [
        {
          "name": "user",
          "type": "address"
        }
      ],
      "name": "fetch",
      "outputs": [
        {
          "name": "",
          "type": "address"
        }
      ],
      "payable": false,
      "stateMutability": "view",
      "type": "function"
    },
    {
      "constant": false,
      "inputs": [
        {
          "name": "name",
          "type": "string"
        }
      ],
      "name": "add",
      "outputs": [],
      "payable": false,
      "stateMutability": "nonpayable",
      "type": "function"
    },
    {
      "constant": false,
      "inputs": [
        {
          "name": "_task_manager",
          "type": "address"
        }
      ],
      "name": "init",
      "outputs": [],
      "payable": false,
      "stateMutability": "nonpayable",
      "type": "function"
    }
  ],
  "bytecode": "0x60806040526001805460ff1916905534801561001a57600080fd5b506110b18061002a6000396000f3fe608060405234801561001057600080fd5b50600436106100575760003560e01c806319ab453c1461005c578063a87430ba14610084578063b0c8f9dc146100c6578063f109a0be1461016c578063f6a3d24e14610192575b600080fd5b6100826004803603602081101561007257600080fd5b50356001600160a01b03166101cc565b005b6100aa6004803603602081101561009a57600080fd5b50356001600160a01b031661023f565b604080516001600160a01b039092168252519081900360200190f35b610082600480360360208110156100dc57600080fd5b8101906020810181356401000000008111156100f757600080fd5b82018360208201111561010957600080fd5b8035906020019184600183028401116401000000008311171561012b57600080fd5b91908080601f01602080910402602001604051908101604052809392919081815260200183838082843760009201919091525092955061025a945050505050565b6100aa6004803603602081101561018257600080fd5b50356001600160a01b03166103e5565b6101b8600480360360208110156101a857600080fd5b50356001600160a01b0316610466565b604080519115158252519081900360200190f35b60015460ff161561021157604051600160e51b62461bcd0281526004018080602001828103825260258152602001806110406025913960400191505060405180910390fd5b6001805460ff196001600160a01b0390931661010002610100600160a81b0319909116179190911681179055565b6000602081905290815260409020546001600160a01b031681565b60015460ff1661029e57604051600160e51b62461bcd0281526004018080602001828103825260218152602001806110656021913960400191505060405180910390fd5b6102a733610466565b156102fc5760408051600160e51b62461bcd02815260206004820152601360248201527f7573657220616c72656164792065786973747300000000000000000000000000604482015290519081900360640190fd5b600154604051829161010090046001600160a01b03169061031c90610498565b6001600160a01b03821660208083019190915260408083528451908301528351829160608301919086019080838360005b8381101561036557818101518382015260200161034d565b50505050905090810190601f1680156103925780820380516001836020036101000a031916815260200191505b509350505050604051809103906000f0801580156103b4573d6000803e3d6000fd5b5033600090815260208190526040902080546001600160a01b0319166001600160a01b039290921691909117905550565b60006103f082610466565b6104445760408051600160e51b62461bcd02815260206004820152601360248201527f7573657220646f6573206e6f7420657869737400000000000000000000000000604482015290519081900360640190fd5b506001600160a01b03808216600090815260208190526040902054165b919050565b6001600160a01b038082166000908152602081905260408120549091161561049057506001610461565b506000610461565b610b9a806104a68339019056fe608060405260006001553480156200001657600080fd5b5060405162000b9a38038062000b9a83398101806040526200003c91908101906200018d565b81516200005190600090602085019062000079565b50600380546001600160a01b0319166001600160a01b03929092169190911790555062000291565b828054600181600116156101000203166002900490600052602060002090601f016020900481019282601f10620000bc57805160ff1916838001178555620000ec565b82800160010185558215620000ec579182015b82811115620000ec578251825591602001919060010190620000cf565b50620000fa929150620000fe565b5090565b6200011b91905b80821115620000fa576000815560010162000105565b90565b80516200012b8162000277565b92915050565b600082601f8301126200014357600080fd5b81516200015a62000154826200020a565b620001e3565b915080825260208301602083018583830111156200017757600080fd5b6200018483828462000244565b50505092915050565b60008060408385031215620001a157600080fd5b82516001600160401b03811115620001b857600080fd5b620001c68582860162000131565b9250506020620001d9858286016200011e565b9150509250929050565b6040518181016001600160401b03811182821017156200020257600080fd5b604052919050565b60006001600160401b038211156200022157600080fd5b506020601f91909101601f19160190565b60006001600160a01b0382166200012b565b60005b838110156200026157818101518382015260200162000247565b8381111562000271576000848401525b50505050565b620002828162000232565b81146200028e57600080fd5b50565b6108f980620002a16000396000f3fe608060405234801561001057600080fd5b50600436106100625760003560e01c806306fdde03146100675780632b8a74a4146100855780638d9ff2cf1461009a578063a9fb763c146100ba578063c52164c6146100cd578063ef378f62146100e2575b600080fd5b61006f610103565b60405161007c9190610780565b60405180910390f35b61009861009336600461063e565b610191565b005b6100ad6100a8366004610618565b61021e565b60405161007c91906107cd565b6100986100c83660046106a7565b61037c565b6100d56103b4565b60405161007c91906107de565b6100f56100f0366004610618565b6103ba565b60405161007c929190610798565b6000805460408051602060026001851615610100026000190190941693909304601f810184900484028201840190925281815292918301828280156101895780601f1061015e57610100808354040283529160200191610189565b820191906000526020600020905b81548152906001019060200180831161016c57829003601f168201915b505050505081565b6003546001600160a01b031633146101c757604051600160e51b62461bcd0281526004016101be906107bd565b60405180910390fd5b6040805180820182528381526020808201849052336000908152600282529290922081518051929391926101fe92849201906104f3565b50602082810151805161021792600185019201906104f3565b5050505050565b610226610571565b6001600160a01b038216600090815260026020818152604092839020835181546060601f60001961010060018516150201909216959095049081018490049093028101840185529384018281529092849284918401828280156102ca5780601f1061029f576101008083540402835291602001916102ca565b820191906000526020600020905b8154815290600101906020018083116102ad57829003601f168201915b50505050508152602001600182018054600181600116156101000203166002900480601f01602080910402602001604051908101604052809291908181526020018280546001816001161561010002031660029004801561036c5780601f106103415761010080835404028352916020019161036c565b820191906000526020600020905b81548152906001019060200180831161034f57829003601f168201915b5050505050815250509050919050565b6003546001600160a01b031633146103a957604051600160e51b62461bcd0281526004016101be906107bd565b600180549091019055565b60015481565b600260208181526000928352604092839020805484516001821615610100026000190190911693909304601f810183900483028401830190945283835292839183018282801561044b5780601f106104205761010080835404028352916020019161044b565b820191906000526020600020905b81548152906001019060200180831161042e57829003601f168201915b505050505090806001018054600181600116156101000203166002900480601f0160208091040260200160405190810160405280929190818152602001828054600181600116156101000203166002900480156104e95780601f106104be576101008083540402835291602001916104e9565b820191906000526020600020905b8154815290600101906020018083116104cc57829003601f168201915b5050505050905082565b828054600181600116156101000203166002900490600052602060002090601f016020900481019282601f1061053457805160ff1916838001178555610561565b82800160010185558215610561579182015b82811115610561578251825591602001919060010190610546565b5061056d92915061058b565b5090565b604051806040016040528060608152602001606081525090565b6105a591905b8082111561056d5760008155600101610591565b90565b80356105b38161089f565b92915050565b600082601f8301126105ca57600080fd5b81356105dd6105d882610813565b6107ec565b915080825260208301602083018583830111156105f957600080fd5b610604838284610859565b50505092915050565b80356105b3816108b6565b60006020828403121561062a57600080fd5b600061063684846105a8565b949350505050565b6000806040838503121561065157600080fd5b823567ffffffffffffffff81111561066857600080fd5b610674858286016105b9565b925050602083013567ffffffffffffffff81111561069157600080fd5b61069d858286016105b9565b9150509250929050565b6000602082840312156106b957600080fd5b6000610636848461060d565b60006106d08261083b565b6106da818561083f565b93506106ea818560208601610865565b6106f381610895565b9093019392505050565b600061070a60118361083f565b7f7065726d697373696f6e2064656e696564000000000000000000000000000000815260200192915050565b805160408084526000919084019061074e82826106c5565b9150506020830151848203602086015261076882826106c5565b95945050505050565b61077a816105a5565b82525050565b6020808252810161079181846106c5565b9392505050565b604080825281016107a981856106c5565b9050818103602083015261063681846106c5565b602080825281016105b3816106fd565b602080825281016107918184610736565b602081016105b38284610771565b60405181810167ffffffffffffffff8111828210171561080b57600080fd5b604052919050565b600067ffffffffffffffff82111561082a57600080fd5b506020601f91909101601f19160190565b5190565b90815260200190565b60006001600160a01b0382166105b3565b82818337506000910152565b60005b83811015610880578181015183820152602001610868565b8381111561088f576000848401525b50505050565b601f01601f191690565b6108a881610848565b81146108b357600080fd5b50565b6108a8816105a556fea265627a7a72305820125126ce4cd61c65675147c1a015c2cbaf8bc8d96a640f892ed94e633a6852a16c6578706572696d656e74616cf50037636f6e74726163742068617320616c7265616479206265656e20696e697469616c697a6564636f6e747261637420686173206e6f74206265656e20696e697469616c697a6564a165627a7a723058203d13b9926e701902c3dc67933a7f01b4185201658940b0aecebed6913ffdd0f50029",
  "source": "pragma solidity ^0.5.0;\n\n// IMPORT INTERFACE\nimport { User } from './User.sol';\n\ncontract UserManager {\n\n    // HASHMAP OF USER CONTRACTS -- [OWNER => LOCATION]\n    mapping (address => User) public users;\n\n    // INIT STATUS & TASK MANAGER ADDRESS\n    bool initialized = false;\n    address task_manager;\n\n    // CHECK IF USER EXISTS\n    function exists(address user) public view returns(bool) {\n        if (address(users[user]) != 0x0000000000000000000000000000000000000000) {\n            return true;\n        } else {\n            return false;\n        }\n    }\n\n    // FETCH USER\n    function fetch(address user) public view returns(User) {\n\n        // IF THE USER EXISTS\n        require(exists(user), 'user does not exist');\n        return users[user];\n    }\n\n    // ADD ENTRY TO HASHMAP\n    function add(string memory name) public {\n\n        // IF THE CONTRACT HAS BEEN INITIALIZED\n        // IF THE USER DOES NOT EXIST\n        require(initialized, 'contract has not been initialized');\n        require(!exists(msg.sender), 'user already exists');\n\n        // PUSH ENTRY TO HASHMAP\n        users[msg.sender] = new User(name, task_manager);\n    }\n\n    // INITIALIZE CONTRACT\n    function init(address _task_manager) public {\n\n        // IF THE CONTRACT HAS NOT BEEN INITIALIZED\n        require(!initialized, 'contract has already been initialized');\n\n        // SET REFERENCES\n        task_manager = _task_manager;\n\n        // BLOCK FURTHER MODIFICATION\n        initialized = true;\n    }\n}",
  "sourcePath": "C:\\Users\\35840\\Desktop\\coding\\node\\eth-contracts\\contracts\\user\\Manager.sol",
  "compiler": {
    "name": "solc",
    "version": "0.5.8+commit.23d335f2.Emscripten.clang"
  },
  "schemaVersion": "3.0.17",
  "updatedAt": "2019-11-06T20:02:22.565Z",
  "devdoc": {
    "methods": {}
  },
  "userdoc": {
    "methods": {}
  }
}